{
  "_format": "hh-sol-artifact-1",
  "contractName": "BillingManager",
  "sourceName": "contracts/BillingManager.sol",
  "abi": [
    {
      "inputs": [
        {
          "internalType": "address",
          "name": "_master",
          "type": "address"
        },
        {
          "internalType": "contract IERC20",
          "name": "_heatToken",
          "type": "address"
        }
      ],
      "stateMutability": "nonpayable",
      "type": "constructor"
    },
    {
      "anonymous": false,
      "inputs": [
        {
          "indexed": true,
          "internalType": "address",
          "name": "biller",
          "type": "address"
        },
        {
          "indexed": true,
          "internalType": "address",
          "name": "billee",
          "type": "address"
        },
        {
          "indexed": false,
          "internalType": "uint256",
          "name": "amount",
          "type": "uint256"
        },
        {
          "indexed": false,
          "internalType": "string",
          "name": "billId",
          "type": "string"
        }
      ],
      "name": "BillIssued",
      "type": "event"
    },
    {
      "anonymous": false,
      "inputs": [
        {
          "indexed": true,
          "internalType": "address",
          "name": "billee",
          "type": "address"
        },
        {
          "indexed": false,
          "internalType": "uint256",
          "name": "amount",
          "type": "uint256"
        },
        {
          "indexed": false,
          "internalType": "string",
          "name": "billId",
          "type": "string"
        }
      ],
      "name": "PaymentMade",
      "type": "event"
    },
    {
      "anonymous": false,
      "inputs": [
        {
          "indexed": false,
          "internalType": "uint256",
          "name": "amount",
          "type": "uint256"
        }
      ],
      "name": "TNCYBurned",
      "type": "event"
    },
    {
      "inputs": [
        {
          "internalType": "string",
          "name": "",
          "type": "string"
        }
      ],
      "name": "billsById",
      "outputs": [
        {
          "internalType": "string",
          "name": "billId",
          "type": "string"
        },
        {
          "internalType": "bool",
          "name": "paid",
          "type": "bool"
        },
        {
          "internalType": "address",
          "name": "biller",
          "type": "address"
        },
        {
          "internalType": "address",
          "name": "billee",
          "type": "address"
        },
        {
          "internalType": "uint256",
          "name": "amountTNCY",
          "type": "uint256"
        },
        {
          "internalType": "uint256",
          "name": "dateIssuance",
          "type": "uint256"
        },
        {
          "internalType": "uint256",
          "name": "datePaid",
          "type": "uint256"
        },
        {
          "internalType": "string",
          "name": "description",
          "type": "string"
        }
      ],
      "stateMutability": "view",
      "type": "function"
    },
    {
      "inputs": [
        {
          "internalType": "address",
          "name": "_billee",
          "type": "address"
        },
        {
          "internalType": "address",
          "name": "_biller",
          "type": "address"
        },
        {
          "internalType": "uint256",
          "name": "_amountTNCY",
          "type": "uint256"
        },
        {
          "internalType": "string",
          "name": "_description",
          "type": "string"
        },
        {
          "internalType": "string",
          "name": "_billId",
          "type": "string"
        }
      ],
      "name": "createBill",
      "outputs": [],
      "stateMutability": "nonpayable",
      "type": "function"
    },
    {
      "inputs": [
        {
          "internalType": "address",
          "name": "_tenant",
          "type": "address"
        }
      ],
      "name": "getBills",
      "outputs": [
        {
          "components": [
            {
              "internalType": "string",
              "name": "billId",
              "type": "string"
            },
            {
              "internalType": "bool",
              "name": "paid",
              "type": "bool"
            },
            {
              "internalType": "address",
              "name": "biller",
              "type": "address"
            },
            {
              "internalType": "address",
              "name": "billee",
              "type": "address"
            },
            {
              "internalType": "uint256",
              "name": "amountTNCY",
              "type": "uint256"
            },
            {
              "internalType": "uint256",
              "name": "dateIssuance",
              "type": "uint256"
            },
            {
              "internalType": "uint256",
              "name": "datePaid",
              "type": "uint256"
            },
            {
              "internalType": "string",
              "name": "description",
              "type": "string"
            }
          ],
          "internalType": "struct Bill[]",
          "name": "",
          "type": "tuple[]"
        }
      ],
      "stateMutability": "view",
      "type": "function"
    },
    {
      "inputs": [
        {
          "internalType": "address",
          "name": "_tenant",
          "type": "address"
        }
      ],
      "name": "getOutstandingBalance",
      "outputs": [
        {
          "internalType": "uint256",
          "name": "",
          "type": "uint256"
        }
      ],
      "stateMutability": "view",
      "type": "function"
    },
    {
      "inputs": [],
      "name": "heatPerKwh",
      "outputs": [
        {
          "internalType": "uint256",
          "name": "",
          "type": "uint256"
        }
      ],
      "stateMutability": "view",
      "type": "function"
    },
    {
      "inputs": [],
      "name": "heatToken",
      "outputs": [
        {
          "internalType": "contract IERC20",
          "name": "",
          "type": "address"
        }
      ],
      "stateMutability": "view",
      "type": "function"
    },
    {
      "inputs": [],
      "name": "masterOwner",
      "outputs": [
        {
          "internalType": "address",
          "name": "",
          "type": "address"
        }
      ],
      "stateMutability": "view",
      "type": "function"
    },
    {
      "inputs": [
        {
          "internalType": "address",
          "name": "",
          "type": "address"
        }
      ],
      "name": "outstandingBalance",
      "outputs": [
        {
          "internalType": "uint256",
          "name": "",
          "type": "uint256"
        }
      ],
      "stateMutability": "view",
      "type": "function"
    },
    {
      "inputs": [
        {
          "internalType": "string",
          "name": "_billId",
          "type": "string"
        },
        {
          "internalType": "address",
          "name": "_payer",
          "type": "address"
        }
      ],
      "name": "payBill",
      "outputs": [
        {
          "internalType": "bool",
          "name": "",
          "type": "bool"
        }
      ],
      "stateMutability": "nonpayable",
      "type": "function"
    },
    {
      "inputs": [
        {
          "internalType": "address",
          "name": "",
          "type": "address"
        },
        {
          "internalType": "uint256",
          "name": "",
          "type": "uint256"
        }
      ],
      "name": "tenantBillIds",
      "outputs": [
        {
          "internalType": "string",
          "name": "",
          "type": "string"
        }
      ],
      "stateMutability": "view",
      "type": "function"
    }
  ],
  "bytecode": "0x6080604052670de0b6b3a764000060025534801561001c57600080fd5b50604051611ee7380380611ee7833981810160405281019061003e9190610167565b81600160006101000a81548173ffffffffffffffffffffffffffffffffffffffff021916908373ffffffffffffffffffffffffffffffffffffffff160217905550806000806101000a81548173ffffffffffffffffffffffffffffffffffffffff021916908373ffffffffffffffffffffffffffffffffffffffff16021790555050506101a7565b600080fd5b600073ffffffffffffffffffffffffffffffffffffffff82169050919050565b60006100f6826100cb565b9050919050565b610106816100eb565b811461011157600080fd5b50565b600081519050610123816100fd565b92915050565b6000610134826100eb565b9050919050565b61014481610129565b811461014f57600080fd5b50565b6000815190506101618161013b565b92915050565b6000806040838503121561017e5761017d6100c6565b5b600061018c85828601610114565b925050602061019d85828601610152565b9150509250929050565b611d31806101b66000396000f3fe608060405234801561001057600080fd5b506004361061009e5760003560e01c80638ddcdc5b116100665780638ddcdc5b1461019a578063a343fc12146101b8578063ae428d78146101d4578063e7201d7d146101f2578063f4858c66146102105761009e565b806345a132aa146100a357806351c87677146100d35780636a6da61e14610103578063755873c51461013357806382c3807b14610163575b600080fd5b6100bd60048036038101906100b89190610fed565b610240565b6040516100ca9190611266565b60405180910390f35b6100ed60048036038101906100e891906112b4565b61063d565b6040516100fa919061133e565b60405180910390f35b61011d60048036038101906101189190610fed565b6106f6565b60405161012a919061136f565b60405180910390f35b61014d60048036038101906101489190610fed565b61070e565b60405161015a919061136f565b60405180910390f35b61017d600480360381019061017891906114bf565b610757565b604051610191989796959493929190611526565b60405180910390f35b6101a2610912565b6040516101af919061136f565b60405180910390f35b6101d260048036038101906101cd91906115b2565b610918565b005b6101dc610c49565b6040516101e991906116c4565b60405180910390f35b6101fa610c6d565b60405161020791906116df565b60405180910390f35b61022a600480360381019061022591906116fa565b610c93565b6040516102379190611756565b60405180910390f35b60606000600560008473ffffffffffffffffffffffffffffffffffffffff1673ffffffffffffffffffffffffffffffffffffffff168152602001908152602001600020805480602002602001604051908101604052809291908181526020016000905b8282101561034f5783829060005260206000200180546102c2906117a0565b80601f01602080910402602001604051908101604052809291908181526020018280546102ee906117a0565b801561033b5780601f106103105761010080835404028352916020019161033b565b820191906000526020600020905b81548152906001019060200180831161031e57829003601f168201915b5050505050815260200190600101906102a3565b5050505090506000815167ffffffffffffffff81111561037257610371611394565b5b6040519080825280602002602001820160405280156103ab57816020015b610398610f08565b8152602001906001900390816103905790505b50905060005b82518110156106325760048382815181106103cf576103ce6117d1565b5b60200260200101516040516103e4919061183c565b90815260200160405180910390206040518061010001604052908160008201805461040e906117a0565b80601f016020809104026020016040519081016040528092919081815260200182805461043a906117a0565b80156104875780601f1061045c57610100808354040283529160200191610487565b820191906000526020600020905b81548152906001019060200180831161046a57829003601f168201915b505050505081526020016001820160009054906101000a900460ff161515151581526020016001820160019054906101000a900473ffffffffffffffffffffffffffffffffffffffff1673ffffffffffffffffffffffffffffffffffffffff1673ffffffffffffffffffffffffffffffffffffffff1681526020016002820160009054906101000a900473ffffffffffffffffffffffffffffffffffffffff1673ffffffffffffffffffffffffffffffffffffffff1673ffffffffffffffffffffffffffffffffffffffff168152602001600382015481526020016004820154815260200160058201548152602001600682018054610585906117a0565b80601f01602080910402602001604051908101604052809291908181526020018280546105b1906117a0565b80156105fe5780601f106105d3576101008083540402835291602001916105fe565b820191906000526020600020905b8154815290600101906020018083116105e157829003601f168201915b50505050508152505082828151811061061a576106196117d1565b5b602002602001018190525080806001019150506103b1565b508092505050919050565b6005602052816000526040600020818154811061065957600080fd5b90600052602060002001600091509150508054610675906117a0565b80601f01602080910402602001604051908101604052809291908181526020018280546106a1906117a0565b80156106ee5780601f106106c3576101008083540402835291602001916106ee565b820191906000526020600020905b8154815290600101906020018083116106d157829003601f168201915b505050505081565b60036020528060005260406000206000915090505481565b6000600360008373ffffffffffffffffffffffffffffffffffffffff1673ffffffffffffffffffffffffffffffffffffffff168152602001908152602001600020549050919050565b600481805160208101820180518482526020830160208501208183528095505050505050600091509050806000018054610790906117a0565b80601f01602080910402602001604051908101604052809291908181526020018280546107bc906117a0565b80156108095780601f106107de57610100808354040283529160200191610809565b820191906000526020600020905b8154815290600101906020018083116107ec57829003601f168201915b5050505050908060010160009054906101000a900460ff16908060010160019054906101000a900473ffffffffffffffffffffffffffffffffffffffff16908060020160009054906101000a900473ffffffffffffffffffffffffffffffffffffffff169080600301549080600401549080600501549080600601805461088f906117a0565b80601f01602080910402602001604051908101604052809291908181526020018280546108bb906117a0565b80156109085780601f106108dd57610100808354040283529160200191610908565b820191906000526020600020905b8154815290600101906020018083116108eb57829003601f168201915b5050505050905088565b60025481565b80600060048260405161092b919061183c565b90815260200160405180910390206000018054610947906117a0565b905014610989576040517f08c379a00000000000000000000000000000000000000000000000000000000081526004016109809061189f565b60405180910390fd5b60006040518061010001604052808481526020016000151581526020018773ffffffffffffffffffffffffffffffffffffffff1681526020018873ffffffffffffffffffffffffffffffffffffffff1681526020018681526020014281526020016000815260200185815250905080600484604051610a08919061183c565b90815260200160405180910390206000820151816000019081610a2b9190611a61565b5060208201518160010160006101000a81548160ff02191690831515021790555060408201518160010160016101000a81548173ffffffffffffffffffffffffffffffffffffffff021916908373ffffffffffffffffffffffffffffffffffffffff16021790555060608201518160020160006101000a81548173ffffffffffffffffffffffffffffffffffffffff021916908373ffffffffffffffffffffffffffffffffffffffff1602179055506080820151816003015560a0820151816004015560c0820151816005015560e0820151816006019081610b0d9190611a61565b50905050600560008873ffffffffffffffffffffffffffffffffffffffff1673ffffffffffffffffffffffffffffffffffffffff16815260200190815260200160002083908060018154018082558091505060019003906000526020600020016000909190919091509081610b829190611a61565b5084600360008973ffffffffffffffffffffffffffffffffffffffff1673ffffffffffffffffffffffffffffffffffffffff1681526020019081526020016000206000828254610bd29190611b62565b925050819055508673ffffffffffffffffffffffffffffffffffffffff163373ffffffffffffffffffffffffffffffffffffffff167fb810f68ef93d0b5c98b363f0d47a6e1f3e9af7ea538b02fc226ad84eb32f77a08786604051610c38929190611b96565b60405180910390a350505050505050565b60008054906101000a900473ffffffffffffffffffffffffffffffffffffffff1681565b600160009054906101000a900473ffffffffffffffffffffffffffffffffffffffff1681565b600080600484604051610ca6919061183c565b908152602001604051809103902090508060010160009054906101000a900460ff1615610d08576040517f08c379a0000000000000000000000000000000000000000000000000000000008152600401610cff90611c12565b60405180910390fd5b8060020160009054906101000a900473ffffffffffffffffffffffffffffffffffffffff1673ffffffffffffffffffffffffffffffffffffffff168373ffffffffffffffffffffffffffffffffffffffff1614610d9a576040517f08c379a0000000000000000000000000000000000000000000000000000000008152600401610d9190611c7e565b60405180910390fd5b60008160030154905060008054906101000a900473ffffffffffffffffffffffffffffffffffffffff1673ffffffffffffffffffffffffffffffffffffffff166379cc679085836040518363ffffffff1660e01b8152600401610dfe929190611c9e565b600060405180830381600087803b158015610e1857600080fd5b505af1158015610e2c573d6000803e3d6000fd5b5050505060018260010160006101000a81548160ff02191690831515021790555042826005018190555080600360008673ffffffffffffffffffffffffffffffffffffffff1673ffffffffffffffffffffffffffffffffffffffff1681526020019081526020016000206000828254610ea59190611cc7565b925050819055508373ffffffffffffffffffffffffffffffffffffffff167f5ce0614a46459714585c219d6fb0dd3a4b01b81fc18567ebe68bf418067c91d48287604051610ef4929190611b96565b60405180910390a260019250505092915050565b60405180610100016040528060608152602001600015158152602001600073ffffffffffffffffffffffffffffffffffffffff168152602001600073ffffffffffffffffffffffffffffffffffffffff168152602001600081526020016000815260200160008152602001606081525090565b6000604051905090565b600080fd5b600080fd5b600073ffffffffffffffffffffffffffffffffffffffff82169050919050565b6000610fba82610f8f565b9050919050565b610fca81610faf565b8114610fd557600080fd5b50565b600081359050610fe781610fc1565b92915050565b60006020828403121561100357611002610f85565b5b600061101184828501610fd8565b91505092915050565b600081519050919050565b600082825260208201905092915050565b6000819050602082019050919050565b600081519050919050565b600082825260208201905092915050565b60005b83811015611080578082015181840152602081019050611065565b60008484015250505050565b6000601f19601f8301169050919050565b60006110a882611046565b6110b28185611051565b93506110c2818560208601611062565b6110cb8161108c565b840191505092915050565b60008115159050919050565b6110eb816110d6565b82525050565b6110fa81610faf565b82525050565b6000819050919050565b61111381611100565b82525050565b6000610100830160008301518482036000860152611137828261109d565b915050602083015161114c60208601826110e2565b50604083015161115f60408601826110f1565b50606083015161117260608601826110f1565b506080830151611185608086018261110a565b5060a083015161119860a086018261110a565b5060c08301516111ab60c086018261110a565b5060e083015184820360e08601526111c3828261109d565b9150508091505092915050565b60006111dc8383611119565b905092915050565b6000602082019050919050565b60006111fc8261101a565b6112068185611025565b93508360208202850161121885611036565b8060005b85811015611254578484038952815161123585826111d0565b9450611240836111e4565b925060208a0199505060018101905061121c565b50829750879550505050505092915050565b6000602082019050818103600083015261128081846111f1565b905092915050565b61129181611100565b811461129c57600080fd5b50565b6000813590506112ae81611288565b92915050565b600080604083850312156112cb576112ca610f85565b5b60006112d985828601610fd8565b92505060206112ea8582860161129f565b9150509250929050565b600082825260208201905092915050565b600061131082611046565b61131a81856112f4565b935061132a818560208601611062565b6113338161108c565b840191505092915050565b600060208201905081810360008301526113588184611305565b905092915050565b61136981611100565b82525050565b60006020820190506113846000830184611360565b92915050565b600080fd5b600080fd5b7f4e487b7100000000000000000000000000000000000000000000000000000000600052604160045260246000fd5b6113cc8261108c565b810181811067ffffffffffffffff821117156113eb576113ea611394565b5b80604052505050565b60006113fe610f7b565b905061140a82826113c3565b919050565b600067ffffffffffffffff82111561142a57611429611394565b5b6114338261108c565b9050602081019050919050565b82818337600083830152505050565b600061146261145d8461140f565b6113f4565b90508281526020810184848401111561147e5761147d61138f565b5b611489848285611440565b509392505050565b600082601f8301126114a6576114a561138a565b5b81356114b684826020860161144f565b91505092915050565b6000602082840312156114d5576114d4610f85565b5b600082013567ffffffffffffffff8111156114f3576114f2610f8a565b5b6114ff84828501611491565b91505092915050565b611511816110d6565b82525050565b61152081610faf565b82525050565b6000610100820190508181036000830152611541818b611305565b9050611550602083018a611508565b61155d6040830189611517565b61156a6060830188611517565b6115776080830187611360565b61158460a0830186611360565b61159160c0830185611360565b81810360e08301526115a38184611305565b90509998505050505050505050565b600080600080600060a086880312156115ce576115cd610f85565b5b60006115dc88828901610fd8565b95505060206115ed88828901610fd8565b94505060406115fe8882890161129f565b935050606086013567ffffffffffffffff81111561161f5761161e610f8a565b5b61162b88828901611491565b925050608086013567ffffffffffffffff81111561164c5761164b610f8a565b5b61165888828901611491565b9150509295509295909350565b6000819050919050565b600061168a61168561168084610f8f565b611665565b610f8f565b9050919050565b600061169c8261166f565b9050919050565b60006116ae82611691565b9050919050565b6116be816116a3565b82525050565b60006020820190506116d960008301846116b5565b92915050565b60006020820190506116f46000830184611517565b92915050565b6000806040838503121561171157611710610f85565b5b600083013567ffffffffffffffff81111561172f5761172e610f8a565b5b61173b85828601611491565b925050602061174c85828601610fd8565b9150509250929050565b600060208201905061176b6000830184611508565b92915050565b7f4e487b7100000000000000000000000000000000000000000000000000000000600052602260045260246000fd5b600060028204905060018216806117b857607f821691505b6020821081036117cb576117ca611771565b5b50919050565b7f4e487b7100000000000000000000000000000000000000000000000000000000600052603260045260246000fd5b600081905092915050565b600061181682611046565b6118208185611800565b9350611830818560208601611062565b80840191505092915050565b6000611848828461180b565b915081905092915050565b7f42696c6c20494420616c72656164792065786973747300000000000000000000600082015250565b60006118896016836112f4565b915061189482611853565b602082019050919050565b600060208201905081810360008301526118b88161187c565b9050919050565b60008190508160005260206000209050919050565b60006020601f8301049050919050565b600082821b905092915050565b6000600883026119217fffffffffffffffffffffffffffffffffffffffffffffffffffffffffffffffff826118e4565b61192b86836118e4565b95508019841693508086168417925050509392505050565b600061195e61195961195484611100565b611665565b611100565b9050919050565b6000819050919050565b61197883611943565b61198c61198482611965565b8484546118f1565b825550505050565b600090565b6119a1611994565b6119ac81848461196f565b505050565b5b818110156119d0576119c5600082611999565b6001810190506119b2565b5050565b601f821115611a15576119e6816118bf565b6119ef846118d4565b810160208510156119fe578190505b611a12611a0a856118d4565b8301826119b1565b50505b505050565b600082821c905092915050565b6000611a3860001984600802611a1a565b1980831691505092915050565b6000611a518383611a27565b9150826002028217905092915050565b611a6a82611046565b67ffffffffffffffff811115611a8357611a82611394565b5b611a8d82546117a0565b611a988282856119d4565b600060209050601f831160018114611acb5760008415611ab9578287015190505b611ac38582611a45565b865550611b2b565b601f198416611ad9866118bf565b60005b82811015611b0157848901518255600182019150602085019450602081019050611adc565b86831015611b1e5784890151611b1a601f891682611a27565b8355505b6001600288020188555050505b505050505050565b7f4e487b7100000000000000000000000000000000000000000000000000000000600052601160045260246000fd5b6000611b6d82611100565b9150611b7883611100565b9250828201905080821115611b9057611b8f611b33565b5b92915050565b6000604082019050611bab6000830185611360565b8181036020830152611bbd8184611305565b90509392505050565b7f42696c6c20616c72656164792070616964000000000000000000000000000000600082015250565b6000611bfc6011836112f4565b9150611c0782611bc6565b602082019050919050565b60006020820190508181036000830152611c2b81611bef565b9050919050565b7f4e6f74207468652062696c6c6565000000000000000000000000000000000000600082015250565b6000611c68600e836112f4565b9150611c7382611c32565b602082019050919050565b60006020820190508181036000830152611c9781611c5b565b9050919050565b6000604082019050611cb36000830185611517565b611cc06020830184611360565b9392505050565b6000611cd282611100565b9150611cdd83611100565b9250828203905081811115611cf557611cf4611b33565b5b9291505056fea26469706673582212202e4f5f945dc6892940e59e1fcc3cc5d5b20429b8bbc1f8520bacb4f3e36f453f64736f6c634300081c0033",
  "linkReferences": {},
  "deployedLinkReferences": {}
}