{
  "_format": "hh-sol-artifact-1",
  "contractName": "SmartMeterCollection",
  "sourceName": "contracts/SmartMeterCollection.sol",
  "abi": [
    {
      "inputs": [
        {
          "internalType": "address",
          "name": "_master",
          "type": "address"
        }
      ],
      "stateMutability": "nonpayable",
      "type": "constructor"
    },
    {
      "anonymous": false,
      "inputs": [
        {
          "indexed": true,
          "internalType": "address",
          "name": "meter",
          "type": "address"
        },
        {
          "indexed": false,
          "internalType": "uint256",
          "name": "timestamp",
          "type": "uint256"
        },
        {
          "indexed": false,
          "internalType": "uint256",
          "name": "value",
          "type": "uint256"
        }
      ],
      "name": "DataRecorded",
      "type": "event"
    },
    {
      "anonymous": false,
      "inputs": [
        {
          "indexed": false,
          "internalType": "string",
          "name": "name",
          "type": "string"
        },
        {
          "indexed": false,
          "internalType": "string",
          "name": "ownerName",
          "type": "string"
        },
        {
          "indexed": true,
          "internalType": "address",
          "name": "smartMeterAddress",
          "type": "address"
        },
        {
          "indexed": false,
          "internalType": "string",
          "name": "smartMeterId",
          "type": "string"
        }
      ],
      "name": "MeterRegistered",
      "type": "event"
    },
    {
      "inputs": [],
      "name": "INITIAL_TENANT_SUPPLY",
      "outputs": [
        {
          "internalType": "uint256",
          "name": "",
          "type": "uint256"
        }
      ],
      "stateMutability": "view",
      "type": "function"
    },
    {
      "inputs": [
        {
          "internalType": "address",
          "name": "_tenant",
          "type": "address"
        },
        {
          "internalType": "string",
          "name": "_fullName",
          "type": "string"
        },
        {
          "internalType": "address",
          "name": "_smartMeterAddress",
          "type": "address"
        }
      ],
      "name": "addTenant",
      "outputs": [],
      "stateMutability": "nonpayable",
      "type": "function"
    },
    {
      "inputs": [],
      "name": "billingManager",
      "outputs": [
        {
          "internalType": "contract BillingManager",
          "name": "",
          "type": "address"
        }
      ],
      "stateMutability": "view",
      "type": "function"
    },
    {
      "inputs": [
        {
          "internalType": "address",
          "name": "_billee",
          "type": "address"
        },
        {
          "internalType": "uint256",
          "name": "_amountHEAT",
          "type": "uint256"
        },
        {
          "internalType": "string",
          "name": "_description",
          "type": "string"
        },
        {
          "internalType": "string",
          "name": "_billId",
          "type": "string"
        }
      ],
      "name": "createBill",
      "outputs": [],
      "stateMutability": "nonpayable",
      "type": "function"
    },
    {
      "inputs": [
        {
          "internalType": "address",
          "name": "_tenantAddress",
          "type": "address"
        }
      ],
      "name": "getAssignedSmartMeterAddress",
      "outputs": [
        {
          "internalType": "address",
          "name": "",
          "type": "address"
        }
      ],
      "stateMutability": "view",
      "type": "function"
    },
    {
      "inputs": [
        {
          "internalType": "address",
          "name": "_tenant",
          "type": "address"
        }
      ],
      "name": "getBills",
      "outputs": [
        {
          "components": [
            {
              "internalType": "string",
              "name": "billId",
              "type": "string"
            },
            {
              "internalType": "bool",
              "name": "paid",
              "type": "bool"
            },
            {
              "internalType": "address",
              "name": "biller",
              "type": "address"
            },
            {
              "internalType": "address",
              "name": "billee",
              "type": "address"
            },
            {
              "internalType": "uint256",
              "name": "amountHEAT",
              "type": "uint256"
            },
            {
              "internalType": "uint256",
              "name": "dateIssuance",
              "type": "uint256"
            },
            {
              "internalType": "uint256",
              "name": "datePaid",
              "type": "uint256"
            },
            {
              "internalType": "string",
              "name": "description",
              "type": "string"
            }
          ],
          "internalType": "struct Bill[]",
          "name": "",
          "type": "tuple[]"
        }
      ],
      "stateMutability": "view",
      "type": "function"
    },
    {
      "inputs": [],
      "name": "getHEATAddress",
      "outputs": [
        {
          "internalType": "address",
          "name": "",
          "type": "address"
        }
      ],
      "stateMutability": "view",
      "type": "function"
    },
    {
      "inputs": [
        {
          "internalType": "address",
          "name": "_meterAddress",
          "type": "address"
        }
      ],
      "name": "getMeterData",
      "outputs": [
        {
          "components": [
            {
              "internalType": "uint256",
              "name": "timestamp",
              "type": "uint256"
            },
            {
              "internalType": "uint256",
              "name": "value",
              "type": "uint256"
            },
            {
              "internalType": "string",
              "name": "unit",
              "type": "string"
            }
          ],
          "internalType": "struct Measurement[]",
          "name": "",
          "type": "tuple[]"
        }
      ],
      "stateMutability": "view",
      "type": "function"
    },
    {
      "inputs": [
        {
          "internalType": "address",
          "name": "_meterAddress",
          "type": "address"
        }
      ],
      "name": "getMeterInfo",
      "outputs": [
        {
          "components": [
            {
              "internalType": "string",
              "name": "name",
              "type": "string"
            },
            {
              "internalType": "string",
              "name": "ownerName",
              "type": "string"
            },
            {
              "internalType": "address",
              "name": "smartMeterAddress",
              "type": "address"
            },
            {
              "internalType": "string",
              "name": "smartMeterId",
              "type": "string"
            },
            {
              "internalType": "bool",
              "name": "isActive",
              "type": "bool"
            }
          ],
          "internalType": "struct SmartMeter",
          "name": "",
          "type": "tuple"
        }
      ],
      "stateMutability": "view",
      "type": "function"
    },
    {
      "inputs": [],
      "name": "getOutstandingBalance",
      "outputs": [
        {
          "internalType": "uint256",
          "name": "",
          "type": "uint256"
        }
      ],
      "stateMutability": "view",
      "type": "function"
    },
    {
      "inputs": [],
      "name": "getRole",
      "outputs": [
        {
          "internalType": "string",
          "name": "",
          "type": "string"
        }
      ],
      "stateMutability": "view",
      "type": "function"
    },
    {
      "inputs": [],
      "name": "getSmartMeters",
      "outputs": [
        {
          "internalType": "address[]",
          "name": "",
          "type": "address[]"
        }
      ],
      "stateMutability": "view",
      "type": "function"
    },
    {
      "inputs": [],
      "name": "getTenants",
      "outputs": [
        {
          "internalType": "address[]",
          "name": "",
          "type": "address[]"
        }
      ],
      "stateMutability": "view",
      "type": "function"
    },
    {
      "inputs": [],
      "name": "getTokenBalance",
      "outputs": [
        {
          "internalType": "uint256",
          "name": "",
          "type": "uint256"
        }
      ],
      "stateMutability": "view",
      "type": "function"
    },
    {
      "inputs": [],
      "name": "heatToken",
      "outputs": [
        {
          "internalType": "contract HEAT",
          "name": "",
          "type": "address"
        }
      ],
      "stateMutability": "view",
      "type": "function"
    },
    {
      "inputs": [],
      "name": "masterOwner",
      "outputs": [
        {
          "internalType": "address",
          "name": "",
          "type": "address"
        }
      ],
      "stateMutability": "view",
      "type": "function"
    },
    {
      "inputs": [
        {
          "internalType": "address",
          "name": "",
          "type": "address"
        },
        {
          "internalType": "uint256",
          "name": "",
          "type": "uint256"
        }
      ],
      "name": "meterData",
      "outputs": [
        {
          "internalType": "uint256",
          "name": "timestamp",
          "type": "uint256"
        },
        {
          "internalType": "uint256",
          "name": "value",
          "type": "uint256"
        },
        {
          "internalType": "string",
          "name": "unit",
          "type": "string"
        }
      ],
      "stateMutability": "view",
      "type": "function"
    },
    {
      "inputs": [
        {
          "internalType": "address",
          "name": "to",
          "type": "address"
        },
        {
          "internalType": "uint256",
          "name": "amount",
          "type": "uint256"
        }
      ],
      "name": "mintHEAT",
      "outputs": [],
      "stateMutability": "nonpayable",
      "type": "function"
    },
    {
      "inputs": [
        {
          "internalType": "string",
          "name": "_billId",
          "type": "string"
        },
        {
          "internalType": "address",
          "name": "payer",
          "type": "address"
        }
      ],
      "name": "payBillOnBehalf",
      "outputs": [
        {
          "internalType": "bool",
          "name": "",
          "type": "bool"
        }
      ],
      "stateMutability": "nonpayable",
      "type": "function"
    },
    {
      "inputs": [
        {
          "internalType": "uint256",
          "name": "_value",
          "type": "uint256"
        },
        {
          "internalType": "string",
          "name": "_unit",
          "type": "string"
        }
      ],
      "name": "recordData",
      "outputs": [],
      "stateMutability": "nonpayable",
      "type": "function"
    },
    {
      "inputs": [
        {
          "internalType": "string",
          "name": "_name",
          "type": "string"
        },
        {
          "internalType": "string",
          "name": "_ownerName",
          "type": "string"
        },
        {
          "internalType": "address",
          "name": "_smartMeterAddress",
          "type": "address"
        },
        {
          "internalType": "string",
          "name": "_smartMeterId",
          "type": "string"
        }
      ],
      "name": "registerSmartMeter",
      "outputs": [],
      "stateMutability": "nonpayable",
      "type": "function"
    },
    {
      "inputs": [
        {
          "internalType": "address",
          "name": "_tenant",
          "type": "address"
        }
      ],
      "name": "removeTenant",
      "outputs": [],
      "stateMutability": "nonpayable",
      "type": "function"
    },
    {
      "inputs": [
        {
          "internalType": "address",
          "name": "",
          "type": "address"
        }
      ],
      "name": "smartMeters",
      "outputs": [
        {
          "internalType": "string",
          "name": "name",
          "type": "string"
        },
        {
          "internalType": "string",
          "name": "ownerName",
          "type": "string"
        },
        {
          "internalType": "address",
          "name": "smartMeterAddress",
          "type": "address"
        },
        {
          "internalType": "string",
          "name": "smartMeterId",
          "type": "string"
        },
        {
          "internalType": "bool",
          "name": "isActive",
          "type": "bool"
        }
      ],
      "stateMutability": "view",
      "type": "function"
    },
    {
      "inputs": [
        {
          "internalType": "address",
          "name": "",
          "type": "address"
        }
      ],
      "name": "tenants",
      "outputs": [
        {
          "internalType": "string",
          "name": "fullName",
          "type": "string"
        },
        {
          "internalType": "address",
          "name": "assignedSmartMeter",
          "type": "address"
        }
      ],
      "stateMutability": "view",
      "type": "function"
    },
    {
      "inputs": [
        {
          "internalType": "address",
          "name": "",
          "type": "address"
        }
      ],
      "name": "whitelistedTenants",
      "outputs": [
        {
          "internalType": "bool",
          "name": "",
          "type": "bool"
        }
      ],
      "stateMutability": "view",
      "type": "function"
    },
    {
      "inputs": [],
      "name": "withdrawCollectedFunds",
      "outputs": [],
      "stateMutability": "nonpayable",
      "type": "function"
    }
  ],
  "bytecode": "0x608060405234801561001057600080fd5b5060405161812738038061812783398181016040528101906100329190610349565b6100776040518060400160405280601781526020017f4372656174696e6720636f6c6c656374696f6e20666f72000000000000000000815250826101c960201b60201c565b806000806101000a81548173ffffffffffffffffffffffffffffffffffffffff021916908373ffffffffffffffffffffffffffffffffffffffff160217905550306040516100c4906102c2565b6100ce9190610385565b604051809103906000f0801580156100ea573d6000803e3d6000fd5b50600160006101000a81548173ffffffffffffffffffffffffffffffffffffffff021916908373ffffffffffffffffffffffffffffffffffffffff16021790555080600160009054906101000a900473ffffffffffffffffffffffffffffffffffffffff1660405161015b906102cf565b6101669291906103ff565b604051809103906000f080158015610182573d6000803e3d6000fd5b50600260006101000a81548173ffffffffffffffffffffffffffffffffffffffff021916908373ffffffffffffffffffffffffffffffffffffffff16021790555050610517565b61026782826040516024016101df9291906104b8565b6040516020818303038152906040527f319af333000000000000000000000000000000000000000000000000000000007bffffffffffffffffffffffffffffffffffffffffffffffffffffffff19166020820180517bffffffffffffffffffffffffffffffffffffffffffffffffffffffff838183161783525050505061026b60201b60201c565b5050565b61028c8161028761028f60201b612aa6176102b060201b60201c565b60201c565b50565b60006a636f6e736f6c652e6c6f679050600080835160208501845afa505050565b6102dc60201b612ac717819050919050565b6118d68061496a83390190565b611ee78061624083390190565b6102e46104e8565b565b600080fd5b600073ffffffffffffffffffffffffffffffffffffffff82169050919050565b6000610316826102eb565b9050919050565b6103268161030b565b811461033157600080fd5b50565b6000815190506103438161031d565b92915050565b60006020828403121561035f5761035e6102e6565b5b600061036d84828501610334565b91505092915050565b61037f8161030b565b82525050565b600060208201905061039a6000830184610376565b92915050565b6000819050919050565b60006103c56103c06103bb846102eb565b6103a0565b6102eb565b9050919050565b60006103d7826103aa565b9050919050565b60006103e9826103cc565b9050919050565b6103f9816103de565b82525050565b60006040820190506104146000830185610376565b61042160208301846103f0565b9392505050565b600081519050919050565b600082825260208201905092915050565b60005b83811015610462578082015181840152602081019050610447565b60008484015250505050565b6000601f19601f8301169050919050565b600061048a82610428565b6104948185610433565b93506104a4818560208601610444565b6104ad8161046e565b840191505092915050565b600060408201905081810360008301526104d2818561047f565b90506104e16020830184610376565b9392505050565b7f4e487b7100000000000000000000000000000000000000000000000000000000600052605160045260246000fd5b614444806105266000396000f3fe608060405234801561001057600080fd5b506004361061018e5760003560e01c806387a7f3d1116100de578063babd969211610097578063e7201d7d11610071578063e7201d7d1461048b578063fba1f7b0146104a9578063fd9153a3146104d9578063fde081741461050a5761018e565b8063babd969214610423578063c9cc76511461043f578063d57bc4151461045b5761018e565b806387a7f3d11461035d578063891609391461037b5780638aeea72814610385578063a3f4458d146103b7578063a5803945146103d5578063ae428d78146104055761018e565b806328a117021161014b57806333d808ce1161012557806333d808ce146102c157806345a132aa146102f157806353be7ded1461032157806382b2e2571461033f5761018e565b806328a117021461026b5780632d710070146102895780632dda7a72146102a55761018e565b806301e6f372146101935780630d79f9c9146101b157806310f6a343146101e157806324c759931461021557806326ba1ff81461023157806326d6ec641461024f575b600080fd5b61019b610528565b6040516101a89190612bf4565b60405180910390f35b6101cb60048036038101906101c69190612c61565b61054e565b6040516101d89190612dcc565b60405180910390f35b6101fb60048036038101906101f69190612c61565b610949565b60405161020c959493929190612e56565b60405180910390f35b61022f600480360381019061022a9190612f59565b610b44565b005b610239610d70565b6040516102469190613068565b60405180910390f35b610269600480360381019061026491906131ba565b610e8c565b005b6102736110a4565b6040516102809190613238565b60405180910390f35b6102a3600480360381019061029e9190612c61565b611147565b005b6102bf60048036038101906102ba9190613253565b611430565b005b6102db60048036038101906102d69190612c61565b6115e5565b6040516102e89190613413565b60405180910390f35b61030b60048036038101906103069190612c61565b6118a4565b60405161031891906135ae565b60405180910390f35b610329611a67565b6040516103369190613068565b60405180910390f35b610347611b83565b6040516103549190613238565b60405180910390f35b610365611d09565b60405161037291906135d0565b60405180910390f35b610383611e16565b005b61039f600480360381019061039a91906135eb565b612089565b6040516103ae9392919061362b565b60405180910390f35b6103bf612158565b6040516103cc9190613238565b60405180910390f35b6103ef60048036038101906103ea9190612c61565b612165565b6040516103fc9190613669565b60405180910390f35b61040d612185565b60405161041a91906136a5565b60405180910390f35b61043d600480360381019061043891906136c0565b6121ab565b005b610459600480360381019061045491906135eb565b612507565b005b6104756004803603810190610470919061377b565b612628565b6040516104829190613669565b60405180910390f35b6104936126d2565b6040516104a091906135d0565b60405180910390f35b6104c360048036038101906104be9190612c61565b6126f6565b6040516104d091906135d0565b60405180910390f35b6104f360048036038101906104ee9190612c61565b6127ee565b6040516105019291906137d7565b60405180910390f35b6105126128ba565b60405161051f9190613807565b60405180910390f35b600260009054906101000a900473ffffffffffffffffffffffffffffffffffffffff1681565b610556612ad1565b60008054906101000a900473ffffffffffffffffffffffffffffffffffffffff1673ffffffffffffffffffffffffffffffffffffffff163373ffffffffffffffffffffffffffffffffffffffff1614806106925750600960003373ffffffffffffffffffffffffffffffffffffffff1673ffffffffffffffffffffffffffffffffffffffff16815260200190815260200160002060009054906101000a900460ff16801561069157508173ffffffffffffffffffffffffffffffffffffffff16600560003373ffffffffffffffffffffffffffffffffffffffff1673ffffffffffffffffffffffffffffffffffffffff16815260200190815260200160002060010160009054906101000a900473ffffffffffffffffffffffffffffffffffffffff1673ffffffffffffffffffffffffffffffffffffffff16145b5b6106d1576040517f08c379a00000000000000000000000000000000000000000000000000000000081526004016106c890613875565b60405180910390fd5b600360008373ffffffffffffffffffffffffffffffffffffffff1673ffffffffffffffffffffffffffffffffffffffff1681526020019081526020016000206040518060a001604052908160008201805461072b906138c4565b80601f0160208091040260200160405190810160405280929190818152602001828054610757906138c4565b80156107a45780601f10610779576101008083540402835291602001916107a4565b820191906000526020600020905b81548152906001019060200180831161078757829003601f168201915b505050505081526020016001820180546107bd906138c4565b80601f01602080910402602001604051908101604052809291908181526020018280546107e9906138c4565b80156108365780601f1061080b57610100808354040283529160200191610836565b820191906000526020600020905b81548152906001019060200180831161081957829003601f168201915b505050505081526020016002820160009054906101000a900473ffffffffffffffffffffffffffffffffffffffff1673ffffffffffffffffffffffffffffffffffffffff1673ffffffffffffffffffffffffffffffffffffffff1681526020016003820180546108a5906138c4565b80601f01602080910402602001604051908101604052809291908181526020018280546108d1906138c4565b801561091e5780601f106108f35761010080835404028352916020019161091e565b820191906000526020600020905b81548152906001019060200180831161090157829003601f168201915b505050505081526020016004820160009054906101000a900460ff1615151515815250509050919050565b600360205280600052604060002060009150905080600001805461096c906138c4565b80601f0160208091040260200160405190810160405280929190818152602001828054610998906138c4565b80156109e55780601f106109ba576101008083540402835291602001916109e5565b820191906000526020600020905b8154815290600101906020018083116109c857829003601f168201915b5050505050908060010180546109fa906138c4565b80601f0160208091040260200160405190810160405280929190818152602001828054610a26906138c4565b8015610a735780601f10610a4857610100808354040283529160200191610a73565b820191906000526020600020905b815481529060010190602001808311610a5657829003601f168201915b5050505050908060020160009054906101000a900473ffffffffffffffffffffffffffffffffffffffff1690806003018054610aae906138c4565b80601f0160208091040260200160405190810160405280929190818152602001828054610ada906138c4565b8015610b275780601f10610afc57610100808354040283529160200191610b27565b820191906000526020600020905b815481529060010190602001808311610b0a57829003601f168201915b5050505050908060040160009054906101000a900460ff16905085565b600860003373ffffffffffffffffffffffffffffffffffffffff1673ffffffffffffffffffffffffffffffffffffffff16815260200190815260200160002060009054906101000a900460ff168015610be95750600360003373ffffffffffffffffffffffffffffffffffffffff1673ffffffffffffffffffffffffffffffffffffffff16815260200190815260200160002060040160009054906101000a900460ff165b610c28576040517f08c379a0000000000000000000000000000000000000000000000000000000008152600401610c1f90613941565b60405180910390fd5b600760003373ffffffffffffffffffffffffffffffffffffffff1673ffffffffffffffffffffffffffffffffffffffff168152602001908152602001600020604051806060016040528042815260200185815260200184848080601f016020809104026020016040519081016040528093929190818152602001838380828437600081840152601f19601f82011690508083019250505050505050815250908060018154018082558091505060019003906000526020600020906003020160009091909190915060008201518160000155602082015181600101556040820151816002019081610d189190613b03565b5050503373ffffffffffffffffffffffffffffffffffffffff167f550066d608ea56e089cd4c6f3ccd9557109a2adf9eb1fc812763cbffe3a325d14285604051610d63929190613bd5565b60405180910390a2505050565b606060008054906101000a900473ffffffffffffffffffffffffffffffffffffffff1673ffffffffffffffffffffffffffffffffffffffff163373ffffffffffffffffffffffffffffffffffffffff1614610e00576040517f08c379a0000000000000000000000000000000000000000000000000000000008152600401610df790613c4a565b60405180910390fd5b6004805480602002602001604051908101604052809291908181526020018280548015610e8257602002820191906000526020600020905b8160009054906101000a900473ffffffffffffffffffffffffffffffffffffffff1673ffffffffffffffffffffffffffffffffffffffff1681526020019060010190808311610e38575b5050505050905090565b60008054906101000a900473ffffffffffffffffffffffffffffffffffffffff1673ffffffffffffffffffffffffffffffffffffffff163373ffffffffffffffffffffffffffffffffffffffff1614610f1a576040517f08c379a0000000000000000000000000000000000000000000000000000000008152600401610f1190613c4a565b60405180910390fd5b60405180604001604052808381526020018273ffffffffffffffffffffffffffffffffffffffff16815250600560008573ffffffffffffffffffffffffffffffffffffffff1673ffffffffffffffffffffffffffffffffffffffff1681526020019081526020016000206000820151816000019081610f999190613b03565b5060208201518160010160006101000a81548173ffffffffffffffffffffffffffffffffffffffff021916908373ffffffffffffffffffffffffffffffffffffffff1602179055509050506006839080600181540180825580915050600190039060005260206000200160009091909190916101000a81548173ffffffffffffffffffffffffffffffffffffffff021916908373ffffffffffffffffffffffffffffffffffffffff1602179055506001600960008573ffffffffffffffffffffffffffffffffffffffff1673ffffffffffffffffffffffffffffffffffffffff16815260200190815260200160002060006101000a81548160ff021916908315150217905550505050565b6000600260009054906101000a900473ffffffffffffffffffffffffffffffffffffffff1673ffffffffffffffffffffffffffffffffffffffff1663755873c5336040518263ffffffff1660e01b815260040161110191906135d0565b602060405180830381865afa15801561111e573d6000803e3d6000fd5b505050506040513d601f19601f820116820180604052508101906111429190613c7f565b905090565b60008054906101000a900473ffffffffffffffffffffffffffffffffffffffff1673ffffffffffffffffffffffffffffffffffffffff163373ffffffffffffffffffffffffffffffffffffffff16146111d5576040517f08c379a00000000000000000000000000000000000000000000000000000000081526004016111cc90613c4a565b60405180910390fd5b6000600960008373ffffffffffffffffffffffffffffffffffffffff1673ffffffffffffffffffffffffffffffffffffffff16815260200190815260200160002060006101000a81548160ff02191690831515021790555060005b6006805490508110156113b3578173ffffffffffffffffffffffffffffffffffffffff166006828154811061126857611267613cac565b5b9060005260206000200160009054906101000a900473ffffffffffffffffffffffffffffffffffffffff1673ffffffffffffffffffffffffffffffffffffffff16036113a657600660016006805490506112c29190613d0a565b815481106112d3576112d2613cac565b5b9060005260206000200160009054906101000a900473ffffffffffffffffffffffffffffffffffffffff166006828154811061131257611311613cac565b5b9060005260206000200160006101000a81548173ffffffffffffffffffffffffffffffffffffffff021916908373ffffffffffffffffffffffffffffffffffffffff160217905550600680548061136c5761136b613d3e565b5b6001900381819060005260206000200160006101000a81549073ffffffffffffffffffffffffffffffffffffffff021916905590556113b3565b8080600101915050611230565b50600560008273ffffffffffffffffffffffffffffffffffffffff1673ffffffffffffffffffffffffffffffffffffffff168152602001908152602001600020600080820160006114049190612b18565b6001820160006101000a81549073ffffffffffffffffffffffffffffffffffffffff0219169055505050565b60008054906101000a900473ffffffffffffffffffffffffffffffffffffffff1673ffffffffffffffffffffffffffffffffffffffff163373ffffffffffffffffffffffffffffffffffffffff16146114be576040517f08c379a00000000000000000000000000000000000000000000000000000000081526004016114b590613c4a565b60405180910390fd5b600960008573ffffffffffffffffffffffffffffffffffffffff1673ffffffffffffffffffffffffffffffffffffffff16815260200190815260200160002060009054906101000a900460ff1661154a576040517f08c379a000000000000000000000000000000000000000000000000000000000815260040161154190613db9565b60405180910390fd5b600260009054906101000a900473ffffffffffffffffffffffffffffffffffffffff1673ffffffffffffffffffffffffffffffffffffffff1663a343fc1285338686866040518663ffffffff1660e01b81526004016115ad959493929190613dd9565b600060405180830381600087803b1580156115c757600080fd5b505af11580156115db573d6000803e3d6000fd5b5050505050505050565b606060008054906101000a900473ffffffffffffffffffffffffffffffffffffffff1673ffffffffffffffffffffffffffffffffffffffff163373ffffffffffffffffffffffffffffffffffffffff1614806117235750600960003373ffffffffffffffffffffffffffffffffffffffff1673ffffffffffffffffffffffffffffffffffffffff16815260200190815260200160002060009054906101000a900460ff16801561172257508173ffffffffffffffffffffffffffffffffffffffff16600560003373ffffffffffffffffffffffffffffffffffffffff1673ffffffffffffffffffffffffffffffffffffffff16815260200190815260200160002060010160009054906101000a900473ffffffffffffffffffffffffffffffffffffffff1673ffffffffffffffffffffffffffffffffffffffff16145b5b611762576040517f08c379a000000000000000000000000000000000000000000000000000000000815260040161175990613875565b60405180910390fd5b600760008373ffffffffffffffffffffffffffffffffffffffff1673ffffffffffffffffffffffffffffffffffffffff168152602001908152602001600020805480602002602001604051908101604052809291908181526020016000905b8282101561189957838290600052602060002090600302016040518060600160405290816000820154815260200160018201548152602001600282018054611808906138c4565b80601f0160208091040260200160405190810160405280929190818152602001828054611834906138c4565b80156118815780601f1061185657610100808354040283529160200191611881565b820191906000526020600020905b81548152906001019060200180831161186457829003601f168201915b505050505081525050815260200190600101906117c1565b505050509050919050565b606060008054906101000a900473ffffffffffffffffffffffffffffffffffffffff1673ffffffffffffffffffffffffffffffffffffffff163373ffffffffffffffffffffffffffffffffffffffff16148061198057508173ffffffffffffffffffffffffffffffffffffffff163373ffffffffffffffffffffffffffffffffffffffff1614801561197f5750600960008373ffffffffffffffffffffffffffffffffffffffff1673ffffffffffffffffffffffffffffffffffffffff16815260200190815260200160002060009054906101000a900460ff165b5b6119bf576040517f08c379a00000000000000000000000000000000000000000000000000000000081526004016119b690613875565b60405180910390fd5b600260009054906101000a900473ffffffffffffffffffffffffffffffffffffffff1673ffffffffffffffffffffffffffffffffffffffff166345a132aa836040518263ffffffff1660e01b8152600401611a1a91906135d0565b600060405180830381865afa158015611a37573d6000803e3d6000fd5b505050506040513d6000823e3d601f19601f82011682018060405250810190611a6091906140d8565b9050919050565b606060008054906101000a900473ffffffffffffffffffffffffffffffffffffffff1673ffffffffffffffffffffffffffffffffffffffff163373ffffffffffffffffffffffffffffffffffffffff1614611af7576040517f08c379a0000000000000000000000000000000000000000000000000000000008152600401611aee90613c4a565b60405180910390fd5b6006805480602002602001604051908101604052809291908181526020018280548015611b7957602002820191906000526020600020905b8160009054906101000a900473ffffffffffffffffffffffffffffffffffffffff1673ffffffffffffffffffffffffffffffffffffffff1681526020019060010190808311611b2f575b5050505050905090565b60008060009054906101000a900473ffffffffffffffffffffffffffffffffffffffff1673ffffffffffffffffffffffffffffffffffffffff163373ffffffffffffffffffffffffffffffffffffffff161480611c295750600960003373ffffffffffffffffffffffffffffffffffffffff1673ffffffffffffffffffffffffffffffffffffffff16815260200190815260200160002060009054906101000a900460ff165b611c68576040517f08c379a0000000000000000000000000000000000000000000000000000000008152600401611c5f90613875565b60405180910390fd5b600160009054906101000a900473ffffffffffffffffffffffffffffffffffffffff1673ffffffffffffffffffffffffffffffffffffffff166370a08231336040518263ffffffff1660e01b8152600401611cc391906135d0565b602060405180830381865afa158015611ce0573d6000803e3d6000fd5b505050506040513d601f19601f82011682018060405250810190611d049190613c7f565b905090565b60008060009054906101000a900473ffffffffffffffffffffffffffffffffffffffff1673ffffffffffffffffffffffffffffffffffffffff163373ffffffffffffffffffffffffffffffffffffffff161480611daf5750600960003373ffffffffffffffffffffffffffffffffffffffff1673ffffffffffffffffffffffffffffffffffffffff16815260200190815260200160002060009054906101000a900460ff165b611dee576040517f08c379a0000000000000000000000000000000000000000000000000000000008152600401611de59061416d565b60405180910390fd5b600160009054906101000a900473ffffffffffffffffffffffffffffffffffffffff16905090565b60008054906101000a900473ffffffffffffffffffffffffffffffffffffffff1673ffffffffffffffffffffffffffffffffffffffff163373ffffffffffffffffffffffffffffffffffffffff1614611ea4576040517f08c379a0000000000000000000000000000000000000000000000000000000008152600401611e9b90613c4a565b60405180910390fd5b6000600160009054906101000a900473ffffffffffffffffffffffffffffffffffffffff1673ffffffffffffffffffffffffffffffffffffffff166370a08231306040518263ffffffff1660e01b8152600401611f0191906135d0565b602060405180830381865afa158015611f1e573d6000803e3d6000fd5b505050506040513d601f19601f82011682018060405250810190611f429190613c7f565b905060008111611f87576040517f08c379a0000000000000000000000000000000000000000000000000000000008152600401611f7e906141d9565b60405180910390fd5b600160009054906101000a900473ffffffffffffffffffffffffffffffffffffffff1673ffffffffffffffffffffffffffffffffffffffff1663a9059cbb60008054906101000a900473ffffffffffffffffffffffffffffffffffffffff16836040518363ffffffff1660e01b81526004016120049291906141f9565b6020604051808303816000875af1158015612023573d6000803e3d6000fd5b505050506040513d601f19601f820116820180604052508101906120479190614222565b612086576040517f08c379a000000000000000000000000000000000000000000000000000000000815260040161207d9061429b565b60405180910390fd5b50565b600760205281600052604060002081815481106120a557600080fd5b9060005260206000209060030201600091509150508060000154908060010154908060020180546120d5906138c4565b80601f0160208091040260200160405190810160405280929190818152602001828054612101906138c4565b801561214e5780601f106121235761010080835404028352916020019161214e565b820191906000526020600020905b81548152906001019060200180831161213157829003601f168201915b5050505050905083565b681b1ae4d6e2ef50000081565b60096020528060005260406000206000915054906101000a900460ff1681565b600160009054906101000a900473ffffffffffffffffffffffffffffffffffffffff1681565b60008054906101000a900473ffffffffffffffffffffffffffffffffffffffff1673ffffffffffffffffffffffffffffffffffffffff163373ffffffffffffffffffffffffffffffffffffffff1614612239576040517f08c379a000000000000000000000000000000000000000000000000000000000815260040161223090613c4a565b60405180910390fd5b600360008373ffffffffffffffffffffffffffffffffffffffff1673ffffffffffffffffffffffffffffffffffffffff16815260200190815260200160002060040160009054906101000a900460ff16156122c9576040517f08c379a00000000000000000000000000000000000000000000000000000000081526004016122c090614307565b60405180910390fd5b6040518060a001604052808581526020018481526020018373ffffffffffffffffffffffffffffffffffffffff16815260200182815260200160011515815250600360008473ffffffffffffffffffffffffffffffffffffffff1673ffffffffffffffffffffffffffffffffffffffff168152602001908152602001600020600082015181600001908161235d9190613b03565b5060208201518160010190816123739190613b03565b5060408201518160020160006101000a81548173ffffffffffffffffffffffffffffffffffffffff021916908373ffffffffffffffffffffffffffffffffffffffff16021790555060608201518160030190816123d09190613b03565b5060808201518160040160006101000a81548160ff0219169083151502179055509050506001600860008473ffffffffffffffffffffffffffffffffffffffff1673ffffffffffffffffffffffffffffffffffffffff16815260200190815260200160002060006101000a81548160ff0219169083151502179055506004829080600181540180825580915050600190039060005260206000200160009091909190916101000a81548173ffffffffffffffffffffffffffffffffffffffff021916908373ffffffffffffffffffffffffffffffffffffffff1602179055508173ffffffffffffffffffffffffffffffffffffffff167f49678145bcf4dcaf25c4bff4c2bd8262ee07185373d0e2c241598420b8e4d7318585846040516124f993929190614327565b60405180910390a250505050565b60008054906101000a900473ffffffffffffffffffffffffffffffffffffffff1673ffffffffffffffffffffffffffffffffffffffff163373ffffffffffffffffffffffffffffffffffffffff1614612595576040517f08c379a000000000000000000000000000000000000000000000000000000000815260040161258c90613c4a565b60405180910390fd5b600160009054906101000a900473ffffffffffffffffffffffffffffffffffffffff1673ffffffffffffffffffffffffffffffffffffffff166340c10f1983836040518363ffffffff1660e01b81526004016125f29291906141f9565b600060405180830381600087803b15801561260c57600080fd5b505af1158015612620573d6000803e3d6000fd5b505050505050565b6000600260009054906101000a900473ffffffffffffffffffffffffffffffffffffffff1673ffffffffffffffffffffffffffffffffffffffff1663f4858c6684846040518363ffffffff1660e01b81526004016126879291906137d7565b6020604051808303816000875af11580156126a6573d6000803e3d6000fd5b505050506040513d601f19601f820116820180604052508101906126ca9190614222565b905092915050565b60008054906101000a900473ffffffffffffffffffffffffffffffffffffffff1681565b6000600960003373ffffffffffffffffffffffffffffffffffffffff1673ffffffffffffffffffffffffffffffffffffffff16815260200190815260200160002060009054906101000a900460ff16612784576040517f08c379a000000000000000000000000000000000000000000000000000000000815260040161277b906143bf565b60405180910390fd5b600560008373ffffffffffffffffffffffffffffffffffffffff1673ffffffffffffffffffffffffffffffffffffffff16815260200190815260200160002060010160009054906101000a900473ffffffffffffffffffffffffffffffffffffffff169050919050565b6005602052806000526040600020600091509050806000018054612811906138c4565b80601f016020809104026020016040519081016040528092919081815260200182805461283d906138c4565b801561288a5780601f1061285f5761010080835404028352916020019161288a565b820191906000526020600020905b81548152906001019060200180831161286d57829003601f168201915b5050505050908060010160009054906101000a900473ffffffffffffffffffffffffffffffffffffffff16905082565b606060008054906101000a900473ffffffffffffffffffffffffffffffffffffffff1673ffffffffffffffffffffffffffffffffffffffff163373ffffffffffffffffffffffffffffffffffffffff160361294c576040518060400160405280600581526020017f61646d696e0000000000000000000000000000000000000000000000000000008152509050612aa3565b600860003373ffffffffffffffffffffffffffffffffffffffff1673ffffffffffffffffffffffffffffffffffffffff16815260200190815260200160002060009054906101000a900460ff16156129db576040518060400160405280600a81526020017f736d6172744d65746572000000000000000000000000000000000000000000008152509050612aa3565b600960003373ffffffffffffffffffffffffffffffffffffffff1673ffffffffffffffffffffffffffffffffffffffff16815260200190815260200160002060009054906101000a900460ff1615612a6a576040518060400160405280600681526020017f74656e616e7400000000000000000000000000000000000000000000000000008152509050612aa3565b6040518060400160405280600781526020017f756e6b6e6f776e0000000000000000000000000000000000000000000000000081525090505b90565b60006a636f6e736f6c652e6c6f679050600080835160208501845afa505050565b612acf6143df565b565b6040518060a001604052806060815260200160608152602001600073ffffffffffffffffffffffffffffffffffffffff168152602001606081526020016000151581525090565b508054612b24906138c4565b6000825580601f10612b365750612b55565b601f016020900490600052602060002090810190612b549190612b58565b5b50565b5b80821115612b71576000816000905550600101612b59565b5090565b600073ffffffffffffffffffffffffffffffffffffffff82169050919050565b6000819050919050565b6000612bba612bb5612bb084612b75565b612b95565b612b75565b9050919050565b6000612bcc82612b9f565b9050919050565b6000612bde82612bc1565b9050919050565b612bee81612bd3565b82525050565b6000602082019050612c096000830184612be5565b92915050565b6000604051905090565b600080fd5b600080fd5b6000612c2e82612b75565b9050919050565b612c3e81612c23565b8114612c4957600080fd5b50565b600081359050612c5b81612c35565b92915050565b600060208284031215612c7757612c76612c19565b5b6000612c8584828501612c4c565b91505092915050565b600081519050919050565b600082825260208201905092915050565b60005b83811015612cc8578082015181840152602081019050612cad565b60008484015250505050565b6000601f19601f8301169050919050565b6000612cf082612c8e565b612cfa8185612c99565b9350612d0a818560208601612caa565b612d1381612cd4565b840191505092915050565b612d2781612c23565b82525050565b60008115159050919050565b612d4281612d2d565b82525050565b600060a0830160008301518482036000860152612d658282612ce5565b91505060208301518482036020860152612d7f8282612ce5565b9150506040830151612d946040860182612d1e565b5060608301518482036060860152612dac8282612ce5565b9150506080830151612dc16080860182612d39565b508091505092915050565b60006020820190508181036000830152612de68184612d48565b905092915050565b600082825260208201905092915050565b6000612e0a82612c8e565b612e148185612dee565b9350612e24818560208601612caa565b612e2d81612cd4565b840191505092915050565b612e4181612c23565b82525050565b612e5081612d2d565b82525050565b600060a0820190508181036000830152612e708188612dff565b90508181036020830152612e848187612dff565b9050612e936040830186612e38565b8181036060830152612ea58185612dff565b9050612eb46080830184612e47565b9695505050505050565b6000819050919050565b612ed181612ebe565b8114612edc57600080fd5b50565b600081359050612eee81612ec8565b92915050565b600080fd5b600080fd5b600080fd5b60008083601f840112612f1957612f18612ef4565b5b8235905067ffffffffffffffff811115612f3657612f35612ef9565b5b602083019150836001820283011115612f5257612f51612efe565b5b9250929050565b600080600060408486031215612f7257612f71612c19565b5b6000612f8086828701612edf565b935050602084013567ffffffffffffffff811115612fa157612fa0612c1e565b5b612fad86828701612f03565b92509250509250925092565b600081519050919050565b600082825260208201905092915050565b6000819050602082019050919050565b6000612ff18383612d1e565b60208301905092915050565b6000602082019050919050565b600061301582612fb9565b61301f8185612fc4565b935061302a83612fd5565b8060005b8381101561305b5781516130428882612fe5565b975061304d83612ffd565b92505060018101905061302e565b5085935050505092915050565b60006020820190508181036000830152613082818461300a565b905092915050565b600080fd5b7f4e487b7100000000000000000000000000000000000000000000000000000000600052604160045260246000fd5b6130c782612cd4565b810181811067ffffffffffffffff821117156130e6576130e561308f565b5b80604052505050565b60006130f9612c0f565b905061310582826130be565b919050565b600067ffffffffffffffff8211156131255761312461308f565b5b61312e82612cd4565b9050602081019050919050565b82818337600083830152505050565b600061315d6131588461310a565b6130ef565b9050828152602081018484840111156131795761317861308a565b5b61318484828561313b565b509392505050565b600082601f8301126131a1576131a0612ef4565b5b81356131b184826020860161314a565b91505092915050565b6000806000606084860312156131d3576131d2612c19565b5b60006131e186828701612c4c565b935050602084013567ffffffffffffffff81111561320257613201612c1e565b5b61320e8682870161318c565b925050604061321f86828701612c4c565b9150509250925092565b61323281612ebe565b82525050565b600060208201905061324d6000830184613229565b92915050565b6000806000806080858703121561326d5761326c612c19565b5b600061327b87828801612c4c565b945050602061328c87828801612edf565b935050604085013567ffffffffffffffff8111156132ad576132ac612c1e565b5b6132b98782880161318c565b925050606085013567ffffffffffffffff8111156132da576132d9612c1e565b5b6132e68782880161318c565b91505092959194509250565b600081519050919050565b600082825260208201905092915050565b6000819050602082019050919050565b61332781612ebe565b82525050565b6000606083016000830151613345600086018261331e565b506020830151613358602086018261331e565b50604083015184820360408601526133708282612ce5565b9150508091505092915050565b6000613389838361332d565b905092915050565b6000602082019050919050565b60006133a9826132f2565b6133b381856132fd565b9350836020820285016133c58561330e565b8060005b8581101561340157848403895281516133e2858261337d565b94506133ed83613391565b925060208a019950506001810190506133c9565b50829750879550505050505092915050565b6000602082019050818103600083015261342d818461339e565b905092915050565b600081519050919050565b600082825260208201905092915050565b6000819050602082019050919050565b600061010083016000830151848203600086015261347f8282612ce5565b91505060208301516134946020860182612d39565b5060408301516134a76040860182612d1e565b5060608301516134ba6060860182612d1e565b5060808301516134cd608086018261331e565b5060a08301516134e060a086018261331e565b5060c08301516134f360c086018261331e565b5060e083015184820360e086015261350b8282612ce5565b9150508091505092915050565b60006135248383613461565b905092915050565b6000602082019050919050565b600061354482613435565b61354e8185613440565b93508360208202850161356085613451565b8060005b8581101561359c578484038952815161357d8582613518565b94506135888361352c565b925060208a01995050600181019050613564565b50829750879550505050505092915050565b600060208201905081810360008301526135c88184613539565b905092915050565b60006020820190506135e56000830184612e38565b92915050565b6000806040838503121561360257613601612c19565b5b600061361085828601612c4c565b925050602061362185828601612edf565b9150509250929050565b60006060820190506136406000830186613229565b61364d6020830185613229565b818103604083015261365f8184612dff565b9050949350505050565b600060208201905061367e6000830184612e47565b92915050565b600061368f82612bc1565b9050919050565b61369f81613684565b82525050565b60006020820190506136ba6000830184613696565b92915050565b600080600080608085870312156136da576136d9612c19565b5b600085013567ffffffffffffffff8111156136f8576136f7612c1e565b5b6137048782880161318c565b945050602085013567ffffffffffffffff81111561372557613724612c1e565b5b6137318782880161318c565b935050604061374287828801612c4c565b925050606085013567ffffffffffffffff81111561376357613762612c1e565b5b61376f8782880161318c565b91505092959194509250565b6000806040838503121561379257613791612c19565b5b600083013567ffffffffffffffff8111156137b0576137af612c1e565b5b6137bc8582860161318c565b92505060206137cd85828601612c4c565b9150509250929050565b600060408201905081810360008301526137f18185612dff565b90506138006020830184612e38565b9392505050565b600060208201905081810360008301526138218184612dff565b905092915050565b7f4e6f7420617574686f72697a6564000000000000000000000000000000000000600082015250565b600061385f600e83612dee565b915061386a82613829565b602082019050919050565b6000602082019050818103600083015261388e81613852565b9050919050565b7f4e487b7100000000000000000000000000000000000000000000000000000000600052602260045260246000fd5b600060028204905060018216806138dc57607f821691505b6020821081036138ef576138ee613895565b5b50919050565b7f4e6f7420612077686974656c697374656420616374697665206d657465720000600082015250565b600061392b601e83612dee565b9150613936826138f5565b602082019050919050565b6000602082019050818103600083015261395a8161391e565b9050919050565b60008190508160005260206000209050919050565b60006020601f8301049050919050565b600082821b905092915050565b6000600883026139c37fffffffffffffffffffffffffffffffffffffffffffffffffffffffffffffffff82613986565b6139cd8683613986565b95508019841693508086168417925050509392505050565b6000613a006139fb6139f684612ebe565b612b95565b612ebe565b9050919050565b6000819050919050565b613a1a836139e5565b613a2e613a2682613a07565b848454613993565b825550505050565b600090565b613a43613a36565b613a4e818484613a11565b505050565b5b81811015613a7257613a67600082613a3b565b600181019050613a54565b5050565b601f821115613ab757613a8881613961565b613a9184613976565b81016020851015613aa0578190505b613ab4613aac85613976565b830182613a53565b50505b505050565b600082821c905092915050565b6000613ada60001984600802613abc565b1980831691505092915050565b6000613af38383613ac9565b9150826002028217905092915050565b613b0c82612c8e565b67ffffffffffffffff811115613b2557613b2461308f565b5b613b2f82546138c4565b613b3a828285613a76565b600060209050601f831160018114613b6d5760008415613b5b578287015190505b613b658582613ae7565b865550613bcd565b601f198416613b7b86613961565b60005b82811015613ba357848901518255600182019150602085019450602081019050613b7e565b86831015613bc05784890151613bbc601f891682613ac9565b8355505b6001600288020188555050505b505050505050565b6000604082019050613bea6000830185613229565b613bf76020830184613229565b9392505050565b7f4f6e6c79206d6173746572000000000000000000000000000000000000000000600082015250565b6000613c34600b83612dee565b9150613c3f82613bfe565b602082019050919050565b60006020820190508181036000830152613c6381613c27565b9050919050565b600081519050613c7981612ec8565b92915050565b600060208284031215613c9557613c94612c19565b5b6000613ca384828501613c6a565b91505092915050565b7f4e487b7100000000000000000000000000000000000000000000000000000000600052603260045260246000fd5b7f4e487b7100000000000000000000000000000000000000000000000000000000600052601160045260246000fd5b6000613d1582612ebe565b9150613d2083612ebe565b9250828203905081811115613d3857613d37613cdb565b5b92915050565b7f4e487b7100000000000000000000000000000000000000000000000000000000600052603160045260246000fd5b7f496e76616c69642074656e616e74206164647265737300000000000000000000600082015250565b6000613da3601683612dee565b9150613dae82613d6d565b602082019050919050565b60006020820190508181036000830152613dd281613d96565b9050919050565b600060a082019050613dee6000830188612e38565b613dfb6020830187612e38565b613e086040830186613229565b8181036060830152613e1a8185612dff565b90508181036080830152613e2e8184612dff565b90509695505050505050565b600067ffffffffffffffff821115613e5557613e5461308f565b5b602082029050602081019050919050565b600080fd5b600080fd5b6000613e83613e7e8461310a565b6130ef565b905082815260208101848484011115613e9f57613e9e61308a565b5b613eaa848285612caa565b509392505050565b600082601f830112613ec757613ec6612ef4565b5b8151613ed7848260208601613e70565b91505092915050565b613ee981612d2d565b8114613ef457600080fd5b50565b600081519050613f0681613ee0565b92915050565b600081519050613f1b81612c35565b92915050565b60006101008284031215613f3857613f37613e66565b5b613f436101006130ef565b9050600082015167ffffffffffffffff811115613f6357613f62613e6b565b5b613f6f84828501613eb2565b6000830152506020613f8384828501613ef7565b6020830152506040613f9784828501613f0c565b6040830152506060613fab84828501613f0c565b6060830152506080613fbf84828501613c6a565b60808301525060a0613fd384828501613c6a565b60a08301525060c0613fe784828501613c6a565b60c08301525060e082015167ffffffffffffffff81111561400b5761400a613e6b565b5b61401784828501613eb2565b60e08301525092915050565b600061403661403184613e3a565b6130ef565b9050808382526020820190506020840283018581111561405957614058612efe565b5b835b818110156140a057805167ffffffffffffffff81111561407e5761407d612ef4565b5b80860161408b8982613f21565b8552602085019450505060208101905061405b565b5050509392505050565b600082601f8301126140bf576140be612ef4565b5b81516140cf848260208601614023565b91505092915050565b6000602082840312156140ee576140ed612c19565b5b600082015167ffffffffffffffff81111561410c5761410b612c1e565b5b614118848285016140aa565b91505092915050565b7f556e617574686f72697a65640000000000000000000000000000000000000000600082015250565b6000614157600c83612dee565b915061416282614121565b602082019050919050565b600060208201905081810360008301526141868161414a565b9050919050565b7f4e6f2066756e647320746f207769746864726177000000000000000000000000600082015250565b60006141c3601483612dee565b91506141ce8261418d565b602082019050919050565b600060208201905081810360008301526141f2816141b6565b9050919050565b600060408201905061420e6000830185612e38565b61421b6020830184613229565b9392505050565b60006020828403121561423857614237612c19565b5b600061424684828501613ef7565b91505092915050565b7f5472616e73666572206661696c65640000000000000000000000000000000000600082015250565b6000614285600f83612dee565b91506142908261424f565b602082019050919050565b600060208201905081810360008301526142b481614278565b9050919050565b7f4d6574657220616c726561647920657869737473000000000000000000000000600082015250565b60006142f1601483612dee565b91506142fc826142bb565b602082019050919050565b60006020820190508181036000830152614320816142e4565b9050919050565b600060608201905081810360008301526143418186612dff565b905081810360208301526143558185612dff565b905081810360408301526143698184612dff565b9050949350505050565b7f4e6f742077686974656c69737465642074656e616e7400000000000000000000600082015250565b60006143a9601683612dee565b91506143b482614373565b602082019050919050565b600060208201905081810360008301526143d88161439c565b9050919050565b7f4e487b7100000000000000000000000000000000000000000000000000000000600052605160045260246000fdfea2646970667358221220d650e065c9824e607af59ae269cf9326ff53180dcefcb4580734414cc46f6ca664736f6c634300081c0033608060405234801561001057600080fd5b506040516118d63803806118d683398181016040528101906100329190610272565b806040518060400160405280600a81526020017f4845415420546f6b656e000000000000000000000000000000000000000000008152506040518060400160405280600481526020017f484541540000000000000000000000000000000000000000000000000000000081525081600390816100ae91906104ef565b5080600490816100be91906104ef565b505050600073ffffffffffffffffffffffffffffffffffffffff168173ffffffffffffffffffffffffffffffffffffffff16036101335760006040517f1e4fbdf700000000000000000000000000000000000000000000000000000000815260040161012a91906105d0565b60405180910390fd5b6101428161014960201b60201c565b50506105eb565b6000600560009054906101000a900473ffffffffffffffffffffffffffffffffffffffff16905081600560006101000a81548173ffffffffffffffffffffffffffffffffffffffff021916908373ffffffffffffffffffffffffffffffffffffffff1602179055508173ffffffffffffffffffffffffffffffffffffffff168173ffffffffffffffffffffffffffffffffffffffff167f8be0079c531659141344cd1fd0a4f28419497f9722a3daafe3b4186f6b6457e060405160405180910390a35050565b600080fd5b600073ffffffffffffffffffffffffffffffffffffffff82169050919050565b600061023f82610214565b9050919050565b61024f81610234565b811461025a57600080fd5b50565b60008151905061026c81610246565b92915050565b6000602082840312156102885761028761020f565b5b60006102968482850161025d565b91505092915050565b600081519050919050565b7f4e487b7100000000000000000000000000000000000000000000000000000000600052604160045260246000fd5b7f4e487b7100000000000000000000000000000000000000000000000000000000600052602260045260246000fd5b6000600282049050600182168061032057607f821691505b602082108103610333576103326102d9565b5b50919050565b60008190508160005260206000209050919050565b60006020601f8301049050919050565b600082821b905092915050565b60006008830261039b7fffffffffffffffffffffffffffffffffffffffffffffffffffffffffffffffff8261035e565b6103a5868361035e565b95508019841693508086168417925050509392505050565b6000819050919050565b6000819050919050565b60006103ec6103e76103e2846103bd565b6103c7565b6103bd565b9050919050565b6000819050919050565b610406836103d1565b61041a610412826103f3565b84845461036b565b825550505050565b600090565b61042f610422565b61043a8184846103fd565b505050565b5b8181101561045e57610453600082610427565b600181019050610440565b5050565b601f8211156104a35761047481610339565b61047d8461034e565b8101602085101561048c578190505b6104a06104988561034e565b83018261043f565b50505b505050565b600082821c905092915050565b60006104c6600019846008026104a8565b1980831691505092915050565b60006104df83836104b5565b9150826002028217905092915050565b6104f88261029f565b67ffffffffffffffff811115610511576105106102aa565b5b61051b8254610308565b610526828285610462565b600060209050601f8311600181146105595760008415610547578287015190505b61055185826104d3565b8655506105b9565b601f19841661056786610339565b60005b8281101561058f5784890151825560018201915060208501945060208101905061056a565b868310156105ac57848901516105a8601f8916826104b5565b8355505b6001600288020188555050505b505050505050565b6105ca81610234565b82525050565b60006020820190506105e560008301846105c1565b92915050565b6112dc806105fa6000396000f3fe608060405234801561001057600080fd5b50600436106100f55760003560e01c806370a082311161009757806395d89b411161006657806395d89b4114610260578063a9059cbb1461027e578063dd62ed3e146102ae578063f2fde38b146102de576100f5565b806370a08231146101ec578063715018a61461021c57806379cc6790146102265780638da5cb5b14610242576100f5565b806323b872dd116100d357806323b872dd14610166578063313ce5671461019657806340c10f19146101b457806342966c68146101d0576100f5565b806306fdde03146100fa578063095ea7b31461011857806318160ddd14610148575b600080fd5b6101026102fa565b60405161010f9190610f03565b60405180910390f35b610132600480360381019061012d9190610fbe565b61038c565b60405161013f9190611019565b60405180910390f35b6101506103af565b60405161015d9190611043565b60405180910390f35b610180600480360381019061017b919061105e565b6103b9565b60405161018d9190611019565b60405180910390f35b61019e6103e8565b6040516101ab91906110cd565b60405180910390f35b6101ce60048036038101906101c99190610fbe565b6103f1565b005b6101ea60048036038101906101e591906110e8565b610407565b005b61020660048036038101906102019190611115565b61041b565b6040516102139190611043565b60405180910390f35b610224610463565b005b610240600480360381019061023b9190610fbe565b610477565b005b61024a610497565b6040516102579190611151565b60405180910390f35b6102686104c1565b6040516102759190610f03565b60405180910390f35b61029860048036038101906102939190610fbe565b610553565b6040516102a59190611019565b60405180910390f35b6102c860048036038101906102c3919061116c565b610576565b6040516102d59190611043565b60405180910390f35b6102f860048036038101906102f39190611115565b6105fd565b005b606060038054610309906111db565b80601f0160208091040260200160405190810160405280929190818152602001828054610335906111db565b80156103825780601f1061035757610100808354040283529160200191610382565b820191906000526020600020905b81548152906001019060200180831161036557829003601f168201915b5050505050905090565b600080610397610683565b90506103a481858561068b565b600191505092915050565b6000600254905090565b6000806103c4610683565b90506103d185828561069d565b6103dc858585610732565b60019150509392505050565b60006012905090565b6103f9610826565b61040382826108ad565b5050565b610418610412610683565b8261092f565b50565b60008060008373ffffffffffffffffffffffffffffffffffffffff1673ffffffffffffffffffffffffffffffffffffffff168152602001908152602001600020549050919050565b61046b610826565b61047560006109b1565b565b61048982610483610683565b8361069d565b610493828261092f565b5050565b6000600560009054906101000a900473ffffffffffffffffffffffffffffffffffffffff16905090565b6060600480546104d0906111db565b80601f01602080910402602001604051908101604052809291908181526020018280546104fc906111db565b80156105495780601f1061051e57610100808354040283529160200191610549565b820191906000526020600020905b81548152906001019060200180831161052c57829003601f168201915b5050505050905090565b60008061055e610683565b905061056b818585610732565b600191505092915050565b6000600160008473ffffffffffffffffffffffffffffffffffffffff1673ffffffffffffffffffffffffffffffffffffffff16815260200190815260200160002060008373ffffffffffffffffffffffffffffffffffffffff1673ffffffffffffffffffffffffffffffffffffffff16815260200190815260200160002054905092915050565b610605610826565b600073ffffffffffffffffffffffffffffffffffffffff168173ffffffffffffffffffffffffffffffffffffffff16036106775760006040517f1e4fbdf700000000000000000000000000000000000000000000000000000000815260040161066e9190611151565b60405180910390fd5b610680816109b1565b50565b600033905090565b6106988383836001610a77565b505050565b60006106a98484610576565b90507fffffffffffffffffffffffffffffffffffffffffffffffffffffffffffffffff81101561072c578181101561071c578281836040517ffb8f41b20000000000000000000000000000000000000000000000000000000081526004016107139392919061120c565b60405180910390fd5b61072b84848484036000610a77565b5b50505050565b600073ffffffffffffffffffffffffffffffffffffffff168373ffffffffffffffffffffffffffffffffffffffff16036107a45760006040517f96c6fd1e00000000000000000000000000000000000000000000000000000000815260040161079b9190611151565b60405180910390fd5b600073ffffffffffffffffffffffffffffffffffffffff168273ffffffffffffffffffffffffffffffffffffffff16036108165760006040517fec442f0500000000000000000000000000000000000000000000000000000000815260040161080d9190611151565b60405180910390fd5b610821838383610c4e565b505050565b61082e610683565b73ffffffffffffffffffffffffffffffffffffffff1661084c610497565b73ffffffffffffffffffffffffffffffffffffffff16146108ab5761086f610683565b6040517f118cdaa70000000000000000000000000000000000000000000000000000000081526004016108a29190611151565b60405180910390fd5b565b600073ffffffffffffffffffffffffffffffffffffffff168273ffffffffffffffffffffffffffffffffffffffff160361091f5760006040517fec442f050000000000000000000000000000000000000000000000000000000081526004016109169190611151565b60405180910390fd5b61092b60008383610c4e565b5050565b600073ffffffffffffffffffffffffffffffffffffffff168273ffffffffffffffffffffffffffffffffffffffff16036109a15760006040517f96c6fd1e0000000000000000000000000000000000000000000000000000000081526004016109989190611151565b60405180910390fd5b6109ad82600083610c4e565b5050565b6000600560009054906101000a900473ffffffffffffffffffffffffffffffffffffffff16905081600560006101000a81548173ffffffffffffffffffffffffffffffffffffffff021916908373ffffffffffffffffffffffffffffffffffffffff1602179055508173ffffffffffffffffffffffffffffffffffffffff168173ffffffffffffffffffffffffffffffffffffffff167f8be0079c531659141344cd1fd0a4f28419497f9722a3daafe3b4186f6b6457e060405160405180910390a35050565b600073ffffffffffffffffffffffffffffffffffffffff168473ffffffffffffffffffffffffffffffffffffffff1603610ae95760006040517fe602df05000000000000000000000000000000000000000000000000000000008152600401610ae09190611151565b60405180910390fd5b600073ffffffffffffffffffffffffffffffffffffffff168373ffffffffffffffffffffffffffffffffffffffff1603610b5b5760006040517f94280d62000000000000000000000000000000000000000000000000000000008152600401610b529190611151565b60405180910390fd5b81600160008673ffffffffffffffffffffffffffffffffffffffff1673ffffffffffffffffffffffffffffffffffffffff16815260200190815260200160002060008573ffffffffffffffffffffffffffffffffffffffff1673ffffffffffffffffffffffffffffffffffffffff168152602001908152602001600020819055508015610c48578273ffffffffffffffffffffffffffffffffffffffff168473ffffffffffffffffffffffffffffffffffffffff167f8c5be1e5ebec7d5bd14f71427d1e84f3dd0314c0f7b2291e5b200ac8c7c3b92584604051610c3f9190611043565b60405180910390a35b50505050565b600073ffffffffffffffffffffffffffffffffffffffff168373ffffffffffffffffffffffffffffffffffffffff1603610ca0578060026000828254610c949190611272565b92505081905550610d73565b60008060008573ffffffffffffffffffffffffffffffffffffffff1673ffffffffffffffffffffffffffffffffffffffff16815260200190815260200160002054905081811015610d2c578381836040517fe450d38c000000000000000000000000000000000000000000000000000000008152600401610d239392919061120c565b60405180910390fd5b8181036000808673ffffffffffffffffffffffffffffffffffffffff1673ffffffffffffffffffffffffffffffffffffffff16815260200190815260200160002081905550505b600073ffffffffffffffffffffffffffffffffffffffff168273ffffffffffffffffffffffffffffffffffffffff1603610dbc5780600260008282540392505081905550610e09565b806000808473ffffffffffffffffffffffffffffffffffffffff1673ffffffffffffffffffffffffffffffffffffffff168152602001908152602001600020600082825401925050819055505b8173ffffffffffffffffffffffffffffffffffffffff168373ffffffffffffffffffffffffffffffffffffffff167fddf252ad1be2c89b69c2b068fc378daa952ba7f163c4a11628f55a4df523b3ef83604051610e669190611043565b60405180910390a3505050565b600081519050919050565b600082825260208201905092915050565b60005b83811015610ead578082015181840152602081019050610e92565b60008484015250505050565b6000601f19601f8301169050919050565b6000610ed582610e73565b610edf8185610e7e565b9350610eef818560208601610e8f565b610ef881610eb9565b840191505092915050565b60006020820190508181036000830152610f1d8184610eca565b905092915050565b600080fd5b600073ffffffffffffffffffffffffffffffffffffffff82169050919050565b6000610f5582610f2a565b9050919050565b610f6581610f4a565b8114610f7057600080fd5b50565b600081359050610f8281610f5c565b92915050565b6000819050919050565b610f9b81610f88565b8114610fa657600080fd5b50565b600081359050610fb881610f92565b92915050565b60008060408385031215610fd557610fd4610f25565b5b6000610fe385828601610f73565b9250506020610ff485828601610fa9565b9150509250929050565b60008115159050919050565b61101381610ffe565b82525050565b600060208201905061102e600083018461100a565b92915050565b61103d81610f88565b82525050565b60006020820190506110586000830184611034565b92915050565b60008060006060848603121561107757611076610f25565b5b600061108586828701610f73565b935050602061109686828701610f73565b92505060406110a786828701610fa9565b9150509250925092565b600060ff82169050919050565b6110c7816110b1565b82525050565b60006020820190506110e260008301846110be565b92915050565b6000602082840312156110fe576110fd610f25565b5b600061110c84828501610fa9565b91505092915050565b60006020828403121561112b5761112a610f25565b5b600061113984828501610f73565b91505092915050565b61114b81610f4a565b82525050565b60006020820190506111666000830184611142565b92915050565b6000806040838503121561118357611182610f25565b5b600061119185828601610f73565b92505060206111a285828601610f73565b9150509250929050565b7f4e487b7100000000000000000000000000000000000000000000000000000000600052602260045260246000fd5b600060028204905060018216806111f357607f821691505b602082108103611206576112056111ac565b5b50919050565b60006060820190506112216000830186611142565b61122e6020830185611034565b61123b6040830184611034565b949350505050565b7f4e487b7100000000000000000000000000000000000000000000000000000000600052601160045260246000fd5b600061127d82610f88565b915061128883610f88565b92508282019050808211156112a05761129f611243565b5b9291505056fea2646970667358221220002923893dc7363ff5cbf03cf61c5d3b0268347aade1fd610c8d477f994d266464736f6c634300081c00336080604052670de0b6b3a764000060025534801561001c57600080fd5b50604051611ee7380380611ee7833981810160405281019061003e9190610167565b81600160006101000a81548173ffffffffffffffffffffffffffffffffffffffff021916908373ffffffffffffffffffffffffffffffffffffffff160217905550806000806101000a81548173ffffffffffffffffffffffffffffffffffffffff021916908373ffffffffffffffffffffffffffffffffffffffff16021790555050506101a7565b600080fd5b600073ffffffffffffffffffffffffffffffffffffffff82169050919050565b60006100f6826100cb565b9050919050565b610106816100eb565b811461011157600080fd5b50565b600081519050610123816100fd565b92915050565b6000610134826100eb565b9050919050565b61014481610129565b811461014f57600080fd5b50565b6000815190506101618161013b565b92915050565b6000806040838503121561017e5761017d6100c6565b5b600061018c85828601610114565b925050602061019d85828601610152565b9150509250929050565b611d31806101b66000396000f3fe608060405234801561001057600080fd5b506004361061009e5760003560e01c80638ddcdc5b116100665780638ddcdc5b1461019a578063a343fc12146101b8578063ae428d78146101d4578063e7201d7d146101f2578063f4858c66146102105761009e565b806345a132aa146100a357806351c87677146100d35780636a6da61e14610103578063755873c51461013357806382c3807b14610163575b600080fd5b6100bd60048036038101906100b89190610fed565b610240565b6040516100ca9190611266565b60405180910390f35b6100ed60048036038101906100e891906112b4565b61063d565b6040516100fa919061133e565b60405180910390f35b61011d60048036038101906101189190610fed565b6106f6565b60405161012a919061136f565b60405180910390f35b61014d60048036038101906101489190610fed565b61070e565b60405161015a919061136f565b60405180910390f35b61017d600480360381019061017891906114bf565b610757565b604051610191989796959493929190611526565b60405180910390f35b6101a2610912565b6040516101af919061136f565b60405180910390f35b6101d260048036038101906101cd91906115b2565b610918565b005b6101dc610c49565b6040516101e991906116c4565b60405180910390f35b6101fa610c6d565b60405161020791906116df565b60405180910390f35b61022a600480360381019061022591906116fa565b610c93565b6040516102379190611756565b60405180910390f35b60606000600560008473ffffffffffffffffffffffffffffffffffffffff1673ffffffffffffffffffffffffffffffffffffffff168152602001908152602001600020805480602002602001604051908101604052809291908181526020016000905b8282101561034f5783829060005260206000200180546102c2906117a0565b80601f01602080910402602001604051908101604052809291908181526020018280546102ee906117a0565b801561033b5780601f106103105761010080835404028352916020019161033b565b820191906000526020600020905b81548152906001019060200180831161031e57829003601f168201915b5050505050815260200190600101906102a3565b5050505090506000815167ffffffffffffffff81111561037257610371611394565b5b6040519080825280602002602001820160405280156103ab57816020015b610398610f08565b8152602001906001900390816103905790505b50905060005b82518110156106325760048382815181106103cf576103ce6117d1565b5b60200260200101516040516103e4919061183c565b90815260200160405180910390206040518061010001604052908160008201805461040e906117a0565b80601f016020809104026020016040519081016040528092919081815260200182805461043a906117a0565b80156104875780601f1061045c57610100808354040283529160200191610487565b820191906000526020600020905b81548152906001019060200180831161046a57829003601f168201915b505050505081526020016001820160009054906101000a900460ff161515151581526020016001820160019054906101000a900473ffffffffffffffffffffffffffffffffffffffff1673ffffffffffffffffffffffffffffffffffffffff1673ffffffffffffffffffffffffffffffffffffffff1681526020016002820160009054906101000a900473ffffffffffffffffffffffffffffffffffffffff1673ffffffffffffffffffffffffffffffffffffffff1673ffffffffffffffffffffffffffffffffffffffff168152602001600382015481526020016004820154815260200160058201548152602001600682018054610585906117a0565b80601f01602080910402602001604051908101604052809291908181526020018280546105b1906117a0565b80156105fe5780601f106105d3576101008083540402835291602001916105fe565b820191906000526020600020905b8154815290600101906020018083116105e157829003601f168201915b50505050508152505082828151811061061a576106196117d1565b5b602002602001018190525080806001019150506103b1565b508092505050919050565b6005602052816000526040600020818154811061065957600080fd5b90600052602060002001600091509150508054610675906117a0565b80601f01602080910402602001604051908101604052809291908181526020018280546106a1906117a0565b80156106ee5780601f106106c3576101008083540402835291602001916106ee565b820191906000526020600020905b8154815290600101906020018083116106d157829003601f168201915b505050505081565b60036020528060005260406000206000915090505481565b6000600360008373ffffffffffffffffffffffffffffffffffffffff1673ffffffffffffffffffffffffffffffffffffffff168152602001908152602001600020549050919050565b600481805160208101820180518482526020830160208501208183528095505050505050600091509050806000018054610790906117a0565b80601f01602080910402602001604051908101604052809291908181526020018280546107bc906117a0565b80156108095780601f106107de57610100808354040283529160200191610809565b820191906000526020600020905b8154815290600101906020018083116107ec57829003601f168201915b5050505050908060010160009054906101000a900460ff16908060010160019054906101000a900473ffffffffffffffffffffffffffffffffffffffff16908060020160009054906101000a900473ffffffffffffffffffffffffffffffffffffffff169080600301549080600401549080600501549080600601805461088f906117a0565b80601f01602080910402602001604051908101604052809291908181526020018280546108bb906117a0565b80156109085780601f106108dd57610100808354040283529160200191610908565b820191906000526020600020905b8154815290600101906020018083116108eb57829003601f168201915b5050505050905088565b60025481565b80600060048260405161092b919061183c565b90815260200160405180910390206000018054610947906117a0565b905014610989576040517f08c379a00000000000000000000000000000000000000000000000000000000081526004016109809061189f565b60405180910390fd5b60006040518061010001604052808481526020016000151581526020018773ffffffffffffffffffffffffffffffffffffffff1681526020018873ffffffffffffffffffffffffffffffffffffffff1681526020018681526020014281526020016000815260200185815250905080600484604051610a08919061183c565b90815260200160405180910390206000820151816000019081610a2b9190611a61565b5060208201518160010160006101000a81548160ff02191690831515021790555060408201518160010160016101000a81548173ffffffffffffffffffffffffffffffffffffffff021916908373ffffffffffffffffffffffffffffffffffffffff16021790555060608201518160020160006101000a81548173ffffffffffffffffffffffffffffffffffffffff021916908373ffffffffffffffffffffffffffffffffffffffff1602179055506080820151816003015560a0820151816004015560c0820151816005015560e0820151816006019081610b0d9190611a61565b50905050600560008873ffffffffffffffffffffffffffffffffffffffff1673ffffffffffffffffffffffffffffffffffffffff16815260200190815260200160002083908060018154018082558091505060019003906000526020600020016000909190919091509081610b829190611a61565b5084600360008973ffffffffffffffffffffffffffffffffffffffff1673ffffffffffffffffffffffffffffffffffffffff1681526020019081526020016000206000828254610bd29190611b62565b925050819055508673ffffffffffffffffffffffffffffffffffffffff163373ffffffffffffffffffffffffffffffffffffffff167fb810f68ef93d0b5c98b363f0d47a6e1f3e9af7ea538b02fc226ad84eb32f77a08786604051610c38929190611b96565b60405180910390a350505050505050565b60008054906101000a900473ffffffffffffffffffffffffffffffffffffffff1681565b600160009054906101000a900473ffffffffffffffffffffffffffffffffffffffff1681565b600080600484604051610ca6919061183c565b908152602001604051809103902090508060010160009054906101000a900460ff1615610d08576040517f08c379a0000000000000000000000000000000000000000000000000000000008152600401610cff90611c12565b60405180910390fd5b8060020160009054906101000a900473ffffffffffffffffffffffffffffffffffffffff1673ffffffffffffffffffffffffffffffffffffffff168373ffffffffffffffffffffffffffffffffffffffff1614610d9a576040517f08c379a0000000000000000000000000000000000000000000000000000000008152600401610d9190611c7e565b60405180910390fd5b60008160030154905060008054906101000a900473ffffffffffffffffffffffffffffffffffffffff1673ffffffffffffffffffffffffffffffffffffffff166379cc679085836040518363ffffffff1660e01b8152600401610dfe929190611c9e565b600060405180830381600087803b158015610e1857600080fd5b505af1158015610e2c573d6000803e3d6000fd5b5050505060018260010160006101000a81548160ff02191690831515021790555042826005018190555080600360008673ffffffffffffffffffffffffffffffffffffffff1673ffffffffffffffffffffffffffffffffffffffff1681526020019081526020016000206000828254610ea59190611cc7565b925050819055508373ffffffffffffffffffffffffffffffffffffffff167f5ce0614a46459714585c219d6fb0dd3a4b01b81fc18567ebe68bf418067c91d48287604051610ef4929190611b96565b60405180910390a260019250505092915050565b60405180610100016040528060608152602001600015158152602001600073ffffffffffffffffffffffffffffffffffffffff168152602001600073ffffffffffffffffffffffffffffffffffffffff168152602001600081526020016000815260200160008152602001606081525090565b6000604051905090565b600080fd5b600080fd5b600073ffffffffffffffffffffffffffffffffffffffff82169050919050565b6000610fba82610f8f565b9050919050565b610fca81610faf565b8114610fd557600080fd5b50565b600081359050610fe781610fc1565b92915050565b60006020828403121561100357611002610f85565b5b600061101184828501610fd8565b91505092915050565b600081519050919050565b600082825260208201905092915050565b6000819050602082019050919050565b600081519050919050565b600082825260208201905092915050565b60005b83811015611080578082015181840152602081019050611065565b60008484015250505050565b6000601f19601f8301169050919050565b60006110a882611046565b6110b28185611051565b93506110c2818560208601611062565b6110cb8161108c565b840191505092915050565b60008115159050919050565b6110eb816110d6565b82525050565b6110fa81610faf565b82525050565b6000819050919050565b61111381611100565b82525050565b6000610100830160008301518482036000860152611137828261109d565b915050602083015161114c60208601826110e2565b50604083015161115f60408601826110f1565b50606083015161117260608601826110f1565b506080830151611185608086018261110a565b5060a083015161119860a086018261110a565b5060c08301516111ab60c086018261110a565b5060e083015184820360e08601526111c3828261109d565b9150508091505092915050565b60006111dc8383611119565b905092915050565b6000602082019050919050565b60006111fc8261101a565b6112068185611025565b93508360208202850161121885611036565b8060005b85811015611254578484038952815161123585826111d0565b9450611240836111e4565b925060208a0199505060018101905061121c565b50829750879550505050505092915050565b6000602082019050818103600083015261128081846111f1565b905092915050565b61129181611100565b811461129c57600080fd5b50565b6000813590506112ae81611288565b92915050565b600080604083850312156112cb576112ca610f85565b5b60006112d985828601610fd8565b92505060206112ea8582860161129f565b9150509250929050565b600082825260208201905092915050565b600061131082611046565b61131a81856112f4565b935061132a818560208601611062565b6113338161108c565b840191505092915050565b600060208201905081810360008301526113588184611305565b905092915050565b61136981611100565b82525050565b60006020820190506113846000830184611360565b92915050565b600080fd5b600080fd5b7f4e487b7100000000000000000000000000000000000000000000000000000000600052604160045260246000fd5b6113cc8261108c565b810181811067ffffffffffffffff821117156113eb576113ea611394565b5b80604052505050565b60006113fe610f7b565b905061140a82826113c3565b919050565b600067ffffffffffffffff82111561142a57611429611394565b5b6114338261108c565b9050602081019050919050565b82818337600083830152505050565b600061146261145d8461140f565b6113f4565b90508281526020810184848401111561147e5761147d61138f565b5b611489848285611440565b509392505050565b600082601f8301126114a6576114a561138a565b5b81356114b684826020860161144f565b91505092915050565b6000602082840312156114d5576114d4610f85565b5b600082013567ffffffffffffffff8111156114f3576114f2610f8a565b5b6114ff84828501611491565b91505092915050565b611511816110d6565b82525050565b61152081610faf565b82525050565b6000610100820190508181036000830152611541818b611305565b9050611550602083018a611508565b61155d6040830189611517565b61156a6060830188611517565b6115776080830187611360565b61158460a0830186611360565b61159160c0830185611360565b81810360e08301526115a38184611305565b90509998505050505050505050565b600080600080600060a086880312156115ce576115cd610f85565b5b60006115dc88828901610fd8565b95505060206115ed88828901610fd8565b94505060406115fe8882890161129f565b935050606086013567ffffffffffffffff81111561161f5761161e610f8a565b5b61162b88828901611491565b925050608086013567ffffffffffffffff81111561164c5761164b610f8a565b5b61165888828901611491565b9150509295509295909350565b6000819050919050565b600061168a61168561168084610f8f565b611665565b610f8f565b9050919050565b600061169c8261166f565b9050919050565b60006116ae82611691565b9050919050565b6116be816116a3565b82525050565b60006020820190506116d960008301846116b5565b92915050565b60006020820190506116f46000830184611517565b92915050565b6000806040838503121561171157611710610f85565b5b600083013567ffffffffffffffff81111561172f5761172e610f8a565b5b61173b85828601611491565b925050602061174c85828601610fd8565b9150509250929050565b600060208201905061176b6000830184611508565b92915050565b7f4e487b7100000000000000000000000000000000000000000000000000000000600052602260045260246000fd5b600060028204905060018216806117b857607f821691505b6020821081036117cb576117ca611771565b5b50919050565b7f4e487b7100000000000000000000000000000000000000000000000000000000600052603260045260246000fd5b600081905092915050565b600061181682611046565b6118208185611800565b9350611830818560208601611062565b80840191505092915050565b6000611848828461180b565b915081905092915050565b7f42696c6c20494420616c72656164792065786973747300000000000000000000600082015250565b60006118896016836112f4565b915061189482611853565b602082019050919050565b600060208201905081810360008301526118b88161187c565b9050919050565b60008190508160005260206000209050919050565b60006020601f8301049050919050565b600082821b905092915050565b6000600883026119217fffffffffffffffffffffffffffffffffffffffffffffffffffffffffffffffff826118e4565b61192b86836118e4565b95508019841693508086168417925050509392505050565b600061195e61195961195484611100565b611665565b611100565b9050919050565b6000819050919050565b61197883611943565b61198c61198482611965565b8484546118f1565b825550505050565b600090565b6119a1611994565b6119ac81848461196f565b505050565b5b818110156119d0576119c5600082611999565b6001810190506119b2565b5050565b601f821115611a15576119e6816118bf565b6119ef846118d4565b810160208510156119fe578190505b611a12611a0a856118d4565b8301826119b1565b50505b505050565b600082821c905092915050565b6000611a3860001984600802611a1a565b1980831691505092915050565b6000611a518383611a27565b9150826002028217905092915050565b611a6a82611046565b67ffffffffffffffff811115611a8357611a82611394565b5b611a8d82546117a0565b611a988282856119d4565b600060209050601f831160018114611acb5760008415611ab9578287015190505b611ac38582611a45565b865550611b2b565b601f198416611ad9866118bf565b60005b82811015611b0157848901518255600182019150602085019450602081019050611adc565b86831015611b1e5784890151611b1a601f891682611a27565b8355505b6001600288020188555050505b505050505050565b7f4e487b7100000000000000000000000000000000000000000000000000000000600052601160045260246000fd5b6000611b6d82611100565b9150611b7883611100565b9250828201905080821115611b9057611b8f611b33565b5b92915050565b6000604082019050611bab6000830185611360565b8181036020830152611bbd8184611305565b90509392505050565b7f42696c6c20616c72656164792070616964000000000000000000000000000000600082015250565b6000611bfc6011836112f4565b9150611c0782611bc6565b602082019050919050565b60006020820190508181036000830152611c2b81611bef565b9050919050565b7f4e6f74207468652062696c6c6565000000000000000000000000000000000000600082015250565b6000611c68600e836112f4565b9150611c7382611c32565b602082019050919050565b60006020820190508181036000830152611c9781611c5b565b9050919050565b6000604082019050611cb36000830185611517565b611cc06020830184611360565b9392505050565b6000611cd282611100565b9150611cdd83611100565b9250828203905081811115611cf557611cf4611b33565b5b9291505056fea2646970667358221220327eb9134f76ce0e7bdcb7cfaeeb20d804125afdaef330e94d18f59d670ad64c64736f6c634300081c0033",
  "linkReferences": {},
  "deployedLinkReferences": {}
}