{
  "_format": "hh-sol-artifact-1",
  "contractName": "SmartMeterCollectionFactory",
  "sourceName": "contracts/SmartMeterCollectionFactory.sol",
  "abi": [
    {
      "inputs": [],
      "stateMutability": "nonpayable",
      "type": "constructor"
    },
    {
      "anonymous": false,
      "inputs": [
        {
          "indexed": true,
          "internalType": "address",
          "name": "contractAddress",
          "type": "address"
        },
        {
          "indexed": true,
          "internalType": "address",
          "name": "creator",
          "type": "address"
        }
      ],
      "name": "ContractCreated",
      "type": "event"
    },
    {
      "inputs": [
        {
          "internalType": "address",
          "name": "_master",
          "type": "address"
        }
      ],
      "name": "addMasterParticipant",
      "outputs": [],
      "stateMutability": "nonpayable",
      "type": "function"
    },
    {
      "inputs": [
        {
          "internalType": "string",
          "name": "_name",
          "type": "string"
        },
        {
          "internalType": "string",
          "name": "_ownerName",
          "type": "string"
        },
        {
          "internalType": "address",
          "name": "_smartMeterAddress",
          "type": "address"
        },
        {
          "internalType": "string",
          "name": "_smartMeterId",
          "type": "string"
        },
        {
          "components": [
            {
              "internalType": "string",
              "name": "ownerName",
              "type": "string"
            },
            {
              "internalType": "string",
              "name": "streetName",
              "type": "string"
            },
            {
              "internalType": "string",
              "name": "cityCode",
              "type": "string"
            },
            {
              "internalType": "string",
              "name": "cityName",
              "type": "string"
            },
            {
              "internalType": "string",
              "name": "country",
              "type": "string"
            },
            {
              "internalType": "string",
              "name": "email",
              "type": "string"
            },
            {
              "internalType": "string",
              "name": "phone",
              "type": "string"
            }
          ],
          "internalType": "struct AddressInfo",
          "name": "_ownerContactInfo",
          "type": "tuple"
        }
      ],
      "name": "createCollectionContract",
      "outputs": [
        {
          "internalType": "address",
          "name": "",
          "type": "address"
        },
        {
          "components": [
            {
              "internalType": "string",
              "name": "ownerName",
              "type": "string"
            },
            {
              "internalType": "string",
              "name": "streetName",
              "type": "string"
            },
            {
              "internalType": "string",
              "name": "cityCode",
              "type": "string"
            },
            {
              "internalType": "string",
              "name": "cityName",
              "type": "string"
            },
            {
              "internalType": "string",
              "name": "country",
              "type": "string"
            },
            {
              "internalType": "string",
              "name": "email",
              "type": "string"
            },
            {
              "internalType": "string",
              "name": "phone",
              "type": "string"
            }
          ],
          "internalType": "struct AddressInfo",
          "name": "",
          "type": "tuple"
        }
      ],
      "stateMutability": "nonpayable",
      "type": "function"
    },
    {
      "inputs": [],
      "name": "getMasterContracts",
      "outputs": [
        {
          "internalType": "address[]",
          "name": "",
          "type": "address[]"
        }
      ],
      "stateMutability": "view",
      "type": "function"
    },
    {
      "inputs": [
        {
          "internalType": "address",
          "name": "",
          "type": "address"
        }
      ],
      "name": "isMasterParticipant",
      "outputs": [
        {
          "internalType": "bool",
          "name": "",
          "type": "bool"
        }
      ],
      "stateMutability": "view",
      "type": "function"
    },
    {
      "inputs": [
        {
          "internalType": "address",
          "name": "",
          "type": "address"
        },
        {
          "internalType": "uint256",
          "name": "",
          "type": "uint256"
        }
      ],
      "name": "masterContracts",
      "outputs": [
        {
          "internalType": "address",
          "name": "",
          "type": "address"
        }
      ],
      "stateMutability": "view",
      "type": "function"
    },
    {
      "inputs": [],
      "name": "masterParticipant",
      "outputs": [
        {
          "internalType": "address",
          "name": "",
          "type": "address"
        }
      ],
      "stateMutability": "view",
      "type": "function"
    }
  ],
  "bytecode": "0x6080604052348015600f57600080fd5b50336000806101000a81548173ffffffffffffffffffffffffffffffffffffffff021916908373ffffffffffffffffffffffffffffffffffffffff16021790555060018060003373ffffffffffffffffffffffffffffffffffffffff1673ffffffffffffffffffffffffffffffffffffffff16815260200190815260200160002060006101000a81548160ff02191690831515021790555061a3c4806100b66000396000f3fe608060405234801561001057600080fd5b50600436106100625760003560e01c806322fe8f331461006757806379aadcf7146100855780639885d945146100b55780639a8b0e66146100d35780639f014b0e14610104578063fb57b67214610120575b600080fd5b61006f610150565b60405161007c919061066c565b60405180910390f35b61009f600480360381019061009a91906106c7565b610174565b6040516100ac919061070f565b60405180910390f35b6100bd610194565b6040516100ca91906107e8565b60405180910390f35b6100ed60048036038101906100e89190610ad2565b61025f565b6040516100fb929190610d02565b60405180910390f35b61011e600480360381019061011991906106c7565b6104ab565b005b61013a60048036038101906101359190610d68565b610593565b604051610147919061066c565b60405180910390f35b60008054906101000a900473ffffffffffffffffffffffffffffffffffffffff1681565b60016020528060005260406000206000915054906101000a900460ff1681565b6060600260003373ffffffffffffffffffffffffffffffffffffffff1673ffffffffffffffffffffffffffffffffffffffff16815260200190815260200160002080548060200260200160405190810160405280929190818152602001828054801561025557602002820191906000526020600020905b8160009054906101000a900473ffffffffffffffffffffffffffffffffffffffff1673ffffffffffffffffffffffffffffffffffffffff168152602001906001019080831161020b575b5050505050905090565b60006102696105e1565b600160003373ffffffffffffffffffffffffffffffffffffffff1673ffffffffffffffffffffffffffffffffffffffff16815260200190815260200160002060009054906101000a900460ff166102f5576040517f08c379a00000000000000000000000000000000000000000000000000000000081526004016102ec90610e05565b60405180910390fd5b600033846040516103059061061e565b610310929190610d02565b604051809103906000f08015801561032c573d6000803e3d6000fd5b5090508073ffffffffffffffffffffffffffffffffffffffff1663babd9692898989896040518563ffffffff1660e01b815260040161036e9493929190610e5e565b600060405180830381600087803b15801561038857600080fd5b505af115801561039c573d6000803e3d6000fd5b50505050600260003373ffffffffffffffffffffffffffffffffffffffff1673ffffffffffffffffffffffffffffffffffffffff168152602001908152602001600020819080600181540180825580915050600190039060005260206000200160009091909190916101000a81548173ffffffffffffffffffffffffffffffffffffffff021916908373ffffffffffffffffffffffffffffffffffffffff1602179055503373ffffffffffffffffffffffffffffffffffffffff168173ffffffffffffffffffffffffffffffffffffffff167f2d49c67975aadd2d389580b368cfff5b49965b0bd5da33c144922ce01e7a4d7b60405160405180910390a3808492509250509550959350505050565b60008054906101000a900473ffffffffffffffffffffffffffffffffffffffff1673ffffffffffffffffffffffffffffffffffffffff163373ffffffffffffffffffffffffffffffffffffffff1614610539576040517f08c379a000000000000000000000000000000000000000000000000000000000815260040161053090610f04565b60405180910390fd5b60018060008373ffffffffffffffffffffffffffffffffffffffff1673ffffffffffffffffffffffffffffffffffffffff16815260200190815260200160002060006101000a81548160ff02191690831515021790555050565b600260205281600052604060002081815481106105af57600080fd5b906000526020600020016000915091509054906101000a900473ffffffffffffffffffffffffffffffffffffffff1681565b6040518060e00160405280606081526020016060815260200160608152602001606081526020016060815260200160608152602001606081525090565b61946a80610f2583390190565b600073ffffffffffffffffffffffffffffffffffffffff82169050919050565b60006106568261062b565b9050919050565b6106668161064b565b82525050565b6000602082019050610681600083018461065d565b92915050565b6000604051905090565b600080fd5b600080fd5b6106a48161064b565b81146106af57600080fd5b50565b6000813590506106c18161069b565b92915050565b6000602082840312156106dd576106dc610691565b5b60006106eb848285016106b2565b91505092915050565b60008115159050919050565b610709816106f4565b82525050565b60006020820190506107246000830184610700565b92915050565b600081519050919050565b600082825260208201905092915050565b6000819050602082019050919050565b61075f8161064b565b82525050565b60006107718383610756565b60208301905092915050565b6000602082019050919050565b60006107958261072a565b61079f8185610735565b93506107aa83610746565b8060005b838110156107db5781516107c28882610765565b97506107cd8361077d565b9250506001810190506107ae565b5085935050505092915050565b60006020820190508181036000830152610802818461078a565b905092915050565b600080fd5b600080fd5b6000601f19601f8301169050919050565b7f4e487b7100000000000000000000000000000000000000000000000000000000600052604160045260246000fd5b61085d82610814565b810181811067ffffffffffffffff8211171561087c5761087b610825565b5b80604052505050565b600061088f610687565b905061089b8282610854565b919050565b600067ffffffffffffffff8211156108bb576108ba610825565b5b6108c482610814565b9050602081019050919050565b82818337600083830152505050565b60006108f36108ee846108a0565b610885565b90508281526020810184848401111561090f5761090e61080f565b5b61091a8482856108d1565b509392505050565b600082601f8301126109375761093661080a565b5b81356109478482602086016108e0565b91505092915050565b600080fd5b600080fd5b600060e082840312156109705761096f610950565b5b61097a60e0610885565b9050600082013567ffffffffffffffff81111561099a57610999610955565b5b6109a684828501610922565b600083015250602082013567ffffffffffffffff8111156109ca576109c9610955565b5b6109d684828501610922565b602083015250604082013567ffffffffffffffff8111156109fa576109f9610955565b5b610a0684828501610922565b604083015250606082013567ffffffffffffffff811115610a2a57610a29610955565b5b610a3684828501610922565b606083015250608082013567ffffffffffffffff811115610a5a57610a59610955565b5b610a6684828501610922565b60808301525060a082013567ffffffffffffffff811115610a8a57610a89610955565b5b610a9684828501610922565b60a08301525060c082013567ffffffffffffffff811115610aba57610ab9610955565b5b610ac684828501610922565b60c08301525092915050565b600080600080600060a08688031215610aee57610aed610691565b5b600086013567ffffffffffffffff811115610b0c57610b0b610696565b5b610b1888828901610922565b955050602086013567ffffffffffffffff811115610b3957610b38610696565b5b610b4588828901610922565b9450506040610b56888289016106b2565b935050606086013567ffffffffffffffff811115610b7757610b76610696565b5b610b8388828901610922565b925050608086013567ffffffffffffffff811115610ba457610ba3610696565b5b610bb08882890161095a565b9150509295509295909350565b600081519050919050565b600082825260208201905092915050565b60005b83811015610bf7578082015181840152602081019050610bdc565b60008484015250505050565b6000610c0e82610bbd565b610c188185610bc8565b9350610c28818560208601610bd9565b610c3181610814565b840191505092915050565b600060e0830160008301518482036000860152610c598282610c03565b91505060208301518482036020860152610c738282610c03565b91505060408301518482036040860152610c8d8282610c03565b91505060608301518482036060860152610ca78282610c03565b91505060808301518482036080860152610cc18282610c03565b91505060a083015184820360a0860152610cdb8282610c03565b91505060c083015184820360c0860152610cf58282610c03565b9150508091505092915050565b6000604082019050610d17600083018561065d565b8181036020830152610d298184610c3c565b90509392505050565b6000819050919050565b610d4581610d32565b8114610d5057600080fd5b50565b600081359050610d6281610d3c565b92915050565b60008060408385031215610d7f57610d7e610691565b5b6000610d8d858286016106b2565b9250506020610d9e85828601610d53565b9150509250929050565b600082825260208201905092915050565b7f4f6e6c79206d6173746572207061727469636970616e74730000000000000000600082015250565b6000610def601883610da8565b9150610dfa82610db9565b602082019050919050565b60006020820190508181036000830152610e1e81610de2565b9050919050565b6000610e3082610bbd565b610e3a8185610da8565b9350610e4a818560208601610bd9565b610e5381610814565b840191505092915050565b60006080820190508181036000830152610e788187610e25565b90508181036020830152610e8c8186610e25565b9050610e9b604083018561065d565b8181036060830152610ead8184610e25565b905095945050505050565b7f4f6e6c79206d61696e206d617374657200000000000000000000000000000000600082015250565b6000610eee601083610da8565b9150610ef982610eb8565b602082019050919050565b60006020820190508181036000830152610f1d81610ee1565b905091905056fe608060405234801561001057600080fd5b5060405161946a38038061946a833981810160405281019061003291906106dc565b6100776040518060400160405280601781526020017f4372656174696e6720636f6c6c656374696f6e20666f720000000000000000008152508361026a60201b60201c565b816000806101000a81548173ffffffffffffffffffffffffffffffffffffffff021916908373ffffffffffffffffffffffffffffffffffffffff16021790555080600360008201518160000190816100cf9190610959565b5060208201518160010190816100e59190610959565b5060408201518160020190816100fb9190610959565b5060608201518160030190816101119190610959565b5060808201518160040190816101279190610959565b5060a082015181600501908161013d9190610959565b5060c08201518160060190816101539190610959565b509050503060405161016490610363565b61016e9190610a3a565b604051809103906000f08015801561018a573d6000803e3d6000fd5b50600160006101000a81548173ffffffffffffffffffffffffffffffffffffffff021916908373ffffffffffffffffffffffffffffffffffffffff16021790555081600160009054906101000a900473ffffffffffffffffffffffffffffffffffffffff166040516101fb90610370565b610206929190610aaa565b604051809103906000f080158015610222573d6000803e3d6000fd5b50600260006101000a81548173ffffffffffffffffffffffffffffffffffffffff021916908373ffffffffffffffffffffffffffffffffffffffff1602179055505050610b7c565b6103088282604051602401610280929190610b1d565b6040516020818303038152906040527f319af333000000000000000000000000000000000000000000000000000000007bffffffffffffffffffffffffffffffffffffffffffffffffffffffff19166020820180517bffffffffffffffffffffffffffffffffffffffffffffffffffffffff838183161783525050505061030c60201b60201c565b5050565b61032d8161032861033060201b6133ea1761035160201b60201c565b60201c565b50565b60006a636f6e736f6c652e6c6f679050600080835160208501845afa505050565b61037d60201b61340b17819050919050565b6118d680615cad83390190565b611ee78061758383390190565b610385610b4d565b565b6000604051905090565b600080fd5b600080fd5b600073ffffffffffffffffffffffffffffffffffffffff82169050919050565b60006103c68261039b565b9050919050565b6103d6816103bb565b81146103e157600080fd5b50565b6000815190506103f3816103cd565b92915050565b600080fd5b6000601f19601f8301169050919050565b7f4e487b7100000000000000000000000000000000000000000000000000000000600052604160045260246000fd5b610447826103fe565b810181811067ffffffffffffffff821117156104665761046561040f565b5b80604052505050565b6000610479610387565b9050610485828261043e565b919050565b600080fd5b600080fd5b600080fd5b600067ffffffffffffffff8211156104b4576104b361040f565b5b6104bd826103fe565b9050602081019050919050565b60005b838110156104e85780820151818401526020810190506104cd565b60008484015250505050565b600061050761050284610499565b61046f565b90508281526020810184848401111561052357610522610494565b5b61052e8482856104ca565b509392505050565b600082601f83011261054b5761054a61048f565b5b815161055b8482602086016104f4565b91505092915050565b600060e0828403121561057a576105796103f9565b5b61058460e061046f565b9050600082015167ffffffffffffffff8111156105a4576105a361048a565b5b6105b084828501610536565b600083015250602082015167ffffffffffffffff8111156105d4576105d361048a565b5b6105e084828501610536565b602083015250604082015167ffffffffffffffff8111156106045761060361048a565b5b61061084828501610536565b604083015250606082015167ffffffffffffffff8111156106345761063361048a565b5b61064084828501610536565b606083015250608082015167ffffffffffffffff8111156106645761066361048a565b5b61067084828501610536565b60808301525060a082015167ffffffffffffffff8111156106945761069361048a565b5b6106a084828501610536565b60a08301525060c082015167ffffffffffffffff8111156106c4576106c361048a565b5b6106d084828501610536565b60c08301525092915050565b600080604083850312156106f3576106f2610391565b5b6000610701858286016103e4565b925050602083015167ffffffffffffffff81111561072257610721610396565b5b61072e85828601610564565b9150509250929050565b600081519050919050565b7f4e487b7100000000000000000000000000000000000000000000000000000000600052602260045260246000fd5b6000600282049050600182168061078a57607f821691505b60208210810361079d5761079c610743565b5b50919050565b60008190508160005260206000209050919050565b60006020601f8301049050919050565b600082821b905092915050565b6000600883026108057fffffffffffffffffffffffffffffffffffffffffffffffffffffffffffffffff826107c8565b61080f86836107c8565b95508019841693508086168417925050509392505050565b6000819050919050565b6000819050919050565b600061085661085161084c84610827565b610831565b610827565b9050919050565b6000819050919050565b6108708361083b565b61088461087c8261085d565b8484546107d5565b825550505050565b600090565b61089961088c565b6108a4818484610867565b505050565b5b818110156108c8576108bd600082610891565b6001810190506108aa565b5050565b601f82111561090d576108de816107a3565b6108e7846107b8565b810160208510156108f6578190505b61090a610902856107b8565b8301826108a9565b50505b505050565b600082821c905092915050565b600061093060001984600802610912565b1980831691505092915050565b6000610949838361091f565b9150826002028217905092915050565b61096282610738565b67ffffffffffffffff81111561097b5761097a61040f565b5b6109858254610772565b6109908282856108cc565b600060209050601f8311600181146109c357600084156109b1578287015190505b6109bb858261093d565b865550610a23565b601f1984166109d1866107a3565b60005b828110156109f9578489015182556001820191506020850194506020810190506109d4565b86831015610a165784890151610a12601f89168261091f565b8355505b6001600288020188555050505b505050505050565b610a34816103bb565b82525050565b6000602082019050610a4f6000830184610a2b565b92915050565b6000610a70610a6b610a668461039b565b610831565b61039b565b9050919050565b6000610a8282610a55565b9050919050565b6000610a9482610a77565b9050919050565b610aa481610a89565b82525050565b6000604082019050610abf6000830185610a2b565b610acc6020830184610a9b565b9392505050565b600082825260208201905092915050565b6000610aef82610738565b610af98185610ad3565b9350610b098185602086016104ca565b610b12816103fe565b840191505092915050565b60006040820190508181036000830152610b378185610ae4565b9050610b466020830184610a2b565b9392505050565b7f4e487b7100000000000000000000000000000000000000000000000000000000600052605160045260246000fd5b61512280610b8b6000396000f3fe608060405234801561001057600080fd5b50600436106101c45760003560e01c806382b2e257116100f9578063da4f1f3e11610097578063f11d5ea911610071578063f11d5ea9146104e8578063fba1f7b014610518578063fd9153a314610548578063fde0817414610579576101c4565b8063da4f1f3e1461047e578063de23dce0146104ae578063e7201d7d146104ca576101c4565b8063a5803945116100d3578063a5803945146103e4578063ae428d7814610414578063babd969214610432578063d57bc4151461044e576101c4565b806382b2e257146103a057806389160939146103be5780639439d743146103c8576101c4565b80632d7100701161016657806345a132aa1161014057806345a132aa146103175780634b1b27281461034757806353be7ded1461036557806363a3fa6114610384576101c4565b80632d710070146102c15780632dda7a72146102dd5780632fdfc25f146102f9576101c4565b8063145ef6e9116101a2578063145ef6e91461024b57806326ba1ff81461026957806326d6ec641461028757806328a11702146102a3576101c4565b806301e6f372146101c95780630d79f9c9146101e757806310f6a34314610217575b600080fd5b6101d1610597565b6040516101de9190613575565b60405180910390f35b61020160048036038101906101fc91906135e2565b6105bd565b60405161020e919061374d565b60405180910390f35b610231600480360381019061022c91906135e2565b6109b8565b6040516102429594939291906137d7565b60405180910390f35b610253610bb3565b604051610260919061383f565b60405180910390f35b610271610c48565b60405161027e9190613910565b60405180910390f35b6102a1600480360381019061029c9190613a67565b610d64565b005b6102ab610fb1565b6040516102b89190613aef565b60405180910390f35b6102db60048036038101906102d691906135e2565b611054565b005b6102f760048036038101906102f29190613b36565b6113c7565b005b61030161157c565b60405161030e9190613bd5565b60405180910390f35b610331600480360381019061032c91906135e2565b611689565b60405161033e9190613d78565b60405180910390f35b61034f61184c565b60405161035c9190613e60565b60405180910390f35b61036d611c64565b60405161037b929190613f44565b60405180910390f35b61039e60048036038101906103999190613f7b565b611e5c565b005b6103a8611f7d565b6040516103b59190613aef565b60405180910390f35b6103c6612103565b005b6103e260048036038101906103dd919061401b565b612376565b005b6103fe60048036038101906103f991906135e2565b6125c0565b60405161040b91906140bf565b60405180910390f35b61041c6125e0565b60405161042991906140fb565b60405180910390f35b61044c60048036038101906104479190614116565b612606565b005b610468600480360381019061046391906141d1565b612962565b60405161047591906140bf565b60405180910390f35b610498600480360381019061049391906135e2565b612a0c565b6040516104a5919061383f565b60405180910390f35b6104c860048036038101906104c3919061422d565b612b6c565b005b6104d2612cc5565b6040516104df9190613bd5565b60405180910390f35b61050260048036038101906104fd91906135e2565b612ce9565b60405161050f91906143a2565b60405180910390f35b610532600480360381019061052d91906135e2565b61303a565b60405161053f9190613bd5565b60405180910390f35b610562600480360381019061055d91906135e2565b613132565b6040516105709291906143c4565b60405180910390f35b6105816131fe565b60405161058e919061383f565b60405180910390f35b600260009054906101000a900473ffffffffffffffffffffffffffffffffffffffff1681565b6105c5613415565b60008054906101000a900473ffffffffffffffffffffffffffffffffffffffff1673ffffffffffffffffffffffffffffffffffffffff163373ffffffffffffffffffffffffffffffffffffffff1614806107015750601260003373ffffffffffffffffffffffffffffffffffffffff1673ffffffffffffffffffffffffffffffffffffffff16815260200190815260200160002060009054906101000a900460ff16801561070057508173ffffffffffffffffffffffffffffffffffffffff16600c60003373ffffffffffffffffffffffffffffffffffffffff1673ffffffffffffffffffffffffffffffffffffffff16815260200190815260200160002060010160009054906101000a900473ffffffffffffffffffffffffffffffffffffffff1673ffffffffffffffffffffffffffffffffffffffff16145b5b610740576040517f08c379a000000000000000000000000000000000000000000000000000000000815260040161073790614440565b60405180910390fd5b600a60008373ffffffffffffffffffffffffffffffffffffffff1673ffffffffffffffffffffffffffffffffffffffff1681526020019081526020016000206040518060a001604052908160008201805461079a9061448f565b80601f01602080910402602001604051908101604052809291908181526020018280546107c69061448f565b80156108135780601f106107e857610100808354040283529160200191610813565b820191906000526020600020905b8154815290600101906020018083116107f657829003601f168201915b5050505050815260200160018201805461082c9061448f565b80601f01602080910402602001604051908101604052809291908181526020018280546108589061448f565b80156108a55780601f1061087a576101008083540402835291602001916108a5565b820191906000526020600020905b81548152906001019060200180831161088857829003601f168201915b505050505081526020016002820160009054906101000a900473ffffffffffffffffffffffffffffffffffffffff1673ffffffffffffffffffffffffffffffffffffffff1673ffffffffffffffffffffffffffffffffffffffff1681526020016003820180546109149061448f565b80601f01602080910402602001604051908101604052809291908181526020018280546109409061448f565b801561098d5780601f106109625761010080835404028352916020019161098d565b820191906000526020600020905b81548152906001019060200180831161097057829003601f168201915b505050505081526020016004820160009054906101000a900460ff1615151515815250509050919050565b600a6020528060005260406000206000915090508060000180546109db9061448f565b80601f0160208091040260200160405190810160405280929190818152602001828054610a079061448f565b8015610a545780601f10610a2957610100808354040283529160200191610a54565b820191906000526020600020905b815481529060010190602001808311610a3757829003601f168201915b505050505090806001018054610a699061448f565b80601f0160208091040260200160405190810160405280929190818152602001828054610a959061448f565b8015610ae25780601f10610ab757610100808354040283529160200191610ae2565b820191906000526020600020905b815481529060010190602001808311610ac557829003601f168201915b5050505050908060020160009054906101000a900473ffffffffffffffffffffffffffffffffffffffff1690806003018054610b1d9061448f565b80601f0160208091040260200160405190810160405280929190818152602001828054610b499061448f565b8015610b965780601f10610b6b57610100808354040283529160200191610b96565b820191906000526020600020905b815481529060010190602001808311610b7957829003601f168201915b5050505050908060040160009054906101000a900460ff16905085565b606060036000018054610bc59061448f565b80601f0160208091040260200160405190810160405280929190818152602001828054610bf19061448f565b8015610c3e5780601f10610c1357610100808354040283529160200191610c3e565b820191906000526020600020905b815481529060010190602001808311610c2157829003601f168201915b5050505050905090565b606060008054906101000a900473ffffffffffffffffffffffffffffffffffffffff1673ffffffffffffffffffffffffffffffffffffffff163373ffffffffffffffffffffffffffffffffffffffff1614610cd8576040517f08c379a0000000000000000000000000000000000000000000000000000000008152600401610ccf9061450c565b60405180910390fd5b600b805480602002602001604051908101604052809291908181526020018280548015610d5a57602002820191906000526020600020905b8160009054906101000a900473ffffffffffffffffffffffffffffffffffffffff1673ffffffffffffffffffffffffffffffffffffffff1681526020019060010190808311610d10575b5050505050905090565b60008054906101000a900473ffffffffffffffffffffffffffffffffffffffff1673ffffffffffffffffffffffffffffffffffffffff163373ffffffffffffffffffffffffffffffffffffffff1614610df2576040517f08c379a0000000000000000000000000000000000000000000000000000000008152600401610de99061450c565b60405180910390fd5b60405180604001604052808381526020018273ffffffffffffffffffffffffffffffffffffffff16815250600c60008573ffffffffffffffffffffffffffffffffffffffff1673ffffffffffffffffffffffffffffffffffffffff1681526020019081526020016000206000820151816000019081610e7191906146ce565b5060208201518160010160006101000a81548173ffffffffffffffffffffffffffffffffffffffff021916908373ffffffffffffffffffffffffffffffffffffffff160217905550905050600d839080600181540180825580915050600190039060005260206000200160009091909190916101000a81548173ffffffffffffffffffffffffffffffffffffffff021916908373ffffffffffffffffffffffffffffffffffffffff160217905550600e82908060018154018082558091505060019003906000526020600020016000909190919091509081610f5391906146ce565b506001601260008573ffffffffffffffffffffffffffffffffffffffff1673ffffffffffffffffffffffffffffffffffffffff16815260200190815260200160002060006101000a81548160ff021916908315150217905550505050565b6000600260009054906101000a900473ffffffffffffffffffffffffffffffffffffffff1673ffffffffffffffffffffffffffffffffffffffff1663755873c5336040518263ffffffff1660e01b815260040161100e9190613bd5565b602060405180830381865afa15801561102b573d6000803e3d6000fd5b505050506040513d601f19601f8201168201806040525081019061104f91906147b5565b905090565b60008054906101000a900473ffffffffffffffffffffffffffffffffffffffff1673ffffffffffffffffffffffffffffffffffffffff163373ffffffffffffffffffffffffffffffffffffffff16146110e2576040517f08c379a00000000000000000000000000000000000000000000000000000000081526004016110d99061450c565b60405180910390fd5b6000601260008373ffffffffffffffffffffffffffffffffffffffff1673ffffffffffffffffffffffffffffffffffffffff16815260200190815260200160002060006101000a81548160ff02191690831515021790555060005b600d8054905081101561134a578173ffffffffffffffffffffffffffffffffffffffff16600d8281548110611175576111746147e2565b5b9060005260206000200160009054906101000a900473ffffffffffffffffffffffffffffffffffffffff1673ffffffffffffffffffffffffffffffffffffffff160361133d57600d6001600d805490506111cf9190614840565b815481106111e0576111df6147e2565b5b9060005260206000200160009054906101000a900473ffffffffffffffffffffffffffffffffffffffff16600d828154811061121f5761121e6147e2565b5b9060005260206000200160006101000a81548173ffffffffffffffffffffffffffffffffffffffff021916908373ffffffffffffffffffffffffffffffffffffffff160217905550600d80548061127957611278614874565b5b6001900381819060005260206000200160006101000a81549073ffffffffffffffffffffffffffffffffffffffff02191690559055600e6001600e805490506112c29190614840565b815481106112d3576112d26147e2565b5b90600052602060002001600e82815481106112f1576112f06147e2565b5b90600052602060002001908161130791906148ce565b50600e80548061131a57611319614874565b5b600190038181906000526020600020016000611336919061345c565b905561134a565b808060010191505061113d565b50600c60008273ffffffffffffffffffffffffffffffffffffffff1673ffffffffffffffffffffffffffffffffffffffff1681526020019081526020016000206000808201600061139b919061345c565b6001820160006101000a81549073ffffffffffffffffffffffffffffffffffffffff0219169055505050565b60008054906101000a900473ffffffffffffffffffffffffffffffffffffffff1673ffffffffffffffffffffffffffffffffffffffff163373ffffffffffffffffffffffffffffffffffffffff1614611455576040517f08c379a000000000000000000000000000000000000000000000000000000000815260040161144c9061450c565b60405180910390fd5b601260008573ffffffffffffffffffffffffffffffffffffffff1673ffffffffffffffffffffffffffffffffffffffff16815260200190815260200160002060009054906101000a900460ff166114e1576040517f08c379a00000000000000000000000000000000000000000000000000000000081526004016114d890614a02565b60405180910390fd5b600260009054906101000a900473ffffffffffffffffffffffffffffffffffffffff1673ffffffffffffffffffffffffffffffffffffffff1663a343fc1285338686866040518663ffffffff1660e01b8152600401611544959493929190614a22565b600060405180830381600087803b15801561155e57600080fd5b505af1158015611572573d6000803e3d6000fd5b5050505050505050565b60008060009054906101000a900473ffffffffffffffffffffffffffffffffffffffff1673ffffffffffffffffffffffffffffffffffffffff163373ffffffffffffffffffffffffffffffffffffffff1614806116225750601260003373ffffffffffffffffffffffffffffffffffffffff1673ffffffffffffffffffffffffffffffffffffffff16815260200190815260200160002060009054906101000a900460ff165b611661576040517f08c379a000000000000000000000000000000000000000000000000000000000815260040161165890614acf565b60405180910390fd5b600160009054906101000a900473ffffffffffffffffffffffffffffffffffffffff16905090565b606060008054906101000a900473ffffffffffffffffffffffffffffffffffffffff1673ffffffffffffffffffffffffffffffffffffffff163373ffffffffffffffffffffffffffffffffffffffff16148061176557508173ffffffffffffffffffffffffffffffffffffffff163373ffffffffffffffffffffffffffffffffffffffff161480156117645750601260008373ffffffffffffffffffffffffffffffffffffffff1673ffffffffffffffffffffffffffffffffffffffff16815260200190815260200160002060009054906101000a900460ff165b5b6117a4576040517f08c379a000000000000000000000000000000000000000000000000000000000815260040161179b90614440565b60405180910390fd5b600260009054906101000a900473ffffffffffffffffffffffffffffffffffffffff1673ffffffffffffffffffffffffffffffffffffffff166345a132aa836040518263ffffffff1660e01b81526004016117ff9190613bd5565b600060405180830381865afa15801561181c573d6000803e3d6000fd5b505050506040513d6000823e3d601f19601f820116820180604052508101906118459190614d8d565b9050919050565b61185461349c565b60036040518060e00160405290816000820180546118719061448f565b80601f016020809104026020016040519081016040528092919081815260200182805461189d9061448f565b80156118ea5780601f106118bf576101008083540402835291602001916118ea565b820191906000526020600020905b8154815290600101906020018083116118cd57829003601f168201915b505050505081526020016001820180546119039061448f565b80601f016020809104026020016040519081016040528092919081815260200182805461192f9061448f565b801561197c5780601f106119515761010080835404028352916020019161197c565b820191906000526020600020905b81548152906001019060200180831161195f57829003601f168201915b505050505081526020016002820180546119959061448f565b80601f01602080910402602001604051908101604052809291908181526020018280546119c19061448f565b8015611a0e5780601f106119e357610100808354040283529160200191611a0e565b820191906000526020600020905b8154815290600101906020018083116119f157829003601f168201915b50505050508152602001600382018054611a279061448f565b80601f0160208091040260200160405190810160405280929190818152602001828054611a539061448f565b8015611aa05780601f10611a7557610100808354040283529160200191611aa0565b820191906000526020600020905b815481529060010190602001808311611a8357829003601f168201915b50505050508152602001600482018054611ab99061448f565b80601f0160208091040260200160405190810160405280929190818152602001828054611ae59061448f565b8015611b325780601f10611b0757610100808354040283529160200191611b32565b820191906000526020600020905b815481529060010190602001808311611b1557829003601f168201915b50505050508152602001600582018054611b4b9061448f565b80601f0160208091040260200160405190810160405280929190818152602001828054611b779061448f565b8015611bc45780601f10611b9957610100808354040283529160200191611bc4565b820191906000526020600020905b815481529060010190602001808311611ba757829003601f168201915b50505050508152602001600682018054611bdd9061448f565b80601f0160208091040260200160405190810160405280929190818152602001828054611c099061448f565b8015611c565780601f10611c2b57610100808354040283529160200191611c56565b820191906000526020600020905b815481529060010190602001808311611c3957829003601f168201915b505050505081525050905090565b60608060008054906101000a900473ffffffffffffffffffffffffffffffffffffffff1673ffffffffffffffffffffffffffffffffffffffff163373ffffffffffffffffffffffffffffffffffffffff1614611cf5576040517f08c379a0000000000000000000000000000000000000000000000000000000008152600401611cec9061450c565b60405180910390fd5b600d600e81805480602002602001604051908101604052809291908181526020018280548015611d7a57602002820191906000526020600020905b8160009054906101000a900473ffffffffffffffffffffffffffffffffffffffff1673ffffffffffffffffffffffffffffffffffffffff1681526020019060010190808311611d30575b5050505050915080805480602002602001604051908101604052809291908181526020016000905b82821015611e4e578382906000526020600020018054611dc19061448f565b80601f0160208091040260200160405190810160405280929190818152602001828054611ded9061448f565b8015611e3a5780601f10611e0f57610100808354040283529160200191611e3a565b820191906000526020600020905b815481529060010190602001808311611e1d57829003601f168201915b505050505081526020019060010190611da2565b505050509050915091509091565b60008054906101000a900473ffffffffffffffffffffffffffffffffffffffff1673ffffffffffffffffffffffffffffffffffffffff163373ffffffffffffffffffffffffffffffffffffffff1614611eea576040517f08c379a0000000000000000000000000000000000000000000000000000000008152600401611ee19061450c565b60405180910390fd5b600160009054906101000a900473ffffffffffffffffffffffffffffffffffffffff1673ffffffffffffffffffffffffffffffffffffffff166340c10f1983836040518363ffffffff1660e01b8152600401611f47929190614dd6565b600060405180830381600087803b158015611f6157600080fd5b505af1158015611f75573d6000803e3d6000fd5b505050505050565b60008060009054906101000a900473ffffffffffffffffffffffffffffffffffffffff1673ffffffffffffffffffffffffffffffffffffffff163373ffffffffffffffffffffffffffffffffffffffff1614806120235750601260003373ffffffffffffffffffffffffffffffffffffffff1673ffffffffffffffffffffffffffffffffffffffff16815260200190815260200160002060009054906101000a900460ff165b612062576040517f08c379a000000000000000000000000000000000000000000000000000000000815260040161205990614440565b60405180910390fd5b600160009054906101000a900473ffffffffffffffffffffffffffffffffffffffff1673ffffffffffffffffffffffffffffffffffffffff166370a08231336040518263ffffffff1660e01b81526004016120bd9190613bd5565b602060405180830381865afa1580156120da573d6000803e3d6000fd5b505050506040513d601f19601f820116820180604052508101906120fe91906147b5565b905090565b60008054906101000a900473ffffffffffffffffffffffffffffffffffffffff1673ffffffffffffffffffffffffffffffffffffffff163373ffffffffffffffffffffffffffffffffffffffff1614612191576040517f08c379a00000000000000000000000000000000000000000000000000000000081526004016121889061450c565b60405180910390fd5b6000600160009054906101000a900473ffffffffffffffffffffffffffffffffffffffff1673ffffffffffffffffffffffffffffffffffffffff166370a08231306040518263ffffffff1660e01b81526004016121ee9190613bd5565b602060405180830381865afa15801561220b573d6000803e3d6000fd5b505050506040513d601f19601f8201168201806040525081019061222f91906147b5565b905060008111612274576040517f08c379a000000000000000000000000000000000000000000000000000000000815260040161226b90614e4b565b60405180910390fd5b600160009054906101000a900473ffffffffffffffffffffffffffffffffffffffff1673ffffffffffffffffffffffffffffffffffffffff1663a9059cbb60008054906101000a900473ffffffffffffffffffffffffffffffffffffffff16836040518363ffffffff1660e01b81526004016122f1929190614dd6565b6020604051808303816000875af1158015612310573d6000803e3d6000fd5b505050506040513d601f19601f820116820180604052508101906123349190614e6b565b612373576040517f08c379a000000000000000000000000000000000000000000000000000000000815260040161236a90614ee4565b60405180910390fd5b50565b601160003373ffffffffffffffffffffffffffffffffffffffff1673ffffffffffffffffffffffffffffffffffffffff16815260200190815260200160002060009054906101000a900460ff16801561241b5750600a60003373ffffffffffffffffffffffffffffffffffffffff1673ffffffffffffffffffffffffffffffffffffffff16815260200190815260200160002060040160009054906101000a900460ff165b61245a576040517f08c379a000000000000000000000000000000000000000000000000000000000815260040161245190614f50565b60405180910390fd5b600f60003373ffffffffffffffffffffffffffffffffffffffff1673ffffffffffffffffffffffffffffffffffffffff168152602001908152602001600020604051806080016040528087815260200186815260200185858080601f016020809104026020016040519081016040528093929190818152602001838380828437600081840152601f19601f8201169050808301925050505050505081526020018381525090806001815401808255809150506001900390600052602060002090600402016000909190919091506000820151816000015560208201518160010155604082015181600201908161255091906146ce565b50606082015181600301908161256691906146ce565b5050503373ffffffffffffffffffffffffffffffffffffffff167f550066d608ea56e089cd4c6f3ccd9557109a2adf9eb1fc812763cbffe3a325d142866040516125b1929190614f70565b60405180910390a25050505050565b60126020528060005260406000206000915054906101000a900460ff1681565b600160009054906101000a900473ffffffffffffffffffffffffffffffffffffffff1681565b60008054906101000a900473ffffffffffffffffffffffffffffffffffffffff1673ffffffffffffffffffffffffffffffffffffffff163373ffffffffffffffffffffffffffffffffffffffff1614612694576040517f08c379a000000000000000000000000000000000000000000000000000000000815260040161268b9061450c565b60405180910390fd5b600a60008373ffffffffffffffffffffffffffffffffffffffff1673ffffffffffffffffffffffffffffffffffffffff16815260200190815260200160002060040160009054906101000a900460ff1615612724576040517f08c379a000000000000000000000000000000000000000000000000000000000815260040161271b90614fe5565b60405180910390fd5b6040518060a001604052808581526020018481526020018373ffffffffffffffffffffffffffffffffffffffff16815260200182815260200160011515815250600a60008473ffffffffffffffffffffffffffffffffffffffff1673ffffffffffffffffffffffffffffffffffffffff16815260200190815260200160002060008201518160000190816127b891906146ce565b5060208201518160010190816127ce91906146ce565b5060408201518160020160006101000a81548173ffffffffffffffffffffffffffffffffffffffff021916908373ffffffffffffffffffffffffffffffffffffffff160217905550606082015181600301908161282b91906146ce565b5060808201518160040160006101000a81548160ff0219169083151502179055509050506001601160008473ffffffffffffffffffffffffffffffffffffffff1673ffffffffffffffffffffffffffffffffffffffff16815260200190815260200160002060006101000a81548160ff021916908315150217905550600b829080600181540180825580915050600190039060005260206000200160009091909190916101000a81548173ffffffffffffffffffffffffffffffffffffffff021916908373ffffffffffffffffffffffffffffffffffffffff1602179055508173ffffffffffffffffffffffffffffffffffffffff167f49678145bcf4dcaf25c4bff4c2bd8262ee07185373d0e2c241598420b8e4d73185858460405161295493929190615005565b60405180910390a250505050565b6000600260009054906101000a900473ffffffffffffffffffffffffffffffffffffffff1673ffffffffffffffffffffffffffffffffffffffff1663f4858c6684846040518363ffffffff1660e01b81526004016129c19291906143c4565b6020604051808303816000875af11580156129e0573d6000803e3d6000fd5b505050506040513d601f19601f82011682018060405250810190612a049190614e6b565b905092915050565b6060601260003373ffffffffffffffffffffffffffffffffffffffff1673ffffffffffffffffffffffffffffffffffffffff16815260200190815260200160002060009054906101000a900460ff16612a9a576040517f08c379a0000000000000000000000000000000000000000000000000000000008152600401612a919061509d565b60405180910390fd5b600c60008373ffffffffffffffffffffffffffffffffffffffff1673ffffffffffffffffffffffffffffffffffffffff1681526020019081526020016000206000018054612ae79061448f565b80601f0160208091040260200160405190810160405280929190818152602001828054612b139061448f565b8015612b605780601f10612b3557610100808354040283529160200191612b60565b820191906000526020600020905b815481529060010190602001808311612b4357829003601f168201915b50505050509050919050565b601160003373ffffffffffffffffffffffffffffffffffffffff1673ffffffffffffffffffffffffffffffffffffffff16815260200190815260200160002060009054906101000a900460ff168015612c115750600a60003373ffffffffffffffffffffffffffffffffffffffff1673ffffffffffffffffffffffffffffffffffffffff16815260200190815260200160002060040160009054906101000a900460ff165b612c50576040517f08c379a0000000000000000000000000000000000000000000000000000000008152600401612c4790614f50565b60405180910390fd5b601060003373ffffffffffffffffffffffffffffffffffffffff1673ffffffffffffffffffffffffffffffffffffffff16815260200190815260200160002081908060018154018082558091505060019003906000526020600020016000909190919091509081612cc191906146ce565b5050565b60008054906101000a900473ffffffffffffffffffffffffffffffffffffffff1681565b606060008054906101000a900473ffffffffffffffffffffffffffffffffffffffff1673ffffffffffffffffffffffffffffffffffffffff163373ffffffffffffffffffffffffffffffffffffffff161480612e275750601260003373ffffffffffffffffffffffffffffffffffffffff1673ffffffffffffffffffffffffffffffffffffffff16815260200190815260200160002060009054906101000a900460ff168015612e2657508173ffffffffffffffffffffffffffffffffffffffff16600c60003373ffffffffffffffffffffffffffffffffffffffff1673ffffffffffffffffffffffffffffffffffffffff16815260200190815260200160002060010160009054906101000a900473ffffffffffffffffffffffffffffffffffffffff1673ffffffffffffffffffffffffffffffffffffffff16145b5b612e66576040517f08c379a0000000000000000000000000000000000000000000000000000000008152600401612e5d90614440565b60405180910390fd5b600f60008373ffffffffffffffffffffffffffffffffffffffff1673ffffffffffffffffffffffffffffffffffffffff168152602001908152602001600020805480602002602001604051908101604052809291908181526020016000905b8282101561302f57838290600052602060002090600402016040518060800160405290816000820154815260200160018201548152602001600282018054612f0c9061448f565b80601f0160208091040260200160405190810160405280929190818152602001828054612f389061448f565b8015612f855780601f10612f5a57610100808354040283529160200191612f85565b820191906000526020600020905b815481529060010190602001808311612f6857829003601f168201915b50505050508152602001600382018054612f9e9061448f565b80601f0160208091040260200160405190810160405280929190818152602001828054612fca9061448f565b80156130175780601f10612fec57610100808354040283529160200191613017565b820191906000526020600020905b815481529060010190602001808311612ffa57829003601f168201915b50505050508152505081526020019060010190612ec5565b505050509050919050565b6000601260003373ffffffffffffffffffffffffffffffffffffffff1673ffffffffffffffffffffffffffffffffffffffff16815260200190815260200160002060009054906101000a900460ff166130c8576040517f08c379a00000000000000000000000000000000000000000000000000000000081526004016130bf9061509d565b60405180910390fd5b600c60008373ffffffffffffffffffffffffffffffffffffffff1673ffffffffffffffffffffffffffffffffffffffff16815260200190815260200160002060010160009054906101000a900473ffffffffffffffffffffffffffffffffffffffff169050919050565b600c6020528060005260406000206000915090508060000180546131559061448f565b80601f01602080910402602001604051908101604052809291908181526020018280546131819061448f565b80156131ce5780601f106131a3576101008083540402835291602001916131ce565b820191906000526020600020905b8154815290600101906020018083116131b157829003601f168201915b5050505050908060010160009054906101000a900473ffffffffffffffffffffffffffffffffffffffff16905082565b606060008054906101000a900473ffffffffffffffffffffffffffffffffffffffff1673ffffffffffffffffffffffffffffffffffffffff163373ffffffffffffffffffffffffffffffffffffffff1603613290576040518060400160405280600581526020017f61646d696e00000000000000000000000000000000000000000000000000000081525090506133e7565b601160003373ffffffffffffffffffffffffffffffffffffffff1673ffffffffffffffffffffffffffffffffffffffff16815260200190815260200160002060009054906101000a900460ff161561331f576040518060400160405280600a81526020017f736d6172744d657465720000000000000000000000000000000000000000000081525090506133e7565b601260003373ffffffffffffffffffffffffffffffffffffffff1673ffffffffffffffffffffffffffffffffffffffff16815260200190815260200160002060009054906101000a900460ff16156133ae576040518060400160405280600681526020017f74656e616e74000000000000000000000000000000000000000000000000000081525090506133e7565b6040518060400160405280600781526020017f756e6b6e6f776e0000000000000000000000000000000000000000000000000081525090505b90565b60006a636f6e736f6c652e6c6f679050600080835160208501845afa505050565b6134136150bd565b565b6040518060a001604052806060815260200160608152602001600073ffffffffffffffffffffffffffffffffffffffff168152602001606081526020016000151581525090565b5080546134689061448f565b6000825580601f1061347a5750613499565b601f01602090049060005260206000209081019061349891906134d9565b5b50565b6040518060e00160405280606081526020016060815260200160608152602001606081526020016060815260200160608152602001606081525090565b5b808211156134f25760008160009055506001016134da565b5090565b600073ffffffffffffffffffffffffffffffffffffffff82169050919050565b6000819050919050565b600061353b613536613531846134f6565b613516565b6134f6565b9050919050565b600061354d82613520565b9050919050565b600061355f82613542565b9050919050565b61356f81613554565b82525050565b600060208201905061358a6000830184613566565b92915050565b6000604051905090565b600080fd5b600080fd5b60006135af826134f6565b9050919050565b6135bf816135a4565b81146135ca57600080fd5b50565b6000813590506135dc816135b6565b92915050565b6000602082840312156135f8576135f761359a565b5b6000613606848285016135cd565b91505092915050565b600081519050919050565b600082825260208201905092915050565b60005b8381101561364957808201518184015260208101905061362e565b60008484015250505050565b6000601f19601f8301169050919050565b60006136718261360f565b61367b818561361a565b935061368b81856020860161362b565b61369481613655565b840191505092915050565b6136a8816135a4565b82525050565b60008115159050919050565b6136c3816136ae565b82525050565b600060a08301600083015184820360008601526136e68282613666565b915050602083015184820360208601526137008282613666565b9150506040830151613715604086018261369f565b506060830151848203606086015261372d8282613666565b915050608083015161374260808601826136ba565b508091505092915050565b6000602082019050818103600083015261376781846136c9565b905092915050565b600082825260208201905092915050565b600061378b8261360f565b613795818561376f565b93506137a581856020860161362b565b6137ae81613655565b840191505092915050565b6137c2816135a4565b82525050565b6137d1816136ae565b82525050565b600060a08201905081810360008301526137f18188613780565b905081810360208301526138058187613780565b905061381460408301866137b9565b81810360608301526138268185613780565b905061383560808301846137c8565b9695505050505050565b600060208201905081810360008301526138598184613780565b905092915050565b600081519050919050565b600082825260208201905092915050565b6000819050602082019050919050565b6000613899838361369f565b60208301905092915050565b6000602082019050919050565b60006138bd82613861565b6138c7818561386c565b93506138d28361387d565b8060005b838110156139035781516138ea888261388d565b97506138f5836138a5565b9250506001810190506138d6565b5085935050505092915050565b6000602082019050818103600083015261392a81846138b2565b905092915050565b600080fd5b600080fd5b7f4e487b7100000000000000000000000000000000000000000000000000000000600052604160045260246000fd5b61397482613655565b810181811067ffffffffffffffff821117156139935761399261393c565b5b80604052505050565b60006139a6613590565b90506139b2828261396b565b919050565b600067ffffffffffffffff8211156139d2576139d161393c565b5b6139db82613655565b9050602081019050919050565b82818337600083830152505050565b6000613a0a613a05846139b7565b61399c565b905082815260208101848484011115613a2657613a25613937565b5b613a318482856139e8565b509392505050565b600082601f830112613a4e57613a4d613932565b5b8135613a5e8482602086016139f7565b91505092915050565b600080600060608486031215613a8057613a7f61359a565b5b6000613a8e868287016135cd565b935050602084013567ffffffffffffffff811115613aaf57613aae61359f565b5b613abb86828701613a39565b9250506040613acc868287016135cd565b9150509250925092565b6000819050919050565b613ae981613ad6565b82525050565b6000602082019050613b046000830184613ae0565b92915050565b613b1381613ad6565b8114613b1e57600080fd5b50565b600081359050613b3081613b0a565b92915050565b60008060008060808587031215613b5057613b4f61359a565b5b6000613b5e878288016135cd565b9450506020613b6f87828801613b21565b935050604085013567ffffffffffffffff811115613b9057613b8f61359f565b5b613b9c87828801613a39565b925050606085013567ffffffffffffffff811115613bbd57613bbc61359f565b5b613bc987828801613a39565b91505092959194509250565b6000602082019050613bea60008301846137b9565b92915050565b600081519050919050565b600082825260208201905092915050565b6000819050602082019050919050565b613c2581613ad6565b82525050565b6000610100830160008301518482036000860152613c498282613666565b9150506020830151613c5e60208601826136ba565b506040830151613c71604086018261369f565b506060830151613c84606086018261369f565b506080830151613c976080860182613c1c565b5060a0830151613caa60a0860182613c1c565b5060c0830151613cbd60c0860182613c1c565b5060e083015184820360e0860152613cd58282613666565b9150508091505092915050565b6000613cee8383613c2b565b905092915050565b6000602082019050919050565b6000613d0e82613bf0565b613d188185613bfb565b935083602082028501613d2a85613c0c565b8060005b85811015613d665784840389528151613d478582613ce2565b9450613d5283613cf6565b925060208a01995050600181019050613d2e565b50829750879550505050505092915050565b60006020820190508181036000830152613d928184613d03565b905092915050565b600060e0830160008301518482036000860152613db78282613666565b91505060208301518482036020860152613dd18282613666565b91505060408301518482036040860152613deb8282613666565b91505060608301518482036060860152613e058282613666565b91505060808301518482036080860152613e1f8282613666565b91505060a083015184820360a0860152613e398282613666565b91505060c083015184820360c0860152613e538282613666565b9150508091505092915050565b60006020820190508181036000830152613e7a8184613d9a565b905092915050565b600081519050919050565b600082825260208201905092915050565b6000819050602082019050919050565b6000613eba8383613666565b905092915050565b6000602082019050919050565b6000613eda82613e82565b613ee48185613e8d565b935083602082028501613ef685613e9e565b8060005b85811015613f325784840389528151613f138582613eae565b9450613f1e83613ec2565b925060208a01995050600181019050613efa565b50829750879550505050505092915050565b60006040820190508181036000830152613f5e81856138b2565b90508181036020830152613f728184613ecf565b90509392505050565b60008060408385031215613f9257613f9161359a565b5b6000613fa0858286016135cd565b9250506020613fb185828601613b21565b9150509250929050565b600080fd5b600080fd5b60008083601f840112613fdb57613fda613932565b5b8235905067ffffffffffffffff811115613ff857613ff7613fbb565b5b60208301915083600182028301111561401457614013613fc0565b5b9250929050565b6000806000806000608086880312156140375761403661359a565b5b600061404588828901613b21565b955050602061405688828901613b21565b945050604086013567ffffffffffffffff8111156140775761407661359f565b5b61408388828901613fc5565b9350935050606086013567ffffffffffffffff8111156140a6576140a561359f565b5b6140b288828901613a39565b9150509295509295909350565b60006020820190506140d460008301846137c8565b92915050565b60006140e582613542565b9050919050565b6140f5816140da565b82525050565b600060208201905061411060008301846140ec565b92915050565b600080600080608085870312156141305761412f61359a565b5b600085013567ffffffffffffffff81111561414e5761414d61359f565b5b61415a87828801613a39565b945050602085013567ffffffffffffffff81111561417b5761417a61359f565b5b61418787828801613a39565b9350506040614198878288016135cd565b925050606085013567ffffffffffffffff8111156141b9576141b861359f565b5b6141c587828801613a39565b91505092959194509250565b600080604083850312156141e8576141e761359a565b5b600083013567ffffffffffffffff8111156142065761420561359f565b5b61421285828601613a39565b9250506020614223858286016135cd565b9150509250929050565b6000602082840312156142435761424261359a565b5b600082013567ffffffffffffffff8111156142615761426061359f565b5b61426d84828501613a39565b91505092915050565b600081519050919050565b600082825260208201905092915050565b6000819050602082019050919050565b60006080830160008301516142ba6000860182613c1c565b5060208301516142cd6020860182613c1c565b50604083015184820360408601526142e58282613666565b915050606083015184820360608601526142ff8282613666565b9150508091505092915050565b600061431883836142a2565b905092915050565b6000602082019050919050565b600061433882614276565b6143428185614281565b93508360208202850161435485614292565b8060005b858110156143905784840389528151614371858261430c565b945061437c83614320565b925060208a01995050600181019050614358565b50829750879550505050505092915050565b600060208201905081810360008301526143bc818461432d565b905092915050565b600060408201905081810360008301526143de8185613780565b90506143ed60208301846137b9565b9392505050565b7f4e6f7420617574686f72697a6564000000000000000000000000000000000000600082015250565b600061442a600e8361376f565b9150614435826143f4565b602082019050919050565b600060208201905081810360008301526144598161441d565b9050919050565b7f4e487b7100000000000000000000000000000000000000000000000000000000600052602260045260246000fd5b600060028204905060018216806144a757607f821691505b6020821081036144ba576144b9614460565b5b50919050565b7f4f6e6c79206d6173746572000000000000000000000000000000000000000000600082015250565b60006144f6600b8361376f565b9150614501826144c0565b602082019050919050565b60006020820190508181036000830152614525816144e9565b9050919050565b60008190508160005260206000209050919050565b60006020601f8301049050919050565b600082821b905092915050565b60006008830261458e7fffffffffffffffffffffffffffffffffffffffffffffffffffffffffffffffff82614551565b6145988683614551565b95508019841693508086168417925050509392505050565b60006145cb6145c66145c184613ad6565b613516565b613ad6565b9050919050565b6000819050919050565b6145e5836145b0565b6145f96145f1826145d2565b84845461455e565b825550505050565b600090565b61460e614601565b6146198184846145dc565b505050565b5b8181101561463d57614632600082614606565b60018101905061461f565b5050565b601f821115614682576146538161452c565b61465c84614541565b8101602085101561466b578190505b61467f61467785614541565b83018261461e565b50505b505050565b600082821c905092915050565b60006146a560001984600802614687565b1980831691505092915050565b60006146be8383614694565b9150826002028217905092915050565b6146d78261360f565b67ffffffffffffffff8111156146f0576146ef61393c565b5b6146fa825461448f565b614705828285614641565b600060209050601f8311600181146147385760008415614726578287015190505b61473085826146b2565b865550614798565b601f1984166147468661452c565b60005b8281101561476e57848901518255600182019150602085019450602081019050614749565b8683101561478b5784890151614787601f891682614694565b8355505b6001600288020188555050505b505050505050565b6000815190506147af81613b0a565b92915050565b6000602082840312156147cb576147ca61359a565b5b60006147d9848285016147a0565b91505092915050565b7f4e487b7100000000000000000000000000000000000000000000000000000000600052603260045260246000fd5b7f4e487b7100000000000000000000000000000000000000000000000000000000600052601160045260246000fd5b600061484b82613ad6565b915061485683613ad6565b925082820390508181111561486e5761486d614811565b5b92915050565b7f4e487b7100000000000000000000000000000000000000000000000000000000600052603160045260246000fd5b6000815490506148b28161448f565b9050919050565b60008190508160005260206000209050919050565b8181036148dc5750506149b4565b6148e5826148a3565b67ffffffffffffffff8111156148fe576148fd61393c565b5b614908825461448f565b614913828285614641565b6000601f8311600181146149425760008415614930578287015490505b61493a85826146b2565b8655506149ad565b601f198416614950876148b9565b965061495b8661452c565b60005b828110156149835784890154825560018201915060018501945060208101905061495e565b868310156149a0578489015461499c601f891682614694565b8355505b6001600288020188555050505b5050505050505b565b7f496e76616c69642074656e616e74206164647265737300000000000000000000600082015250565b60006149ec60168361376f565b91506149f7826149b6565b602082019050919050565b60006020820190508181036000830152614a1b816149df565b9050919050565b600060a082019050614a3760008301886137b9565b614a4460208301876137b9565b614a516040830186613ae0565b8181036060830152614a638185613780565b90508181036080830152614a778184613780565b90509695505050505050565b7f556e617574686f72697a65640000000000000000000000000000000000000000600082015250565b6000614ab9600c8361376f565b9150614ac482614a83565b602082019050919050565b60006020820190508181036000830152614ae881614aac565b9050919050565b600067ffffffffffffffff821115614b0a57614b0961393c565b5b602082029050602081019050919050565b600080fd5b600080fd5b6000614b38614b33846139b7565b61399c565b905082815260208101848484011115614b5457614b53613937565b5b614b5f84828561362b565b509392505050565b600082601f830112614b7c57614b7b613932565b5b8151614b8c848260208601614b25565b91505092915050565b614b9e816136ae565b8114614ba957600080fd5b50565b600081519050614bbb81614b95565b92915050565b600081519050614bd0816135b6565b92915050565b60006101008284031215614bed57614bec614b1b565b5b614bf861010061399c565b9050600082015167ffffffffffffffff811115614c1857614c17614b20565b5b614c2484828501614b67565b6000830152506020614c3884828501614bac565b6020830152506040614c4c84828501614bc1565b6040830152506060614c6084828501614bc1565b6060830152506080614c74848285016147a0565b60808301525060a0614c88848285016147a0565b60a08301525060c0614c9c848285016147a0565b60c08301525060e082015167ffffffffffffffff811115614cc057614cbf614b20565b5b614ccc84828501614b67565b60e08301525092915050565b6000614ceb614ce684614aef565b61399c565b90508083825260208201905060208402830185811115614d0e57614d0d613fc0565b5b835b81811015614d5557805167ffffffffffffffff811115614d3357614d32613932565b5b808601614d408982614bd6565b85526020850194505050602081019050614d10565b5050509392505050565b600082601f830112614d7457614d73613932565b5b8151614d84848260208601614cd8565b91505092915050565b600060208284031215614da357614da261359a565b5b600082015167ffffffffffffffff811115614dc157614dc061359f565b5b614dcd84828501614d5f565b91505092915050565b6000604082019050614deb60008301856137b9565b614df86020830184613ae0565b9392505050565b7f4e6f2066756e647320746f207769746864726177000000000000000000000000600082015250565b6000614e3560148361376f565b9150614e4082614dff565b602082019050919050565b60006020820190508181036000830152614e6481614e28565b9050919050565b600060208284031215614e8157614e8061359a565b5b6000614e8f84828501614bac565b91505092915050565b7f5472616e73666572206661696c65640000000000000000000000000000000000600082015250565b6000614ece600f8361376f565b9150614ed982614e98565b602082019050919050565b60006020820190508181036000830152614efd81614ec1565b9050919050565b7f4e6f7420612077686974656c697374656420616374697665206d657465720000600082015250565b6000614f3a601e8361376f565b9150614f4582614f04565b602082019050919050565b60006020820190508181036000830152614f6981614f2d565b9050919050565b6000604082019050614f856000830185613ae0565b614f926020830184613ae0565b9392505050565b7f4d6574657220616c726561647920657869737473000000000000000000000000600082015250565b6000614fcf60148361376f565b9150614fda82614f99565b602082019050919050565b60006020820190508181036000830152614ffe81614fc2565b9050919050565b6000606082019050818103600083015261501f8186613780565b905081810360208301526150338185613780565b905081810360408301526150478184613780565b9050949350505050565b7f4e6f742077686974656c69737465642074656e616e7400000000000000000000600082015250565b600061508760168361376f565b915061509282615051565b602082019050919050565b600060208201905081810360008301526150b68161507a565b9050919050565b7f4e487b7100000000000000000000000000000000000000000000000000000000600052605160045260246000fdfea2646970667358221220f6344d69c68de857cd99d8e2f13e66cb43df04878ad73a3c3f35bd3ae5a03e7c64736f6c634300081c0033608060405234801561001057600080fd5b506040516118d63803806118d683398181016040528101906100329190610272565b806040518060400160405280600a81526020017f544e435920546f6b656e000000000000000000000000000000000000000000008152506040518060400160405280600481526020017f544e43590000000000000000000000000000000000000000000000000000000081525081600390816100ae91906104ef565b5080600490816100be91906104ef565b505050600073ffffffffffffffffffffffffffffffffffffffff168173ffffffffffffffffffffffffffffffffffffffff16036101335760006040517f1e4fbdf700000000000000000000000000000000000000000000000000000000815260040161012a91906105d0565b60405180910390fd5b6101428161014960201b60201c565b50506105eb565b6000600560009054906101000a900473ffffffffffffffffffffffffffffffffffffffff16905081600560006101000a81548173ffffffffffffffffffffffffffffffffffffffff021916908373ffffffffffffffffffffffffffffffffffffffff1602179055508173ffffffffffffffffffffffffffffffffffffffff168173ffffffffffffffffffffffffffffffffffffffff167f8be0079c531659141344cd1fd0a4f28419497f9722a3daafe3b4186f6b6457e060405160405180910390a35050565b600080fd5b600073ffffffffffffffffffffffffffffffffffffffff82169050919050565b600061023f82610214565b9050919050565b61024f81610234565b811461025a57600080fd5b50565b60008151905061026c81610246565b92915050565b6000602082840312156102885761028761020f565b5b60006102968482850161025d565b91505092915050565b600081519050919050565b7f4e487b7100000000000000000000000000000000000000000000000000000000600052604160045260246000fd5b7f4e487b7100000000000000000000000000000000000000000000000000000000600052602260045260246000fd5b6000600282049050600182168061032057607f821691505b602082108103610333576103326102d9565b5b50919050565b60008190508160005260206000209050919050565b60006020601f8301049050919050565b600082821b905092915050565b60006008830261039b7fffffffffffffffffffffffffffffffffffffffffffffffffffffffffffffffff8261035e565b6103a5868361035e565b95508019841693508086168417925050509392505050565b6000819050919050565b6000819050919050565b60006103ec6103e76103e2846103bd565b6103c7565b6103bd565b9050919050565b6000819050919050565b610406836103d1565b61041a610412826103f3565b84845461036b565b825550505050565b600090565b61042f610422565b61043a8184846103fd565b505050565b5b8181101561045e57610453600082610427565b600181019050610440565b5050565b601f8211156104a35761047481610339565b61047d8461034e565b8101602085101561048c578190505b6104a06104988561034e565b83018261043f565b50505b505050565b600082821c905092915050565b60006104c6600019846008026104a8565b1980831691505092915050565b60006104df83836104b5565b9150826002028217905092915050565b6104f88261029f565b67ffffffffffffffff811115610511576105106102aa565b5b61051b8254610308565b610526828285610462565b600060209050601f8311600181146105595760008415610547578287015190505b61055185826104d3565b8655506105b9565b601f19841661056786610339565b60005b8281101561058f5784890151825560018201915060208501945060208101905061056a565b868310156105ac57848901516105a8601f8916826104b5565b8355505b6001600288020188555050505b505050505050565b6105ca81610234565b82525050565b60006020820190506105e560008301846105c1565b92915050565b6112dc806105fa6000396000f3fe608060405234801561001057600080fd5b50600436106100f55760003560e01c806370a082311161009757806395d89b411161006657806395d89b4114610260578063a9059cbb1461027e578063dd62ed3e146102ae578063f2fde38b146102de576100f5565b806370a08231146101ec578063715018a61461021c57806379cc6790146102265780638da5cb5b14610242576100f5565b806323b872dd116100d357806323b872dd14610166578063313ce5671461019657806340c10f19146101b457806342966c68146101d0576100f5565b806306fdde03146100fa578063095ea7b31461011857806318160ddd14610148575b600080fd5b6101026102fa565b60405161010f9190610f03565b60405180910390f35b610132600480360381019061012d9190610fbe565b61038c565b60405161013f9190611019565b60405180910390f35b6101506103af565b60405161015d9190611043565b60405180910390f35b610180600480360381019061017b919061105e565b6103b9565b60405161018d9190611019565b60405180910390f35b61019e6103e8565b6040516101ab91906110cd565b60405180910390f35b6101ce60048036038101906101c99190610fbe565b6103f1565b005b6101ea60048036038101906101e591906110e8565b610407565b005b61020660048036038101906102019190611115565b61041b565b6040516102139190611043565b60405180910390f35b610224610463565b005b610240600480360381019061023b9190610fbe565b610477565b005b61024a610497565b6040516102579190611151565b60405180910390f35b6102686104c1565b6040516102759190610f03565b60405180910390f35b61029860048036038101906102939190610fbe565b610553565b6040516102a59190611019565b60405180910390f35b6102c860048036038101906102c3919061116c565b610576565b6040516102d59190611043565b60405180910390f35b6102f860048036038101906102f39190611115565b6105fd565b005b606060038054610309906111db565b80601f0160208091040260200160405190810160405280929190818152602001828054610335906111db565b80156103825780601f1061035757610100808354040283529160200191610382565b820191906000526020600020905b81548152906001019060200180831161036557829003601f168201915b5050505050905090565b600080610397610683565b90506103a481858561068b565b600191505092915050565b6000600254905090565b6000806103c4610683565b90506103d185828561069d565b6103dc858585610732565b60019150509392505050565b60006012905090565b6103f9610826565b61040382826108ad565b5050565b610418610412610683565b8261092f565b50565b60008060008373ffffffffffffffffffffffffffffffffffffffff1673ffffffffffffffffffffffffffffffffffffffff168152602001908152602001600020549050919050565b61046b610826565b61047560006109b1565b565b61048982610483610683565b8361069d565b610493828261092f565b5050565b6000600560009054906101000a900473ffffffffffffffffffffffffffffffffffffffff16905090565b6060600480546104d0906111db565b80601f01602080910402602001604051908101604052809291908181526020018280546104fc906111db565b80156105495780601f1061051e57610100808354040283529160200191610549565b820191906000526020600020905b81548152906001019060200180831161052c57829003601f168201915b5050505050905090565b60008061055e610683565b905061056b818585610732565b600191505092915050565b6000600160008473ffffffffffffffffffffffffffffffffffffffff1673ffffffffffffffffffffffffffffffffffffffff16815260200190815260200160002060008373ffffffffffffffffffffffffffffffffffffffff1673ffffffffffffffffffffffffffffffffffffffff16815260200190815260200160002054905092915050565b610605610826565b600073ffffffffffffffffffffffffffffffffffffffff168173ffffffffffffffffffffffffffffffffffffffff16036106775760006040517f1e4fbdf700000000000000000000000000000000000000000000000000000000815260040161066e9190611151565b60405180910390fd5b610680816109b1565b50565b600033905090565b6106988383836001610a77565b505050565b60006106a98484610576565b90507fffffffffffffffffffffffffffffffffffffffffffffffffffffffffffffffff81101561072c578181101561071c578281836040517ffb8f41b20000000000000000000000000000000000000000000000000000000081526004016107139392919061120c565b60405180910390fd5b61072b84848484036000610a77565b5b50505050565b600073ffffffffffffffffffffffffffffffffffffffff168373ffffffffffffffffffffffffffffffffffffffff16036107a45760006040517f96c6fd1e00000000000000000000000000000000000000000000000000000000815260040161079b9190611151565b60405180910390fd5b600073ffffffffffffffffffffffffffffffffffffffff168273ffffffffffffffffffffffffffffffffffffffff16036108165760006040517fec442f0500000000000000000000000000000000000000000000000000000000815260040161080d9190611151565b60405180910390fd5b610821838383610c4e565b505050565b61082e610683565b73ffffffffffffffffffffffffffffffffffffffff1661084c610497565b73ffffffffffffffffffffffffffffffffffffffff16146108ab5761086f610683565b6040517f118cdaa70000000000000000000000000000000000000000000000000000000081526004016108a29190611151565b60405180910390fd5b565b600073ffffffffffffffffffffffffffffffffffffffff168273ffffffffffffffffffffffffffffffffffffffff160361091f5760006040517fec442f050000000000000000000000000000000000000000000000000000000081526004016109169190611151565b60405180910390fd5b61092b60008383610c4e565b5050565b600073ffffffffffffffffffffffffffffffffffffffff168273ffffffffffffffffffffffffffffffffffffffff16036109a15760006040517f96c6fd1e0000000000000000000000000000000000000000000000000000000081526004016109989190611151565b60405180910390fd5b6109ad82600083610c4e565b5050565b6000600560009054906101000a900473ffffffffffffffffffffffffffffffffffffffff16905081600560006101000a81548173ffffffffffffffffffffffffffffffffffffffff021916908373ffffffffffffffffffffffffffffffffffffffff1602179055508173ffffffffffffffffffffffffffffffffffffffff168173ffffffffffffffffffffffffffffffffffffffff167f8be0079c531659141344cd1fd0a4f28419497f9722a3daafe3b4186f6b6457e060405160405180910390a35050565b600073ffffffffffffffffffffffffffffffffffffffff168473ffffffffffffffffffffffffffffffffffffffff1603610ae95760006040517fe602df05000000000000000000000000000000000000000000000000000000008152600401610ae09190611151565b60405180910390fd5b600073ffffffffffffffffffffffffffffffffffffffff168373ffffffffffffffffffffffffffffffffffffffff1603610b5b5760006040517f94280d62000000000000000000000000000000000000000000000000000000008152600401610b529190611151565b60405180910390fd5b81600160008673ffffffffffffffffffffffffffffffffffffffff1673ffffffffffffffffffffffffffffffffffffffff16815260200190815260200160002060008573ffffffffffffffffffffffffffffffffffffffff1673ffffffffffffffffffffffffffffffffffffffff168152602001908152602001600020819055508015610c48578273ffffffffffffffffffffffffffffffffffffffff168473ffffffffffffffffffffffffffffffffffffffff167f8c5be1e5ebec7d5bd14f71427d1e84f3dd0314c0f7b2291e5b200ac8c7c3b92584604051610c3f9190611043565b60405180910390a35b50505050565b600073ffffffffffffffffffffffffffffffffffffffff168373ffffffffffffffffffffffffffffffffffffffff1603610ca0578060026000828254610c949190611272565b92505081905550610d73565b60008060008573ffffffffffffffffffffffffffffffffffffffff1673ffffffffffffffffffffffffffffffffffffffff16815260200190815260200160002054905081811015610d2c578381836040517fe450d38c000000000000000000000000000000000000000000000000000000008152600401610d239392919061120c565b60405180910390fd5b8181036000808673ffffffffffffffffffffffffffffffffffffffff1673ffffffffffffffffffffffffffffffffffffffff16815260200190815260200160002081905550505b600073ffffffffffffffffffffffffffffffffffffffff168273ffffffffffffffffffffffffffffffffffffffff1603610dbc5780600260008282540392505081905550610e09565b806000808473ffffffffffffffffffffffffffffffffffffffff1673ffffffffffffffffffffffffffffffffffffffff168152602001908152602001600020600082825401925050819055505b8173ffffffffffffffffffffffffffffffffffffffff168373ffffffffffffffffffffffffffffffffffffffff167fddf252ad1be2c89b69c2b068fc378daa952ba7f163c4a11628f55a4df523b3ef83604051610e669190611043565b60405180910390a3505050565b600081519050919050565b600082825260208201905092915050565b60005b83811015610ead578082015181840152602081019050610e92565b60008484015250505050565b6000601f19601f8301169050919050565b6000610ed582610e73565b610edf8185610e7e565b9350610eef818560208601610e8f565b610ef881610eb9565b840191505092915050565b60006020820190508181036000830152610f1d8184610eca565b905092915050565b600080fd5b600073ffffffffffffffffffffffffffffffffffffffff82169050919050565b6000610f5582610f2a565b9050919050565b610f6581610f4a565b8114610f7057600080fd5b50565b600081359050610f8281610f5c565b92915050565b6000819050919050565b610f9b81610f88565b8114610fa657600080fd5b50565b600081359050610fb881610f92565b92915050565b60008060408385031215610fd557610fd4610f25565b5b6000610fe385828601610f73565b9250506020610ff485828601610fa9565b9150509250929050565b60008115159050919050565b61101381610ffe565b82525050565b600060208201905061102e600083018461100a565b92915050565b61103d81610f88565b82525050565b60006020820190506110586000830184611034565b92915050565b60008060006060848603121561107757611076610f25565b5b600061108586828701610f73565b935050602061109686828701610f73565b92505060406110a786828701610fa9565b9150509250925092565b600060ff82169050919050565b6110c7816110b1565b82525050565b60006020820190506110e260008301846110be565b92915050565b6000602082840312156110fe576110fd610f25565b5b600061110c84828501610fa9565b91505092915050565b60006020828403121561112b5761112a610f25565b5b600061113984828501610f73565b91505092915050565b61114b81610f4a565b82525050565b60006020820190506111666000830184611142565b92915050565b6000806040838503121561118357611182610f25565b5b600061119185828601610f73565b92505060206111a285828601610f73565b9150509250929050565b7f4e487b7100000000000000000000000000000000000000000000000000000000600052602260045260246000fd5b600060028204905060018216806111f357607f821691505b602082108103611206576112056111ac565b5b50919050565b60006060820190506112216000830186611142565b61122e6020830185611034565b61123b6040830184611034565b949350505050565b7f4e487b7100000000000000000000000000000000000000000000000000000000600052601160045260246000fd5b600061127d82610f88565b915061128883610f88565b92508282019050808211156112a05761129f611243565b5b9291505056fea264697066735822122003d118cea02527eeb50f4c6a65795579f610fef54216b11bc15d4df199e94cc064736f6c634300081c00336080604052670de0b6b3a764000060025534801561001c57600080fd5b50604051611ee7380380611ee7833981810160405281019061003e9190610167565b81600160006101000a81548173ffffffffffffffffffffffffffffffffffffffff021916908373ffffffffffffffffffffffffffffffffffffffff160217905550806000806101000a81548173ffffffffffffffffffffffffffffffffffffffff021916908373ffffffffffffffffffffffffffffffffffffffff16021790555050506101a7565b600080fd5b600073ffffffffffffffffffffffffffffffffffffffff82169050919050565b60006100f6826100cb565b9050919050565b610106816100eb565b811461011157600080fd5b50565b600081519050610123816100fd565b92915050565b6000610134826100eb565b9050919050565b61014481610129565b811461014f57600080fd5b50565b6000815190506101618161013b565b92915050565b6000806040838503121561017e5761017d6100c6565b5b600061018c85828601610114565b925050602061019d85828601610152565b9150509250929050565b611d31806101b66000396000f3fe608060405234801561001057600080fd5b506004361061009e5760003560e01c80638ddcdc5b116100665780638ddcdc5b1461019a578063a343fc12146101b8578063ae428d78146101d4578063e7201d7d146101f2578063f4858c66146102105761009e565b806345a132aa146100a357806351c87677146100d35780636a6da61e14610103578063755873c51461013357806382c3807b14610163575b600080fd5b6100bd60048036038101906100b89190610fed565b610240565b6040516100ca9190611266565b60405180910390f35b6100ed60048036038101906100e891906112b4565b61063d565b6040516100fa919061133e565b60405180910390f35b61011d60048036038101906101189190610fed565b6106f6565b60405161012a919061136f565b60405180910390f35b61014d60048036038101906101489190610fed565b61070e565b60405161015a919061136f565b60405180910390f35b61017d600480360381019061017891906114bf565b610757565b604051610191989796959493929190611526565b60405180910390f35b6101a2610912565b6040516101af919061136f565b60405180910390f35b6101d260048036038101906101cd91906115b2565b610918565b005b6101dc610c49565b6040516101e991906116c4565b60405180910390f35b6101fa610c6d565b60405161020791906116df565b60405180910390f35b61022a600480360381019061022591906116fa565b610c93565b6040516102379190611756565b60405180910390f35b60606000600560008473ffffffffffffffffffffffffffffffffffffffff1673ffffffffffffffffffffffffffffffffffffffff168152602001908152602001600020805480602002602001604051908101604052809291908181526020016000905b8282101561034f5783829060005260206000200180546102c2906117a0565b80601f01602080910402602001604051908101604052809291908181526020018280546102ee906117a0565b801561033b5780601f106103105761010080835404028352916020019161033b565b820191906000526020600020905b81548152906001019060200180831161031e57829003601f168201915b5050505050815260200190600101906102a3565b5050505090506000815167ffffffffffffffff81111561037257610371611394565b5b6040519080825280602002602001820160405280156103ab57816020015b610398610f08565b8152602001906001900390816103905790505b50905060005b82518110156106325760048382815181106103cf576103ce6117d1565b5b60200260200101516040516103e4919061183c565b90815260200160405180910390206040518061010001604052908160008201805461040e906117a0565b80601f016020809104026020016040519081016040528092919081815260200182805461043a906117a0565b80156104875780601f1061045c57610100808354040283529160200191610487565b820191906000526020600020905b81548152906001019060200180831161046a57829003601f168201915b505050505081526020016001820160009054906101000a900460ff161515151581526020016001820160019054906101000a900473ffffffffffffffffffffffffffffffffffffffff1673ffffffffffffffffffffffffffffffffffffffff1673ffffffffffffffffffffffffffffffffffffffff1681526020016002820160009054906101000a900473ffffffffffffffffffffffffffffffffffffffff1673ffffffffffffffffffffffffffffffffffffffff1673ffffffffffffffffffffffffffffffffffffffff168152602001600382015481526020016004820154815260200160058201548152602001600682018054610585906117a0565b80601f01602080910402602001604051908101604052809291908181526020018280546105b1906117a0565b80156105fe5780601f106105d3576101008083540402835291602001916105fe565b820191906000526020600020905b8154815290600101906020018083116105e157829003601f168201915b50505050508152505082828151811061061a576106196117d1565b5b602002602001018190525080806001019150506103b1565b508092505050919050565b6005602052816000526040600020818154811061065957600080fd5b90600052602060002001600091509150508054610675906117a0565b80601f01602080910402602001604051908101604052809291908181526020018280546106a1906117a0565b80156106ee5780601f106106c3576101008083540402835291602001916106ee565b820191906000526020600020905b8154815290600101906020018083116106d157829003601f168201915b505050505081565b60036020528060005260406000206000915090505481565b6000600360008373ffffffffffffffffffffffffffffffffffffffff1673ffffffffffffffffffffffffffffffffffffffff168152602001908152602001600020549050919050565b600481805160208101820180518482526020830160208501208183528095505050505050600091509050806000018054610790906117a0565b80601f01602080910402602001604051908101604052809291908181526020018280546107bc906117a0565b80156108095780601f106107de57610100808354040283529160200191610809565b820191906000526020600020905b8154815290600101906020018083116107ec57829003601f168201915b5050505050908060010160009054906101000a900460ff16908060010160019054906101000a900473ffffffffffffffffffffffffffffffffffffffff16908060020160009054906101000a900473ffffffffffffffffffffffffffffffffffffffff169080600301549080600401549080600501549080600601805461088f906117a0565b80601f01602080910402602001604051908101604052809291908181526020018280546108bb906117a0565b80156109085780601f106108dd57610100808354040283529160200191610908565b820191906000526020600020905b8154815290600101906020018083116108eb57829003601f168201915b5050505050905088565b60025481565b80600060048260405161092b919061183c565b90815260200160405180910390206000018054610947906117a0565b905014610989576040517f08c379a00000000000000000000000000000000000000000000000000000000081526004016109809061189f565b60405180910390fd5b60006040518061010001604052808481526020016000151581526020018773ffffffffffffffffffffffffffffffffffffffff1681526020018873ffffffffffffffffffffffffffffffffffffffff1681526020018681526020014281526020016000815260200185815250905080600484604051610a08919061183c565b90815260200160405180910390206000820151816000019081610a2b9190611a61565b5060208201518160010160006101000a81548160ff02191690831515021790555060408201518160010160016101000a81548173ffffffffffffffffffffffffffffffffffffffff021916908373ffffffffffffffffffffffffffffffffffffffff16021790555060608201518160020160006101000a81548173ffffffffffffffffffffffffffffffffffffffff021916908373ffffffffffffffffffffffffffffffffffffffff1602179055506080820151816003015560a0820151816004015560c0820151816005015560e0820151816006019081610b0d9190611a61565b50905050600560008873ffffffffffffffffffffffffffffffffffffffff1673ffffffffffffffffffffffffffffffffffffffff16815260200190815260200160002083908060018154018082558091505060019003906000526020600020016000909190919091509081610b829190611a61565b5084600360008973ffffffffffffffffffffffffffffffffffffffff1673ffffffffffffffffffffffffffffffffffffffff1681526020019081526020016000206000828254610bd29190611b62565b925050819055508673ffffffffffffffffffffffffffffffffffffffff163373ffffffffffffffffffffffffffffffffffffffff167fb810f68ef93d0b5c98b363f0d47a6e1f3e9af7ea538b02fc226ad84eb32f77a08786604051610c38929190611b96565b60405180910390a350505050505050565b60008054906101000a900473ffffffffffffffffffffffffffffffffffffffff1681565b600160009054906101000a900473ffffffffffffffffffffffffffffffffffffffff1681565b600080600484604051610ca6919061183c565b908152602001604051809103902090508060010160009054906101000a900460ff1615610d08576040517f08c379a0000000000000000000000000000000000000000000000000000000008152600401610cff90611c12565b60405180910390fd5b8060020160009054906101000a900473ffffffffffffffffffffffffffffffffffffffff1673ffffffffffffffffffffffffffffffffffffffff168373ffffffffffffffffffffffffffffffffffffffff1614610d9a576040517f08c379a0000000000000000000000000000000000000000000000000000000008152600401610d9190611c7e565b60405180910390fd5b60008160030154905060008054906101000a900473ffffffffffffffffffffffffffffffffffffffff1673ffffffffffffffffffffffffffffffffffffffff166379cc679085836040518363ffffffff1660e01b8152600401610dfe929190611c9e565b600060405180830381600087803b158015610e1857600080fd5b505af1158015610e2c573d6000803e3d6000fd5b5050505060018260010160006101000a81548160ff02191690831515021790555042826005018190555080600360008673ffffffffffffffffffffffffffffffffffffffff1673ffffffffffffffffffffffffffffffffffffffff1681526020019081526020016000206000828254610ea59190611cc7565b925050819055508373ffffffffffffffffffffffffffffffffffffffff167f5ce0614a46459714585c219d6fb0dd3a4b01b81fc18567ebe68bf418067c91d48287604051610ef4929190611b96565b60405180910390a260019250505092915050565b60405180610100016040528060608152602001600015158152602001600073ffffffffffffffffffffffffffffffffffffffff168152602001600073ffffffffffffffffffffffffffffffffffffffff168152602001600081526020016000815260200160008152602001606081525090565b6000604051905090565b600080fd5b600080fd5b600073ffffffffffffffffffffffffffffffffffffffff82169050919050565b6000610fba82610f8f565b9050919050565b610fca81610faf565b8114610fd557600080fd5b50565b600081359050610fe781610fc1565b92915050565b60006020828403121561100357611002610f85565b5b600061101184828501610fd8565b91505092915050565b600081519050919050565b600082825260208201905092915050565b6000819050602082019050919050565b600081519050919050565b600082825260208201905092915050565b60005b83811015611080578082015181840152602081019050611065565b60008484015250505050565b6000601f19601f8301169050919050565b60006110a882611046565b6110b28185611051565b93506110c2818560208601611062565b6110cb8161108c565b840191505092915050565b60008115159050919050565b6110eb816110d6565b82525050565b6110fa81610faf565b82525050565b6000819050919050565b61111381611100565b82525050565b6000610100830160008301518482036000860152611137828261109d565b915050602083015161114c60208601826110e2565b50604083015161115f60408601826110f1565b50606083015161117260608601826110f1565b506080830151611185608086018261110a565b5060a083015161119860a086018261110a565b5060c08301516111ab60c086018261110a565b5060e083015184820360e08601526111c3828261109d565b9150508091505092915050565b60006111dc8383611119565b905092915050565b6000602082019050919050565b60006111fc8261101a565b6112068185611025565b93508360208202850161121885611036565b8060005b85811015611254578484038952815161123585826111d0565b9450611240836111e4565b925060208a0199505060018101905061121c565b50829750879550505050505092915050565b6000602082019050818103600083015261128081846111f1565b905092915050565b61129181611100565b811461129c57600080fd5b50565b6000813590506112ae81611288565b92915050565b600080604083850312156112cb576112ca610f85565b5b60006112d985828601610fd8565b92505060206112ea8582860161129f565b9150509250929050565b600082825260208201905092915050565b600061131082611046565b61131a81856112f4565b935061132a818560208601611062565b6113338161108c565b840191505092915050565b600060208201905081810360008301526113588184611305565b905092915050565b61136981611100565b82525050565b60006020820190506113846000830184611360565b92915050565b600080fd5b600080fd5b7f4e487b7100000000000000000000000000000000000000000000000000000000600052604160045260246000fd5b6113cc8261108c565b810181811067ffffffffffffffff821117156113eb576113ea611394565b5b80604052505050565b60006113fe610f7b565b905061140a82826113c3565b919050565b600067ffffffffffffffff82111561142a57611429611394565b5b6114338261108c565b9050602081019050919050565b82818337600083830152505050565b600061146261145d8461140f565b6113f4565b90508281526020810184848401111561147e5761147d61138f565b5b611489848285611440565b509392505050565b600082601f8301126114a6576114a561138a565b5b81356114b684826020860161144f565b91505092915050565b6000602082840312156114d5576114d4610f85565b5b600082013567ffffffffffffffff8111156114f3576114f2610f8a565b5b6114ff84828501611491565b91505092915050565b611511816110d6565b82525050565b61152081610faf565b82525050565b6000610100820190508181036000830152611541818b611305565b9050611550602083018a611508565b61155d6040830189611517565b61156a6060830188611517565b6115776080830187611360565b61158460a0830186611360565b61159160c0830185611360565b81810360e08301526115a38184611305565b90509998505050505050505050565b600080600080600060a086880312156115ce576115cd610f85565b5b60006115dc88828901610fd8565b95505060206115ed88828901610fd8565b94505060406115fe8882890161129f565b935050606086013567ffffffffffffffff81111561161f5761161e610f8a565b5b61162b88828901611491565b925050608086013567ffffffffffffffff81111561164c5761164b610f8a565b5b61165888828901611491565b9150509295509295909350565b6000819050919050565b600061168a61168561168084610f8f565b611665565b610f8f565b9050919050565b600061169c8261166f565b9050919050565b60006116ae82611691565b9050919050565b6116be816116a3565b82525050565b60006020820190506116d960008301846116b5565b92915050565b60006020820190506116f46000830184611517565b92915050565b6000806040838503121561171157611710610f85565b5b600083013567ffffffffffffffff81111561172f5761172e610f8a565b5b61173b85828601611491565b925050602061174c85828601610fd8565b9150509250929050565b600060208201905061176b6000830184611508565b92915050565b7f4e487b7100000000000000000000000000000000000000000000000000000000600052602260045260246000fd5b600060028204905060018216806117b857607f821691505b6020821081036117cb576117ca611771565b5b50919050565b7f4e487b7100000000000000000000000000000000000000000000000000000000600052603260045260246000fd5b600081905092915050565b600061181682611046565b6118208185611800565b9350611830818560208601611062565b80840191505092915050565b6000611848828461180b565b915081905092915050565b7f42696c6c20494420616c72656164792065786973747300000000000000000000600082015250565b60006118896016836112f4565b915061189482611853565b602082019050919050565b600060208201905081810360008301526118b88161187c565b9050919050565b60008190508160005260206000209050919050565b60006020601f8301049050919050565b600082821b905092915050565b6000600883026119217fffffffffffffffffffffffffffffffffffffffffffffffffffffffffffffffff826118e4565b61192b86836118e4565b95508019841693508086168417925050509392505050565b600061195e61195961195484611100565b611665565b611100565b9050919050565b6000819050919050565b61197883611943565b61198c61198482611965565b8484546118f1565b825550505050565b600090565b6119a1611994565b6119ac81848461196f565b505050565b5b818110156119d0576119c5600082611999565b6001810190506119b2565b5050565b601f821115611a15576119e6816118bf565b6119ef846118d4565b810160208510156119fe578190505b611a12611a0a856118d4565b8301826119b1565b50505b505050565b600082821c905092915050565b6000611a3860001984600802611a1a565b1980831691505092915050565b6000611a518383611a27565b9150826002028217905092915050565b611a6a82611046565b67ffffffffffffffff811115611a8357611a82611394565b5b611a8d82546117a0565b611a988282856119d4565b600060209050601f831160018114611acb5760008415611ab9578287015190505b611ac38582611a45565b865550611b2b565b601f198416611ad9866118bf565b60005b82811015611b0157848901518255600182019150602085019450602081019050611adc565b86831015611b1e5784890151611b1a601f891682611a27565b8355505b6001600288020188555050505b505050505050565b7f4e487b7100000000000000000000000000000000000000000000000000000000600052601160045260246000fd5b6000611b6d82611100565b9150611b7883611100565b9250828201905080821115611b9057611b8f611b33565b5b92915050565b6000604082019050611bab6000830185611360565b8181036020830152611bbd8184611305565b90509392505050565b7f42696c6c20616c72656164792070616964000000000000000000000000000000600082015250565b6000611bfc6011836112f4565b9150611c0782611bc6565b602082019050919050565b60006020820190508181036000830152611c2b81611bef565b9050919050565b7f4e6f74207468652062696c6c6565000000000000000000000000000000000000600082015250565b6000611c68600e836112f4565b9150611c7382611c32565b602082019050919050565b60006020820190508181036000830152611c9781611c5b565b9050919050565b6000604082019050611cb36000830185611517565b611cc06020830184611360565b9392505050565b6000611cd282611100565b9150611cdd83611100565b9250828203905081811115611cf557611cf4611b33565b5b9291505056fea26469706673582212202e4f5f945dc6892940e59e1fcc3cc5d5b20429b8bbc1f8520bacb4f3e36f453f64736f6c634300081c0033a2646970667358221220138bed1f6c1dbab715aaa71d5f82272ebd43cdde8f83e2abbabd9e0781d5bdd164736f6c634300081c0033",
  "linkReferences": {},
  "deployedLinkReferences": {}
}