{
  "_format": "hh-sol-artifact-1",
  "contractName": "SmartMeterCollection",
  "sourceName": "contracts/SmartMeterCollection.sol",
  "abi": [
    {
      "inputs": [
        {
          "internalType": "address",
          "name": "_master",
          "type": "address"
        }
      ],
      "stateMutability": "nonpayable",
      "type": "constructor"
    },
    {
      "anonymous": false,
      "inputs": [
        {
          "indexed": true,
          "internalType": "address",
          "name": "meter",
          "type": "address"
        },
        {
          "indexed": false,
          "internalType": "uint256",
          "name": "timestamp",
          "type": "uint256"
        },
        {
          "indexed": false,
          "internalType": "uint256",
          "name": "value",
          "type": "uint256"
        }
      ],
      "name": "DataRecorded",
      "type": "event"
    },
    {
      "anonymous": false,
      "inputs": [
        {
          "indexed": false,
          "internalType": "string",
          "name": "name",
          "type": "string"
        },
        {
          "indexed": false,
          "internalType": "string",
          "name": "ownerName",
          "type": "string"
        },
        {
          "indexed": true,
          "internalType": "address",
          "name": "smartMeterAddress",
          "type": "address"
        },
        {
          "indexed": false,
          "internalType": "string",
          "name": "smartMeterId",
          "type": "string"
        }
      ],
      "name": "MeterRegistered",
      "type": "event"
    },
    {
      "inputs": [],
      "name": "INITIAL_TENANT_SUPPLY",
      "outputs": [
        {
          "internalType": "uint256",
          "name": "",
          "type": "uint256"
        }
      ],
      "stateMutability": "view",
      "type": "function"
    },
    {
      "inputs": [
        {
          "internalType": "address",
          "name": "_tenant",
          "type": "address"
        },
        {
          "internalType": "string",
          "name": "_fullName",
          "type": "string"
        },
        {
          "internalType": "address",
          "name": "_smartMeterAddress",
          "type": "address"
        }
      ],
      "name": "addTenant",
      "outputs": [],
      "stateMutability": "nonpayable",
      "type": "function"
    },
    {
      "inputs": [],
      "name": "billingContract",
      "outputs": [
        {
          "internalType": "contract BillingContract",
          "name": "",
          "type": "address"
        }
      ],
      "stateMutability": "view",
      "type": "function"
    },
    {
      "inputs": [
        {
          "internalType": "address",
          "name": "_billee",
          "type": "address"
        },
        {
          "internalType": "uint256",
          "name": "_amountHEAT",
          "type": "uint256"
        },
        {
          "internalType": "string",
          "name": "_description",
          "type": "string"
        },
        {
          "internalType": "string",
          "name": "_billId",
          "type": "string"
        }
      ],
      "name": "createBill",
      "outputs": [],
      "stateMutability": "nonpayable",
      "type": "function"
    },
    {
      "inputs": [
        {
          "internalType": "address",
          "name": "_tenantAddress",
          "type": "address"
        }
      ],
      "name": "getAssignedSmartMeterAddress",
      "outputs": [
        {
          "internalType": "address",
          "name": "",
          "type": "address"
        }
      ],
      "stateMutability": "view",
      "type": "function"
    },
    {
      "inputs": [
        {
          "internalType": "address",
          "name": "_tenant",
          "type": "address"
        }
      ],
      "name": "getBills",
      "outputs": [
        {
          "components": [
            {
              "internalType": "string",
              "name": "billId",
              "type": "string"
            },
            {
              "internalType": "bool",
              "name": "paid",
              "type": "bool"
            },
            {
              "internalType": "address",
              "name": "biller",
              "type": "address"
            },
            {
              "internalType": "address",
              "name": "billee",
              "type": "address"
            },
            {
              "internalType": "uint256",
              "name": "amountHEAT",
              "type": "uint256"
            },
            {
              "internalType": "uint256",
              "name": "dateIssuance",
              "type": "uint256"
            },
            {
              "internalType": "uint256",
              "name": "datePaid",
              "type": "uint256"
            },
            {
              "internalType": "string",
              "name": "description",
              "type": "string"
            }
          ],
          "internalType": "struct Bill[]",
          "name": "",
          "type": "tuple[]"
        }
      ],
      "stateMutability": "view",
      "type": "function"
    },
    {
      "inputs": [
        {
          "internalType": "address",
          "name": "_meterAddress",
          "type": "address"
        }
      ],
      "name": "getMeterData",
      "outputs": [
        {
          "components": [
            {
              "internalType": "uint256",
              "name": "timestamp",
              "type": "uint256"
            },
            {
              "internalType": "uint256",
              "name": "value",
              "type": "uint256"
            },
            {
              "internalType": "string",
              "name": "unit",
              "type": "string"
            }
          ],
          "internalType": "struct Measurement[]",
          "name": "",
          "type": "tuple[]"
        }
      ],
      "stateMutability": "view",
      "type": "function"
    },
    {
      "inputs": [
        {
          "internalType": "address",
          "name": "_meterAddress",
          "type": "address"
        }
      ],
      "name": "getMeterInfo",
      "outputs": [
        {
          "components": [
            {
              "internalType": "string",
              "name": "name",
              "type": "string"
            },
            {
              "internalType": "string",
              "name": "ownerName",
              "type": "string"
            },
            {
              "internalType": "address",
              "name": "smartMeterAddress",
              "type": "address"
            },
            {
              "internalType": "string",
              "name": "smartMeterId",
              "type": "string"
            },
            {
              "internalType": "bool",
              "name": "isActive",
              "type": "bool"
            }
          ],
          "internalType": "struct SmartMeter",
          "name": "",
          "type": "tuple"
        }
      ],
      "stateMutability": "view",
      "type": "function"
    },
    {
      "inputs": [],
      "name": "getOutstandingBalance",
      "outputs": [
        {
          "internalType": "uint256",
          "name": "",
          "type": "uint256"
        }
      ],
      "stateMutability": "view",
      "type": "function"
    },
    {
      "inputs": [],
      "name": "getRole",
      "outputs": [
        {
          "internalType": "string",
          "name": "",
          "type": "string"
        }
      ],
      "stateMutability": "view",
      "type": "function"
    },
    {
      "inputs": [],
      "name": "getSmartMeters",
      "outputs": [
        {
          "internalType": "address[]",
          "name": "",
          "type": "address[]"
        }
      ],
      "stateMutability": "view",
      "type": "function"
    },
    {
      "inputs": [],
      "name": "getTenants",
      "outputs": [
        {
          "internalType": "address[]",
          "name": "",
          "type": "address[]"
        }
      ],
      "stateMutability": "view",
      "type": "function"
    },
    {
      "inputs": [],
      "name": "getTokenBalance",
      "outputs": [
        {
          "internalType": "uint256",
          "name": "",
          "type": "uint256"
        }
      ],
      "stateMutability": "view",
      "type": "function"
    },
    {
      "inputs": [],
      "name": "heatToken",
      "outputs": [
        {
          "internalType": "contract HeatingToken",
          "name": "",
          "type": "address"
        }
      ],
      "stateMutability": "view",
      "type": "function"
    },
    {
      "inputs": [],
      "name": "masterOwner",
      "outputs": [
        {
          "internalType": "address",
          "name": "",
          "type": "address"
        }
      ],
      "stateMutability": "view",
      "type": "function"
    },
    {
      "inputs": [
        {
          "internalType": "address",
          "name": "",
          "type": "address"
        },
        {
          "internalType": "uint256",
          "name": "",
          "type": "uint256"
        }
      ],
      "name": "meterData",
      "outputs": [
        {
          "internalType": "uint256",
          "name": "timestamp",
          "type": "uint256"
        },
        {
          "internalType": "uint256",
          "name": "value",
          "type": "uint256"
        },
        {
          "internalType": "string",
          "name": "unit",
          "type": "string"
        }
      ],
      "stateMutability": "view",
      "type": "function"
    },
    {
      "inputs": [
        {
          "internalType": "string",
          "name": "_billId",
          "type": "string"
        },
        {
          "internalType": "uint256",
          "name": "_amount",
          "type": "uint256"
        }
      ],
      "name": "payBill",
      "outputs": [],
      "stateMutability": "nonpayable",
      "type": "function"
    },
    {
      "inputs": [
        {
          "internalType": "uint256",
          "name": "_value",
          "type": "uint256"
        },
        {
          "internalType": "string",
          "name": "_unit",
          "type": "string"
        }
      ],
      "name": "recordData",
      "outputs": [],
      "stateMutability": "nonpayable",
      "type": "function"
    },
    {
      "inputs": [
        {
          "internalType": "string",
          "name": "_name",
          "type": "string"
        },
        {
          "internalType": "string",
          "name": "_ownerName",
          "type": "string"
        },
        {
          "internalType": "address",
          "name": "_smartMeterAddress",
          "type": "address"
        },
        {
          "internalType": "string",
          "name": "_smartMeterId",
          "type": "string"
        }
      ],
      "name": "registerSmartMeter",
      "outputs": [],
      "stateMutability": "nonpayable",
      "type": "function"
    },
    {
      "inputs": [
        {
          "internalType": "address",
          "name": "_tenant",
          "type": "address"
        }
      ],
      "name": "removeTenant",
      "outputs": [],
      "stateMutability": "nonpayable",
      "type": "function"
    },
    {
      "inputs": [
        {
          "internalType": "address",
          "name": "",
          "type": "address"
        }
      ],
      "name": "smartMeters",
      "outputs": [
        {
          "internalType": "string",
          "name": "name",
          "type": "string"
        },
        {
          "internalType": "string",
          "name": "ownerName",
          "type": "string"
        },
        {
          "internalType": "address",
          "name": "smartMeterAddress",
          "type": "address"
        },
        {
          "internalType": "string",
          "name": "smartMeterId",
          "type": "string"
        },
        {
          "internalType": "bool",
          "name": "isActive",
          "type": "bool"
        }
      ],
      "stateMutability": "view",
      "type": "function"
    },
    {
      "inputs": [
        {
          "internalType": "address",
          "name": "",
          "type": "address"
        }
      ],
      "name": "tenants",
      "outputs": [
        {
          "internalType": "string",
          "name": "fullName",
          "type": "string"
        },
        {
          "internalType": "address",
          "name": "assignedSmartMeter",
          "type": "address"
        }
      ],
      "stateMutability": "view",
      "type": "function"
    },
    {
      "inputs": [
        {
          "internalType": "address",
          "name": "",
          "type": "address"
        }
      ],
      "name": "whitelistedTenants",
      "outputs": [
        {
          "internalType": "bool",
          "name": "",
          "type": "bool"
        }
      ],
      "stateMutability": "view",
      "type": "function"
    },
    {
      "inputs": [],
      "name": "withdrawCollectedFunds",
      "outputs": [],
      "stateMutability": "nonpayable",
      "type": "function"
    }
  ],
  "bytecode": "0x608060405234801561001057600080fd5b506040516187a13803806187a183398181016040528101906100329190610355565b6100776040518060400160405280601781526020017f4372656174696e6720636f6c6c656374696f6e20666f72000000000000000000815250826101d560201b60201c565b806000806101000a81548173ffffffffffffffffffffffffffffffffffffffff021916908373ffffffffffffffffffffffffffffffffffffffff16021790555069d3c21bcecceda1000000816040516100cf906102ce565b6100da9291906103e0565b604051809103906000f0801580156100f6573d6000803e3d6000fd5b50600160006101000a81548173ffffffffffffffffffffffffffffffffffffffff021916908373ffffffffffffffffffffffffffffffffffffffff16021790555080600160009054906101000a900473ffffffffffffffffffffffffffffffffffffffff16604051610167906102db565b61017292919061045e565b604051809103906000f08015801561018e573d6000803e3d6000fd5b50600260006101000a81548173ffffffffffffffffffffffffffffffffffffffff021916908373ffffffffffffffffffffffffffffffffffffffff16021790555050610576565b61027382826040516024016101eb929190610517565b6040516020818303038152906040527f319af333000000000000000000000000000000000000000000000000000000007bffffffffffffffffffffffffffffffffffffffffffffffffffffffff19166020820180517bffffffffffffffffffffffffffffffffffffffffffffffffffffffff838183161783525050505061027760201b60201c565b5050565b6102988161029361029b60201b6128ac176102bc60201b60201c565b60201c565b50565b60006a636f6e736f6c652e6c6f679050600080835160208501845afa505050565b6102e860201b6128cd17819050919050565b6119f4806147a183390190565b61260c8061619583390190565b6102f0610547565b565b600080fd5b600073ffffffffffffffffffffffffffffffffffffffff82169050919050565b6000610322826102f7565b9050919050565b61033281610317565b811461033d57600080fd5b50565b60008151905061034f81610329565b92915050565b60006020828403121561036b5761036a6102f2565b5b600061037984828501610340565b91505092915050565b6000819050919050565b6000819050919050565b6000819050919050565b60006103bb6103b66103b184610382565b610396565b61038c565b9050919050565b6103cb816103a0565b82525050565b6103da81610317565b82525050565b60006040820190506103f560008301856103c2565b61040260208301846103d1565b9392505050565b600061042461041f61041a846102f7565b610396565b6102f7565b9050919050565b600061043682610409565b9050919050565b60006104488261042b565b9050919050565b6104588161043d565b82525050565b600060408201905061047360008301856103d1565b610480602083018461044f565b9392505050565b600081519050919050565b600082825260208201905092915050565b60005b838110156104c15780820151818401526020810190506104a6565b60008484015250505050565b6000601f19601f8301169050919050565b60006104e982610487565b6104f38185610492565b93506105038185602086016104a3565b61050c816104cd565b840191505092915050565b6000604082019050818103600083015261053181856104de565b905061054060208301846103d1565b9392505050565b7f4e487b7100000000000000000000000000000000000000000000000000000000600052605160045260246000fd5b61421c806105856000396000f3fe608060405234801561001057600080fd5b50600436106101585760003560e01c806382b2e257116100c3578063ae428d781161007c578063ae428d78146103cd578063babd9692146103eb578063e7201d7d14610407578063fba1f7b014610425578063fd9153a314610455578063fde081741461048657610158565b806382b2e2571461030757806389160939146103255780638aeea7281461032f57806390affb5114610361578063a3f4458d1461037f578063a58039451461039d57610158565b80632d710070116101155780632d710070146102355780632dda7a721461025157806333d808ce1461026d57806345a132aa1461029d57806353be7ded146102cd5780637ad74476146102eb57610158565b80630d79f9c91461015d57806310f6a3431461018d57806324c75993146101c157806326ba1ff8146101dd57806326d6ec64146101fb57806328a1170214610217575b600080fd5b610177600480360381019061017291906129ed565b6104a4565b6040516101849190612b58565b60405180910390f35b6101a760048036038101906101a291906129ed565b61089f565b6040516101b8959493929190612be2565b60405180910390f35b6101db60048036038101906101d69190612ce5565b610a9a565b005b6101e5610cc6565b6040516101f29190612df4565b60405180910390f35b61021560048036038101906102109190612f46565b610de2565b005b61021f611092565b60405161022c9190612fc4565b60405180910390f35b61024f600480360381019061024a91906129ed565b611135565b005b61026b60048036038101906102669190612fdf565b61141e565b005b610287600480360381019061028291906129ed565b6115d3565b604051610294919061319f565b60405180910390f35b6102b760048036038101906102b291906129ed565b611892565b6040516102c4919061333a565b60405180910390f35b6102d5611a55565b6040516102e29190612df4565b60405180910390f35b6103056004803603810190610300919061335c565b611b71565b005b61030f611c92565b60405161031c9190612fc4565b60405180910390f35b61032d611dc1565b005b610349600480360381019061034491906133b8565b612034565b604051610358939291906133f8565b60405180910390f35b610369612103565b6040516103769190613495565b60405180910390f35b610387612129565b6040516103949190612fc4565b60405180910390f35b6103b760048036038101906103b291906129ed565b612136565b6040516103c491906134b0565b60405180910390f35b6103d5612156565b6040516103e291906134ec565b60405180910390f35b61040560048036038101906104009190613507565b61217c565b005b61040f6124d8565b60405161041c91906135c2565b60405180910390f35b61043f600480360381019061043a91906129ed565b6124fc565b60405161044c91906135c2565b60405180910390f35b61046f600480360381019061046a91906129ed565b6125f4565b60405161047d9291906135dd565b60405180910390f35b61048e6126c0565b60405161049b919061360d565b60405180910390f35b6104ac6128d7565b60008054906101000a900473ffffffffffffffffffffffffffffffffffffffff1673ffffffffffffffffffffffffffffffffffffffff163373ffffffffffffffffffffffffffffffffffffffff1614806105e85750600960003373ffffffffffffffffffffffffffffffffffffffff1673ffffffffffffffffffffffffffffffffffffffff16815260200190815260200160002060009054906101000a900460ff1680156105e757508173ffffffffffffffffffffffffffffffffffffffff16600560003373ffffffffffffffffffffffffffffffffffffffff1673ffffffffffffffffffffffffffffffffffffffff16815260200190815260200160002060010160009054906101000a900473ffffffffffffffffffffffffffffffffffffffff1673ffffffffffffffffffffffffffffffffffffffff16145b5b610627576040517f08c379a000000000000000000000000000000000000000000000000000000000815260040161061e9061367b565b60405180910390fd5b600360008373ffffffffffffffffffffffffffffffffffffffff1673ffffffffffffffffffffffffffffffffffffffff1681526020019081526020016000206040518060a0016040529081600082018054610681906136ca565b80601f01602080910402602001604051908101604052809291908181526020018280546106ad906136ca565b80156106fa5780601f106106cf576101008083540402835291602001916106fa565b820191906000526020600020905b8154815290600101906020018083116106dd57829003601f168201915b50505050508152602001600182018054610713906136ca565b80601f016020809104026020016040519081016040528092919081815260200182805461073f906136ca565b801561078c5780601f106107615761010080835404028352916020019161078c565b820191906000526020600020905b81548152906001019060200180831161076f57829003601f168201915b505050505081526020016002820160009054906101000a900473ffffffffffffffffffffffffffffffffffffffff1673ffffffffffffffffffffffffffffffffffffffff1673ffffffffffffffffffffffffffffffffffffffff1681526020016003820180546107fb906136ca565b80601f0160208091040260200160405190810160405280929190818152602001828054610827906136ca565b80156108745780601f1061084957610100808354040283529160200191610874565b820191906000526020600020905b81548152906001019060200180831161085757829003601f168201915b505050505081526020016004820160009054906101000a900460ff1615151515815250509050919050565b60036020528060005260406000206000915090508060000180546108c2906136ca565b80601f01602080910402602001604051908101604052809291908181526020018280546108ee906136ca565b801561093b5780601f106109105761010080835404028352916020019161093b565b820191906000526020600020905b81548152906001019060200180831161091e57829003601f168201915b505050505090806001018054610950906136ca565b80601f016020809104026020016040519081016040528092919081815260200182805461097c906136ca565b80156109c95780601f1061099e576101008083540402835291602001916109c9565b820191906000526020600020905b8154815290600101906020018083116109ac57829003601f168201915b5050505050908060020160009054906101000a900473ffffffffffffffffffffffffffffffffffffffff1690806003018054610a04906136ca565b80601f0160208091040260200160405190810160405280929190818152602001828054610a30906136ca565b8015610a7d5780601f10610a5257610100808354040283529160200191610a7d565b820191906000526020600020905b815481529060010190602001808311610a6057829003601f168201915b5050505050908060040160009054906101000a900460ff16905085565b600860003373ffffffffffffffffffffffffffffffffffffffff1673ffffffffffffffffffffffffffffffffffffffff16815260200190815260200160002060009054906101000a900460ff168015610b3f5750600360003373ffffffffffffffffffffffffffffffffffffffff1673ffffffffffffffffffffffffffffffffffffffff16815260200190815260200160002060040160009054906101000a900460ff165b610b7e576040517f08c379a0000000000000000000000000000000000000000000000000000000008152600401610b7590613747565b60405180910390fd5b600760003373ffffffffffffffffffffffffffffffffffffffff1673ffffffffffffffffffffffffffffffffffffffff168152602001908152602001600020604051806060016040528042815260200185815260200184848080601f016020809104026020016040519081016040528093929190818152602001838380828437600081840152601f19601f82011690508083019250505050505050815250908060018154018082558091505060019003906000526020600020906003020160009091909190915060008201518160000155602082015181600101556040820151816002019081610c6e9190613909565b5050503373ffffffffffffffffffffffffffffffffffffffff167f550066d608ea56e089cd4c6f3ccd9557109a2adf9eb1fc812763cbffe3a325d14285604051610cb99291906139db565b60405180910390a2505050565b606060008054906101000a900473ffffffffffffffffffffffffffffffffffffffff1673ffffffffffffffffffffffffffffffffffffffff163373ffffffffffffffffffffffffffffffffffffffff1614610d56576040517f08c379a0000000000000000000000000000000000000000000000000000000008152600401610d4d90613a50565b60405180910390fd5b6004805480602002602001604051908101604052809291908181526020018280548015610dd857602002820191906000526020600020905b8160009054906101000a900473ffffffffffffffffffffffffffffffffffffffff1673ffffffffffffffffffffffffffffffffffffffff1681526020019060010190808311610d8e575b5050505050905090565b60008054906101000a900473ffffffffffffffffffffffffffffffffffffffff1673ffffffffffffffffffffffffffffffffffffffff163373ffffffffffffffffffffffffffffffffffffffff1614610e70576040517f08c379a0000000000000000000000000000000000000000000000000000000008152600401610e6790613a50565b60405180910390fd5b60405180604001604052808381526020018273ffffffffffffffffffffffffffffffffffffffff16815250600560008573ffffffffffffffffffffffffffffffffffffffff1673ffffffffffffffffffffffffffffffffffffffff1681526020019081526020016000206000820151816000019081610eef9190613909565b5060208201518160010160006101000a81548173ffffffffffffffffffffffffffffffffffffffff021916908373ffffffffffffffffffffffffffffffffffffffff160217905550905050600160009054906101000a900473ffffffffffffffffffffffffffffffffffffffff1673ffffffffffffffffffffffffffffffffffffffff16635423c22e84681b1ae4d6e2ef5000006040518363ffffffff1660e01b8152600401610fa0929190613a70565b600060405180830381600087803b158015610fba57600080fd5b505af1158015610fce573d6000803e3d6000fd5b505050506006839080600181540180825580915050600190039060005260206000200160009091909190916101000a81548173ffffffffffffffffffffffffffffffffffffffff021916908373ffffffffffffffffffffffffffffffffffffffff1602179055506001600960008573ffffffffffffffffffffffffffffffffffffffff1673ffffffffffffffffffffffffffffffffffffffff16815260200190815260200160002060006101000a81548160ff021916908315150217905550505050565b6000600260009054906101000a900473ffffffffffffffffffffffffffffffffffffffff1673ffffffffffffffffffffffffffffffffffffffff1663755873c5336040518263ffffffff1660e01b81526004016110ef91906135c2565b602060405180830381865afa15801561110c573d6000803e3d6000fd5b505050506040513d601f19601f820116820180604052508101906111309190613aae565b905090565b60008054906101000a900473ffffffffffffffffffffffffffffffffffffffff1673ffffffffffffffffffffffffffffffffffffffff163373ffffffffffffffffffffffffffffffffffffffff16146111c3576040517f08c379a00000000000000000000000000000000000000000000000000000000081526004016111ba90613a50565b60405180910390fd5b6000600960008373ffffffffffffffffffffffffffffffffffffffff1673ffffffffffffffffffffffffffffffffffffffff16815260200190815260200160002060006101000a81548160ff02191690831515021790555060005b6006805490508110156113a1578173ffffffffffffffffffffffffffffffffffffffff166006828154811061125657611255613adb565b5b9060005260206000200160009054906101000a900473ffffffffffffffffffffffffffffffffffffffff1673ffffffffffffffffffffffffffffffffffffffff160361139457600660016006805490506112b09190613b39565b815481106112c1576112c0613adb565b5b9060005260206000200160009054906101000a900473ffffffffffffffffffffffffffffffffffffffff1660068281548110611300576112ff613adb565b5b9060005260206000200160006101000a81548173ffffffffffffffffffffffffffffffffffffffff021916908373ffffffffffffffffffffffffffffffffffffffff160217905550600680548061135a57611359613b6d565b5b6001900381819060005260206000200160006101000a81549073ffffffffffffffffffffffffffffffffffffffff021916905590556113a1565b808060010191505061121e565b50600560008273ffffffffffffffffffffffffffffffffffffffff1673ffffffffffffffffffffffffffffffffffffffff168152602001908152602001600020600080820160006113f2919061291e565b6001820160006101000a81549073ffffffffffffffffffffffffffffffffffffffff0219169055505050565b60008054906101000a900473ffffffffffffffffffffffffffffffffffffffff1673ffffffffffffffffffffffffffffffffffffffff163373ffffffffffffffffffffffffffffffffffffffff16146114ac576040517f08c379a00000000000000000000000000000000000000000000000000000000081526004016114a390613a50565b60405180910390fd5b600960008573ffffffffffffffffffffffffffffffffffffffff1673ffffffffffffffffffffffffffffffffffffffff16815260200190815260200160002060009054906101000a900460ff16611538576040517f08c379a000000000000000000000000000000000000000000000000000000000815260040161152f90613be8565b60405180910390fd5b600260009054906101000a900473ffffffffffffffffffffffffffffffffffffffff1673ffffffffffffffffffffffffffffffffffffffff1663a343fc1285338686866040518663ffffffff1660e01b815260040161159b959493929190613c08565b600060405180830381600087803b1580156115b557600080fd5b505af11580156115c9573d6000803e3d6000fd5b5050505050505050565b606060008054906101000a900473ffffffffffffffffffffffffffffffffffffffff1673ffffffffffffffffffffffffffffffffffffffff163373ffffffffffffffffffffffffffffffffffffffff1614806117115750600960003373ffffffffffffffffffffffffffffffffffffffff1673ffffffffffffffffffffffffffffffffffffffff16815260200190815260200160002060009054906101000a900460ff16801561171057508173ffffffffffffffffffffffffffffffffffffffff16600560003373ffffffffffffffffffffffffffffffffffffffff1673ffffffffffffffffffffffffffffffffffffffff16815260200190815260200160002060010160009054906101000a900473ffffffffffffffffffffffffffffffffffffffff1673ffffffffffffffffffffffffffffffffffffffff16145b5b611750576040517f08c379a00000000000000000000000000000000000000000000000000000000081526004016117479061367b565b60405180910390fd5b600760008373ffffffffffffffffffffffffffffffffffffffff1673ffffffffffffffffffffffffffffffffffffffff168152602001908152602001600020805480602002602001604051908101604052809291908181526020016000905b82821015611887578382906000526020600020906003020160405180606001604052908160008201548152602001600182015481526020016002820180546117f6906136ca565b80601f0160208091040260200160405190810160405280929190818152602001828054611822906136ca565b801561186f5780601f106118445761010080835404028352916020019161186f565b820191906000526020600020905b81548152906001019060200180831161185257829003601f168201915b505050505081525050815260200190600101906117af565b505050509050919050565b606060008054906101000a900473ffffffffffffffffffffffffffffffffffffffff1673ffffffffffffffffffffffffffffffffffffffff163373ffffffffffffffffffffffffffffffffffffffff16148061196e57508173ffffffffffffffffffffffffffffffffffffffff163373ffffffffffffffffffffffffffffffffffffffff1614801561196d5750600960008373ffffffffffffffffffffffffffffffffffffffff1673ffffffffffffffffffffffffffffffffffffffff16815260200190815260200160002060009054906101000a900460ff165b5b6119ad576040517f08c379a00000000000000000000000000000000000000000000000000000000081526004016119a49061367b565b60405180910390fd5b600260009054906101000a900473ffffffffffffffffffffffffffffffffffffffff1673ffffffffffffffffffffffffffffffffffffffff166345a132aa836040518263ffffffff1660e01b8152600401611a0891906135c2565b600060405180830381865afa158015611a25573d6000803e3d6000fd5b505050506040513d6000823e3d601f19601f82011682018060405250810190611a4e9190613f07565b9050919050565b606060008054906101000a900473ffffffffffffffffffffffffffffffffffffffff1673ffffffffffffffffffffffffffffffffffffffff163373ffffffffffffffffffffffffffffffffffffffff1614611ae5576040517f08c379a0000000000000000000000000000000000000000000000000000000008152600401611adc90613a50565b60405180910390fd5b6006805480602002602001604051908101604052809291908181526020018280548015611b6757602002820191906000526020600020905b8160009054906101000a900473ffffffffffffffffffffffffffffffffffffffff1673ffffffffffffffffffffffffffffffffffffffff1681526020019060010190808311611b1d575b5050505050905090565b600960003373ffffffffffffffffffffffffffffffffffffffff1673ffffffffffffffffffffffffffffffffffffffff16815260200190815260200160002060009054906101000a900460ff16611bfd576040517f08c379a0000000000000000000000000000000000000000000000000000000008152600401611bf490613f9c565b60405180910390fd5b600260009054906101000a900473ffffffffffffffffffffffffffffffffffffffff1673ffffffffffffffffffffffffffffffffffffffff16632f79c7b08383336040518463ffffffff1660e01b8152600401611c5c93929190613fbc565b600060405180830381600087803b158015611c7657600080fd5b505af1158015611c8a573d6000803e3d6000fd5b505050505050565b6000600960003373ffffffffffffffffffffffffffffffffffffffff1673ffffffffffffffffffffffffffffffffffffffff16815260200190815260200160002060009054906101000a900460ff16611d20576040517f08c379a0000000000000000000000000000000000000000000000000000000008152600401611d1790613f9c565b60405180910390fd5b600160009054906101000a900473ffffffffffffffffffffffffffffffffffffffff1673ffffffffffffffffffffffffffffffffffffffff166370a08231336040518263ffffffff1660e01b8152600401611d7b91906135c2565b602060405180830381865afa158015611d98573d6000803e3d6000fd5b505050506040513d601f19601f82011682018060405250810190611dbc9190613aae565b905090565b60008054906101000a900473ffffffffffffffffffffffffffffffffffffffff1673ffffffffffffffffffffffffffffffffffffffff163373ffffffffffffffffffffffffffffffffffffffff1614611e4f576040517f08c379a0000000000000000000000000000000000000000000000000000000008152600401611e4690613a50565b60405180910390fd5b6000600160009054906101000a900473ffffffffffffffffffffffffffffffffffffffff1673ffffffffffffffffffffffffffffffffffffffff166370a08231306040518263ffffffff1660e01b8152600401611eac91906135c2565b602060405180830381865afa158015611ec9573d6000803e3d6000fd5b505050506040513d601f19601f82011682018060405250810190611eed9190613aae565b905060008111611f32576040517f08c379a0000000000000000000000000000000000000000000000000000000008152600401611f2990614046565b60405180910390fd5b600160009054906101000a900473ffffffffffffffffffffffffffffffffffffffff1673ffffffffffffffffffffffffffffffffffffffff1663a9059cbb60008054906101000a900473ffffffffffffffffffffffffffffffffffffffff16836040518363ffffffff1660e01b8152600401611faf929190613a70565b6020604051808303816000875af1158015611fce573d6000803e3d6000fd5b505050506040513d601f19601f82011682018060405250810190611ff29190614066565b612031576040517f08c379a0000000000000000000000000000000000000000000000000000000008152600401612028906140df565b60405180910390fd5b50565b6007602052816000526040600020818154811061205057600080fd5b906000526020600020906003020160009150915050806000015490806001015490806002018054612080906136ca565b80601f01602080910402602001604051908101604052809291908181526020018280546120ac906136ca565b80156120f95780601f106120ce576101008083540402835291602001916120f9565b820191906000526020600020905b8154815290600101906020018083116120dc57829003601f168201915b5050505050905083565b600260009054906101000a900473ffffffffffffffffffffffffffffffffffffffff1681565b681b1ae4d6e2ef50000081565b60096020528060005260406000206000915054906101000a900460ff1681565b600160009054906101000a900473ffffffffffffffffffffffffffffffffffffffff1681565b60008054906101000a900473ffffffffffffffffffffffffffffffffffffffff1673ffffffffffffffffffffffffffffffffffffffff163373ffffffffffffffffffffffffffffffffffffffff161461220a576040517f08c379a000000000000000000000000000000000000000000000000000000000815260040161220190613a50565b60405180910390fd5b600360008373ffffffffffffffffffffffffffffffffffffffff1673ffffffffffffffffffffffffffffffffffffffff16815260200190815260200160002060040160009054906101000a900460ff161561229a576040517f08c379a00000000000000000000000000000000000000000000000000000000081526004016122919061414b565b60405180910390fd5b6040518060a001604052808581526020018481526020018373ffffffffffffffffffffffffffffffffffffffff16815260200182815260200160011515815250600360008473ffffffffffffffffffffffffffffffffffffffff1673ffffffffffffffffffffffffffffffffffffffff168152602001908152602001600020600082015181600001908161232e9190613909565b5060208201518160010190816123449190613909565b5060408201518160020160006101000a81548173ffffffffffffffffffffffffffffffffffffffff021916908373ffffffffffffffffffffffffffffffffffffffff16021790555060608201518160030190816123a19190613909565b5060808201518160040160006101000a81548160ff0219169083151502179055509050506001600860008473ffffffffffffffffffffffffffffffffffffffff1673ffffffffffffffffffffffffffffffffffffffff16815260200190815260200160002060006101000a81548160ff0219169083151502179055506004829080600181540180825580915050600190039060005260206000200160009091909190916101000a81548173ffffffffffffffffffffffffffffffffffffffff021916908373ffffffffffffffffffffffffffffffffffffffff1602179055508173ffffffffffffffffffffffffffffffffffffffff167f49678145bcf4dcaf25c4bff4c2bd8262ee07185373d0e2c241598420b8e4d7318585846040516124ca9392919061416b565b60405180910390a250505050565b60008054906101000a900473ffffffffffffffffffffffffffffffffffffffff1681565b6000600960003373ffffffffffffffffffffffffffffffffffffffff1673ffffffffffffffffffffffffffffffffffffffff16815260200190815260200160002060009054906101000a900460ff1661258a576040517f08c379a000000000000000000000000000000000000000000000000000000000815260040161258190613f9c565b60405180910390fd5b600560008373ffffffffffffffffffffffffffffffffffffffff1673ffffffffffffffffffffffffffffffffffffffff16815260200190815260200160002060010160009054906101000a900473ffffffffffffffffffffffffffffffffffffffff169050919050565b6005602052806000526040600020600091509050806000018054612617906136ca565b80601f0160208091040260200160405190810160405280929190818152602001828054612643906136ca565b80156126905780601f1061266557610100808354040283529160200191612690565b820191906000526020600020905b81548152906001019060200180831161267357829003601f168201915b5050505050908060010160009054906101000a900473ffffffffffffffffffffffffffffffffffffffff16905082565b606060008054906101000a900473ffffffffffffffffffffffffffffffffffffffff1673ffffffffffffffffffffffffffffffffffffffff163373ffffffffffffffffffffffffffffffffffffffff1603612752576040518060400160405280600581526020017f61646d696e00000000000000000000000000000000000000000000000000000081525090506128a9565b600860003373ffffffffffffffffffffffffffffffffffffffff1673ffffffffffffffffffffffffffffffffffffffff16815260200190815260200160002060009054906101000a900460ff16156127e1576040518060400160405280600a81526020017f736d6172744d657465720000000000000000000000000000000000000000000081525090506128a9565b600960003373ffffffffffffffffffffffffffffffffffffffff1673ffffffffffffffffffffffffffffffffffffffff16815260200190815260200160002060009054906101000a900460ff1615612870576040518060400160405280600681526020017f74656e616e74000000000000000000000000000000000000000000000000000081525090506128a9565b6040518060400160405280600781526020017f756e6b6e6f776e0000000000000000000000000000000000000000000000000081525090505b90565b60006a636f6e736f6c652e6c6f679050600080835160208501845afa505050565b6128d56141b7565b565b6040518060a001604052806060815260200160608152602001600073ffffffffffffffffffffffffffffffffffffffff168152602001606081526020016000151581525090565b50805461292a906136ca565b6000825580601f1061293c575061295b565b601f01602090049060005260206000209081019061295a919061295e565b5b50565b5b8082111561297757600081600090555060010161295f565b5090565b6000604051905090565b600080fd5b600080fd5b600073ffffffffffffffffffffffffffffffffffffffff82169050919050565b60006129ba8261298f565b9050919050565b6129ca816129af565b81146129d557600080fd5b50565b6000813590506129e7816129c1565b92915050565b600060208284031215612a0357612a02612985565b5b6000612a11848285016129d8565b91505092915050565b600081519050919050565b600082825260208201905092915050565b60005b83811015612a54578082015181840152602081019050612a39565b60008484015250505050565b6000601f19601f8301169050919050565b6000612a7c82612a1a565b612a868185612a25565b9350612a96818560208601612a36565b612a9f81612a60565b840191505092915050565b612ab3816129af565b82525050565b60008115159050919050565b612ace81612ab9565b82525050565b600060a0830160008301518482036000860152612af18282612a71565b91505060208301518482036020860152612b0b8282612a71565b9150506040830151612b206040860182612aaa565b5060608301518482036060860152612b388282612a71565b9150506080830151612b4d6080860182612ac5565b508091505092915050565b60006020820190508181036000830152612b728184612ad4565b905092915050565b600082825260208201905092915050565b6000612b9682612a1a565b612ba08185612b7a565b9350612bb0818560208601612a36565b612bb981612a60565b840191505092915050565b612bcd816129af565b82525050565b612bdc81612ab9565b82525050565b600060a0820190508181036000830152612bfc8188612b8b565b90508181036020830152612c108187612b8b565b9050612c1f6040830186612bc4565b8181036060830152612c318185612b8b565b9050612c406080830184612bd3565b9695505050505050565b6000819050919050565b612c5d81612c4a565b8114612c6857600080fd5b50565b600081359050612c7a81612c54565b92915050565b600080fd5b600080fd5b600080fd5b60008083601f840112612ca557612ca4612c80565b5b8235905067ffffffffffffffff811115612cc257612cc1612c85565b5b602083019150836001820283011115612cde57612cdd612c8a565b5b9250929050565b600080600060408486031215612cfe57612cfd612985565b5b6000612d0c86828701612c6b565b935050602084013567ffffffffffffffff811115612d2d57612d2c61298a565b5b612d3986828701612c8f565b92509250509250925092565b600081519050919050565b600082825260208201905092915050565b6000819050602082019050919050565b6000612d7d8383612aaa565b60208301905092915050565b6000602082019050919050565b6000612da182612d45565b612dab8185612d50565b9350612db683612d61565b8060005b83811015612de7578151612dce8882612d71565b9750612dd983612d89565b925050600181019050612dba565b5085935050505092915050565b60006020820190508181036000830152612e0e8184612d96565b905092915050565b600080fd5b7f4e487b7100000000000000000000000000000000000000000000000000000000600052604160045260246000fd5b612e5382612a60565b810181811067ffffffffffffffff82111715612e7257612e71612e1b565b5b80604052505050565b6000612e8561297b565b9050612e918282612e4a565b919050565b600067ffffffffffffffff821115612eb157612eb0612e1b565b5b612eba82612a60565b9050602081019050919050565b82818337600083830152505050565b6000612ee9612ee484612e96565b612e7b565b905082815260208101848484011115612f0557612f04612e16565b5b612f10848285612ec7565b509392505050565b600082601f830112612f2d57612f2c612c80565b5b8135612f3d848260208601612ed6565b91505092915050565b600080600060608486031215612f5f57612f5e612985565b5b6000612f6d868287016129d8565b935050602084013567ffffffffffffffff811115612f8e57612f8d61298a565b5b612f9a86828701612f18565b9250506040612fab868287016129d8565b9150509250925092565b612fbe81612c4a565b82525050565b6000602082019050612fd96000830184612fb5565b92915050565b60008060008060808587031215612ff957612ff8612985565b5b6000613007878288016129d8565b945050602061301887828801612c6b565b935050604085013567ffffffffffffffff8111156130395761303861298a565b5b61304587828801612f18565b925050606085013567ffffffffffffffff8111156130665761306561298a565b5b61307287828801612f18565b91505092959194509250565b600081519050919050565b600082825260208201905092915050565b6000819050602082019050919050565b6130b381612c4a565b82525050565b60006060830160008301516130d160008601826130aa565b5060208301516130e460208601826130aa565b50604083015184820360408601526130fc8282612a71565b9150508091505092915050565b600061311583836130b9565b905092915050565b6000602082019050919050565b60006131358261307e565b61313f8185613089565b9350836020820285016131518561309a565b8060005b8581101561318d578484038952815161316e8582613109565b94506131798361311d565b925060208a01995050600181019050613155565b50829750879550505050505092915050565b600060208201905081810360008301526131b9818461312a565b905092915050565b600081519050919050565b600082825260208201905092915050565b6000819050602082019050919050565b600061010083016000830151848203600086015261320b8282612a71565b91505060208301516132206020860182612ac5565b5060408301516132336040860182612aaa565b5060608301516132466060860182612aaa565b50608083015161325960808601826130aa565b5060a083015161326c60a08601826130aa565b5060c083015161327f60c08601826130aa565b5060e083015184820360e08601526132978282612a71565b9150508091505092915050565b60006132b083836131ed565b905092915050565b6000602082019050919050565b60006132d0826131c1565b6132da81856131cc565b9350836020820285016132ec856131dd565b8060005b85811015613328578484038952815161330985826132a4565b9450613314836132b8565b925060208a019950506001810190506132f0565b50829750879550505050505092915050565b6000602082019050818103600083015261335481846132c5565b905092915050565b6000806040838503121561337357613372612985565b5b600083013567ffffffffffffffff8111156133915761339061298a565b5b61339d85828601612f18565b92505060206133ae85828601612c6b565b9150509250929050565b600080604083850312156133cf576133ce612985565b5b60006133dd858286016129d8565b92505060206133ee85828601612c6b565b9150509250929050565b600060608201905061340d6000830186612fb5565b61341a6020830185612fb5565b818103604083015261342c8184612b8b565b9050949350505050565b6000819050919050565b600061345b6134566134518461298f565b613436565b61298f565b9050919050565b600061346d82613440565b9050919050565b600061347f82613462565b9050919050565b61348f81613474565b82525050565b60006020820190506134aa6000830184613486565b92915050565b60006020820190506134c56000830184612bd3565b92915050565b60006134d682613462565b9050919050565b6134e6816134cb565b82525050565b600060208201905061350160008301846134dd565b92915050565b6000806000806080858703121561352157613520612985565b5b600085013567ffffffffffffffff81111561353f5761353e61298a565b5b61354b87828801612f18565b945050602085013567ffffffffffffffff81111561356c5761356b61298a565b5b61357887828801612f18565b9350506040613589878288016129d8565b925050606085013567ffffffffffffffff8111156135aa576135a961298a565b5b6135b687828801612f18565b91505092959194509250565b60006020820190506135d76000830184612bc4565b92915050565b600060408201905081810360008301526135f78185612b8b565b90506136066020830184612bc4565b9392505050565b600060208201905081810360008301526136278184612b8b565b905092915050565b7f4e6f7420617574686f72697a6564000000000000000000000000000000000000600082015250565b6000613665600e83612b7a565b91506136708261362f565b602082019050919050565b6000602082019050818103600083015261369481613658565b9050919050565b7f4e487b7100000000000000000000000000000000000000000000000000000000600052602260045260246000fd5b600060028204905060018216806136e257607f821691505b6020821081036136f5576136f461369b565b5b50919050565b7f4e6f7420612077686974656c697374656420616374697665206d657465720000600082015250565b6000613731601e83612b7a565b915061373c826136fb565b602082019050919050565b6000602082019050818103600083015261376081613724565b9050919050565b60008190508160005260206000209050919050565b60006020601f8301049050919050565b600082821b905092915050565b6000600883026137c97fffffffffffffffffffffffffffffffffffffffffffffffffffffffffffffffff8261378c565b6137d3868361378c565b95508019841693508086168417925050509392505050565b60006138066138016137fc84612c4a565b613436565b612c4a565b9050919050565b6000819050919050565b613820836137eb565b61383461382c8261380d565b848454613799565b825550505050565b600090565b61384961383c565b613854818484613817565b505050565b5b818110156138785761386d600082613841565b60018101905061385a565b5050565b601f8211156138bd5761388e81613767565b6138978461377c565b810160208510156138a6578190505b6138ba6138b28561377c565b830182613859565b50505b505050565b600082821c905092915050565b60006138e0600019846008026138c2565b1980831691505092915050565b60006138f983836138cf565b9150826002028217905092915050565b61391282612a1a565b67ffffffffffffffff81111561392b5761392a612e1b565b5b61393582546136ca565b61394082828561387c565b600060209050601f8311600181146139735760008415613961578287015190505b61396b85826138ed565b8655506139d3565b601f19841661398186613767565b60005b828110156139a957848901518255600182019150602085019450602081019050613984565b868310156139c657848901516139c2601f8916826138cf565b8355505b6001600288020188555050505b505050505050565b60006040820190506139f06000830185612fb5565b6139fd6020830184612fb5565b9392505050565b7f4f6e6c79206d6173746572000000000000000000000000000000000000000000600082015250565b6000613a3a600b83612b7a565b9150613a4582613a04565b602082019050919050565b60006020820190508181036000830152613a6981613a2d565b9050919050565b6000604082019050613a856000830185612bc4565b613a926020830184612fb5565b9392505050565b600081519050613aa881612c54565b92915050565b600060208284031215613ac457613ac3612985565b5b6000613ad284828501613a99565b91505092915050565b7f4e487b7100000000000000000000000000000000000000000000000000000000600052603260045260246000fd5b7f4e487b7100000000000000000000000000000000000000000000000000000000600052601160045260246000fd5b6000613b4482612c4a565b9150613b4f83612c4a565b9250828203905081811115613b6757613b66613b0a565b5b92915050565b7f4e487b7100000000000000000000000000000000000000000000000000000000600052603160045260246000fd5b7f496e76616c69642074656e616e74206164647265737300000000000000000000600082015250565b6000613bd2601683612b7a565b9150613bdd82613b9c565b602082019050919050565b60006020820190508181036000830152613c0181613bc5565b9050919050565b600060a082019050613c1d6000830188612bc4565b613c2a6020830187612bc4565b613c376040830186612fb5565b8181036060830152613c498185612b8b565b90508181036080830152613c5d8184612b8b565b90509695505050505050565b600067ffffffffffffffff821115613c8457613c83612e1b565b5b602082029050602081019050919050565b600080fd5b600080fd5b6000613cb2613cad84612e96565b612e7b565b905082815260208101848484011115613cce57613ccd612e16565b5b613cd9848285612a36565b509392505050565b600082601f830112613cf657613cf5612c80565b5b8151613d06848260208601613c9f565b91505092915050565b613d1881612ab9565b8114613d2357600080fd5b50565b600081519050613d3581613d0f565b92915050565b600081519050613d4a816129c1565b92915050565b60006101008284031215613d6757613d66613c95565b5b613d72610100612e7b565b9050600082015167ffffffffffffffff811115613d9257613d91613c9a565b5b613d9e84828501613ce1565b6000830152506020613db284828501613d26565b6020830152506040613dc684828501613d3b565b6040830152506060613dda84828501613d3b565b6060830152506080613dee84828501613a99565b60808301525060a0613e0284828501613a99565b60a08301525060c0613e1684828501613a99565b60c08301525060e082015167ffffffffffffffff811115613e3a57613e39613c9a565b5b613e4684828501613ce1565b60e08301525092915050565b6000613e65613e6084613c69565b612e7b565b90508083825260208201905060208402830185811115613e8857613e87612c8a565b5b835b81811015613ecf57805167ffffffffffffffff811115613ead57613eac612c80565b5b808601613eba8982613d50565b85526020850194505050602081019050613e8a565b5050509392505050565b600082601f830112613eee57613eed612c80565b5b8151613efe848260208601613e52565b91505092915050565b600060208284031215613f1d57613f1c612985565b5b600082015167ffffffffffffffff811115613f3b57613f3a61298a565b5b613f4784828501613ed9565b91505092915050565b7f4e6f742077686974656c69737465642074656e616e7400000000000000000000600082015250565b6000613f86601683612b7a565b9150613f9182613f50565b602082019050919050565b60006020820190508181036000830152613fb581613f79565b9050919050565b60006060820190508181036000830152613fd68186612b8b565b9050613fe56020830185612fb5565b613ff26040830184612bc4565b949350505050565b7f4e6f2066756e647320746f207769746864726177000000000000000000000000600082015250565b6000614030601483612b7a565b915061403b82613ffa565b602082019050919050565b6000602082019050818103600083015261405f81614023565b9050919050565b60006020828403121561407c5761407b612985565b5b600061408a84828501613d26565b91505092915050565b7f5472616e73666572206661696c65640000000000000000000000000000000000600082015250565b60006140c9600f83612b7a565b91506140d482614093565b602082019050919050565b600060208201905081810360008301526140f8816140bc565b9050919050565b7f4d6574657220616c726561647920657869737473000000000000000000000000600082015250565b6000614135601483612b7a565b9150614140826140ff565b602082019050919050565b6000602082019050818103600083015261416481614128565b9050919050565b600060608201905081810360008301526141858186612b8b565b905081810360208301526141998185612b8b565b905081810360408301526141ad8184612b8b565b9050949350505050565b7f4e487b7100000000000000000000000000000000000000000000000000000000600052605160045260246000fdfea264697066735822122018e5764ce6f1dd3755befd698bc43cefeaca207f735d913d010a9615ad4c8d6d64736f6c634300081c003360806040526040518060400160405280600d81526020017f48656174696e6720546f6b656e0000000000000000000000000000000000000081525060009081610048919061044e565b506040518060400160405280600481526020017f48454154000000000000000000000000000000000000000000000000000000008152506001908161008d919061044e565b506012600260006101000a81548160ff021916908360ff1602179055503480156100b657600080fd5b506040516119f43803806119f483398181016040528101906100d891906105af565b80600460006101000a81548173ffffffffffffffffffffffffffffffffffffffff021916908373ffffffffffffffffffffffffffffffffffffffff160217905550600260009054906101000a900460ff1660ff16600a6101389190610751565b82610143919061079c565b600381905550600354600560008373ffffffffffffffffffffffffffffffffffffffff1673ffffffffffffffffffffffffffffffffffffffff168152602001908152602001600020819055508073ffffffffffffffffffffffffffffffffffffffff16600073ffffffffffffffffffffffffffffffffffffffff167fddf252ad1be2c89b69c2b068fc378daa952ba7f163c4a11628f55a4df523b3ef6003546040516101ef91906107ed565b60405180910390a35050610808565b600081519050919050565b7f4e487b7100000000000000000000000000000000000000000000000000000000600052604160045260246000fd5b7f4e487b7100000000000000000000000000000000000000000000000000000000600052602260045260246000fd5b6000600282049050600182168061027f57607f821691505b60208210810361029257610291610238565b5b50919050565b60008190508160005260206000209050919050565b60006020601f8301049050919050565b600082821b905092915050565b6000600883026102fa7fffffffffffffffffffffffffffffffffffffffffffffffffffffffffffffffff826102bd565b61030486836102bd565b95508019841693508086168417925050509392505050565b6000819050919050565b6000819050919050565b600061034b6103466103418461031c565b610326565b61031c565b9050919050565b6000819050919050565b61036583610330565b61037961037182610352565b8484546102ca565b825550505050565b600090565b61038e610381565b61039981848461035c565b505050565b5b818110156103bd576103b2600082610386565b60018101905061039f565b5050565b601f821115610402576103d381610298565b6103dc846102ad565b810160208510156103eb578190505b6103ff6103f7856102ad565b83018261039e565b50505b505050565b600082821c905092915050565b600061042560001984600802610407565b1980831691505092915050565b600061043e8383610414565b9150826002028217905092915050565b610457826101fe565b67ffffffffffffffff8111156104705761046f610209565b5b61047a8254610267565b6104858282856103c1565b600060209050601f8311600181146104b857600084156104a6578287015190505b6104b08582610432565b865550610518565b601f1984166104c686610298565b60005b828110156104ee578489015182556001820191506020850194506020810190506104c9565b8683101561050b5784890151610507601f891682610414565b8355505b6001600288020188555050505b505050505050565b600080fd5b61052e8161031c565b811461053957600080fd5b50565b60008151905061054b81610525565b92915050565b600073ffffffffffffffffffffffffffffffffffffffff82169050919050565b600061057c82610551565b9050919050565b61058c81610571565b811461059757600080fd5b50565b6000815190506105a981610583565b92915050565b600080604083850312156105c6576105c5610520565b5b60006105d48582860161053c565b92505060206105e58582860161059a565b9150509250929050565b7f4e487b7100000000000000000000000000000000000000000000000000000000600052601160045260246000fd5b60008160011c9050919050565b6000808291508390505b600185111561067557808604811115610651576106506105ef565b5b60018516156106605780820291505b808102905061066e8561061e565b9450610635565b94509492505050565b60008261068e576001905061074a565b8161069c576000905061074a565b81600181146106b257600281146106bc576106eb565b600191505061074a565b60ff8411156106ce576106cd6105ef565b5b8360020a9150848211156106e5576106e46105ef565b5b5061074a565b5060208310610133831016604e8410600b84101617156107205782820a90508381111561071b5761071a6105ef565b5b61074a565b61072d848484600161062b565b92509050818404811115610744576107436105ef565b5b81810290505b9392505050565b600061075c8261031c565b91506107678361031c565b92506107947fffffffffffffffffffffffffffffffffffffffffffffffffffffffffffffffff848461067e565b905092915050565b60006107a78261031c565b91506107b28361031c565b92508282026107c08161031c565b915082820484148315176107d7576107d66105ef565b5b5092915050565b6107e78161031c565b82525050565b600060208201905061080260008301846107de565b92915050565b6111dd806108176000396000f3fe608060405234801561001057600080fd5b50600436106100b45760003560e01c80635423c22e116100715780635423c22e146101a357806370a08231146101bf5780638da5cb5b146101ef57806395d89b411461020d578063a9059cbb1461022b578063dd62ed3e1461025b576100b4565b806306fdde03146100b9578063095ea7b3146100d757806318160ddd1461010757806323b872dd146101255780632b99174614610155578063313ce56714610185575b600080fd5b6100c161028b565b6040516100ce9190610cf0565b60405180910390f35b6100f160048036038101906100ec9190610dab565b610319565b6040516100fe9190610e06565b60405180910390f35b61010f61040b565b60405161011c9190610e30565b60405180910390f35b61013f600480360381019061013a9190610e4b565b610411565b60405161014c9190610e06565b60405180910390f35b61016f600480360381019061016a9190610e4b565b610703565b60405161017c9190610e06565b60405180910390f35b61018d6107f6565b60405161019a9190610eba565b60405180910390f35b6101bd60048036038101906101b89190610dab565b610809565b005b6101d960048036038101906101d49190610ed5565b610a06565b6040516101e69190610e30565b60405180910390f35b6101f7610a1e565b6040516102049190610f11565b60405180910390f35b610215610a44565b6040516102229190610cf0565b60405180910390f35b61024560048036038101906102409190610dab565b610ad2565b6040516102529190610e06565b60405180910390f35b61027560048036038101906102709190610f2c565b610c3b565b6040516102829190610e30565b60405180910390f35b6000805461029890610f9b565b80601f01602080910402602001604051908101604052809291908181526020018280546102c490610f9b565b80156103115780601f106102e657610100808354040283529160200191610311565b820191906000526020600020905b8154815290600101906020018083116102f457829003601f168201915b505050505081565b600081600660003373ffffffffffffffffffffffffffffffffffffffff1673ffffffffffffffffffffffffffffffffffffffff16815260200190815260200160002060008573ffffffffffffffffffffffffffffffffffffffff1673ffffffffffffffffffffffffffffffffffffffff168152602001908152602001600020819055508273ffffffffffffffffffffffffffffffffffffffff163373ffffffffffffffffffffffffffffffffffffffff167f8c5be1e5ebec7d5bd14f71427d1e84f3dd0314c0f7b2291e5b200ac8c7c3b925846040516103f99190610e30565b60405180910390a36001905092915050565b60035481565b6000600560008573ffffffffffffffffffffffffffffffffffffffff1673ffffffffffffffffffffffffffffffffffffffff16815260200190815260200160002054821115610495576040517f08c379a000000000000000000000000000000000000000000000000000000000815260040161048c90611018565b60405180910390fd5b600660008573ffffffffffffffffffffffffffffffffffffffff1673ffffffffffffffffffffffffffffffffffffffff16815260200190815260200160002060008473ffffffffffffffffffffffffffffffffffffffff1673ffffffffffffffffffffffffffffffffffffffff16815260200190815260200160002054821115610554576040517f08c379a000000000000000000000000000000000000000000000000000000000815260040161054b90611084565b60405180910390fd5b81600560008673ffffffffffffffffffffffffffffffffffffffff1673ffffffffffffffffffffffffffffffffffffffff16815260200190815260200160002060008282546105a391906110d3565b9250508190555081600560008573ffffffffffffffffffffffffffffffffffffffff1673ffffffffffffffffffffffffffffffffffffffff16815260200190815260200160002060008282546105f99190611107565b9250508190555081600660008673ffffffffffffffffffffffffffffffffffffffff1673ffffffffffffffffffffffffffffffffffffffff16815260200190815260200160002060008573ffffffffffffffffffffffffffffffffffffffff1673ffffffffffffffffffffffffffffffffffffffff168152602001908152602001600020600082825461068c91906110d3565b925050819055508273ffffffffffffffffffffffffffffffffffffffff168473ffffffffffffffffffffffffffffffffffffffff167fddf252ad1be2c89b69c2b068fc378daa952ba7f163c4a11628f55a4df523b3ef846040516106f09190610e30565b60405180910390a3600190509392505050565b600081600660008673ffffffffffffffffffffffffffffffffffffffff1673ffffffffffffffffffffffffffffffffffffffff16815260200190815260200160002060008573ffffffffffffffffffffffffffffffffffffffff1673ffffffffffffffffffffffffffffffffffffffff168152602001908152602001600020819055508273ffffffffffffffffffffffffffffffffffffffff168473ffffffffffffffffffffffffffffffffffffffff167f8c5be1e5ebec7d5bd14f71427d1e84f3dd0314c0f7b2291e5b200ac8c7c3b925846040516107e39190610e30565b60405180910390a3600190509392505050565b600260009054906101000a900460ff1681565b8060056000600460009054906101000a900473ffffffffffffffffffffffffffffffffffffffff1673ffffffffffffffffffffffffffffffffffffffff1673ffffffffffffffffffffffffffffffffffffffff1681526020019081526020016000205410156108ad576040517f08c379a00000000000000000000000000000000000000000000000000000000081526004016108a490611187565b60405180910390fd5b8060056000600460009054906101000a900473ffffffffffffffffffffffffffffffffffffffff1673ffffffffffffffffffffffffffffffffffffffff1673ffffffffffffffffffffffffffffffffffffffff168152602001908152602001600020600082825461091e91906110d3565b9250508190555080600560008473ffffffffffffffffffffffffffffffffffffffff1673ffffffffffffffffffffffffffffffffffffffff16815260200190815260200160002060008282546109749190611107565b925050819055508173ffffffffffffffffffffffffffffffffffffffff16600460009054906101000a900473ffffffffffffffffffffffffffffffffffffffff1673ffffffffffffffffffffffffffffffffffffffff167fddf252ad1be2c89b69c2b068fc378daa952ba7f163c4a11628f55a4df523b3ef836040516109fa9190610e30565b60405180910390a35050565b60056020528060005260406000206000915090505481565b600460009054906101000a900473ffffffffffffffffffffffffffffffffffffffff1681565b60018054610a5190610f9b565b80601f0160208091040260200160405190810160405280929190818152602001828054610a7d90610f9b565b8015610aca5780601f10610a9f57610100808354040283529160200191610aca565b820191906000526020600020905b815481529060010190602001808311610aad57829003601f168201915b505050505081565b600081600560003373ffffffffffffffffffffffffffffffffffffffff1673ffffffffffffffffffffffffffffffffffffffff168152602001908152602001600020541015610b2057600080fd5b81600560003373ffffffffffffffffffffffffffffffffffffffff1673ffffffffffffffffffffffffffffffffffffffff1681526020019081526020016000206000828254610b6f91906110d3565b9250508190555081600560008573ffffffffffffffffffffffffffffffffffffffff1673ffffffffffffffffffffffffffffffffffffffff1681526020019081526020016000206000828254610bc59190611107565b925050819055508273ffffffffffffffffffffffffffffffffffffffff163373ffffffffffffffffffffffffffffffffffffffff167fddf252ad1be2c89b69c2b068fc378daa952ba7f163c4a11628f55a4df523b3ef84604051610c299190610e30565b60405180910390a36001905092915050565b6006602052816000526040600020602052806000526040600020600091509150505481565b600081519050919050565b600082825260208201905092915050565b60005b83811015610c9a578082015181840152602081019050610c7f565b60008484015250505050565b6000601f19601f8301169050919050565b6000610cc282610c60565b610ccc8185610c6b565b9350610cdc818560208601610c7c565b610ce581610ca6565b840191505092915050565b60006020820190508181036000830152610d0a8184610cb7565b905092915050565b600080fd5b600073ffffffffffffffffffffffffffffffffffffffff82169050919050565b6000610d4282610d17565b9050919050565b610d5281610d37565b8114610d5d57600080fd5b50565b600081359050610d6f81610d49565b92915050565b6000819050919050565b610d8881610d75565b8114610d9357600080fd5b50565b600081359050610da581610d7f565b92915050565b60008060408385031215610dc257610dc1610d12565b5b6000610dd085828601610d60565b9250506020610de185828601610d96565b9150509250929050565b60008115159050919050565b610e0081610deb565b82525050565b6000602082019050610e1b6000830184610df7565b92915050565b610e2a81610d75565b82525050565b6000602082019050610e456000830184610e21565b92915050565b600080600060608486031215610e6457610e63610d12565b5b6000610e7286828701610d60565b9350506020610e8386828701610d60565b9250506040610e9486828701610d96565b9150509250925092565b600060ff82169050919050565b610eb481610e9e565b82525050565b6000602082019050610ecf6000830184610eab565b92915050565b600060208284031215610eeb57610eea610d12565b5b6000610ef984828501610d60565b91505092915050565b610f0b81610d37565b82525050565b6000602082019050610f266000830184610f02565b92915050565b60008060408385031215610f4357610f42610d12565b5b6000610f5185828601610d60565b9250506020610f6285828601610d60565b9150509250929050565b7f4e487b7100000000000000000000000000000000000000000000000000000000600052602260045260246000fd5b60006002820490506001821680610fb357607f821691505b602082108103610fc657610fc5610f6c565b5b50919050565b7f42616c616e636520746f6f206c6f770000000000000000000000000000000000600082015250565b6000611002600f83610c6b565b915061100d82610fcc565b602082019050919050565b6000602082019050818103600083015261103181610ff5565b9050919050565b7f416c6c6f77616e636520746f6f206c6f77000000000000000000000000000000600082015250565b600061106e601183610c6b565b915061107982611038565b602082019050919050565b6000602082019050818103600083015261109d81611061565b9050919050565b7f4e487b7100000000000000000000000000000000000000000000000000000000600052601160045260246000fd5b60006110de82610d75565b91506110e983610d75565b9250828203905081811115611101576111006110a4565b5b92915050565b600061111282610d75565b915061111d83610d75565b9250828201905080821115611135576111346110a4565b5b92915050565b7f4f776e65722062616c616e636520696e73756666696369656e74000000000000600082015250565b6000611171601a83610c6b565b915061117c8261113b565b602082019050919050565b600060208201905081810360008301526111a081611164565b905091905056fea2646970667358221220e3bc3542218b15d571f77b840ccb61d0189a2c2d5f947786dac3ac0771deb56e64736f6c634300081c0033608060405234801561001057600080fd5b5060405161260c38038061260c8339818101604052810190610032919061015b565b816000806101000a81548173ffffffffffffffffffffffffffffffffffffffff021916908373ffffffffffffffffffffffffffffffffffffffff16021790555080600160006101000a81548173ffffffffffffffffffffffffffffffffffffffff021916908373ffffffffffffffffffffffffffffffffffffffff160217905550505061019b565b600080fd5b600073ffffffffffffffffffffffffffffffffffffffff82169050919050565b60006100ea826100bf565b9050919050565b6100fa816100df565b811461010557600080fd5b50565b600081519050610117816100f1565b92915050565b6000610128826100df565b9050919050565b6101388161011d565b811461014357600080fd5b50565b6000815190506101558161012f565b92915050565b60008060408385031215610172576101716100ba565b5b600061018085828601610108565b925050602061019185828601610146565b9150509250929050565b612462806101aa6000396000f3fe608060405234801561001057600080fd5b506004361061009e5760003560e01c8063755873c511610066578063755873c51461018657806382c3807b146101b6578063a343fc12146101ed578063ae428d7814610209578063e7201d7d146102275761009e565b80632f79c7b0146100a357806345a132aa146100bf5780634a012c63146100ef57806351c87677146101265780636a6da61e14610156575b600080fd5b6100bd60048036038101906100b8919061168b565b610245565b005b6100d960048036038101906100d491906116fa565b6106b8565b6040516100e69190611958565b60405180910390f35b6101096004803603810190610104919061197a565b610ab5565b60405161011d989796959493929190611a31565b60405180910390f35b610140600480360381019061013b919061197a565b610c77565b60405161014d9190611abd565b60405180910390f35b610170600480360381019061016b91906116fa565b610d30565b60405161017d9190611adf565b60405180910390f35b6101a0600480360381019061019b91906116fa565b610d48565b6040516101ad9190611adf565b60405180910390f35b6101d060048036038101906101cb9190611afa565b610d91565b6040516101e4989796959493929190611a31565b60405180910390f35b61020760048036038101906102029190611b43565b610f4c565b005b6102116113e0565b60405161021e9190611c55565b60405180910390f35b61022f611406565b60405161023c9190611c70565b60405180910390f35b600160009054906101000a900473ffffffffffffffffffffffffffffffffffffffff1673ffffffffffffffffffffffffffffffffffffffff16632b9917468260008054906101000a900473ffffffffffffffffffffffffffffffffffffffff16856040518463ffffffff1660e01b81526004016102c493929190611c8b565b6020604051808303816000875af11580156102e3573d6000803e3d6000fd5b505050506040513d601f19601f820116820180604052508101906103079190611cee565b610346576040517f08c379a000000000000000000000000000000000000000000000000000000000815260040161033d90611d67565b60405180910390fd5b60006004846040516103589190611dc3565b90815260200160405180910390209050600081600001805461037990611e09565b9050036103bb576040517f08c379a00000000000000000000000000000000000000000000000000000000081526004016103b290611e86565b60405180910390fd5b8060010160009054906101000a900460ff161561040d576040517f08c379a000000000000000000000000000000000000000000000000000000000815260040161040490611ef2565b60405180910390fd5b80600301548314610453576040517f08c379a000000000000000000000000000000000000000000000000000000000815260040161044a90611f5e565b60405180910390fd5b8060020160009054906101000a900473ffffffffffffffffffffffffffffffffffffffff1673ffffffffffffffffffffffffffffffffffffffff168273ffffffffffffffffffffffffffffffffffffffff16146104e5576040517f08c379a00000000000000000000000000000000000000000000000000000000081526004016104dc90611fca565b60405180910390fd5b600160009054906101000a900473ffffffffffffffffffffffffffffffffffffffff1673ffffffffffffffffffffffffffffffffffffffff166323b872dd8360008054906101000a900473ffffffffffffffffffffffffffffffffffffffff16866040518463ffffffff1660e01b815260040161056493929190611c8b565b6020604051808303816000875af1158015610583573d6000803e3d6000fd5b505050506040513d601f19601f820116820180604052508101906105a79190611cee565b6105e6576040517f08c379a00000000000000000000000000000000000000000000000000000000081526004016105dd90612036565b60405180910390fd5b60018160010160006101000a81548160ff02191690831515021790555042816005018190555082600360008473ffffffffffffffffffffffffffffffffffffffff1673ffffffffffffffffffffffffffffffffffffffff168152602001908152602001600020600082825461065b9190612085565b925050819055508173ffffffffffffffffffffffffffffffffffffffff167f5ce0614a46459714585c219d6fb0dd3a4b01b81fc18567ebe68bf418067c91d484866040516106aa9291906120b9565b60405180910390a250505050565b60606000600560008473ffffffffffffffffffffffffffffffffffffffff1673ffffffffffffffffffffffffffffffffffffffff168152602001908152602001600020805480602002602001604051908101604052809291908181526020016000905b828210156107c757838290600052602060002001805461073a90611e09565b80601f016020809104026020016040519081016040528092919081815260200182805461076690611e09565b80156107b35780601f10610788576101008083540402835291602001916107b3565b820191906000526020600020905b81548152906001019060200180831161079657829003601f168201915b50505050508152602001906001019061071b565b5050505090506000815167ffffffffffffffff8111156107ea576107e96114cc565b5b60405190808252806020026020018201604052801561082357816020015b61081061142a565b8152602001906001900390816108085790505b50905060005b8251811015610aaa576004838281518110610847576108466120e9565b5b602002602001015160405161085c9190611dc3565b90815260200160405180910390206040518061010001604052908160008201805461088690611e09565b80601f01602080910402602001604051908101604052809291908181526020018280546108b290611e09565b80156108ff5780601f106108d4576101008083540402835291602001916108ff565b820191906000526020600020905b8154815290600101906020018083116108e257829003601f168201915b505050505081526020016001820160009054906101000a900460ff161515151581526020016001820160019054906101000a900473ffffffffffffffffffffffffffffffffffffffff1673ffffffffffffffffffffffffffffffffffffffff1673ffffffffffffffffffffffffffffffffffffffff1681526020016002820160009054906101000a900473ffffffffffffffffffffffffffffffffffffffff1673ffffffffffffffffffffffffffffffffffffffff1673ffffffffffffffffffffffffffffffffffffffff1681526020016003820154815260200160048201548152602001600582015481526020016006820180546109fd90611e09565b80601f0160208091040260200160405190810160405280929190818152602001828054610a2990611e09565b8015610a765780601f10610a4b57610100808354040283529160200191610a76565b820191906000526020600020905b815481529060010190602001808311610a5957829003601f168201915b505050505081525050828281518110610a9257610a916120e9565b5b60200260200101819052508080600101915050610829565b508092505050919050565b60026020528160005260406000208181548110610ad157600080fd5b906000526020600020906007020160009150915050806000018054610af590611e09565b80601f0160208091040260200160405190810160405280929190818152602001828054610b2190611e09565b8015610b6e5780601f10610b4357610100808354040283529160200191610b6e565b820191906000526020600020905b815481529060010190602001808311610b5157829003601f168201915b5050505050908060010160009054906101000a900460ff16908060010160019054906101000a900473ffffffffffffffffffffffffffffffffffffffff16908060020160009054906101000a900473ffffffffffffffffffffffffffffffffffffffff1690806003015490806004015490806005015490806006018054610bf490611e09565b80601f0160208091040260200160405190810160405280929190818152602001828054610c2090611e09565b8015610c6d5780601f10610c4257610100808354040283529160200191610c6d565b820191906000526020600020905b815481529060010190602001808311610c5057829003601f168201915b5050505050905088565b60056020528160005260406000208181548110610c9357600080fd5b90600052602060002001600091509150508054610caf90611e09565b80601f0160208091040260200160405190810160405280929190818152602001828054610cdb90611e09565b8015610d285780601f10610cfd57610100808354040283529160200191610d28565b820191906000526020600020905b815481529060010190602001808311610d0b57829003601f168201915b505050505081565b60036020528060005260406000206000915090505481565b6000600360008373ffffffffffffffffffffffffffffffffffffffff1673ffffffffffffffffffffffffffffffffffffffff168152602001908152602001600020549050919050565b600481805160208101820180518482526020830160208501208183528095505050505050600091509050806000018054610dca90611e09565b80601f0160208091040260200160405190810160405280929190818152602001828054610df690611e09565b8015610e435780601f10610e1857610100808354040283529160200191610e43565b820191906000526020600020905b815481529060010190602001808311610e2657829003601f168201915b5050505050908060010160009054906101000a900460ff16908060010160019054906101000a900473ffffffffffffffffffffffffffffffffffffffff16908060020160009054906101000a900473ffffffffffffffffffffffffffffffffffffffff1690806003015490806004015490806005015490806006018054610ec990611e09565b80601f0160208091040260200160405190810160405280929190818152602001828054610ef590611e09565b8015610f425780601f10610f1757610100808354040283529160200191610f42565b820191906000526020600020905b815481529060010190602001808311610f2557829003601f168201915b5050505050905088565b806000600482604051610f5f9190611dc3565b90815260200160405180910390206000018054610f7b90611e09565b905014610fbd576040517f08c379a0000000000000000000000000000000000000000000000000000000008152600401610fb490612164565b60405180910390fd5b60006040518061010001604052808481526020016000151581526020018773ffffffffffffffffffffffffffffffffffffffff1681526020018873ffffffffffffffffffffffffffffffffffffffff16815260200186815260200142815260200160008152602001858152509050600260008873ffffffffffffffffffffffffffffffffffffffff1673ffffffffffffffffffffffffffffffffffffffff16815260200190815260200160002081908060018154018082558091505060019003906000526020600020906007020160009091909190915060008201518160000190816110a99190612326565b5060208201518160010160006101000a81548160ff02191690831515021790555060408201518160010160016101000a81548173ffffffffffffffffffffffffffffffffffffffff021916908373ffffffffffffffffffffffffffffffffffffffff16021790555060608201518160020160006101000a81548173ffffffffffffffffffffffffffffffffffffffff021916908373ffffffffffffffffffffffffffffffffffffffff1602179055506080820151816003015560a0820151816004015560c0820151816005015560e082015181600601908161118b9190612326565b5050508060048460405161119f9190611dc3565b908152602001604051809103902060008201518160000190816111c29190612326565b5060208201518160010160006101000a81548160ff02191690831515021790555060408201518160010160016101000a81548173ffffffffffffffffffffffffffffffffffffffff021916908373ffffffffffffffffffffffffffffffffffffffff16021790555060608201518160020160006101000a81548173ffffffffffffffffffffffffffffffffffffffff021916908373ffffffffffffffffffffffffffffffffffffffff1602179055506080820151816003015560a0820151816004015560c0820151816005015560e08201518160060190816112a49190612326565b50905050600560008873ffffffffffffffffffffffffffffffffffffffff1673ffffffffffffffffffffffffffffffffffffffff168152602001908152602001600020839080600181540180825580915050600190039060005260206000200160009091909190915090816113199190612326565b5084600360008973ffffffffffffffffffffffffffffffffffffffff1673ffffffffffffffffffffffffffffffffffffffff168152602001908152602001600020600082825461136991906123f8565b925050819055508673ffffffffffffffffffffffffffffffffffffffff163373ffffffffffffffffffffffffffffffffffffffff167fb810f68ef93d0b5c98b363f0d47a6e1f3e9af7ea538b02fc226ad84eb32f77a087866040516113cf9291906120b9565b60405180910390a350505050505050565b600160009054906101000a900473ffffffffffffffffffffffffffffffffffffffff1681565b60008054906101000a900473ffffffffffffffffffffffffffffffffffffffff1681565b60405180610100016040528060608152602001600015158152602001600073ffffffffffffffffffffffffffffffffffffffff168152602001600073ffffffffffffffffffffffffffffffffffffffff168152602001600081526020016000815260200160008152602001606081525090565b6000604051905090565b600080fd5b600080fd5b600080fd5b600080fd5b6000601f19601f8301169050919050565b7f4e487b7100000000000000000000000000000000000000000000000000000000600052604160045260246000fd5b611504826114bb565b810181811067ffffffffffffffff82111715611523576115226114cc565b5b80604052505050565b600061153661149d565b905061154282826114fb565b919050565b600067ffffffffffffffff821115611562576115616114cc565b5b61156b826114bb565b9050602081019050919050565b82818337600083830152505050565b600061159a61159584611547565b61152c565b9050828152602081018484840111156115b6576115b56114b6565b5b6115c1848285611578565b509392505050565b600082601f8301126115de576115dd6114b1565b5b81356115ee848260208601611587565b91505092915050565b6000819050919050565b61160a816115f7565b811461161557600080fd5b50565b60008135905061162781611601565b92915050565b600073ffffffffffffffffffffffffffffffffffffffff82169050919050565b60006116588261162d565b9050919050565b6116688161164d565b811461167357600080fd5b50565b6000813590506116858161165f565b92915050565b6000806000606084860312156116a4576116a36114a7565b5b600084013567ffffffffffffffff8111156116c2576116c16114ac565b5b6116ce868287016115c9565b93505060206116df86828701611618565b92505060406116f086828701611676565b9150509250925092565b6000602082840312156117105761170f6114a7565b5b600061171e84828501611676565b91505092915050565b600081519050919050565b600082825260208201905092915050565b6000819050602082019050919050565b600081519050919050565b600082825260208201905092915050565b60005b8381101561178d578082015181840152602081019050611772565b60008484015250505050565b60006117a482611753565b6117ae818561175e565b93506117be81856020860161176f565b6117c7816114bb565b840191505092915050565b60008115159050919050565b6117e7816117d2565b82525050565b6117f68161164d565b82525050565b611805816115f7565b82525050565b60006101008301600083015184820360008601526118298282611799565b915050602083015161183e60208601826117de565b50604083015161185160408601826117ed565b50606083015161186460608601826117ed565b50608083015161187760808601826117fc565b5060a083015161188a60a08601826117fc565b5060c083015161189d60c08601826117fc565b5060e083015184820360e08601526118b58282611799565b9150508091505092915050565b60006118ce838361180b565b905092915050565b6000602082019050919050565b60006118ee82611727565b6118f88185611732565b93508360208202850161190a85611743565b8060005b85811015611946578484038952815161192785826118c2565b9450611932836118d6565b925060208a0199505060018101905061190e565b50829750879550505050505092915050565b6000602082019050818103600083015261197281846118e3565b905092915050565b60008060408385031215611991576119906114a7565b5b600061199f85828601611676565b92505060206119b085828601611618565b9150509250929050565b600082825260208201905092915050565b60006119d682611753565b6119e081856119ba565b93506119f081856020860161176f565b6119f9816114bb565b840191505092915050565b611a0d816117d2565b82525050565b611a1c8161164d565b82525050565b611a2b816115f7565b82525050565b6000610100820190508181036000830152611a4c818b6119cb565b9050611a5b602083018a611a04565b611a686040830189611a13565b611a756060830188611a13565b611a826080830187611a22565b611a8f60a0830186611a22565b611a9c60c0830185611a22565b81810360e0830152611aae81846119cb565b90509998505050505050505050565b60006020820190508181036000830152611ad781846119cb565b905092915050565b6000602082019050611af46000830184611a22565b92915050565b600060208284031215611b1057611b0f6114a7565b5b600082013567ffffffffffffffff811115611b2e57611b2d6114ac565b5b611b3a848285016115c9565b91505092915050565b600080600080600060a08688031215611b5f57611b5e6114a7565b5b6000611b6d88828901611676565b9550506020611b7e88828901611676565b9450506040611b8f88828901611618565b935050606086013567ffffffffffffffff811115611bb057611baf6114ac565b5b611bbc888289016115c9565b925050608086013567ffffffffffffffff811115611bdd57611bdc6114ac565b5b611be9888289016115c9565b9150509295509295909350565b6000819050919050565b6000611c1b611c16611c118461162d565b611bf6565b61162d565b9050919050565b6000611c2d82611c00565b9050919050565b6000611c3f82611c22565b9050919050565b611c4f81611c34565b82525050565b6000602082019050611c6a6000830184611c46565b92915050565b6000602082019050611c856000830184611a13565b92915050565b6000606082019050611ca06000830186611a13565b611cad6020830185611a13565b611cba6040830184611a22565b949350505050565b611ccb816117d2565b8114611cd657600080fd5b50565b600081519050611ce881611cc2565b92915050565b600060208284031215611d0457611d036114a7565b5b6000611d1284828501611cd9565b91505092915050565b7f436f756c646e277420617070726f766520616c6c6f77616e6365000000000000600082015250565b6000611d51601a836119ba565b9150611d5c82611d1b565b602082019050919050565b60006020820190508181036000830152611d8081611d44565b9050919050565b600081905092915050565b6000611d9d82611753565b611da78185611d87565b9350611db781856020860161176f565b80840191505092915050565b6000611dcf8284611d92565b915081905092915050565b7f4e487b7100000000000000000000000000000000000000000000000000000000600052602260045260246000fd5b60006002820490506001821680611e2157607f821691505b602082108103611e3457611e33611dda565b5b50919050565b7f42696c6c206e6f7420666f756e64000000000000000000000000000000000000600082015250565b6000611e70600e836119ba565b9150611e7b82611e3a565b602082019050919050565b60006020820190508181036000830152611e9f81611e63565b9050919050565b7f42696c6c20616c72656164792070616964000000000000000000000000000000600082015250565b6000611edc6011836119ba565b9150611ee782611ea6565b602082019050919050565b60006020820190508181036000830152611f0b81611ecf565b9050919050565b7f496e636f7272656374207061796d656e7420616d6f756e740000000000000000600082015250565b6000611f486018836119ba565b9150611f5382611f12565b602082019050919050565b60006020820190508181036000830152611f7781611f3b565b9050919050565b7f4e6f74207468652062696c6c20726563697069656e7400000000000000000000600082015250565b6000611fb46016836119ba565b9150611fbf82611f7e565b602082019050919050565b60006020820190508181036000830152611fe381611fa7565b9050919050565b7f546f6b656e207472616e73666572206661696c65640000000000000000000000600082015250565b60006120206015836119ba565b915061202b82611fea565b602082019050919050565b6000602082019050818103600083015261204f81612013565b9050919050565b7f4e487b7100000000000000000000000000000000000000000000000000000000600052601160045260246000fd5b6000612090826115f7565b915061209b836115f7565b92508282039050818111156120b3576120b2612056565b5b92915050565b60006040820190506120ce6000830185611a22565b81810360208301526120e081846119cb565b90509392505050565b7f4e487b7100000000000000000000000000000000000000000000000000000000600052603260045260246000fd5b7f42696c6c20494420616c72656164792065786973747300000000000000000000600082015250565b600061214e6016836119ba565b915061215982612118565b602082019050919050565b6000602082019050818103600083015261217d81612141565b9050919050565b60008190508160005260206000209050919050565b60006020601f8301049050919050565b600082821b905092915050565b6000600883026121e67fffffffffffffffffffffffffffffffffffffffffffffffffffffffffffffffff826121a9565b6121f086836121a9565b95508019841693508086168417925050509392505050565b600061222361221e612219846115f7565b611bf6565b6115f7565b9050919050565b6000819050919050565b61223d83612208565b6122516122498261222a565b8484546121b6565b825550505050565b600090565b612266612259565b612271818484612234565b505050565b5b818110156122955761228a60008261225e565b600181019050612277565b5050565b601f8211156122da576122ab81612184565b6122b484612199565b810160208510156122c3578190505b6122d76122cf85612199565b830182612276565b50505b505050565b600082821c905092915050565b60006122fd600019846008026122df565b1980831691505092915050565b600061231683836122ec565b9150826002028217905092915050565b61232f82611753565b67ffffffffffffffff811115612348576123476114cc565b5b6123528254611e09565b61235d828285612299565b600060209050601f831160018114612390576000841561237e578287015190505b612388858261230a565b8655506123f0565b601f19841661239e86612184565b60005b828110156123c6578489015182556001820191506020850194506020810190506123a1565b868310156123e357848901516123df601f8916826122ec565b8355505b6001600288020188555050505b505050505050565b6000612403826115f7565b915061240e836115f7565b925082820190508082111561242657612425612056565b5b9291505056fea2646970667358221220847f2a82e82dd5328e326502090ee0e66bd0b686bee70e84b05f9989711da8db64736f6c634300081c0033",
  "linkReferences": {},
  "deployedLinkReferences": {}
}