{
  "_format": "hh-sol-artifact-1",
  "contractName": "TencyManager",
  "sourceName": "contracts/TencyManager.sol",
  "abi": [
    {
      "inputs": [
        {
          "internalType": "address",
          "name": "_master",
          "type": "address"
        },
        {
          "components": [
            {
              "internalType": "string",
              "name": "ownerName",
              "type": "string"
            },
            {
              "internalType": "string",
              "name": "streetName",
              "type": "string"
            },
            {
              "internalType": "string",
              "name": "cityCode",
              "type": "string"
            },
            {
              "internalType": "string",
              "name": "cityName",
              "type": "string"
            },
            {
              "internalType": "string",
              "name": "country",
              "type": "string"
            },
            {
              "internalType": "string",
              "name": "email",
              "type": "string"
            },
            {
              "internalType": "string",
              "name": "phone",
              "type": "string"
            }
          ],
          "internalType": "struct AddressInfo",
          "name": "_ownerContactInfo",
          "type": "tuple"
        }
      ],
      "stateMutability": "nonpayable",
      "type": "constructor"
    },
    {
      "anonymous": false,
      "inputs": [
        {
          "indexed": true,
          "internalType": "address",
          "name": "meter",
          "type": "address"
        },
        {
          "indexed": false,
          "internalType": "uint256",
          "name": "timestamp",
          "type": "uint256"
        },
        {
          "indexed": false,
          "internalType": "uint256",
          "name": "value",
          "type": "uint256"
        }
      ],
      "name": "DataRecorded",
      "type": "event"
    },
    {
      "anonymous": false,
      "inputs": [
        {
          "indexed": false,
          "internalType": "string",
          "name": "name",
          "type": "string"
        },
        {
          "indexed": false,
          "internalType": "string",
          "name": "ownerName",
          "type": "string"
        },
        {
          "indexed": true,
          "internalType": "address",
          "name": "smartMeterAddress",
          "type": "address"
        },
        {
          "indexed": false,
          "internalType": "string",
          "name": "smartMeterId",
          "type": "string"
        }
      ],
      "name": "MeterRegistered",
      "type": "event"
    },
    {
      "inputs": [
        {
          "internalType": "address",
          "name": "_tenant",
          "type": "address"
        },
        {
          "internalType": "string",
          "name": "_fullName",
          "type": "string"
        }
      ],
      "name": "addTenant",
      "outputs": [],
      "stateMutability": "nonpayable",
      "type": "function"
    },
    {
      "inputs": [
        {
          "internalType": "address",
          "name": "_tenant",
          "type": "address"
        },
        {
          "internalType": "address",
          "name": "_smartMeterAddress",
          "type": "address"
        }
      ],
      "name": "assignSmartMeter",
      "outputs": [],
      "stateMutability": "nonpayable",
      "type": "function"
    },
    {
      "inputs": [
        {
          "internalType": "address",
          "name": "_tenantAddress",
          "type": "address"
        }
      ],
      "name": "getAssignedSmartMeterAddress",
      "outputs": [
        {
          "internalType": "address",
          "name": "",
          "type": "address"
        }
      ],
      "stateMutability": "view",
      "type": "function"
    },
    {
      "inputs": [
        {
          "internalType": "address",
          "name": "_meterAddress",
          "type": "address"
        }
      ],
      "name": "getDailyUsage",
      "outputs": [
        {
          "components": [
            {
              "internalType": "uint256",
              "name": "timestamp",
              "type": "uint256"
            },
            {
              "internalType": "uint256",
              "name": "usage",
              "type": "uint256"
            },
            {
              "internalType": "string",
              "name": "unit",
              "type": "string"
            },
            {
              "internalType": "string",
              "name": "ipfsCID",
              "type": "string"
            }
          ],
          "internalType": "struct DailyMeasurement[]",
          "name": "",
          "type": "tuple[]"
        }
      ],
      "stateMutability": "view",
      "type": "function"
    },
    {
      "inputs": [
        {
          "internalType": "address",
          "name": "_meterAddress",
          "type": "address"
        }
      ],
      "name": "getMeterInfo",
      "outputs": [
        {
          "components": [
            {
              "internalType": "string",
              "name": "name",
              "type": "string"
            },
            {
              "internalType": "string",
              "name": "ownerName",
              "type": "string"
            },
            {
              "internalType": "address",
              "name": "smartMeterAddress",
              "type": "address"
            },
            {
              "internalType": "string",
              "name": "smartMeterId",
              "type": "string"
            },
            {
              "internalType": "address",
              "name": "assignedTenant",
              "type": "address"
            },
            {
              "internalType": "bool",
              "name": "isActive",
              "type": "bool"
            }
          ],
          "internalType": "struct SmartMeter",
          "name": "",
          "type": "tuple"
        }
      ],
      "stateMutability": "view",
      "type": "function"
    },
    {
      "inputs": [],
      "name": "getOwnerContactInfo",
      "outputs": [
        {
          "components": [
            {
              "internalType": "string",
              "name": "ownerName",
              "type": "string"
            },
            {
              "internalType": "string",
              "name": "streetName",
              "type": "string"
            },
            {
              "internalType": "string",
              "name": "cityCode",
              "type": "string"
            },
            {
              "internalType": "string",
              "name": "cityName",
              "type": "string"
            },
            {
              "internalType": "string",
              "name": "country",
              "type": "string"
            },
            {
              "internalType": "string",
              "name": "email",
              "type": "string"
            },
            {
              "internalType": "string",
              "name": "phone",
              "type": "string"
            }
          ],
          "internalType": "struct AddressInfo",
          "name": "",
          "type": "tuple"
        }
      ],
      "stateMutability": "view",
      "type": "function"
    },
    {
      "inputs": [],
      "name": "getOwnerName",
      "outputs": [
        {
          "internalType": "string",
          "name": "",
          "type": "string"
        }
      ],
      "stateMutability": "view",
      "type": "function"
    },
    {
      "inputs": [],
      "name": "getRole",
      "outputs": [
        {
          "internalType": "string",
          "name": "",
          "type": "string"
        }
      ],
      "stateMutability": "view",
      "type": "function"
    },
    {
      "inputs": [],
      "name": "getSmartMeters",
      "outputs": [
        {
          "internalType": "address[]",
          "name": "",
          "type": "address[]"
        }
      ],
      "stateMutability": "view",
      "type": "function"
    },
    {
      "inputs": [],
      "name": "getTNCYAddress",
      "outputs": [
        {
          "internalType": "address",
          "name": "",
          "type": "address"
        }
      ],
      "stateMutability": "view",
      "type": "function"
    },
    {
      "inputs": [
        {
          "internalType": "address",
          "name": "_tenant",
          "type": "address"
        }
      ],
      "name": "getTenantName",
      "outputs": [
        {
          "internalType": "string",
          "name": "",
          "type": "string"
        }
      ],
      "stateMutability": "view",
      "type": "function"
    },
    {
      "inputs": [
        {
          "internalType": "address",
          "name": "_tenant",
          "type": "address"
        }
      ],
      "name": "getTenantUtilityExpenses",
      "outputs": [
        {
          "components": [
            {
              "internalType": "address",
              "name": "issuer",
              "type": "address"
            },
            {
              "internalType": "uint256",
              "name": "amountTNCY",
              "type": "uint256"
            },
            {
              "internalType": "uint256",
              "name": "dateIssuance",
              "type": "uint256"
            },
            {
              "internalType": "bool",
              "name": "validated",
              "type": "bool"
            },
            {
              "internalType": "bytes",
              "name": "messageHash",
              "type": "bytes"
            },
            {
              "internalType": "string",
              "name": "utilityType",
              "type": "string"
            },
            {
              "internalType": "string",
              "name": "description",
              "type": "string"
            },
            {
              "internalType": "string",
              "name": "ipfsCID",
              "type": "string"
            },
            {
              "internalType": "address[]",
              "name": "tenants",
              "type": "address[]"
            }
          ],
          "internalType": "struct UtilityExpense[]",
          "name": "",
          "type": "tuple[]"
        }
      ],
      "stateMutability": "view",
      "type": "function"
    },
    {
      "inputs": [],
      "name": "getTenants",
      "outputs": [
        {
          "internalType": "address[]",
          "name": "",
          "type": "address[]"
        },
        {
          "internalType": "address[]",
          "name": "",
          "type": "address[]"
        },
        {
          "internalType": "string[]",
          "name": "",
          "type": "string[]"
        }
      ],
      "stateMutability": "view",
      "type": "function"
    },
    {
      "inputs": [],
      "name": "getTokenBalance",
      "outputs": [
        {
          "internalType": "uint256",
          "name": "",
          "type": "uint256"
        }
      ],
      "stateMutability": "view",
      "type": "function"
    },
    {
      "inputs": [],
      "name": "getUtilityExpenses",
      "outputs": [
        {
          "components": [
            {
              "internalType": "address",
              "name": "issuer",
              "type": "address"
            },
            {
              "internalType": "uint256",
              "name": "amountTNCY",
              "type": "uint256"
            },
            {
              "internalType": "uint256",
              "name": "dateIssuance",
              "type": "uint256"
            },
            {
              "internalType": "bool",
              "name": "validated",
              "type": "bool"
            },
            {
              "internalType": "bytes",
              "name": "messageHash",
              "type": "bytes"
            },
            {
              "internalType": "string",
              "name": "utilityType",
              "type": "string"
            },
            {
              "internalType": "string",
              "name": "description",
              "type": "string"
            },
            {
              "internalType": "string",
              "name": "ipfsCID",
              "type": "string"
            },
            {
              "internalType": "address[]",
              "name": "tenants",
              "type": "address[]"
            }
          ],
          "internalType": "struct UtilityExpense[]",
          "name": "",
          "type": "tuple[]"
        }
      ],
      "stateMutability": "view",
      "type": "function"
    },
    {
      "inputs": [],
      "name": "masterOwner",
      "outputs": [
        {
          "internalType": "address",
          "name": "",
          "type": "address"
        }
      ],
      "stateMutability": "view",
      "type": "function"
    },
    {
      "inputs": [
        {
          "internalType": "uint256",
          "name": "_timestamp",
          "type": "uint256"
        },
        {
          "internalType": "uint256",
          "name": "_usage",
          "type": "uint256"
        },
        {
          "internalType": "string",
          "name": "_unit",
          "type": "string"
        },
        {
          "internalType": "string",
          "name": "_ipfsCID",
          "type": "string"
        }
      ],
      "name": "recordDailyUsage",
      "outputs": [],
      "stateMutability": "nonpayable",
      "type": "function"
    },
    {
      "inputs": [
        {
          "internalType": "uint256",
          "name": "_amountTNCY",
          "type": "uint256"
        },
        {
          "internalType": "uint256",
          "name": "_dateIssuance",
          "type": "uint256"
        },
        {
          "internalType": "string",
          "name": "_utilityType",
          "type": "string"
        },
        {
          "internalType": "string",
          "name": "_description",
          "type": "string"
        },
        {
          "internalType": "string",
          "name": "_ipfsCID",
          "type": "string"
        },
        {
          "internalType": "address[]",
          "name": "_tenants",
          "type": "address[]"
        }
      ],
      "name": "recordUtilityExpense",
      "outputs": [],
      "stateMutability": "nonpayable",
      "type": "function"
    },
    {
      "inputs": [
        {
          "internalType": "string",
          "name": "_name",
          "type": "string"
        },
        {
          "internalType": "string",
          "name": "_ownerName",
          "type": "string"
        },
        {
          "internalType": "address",
          "name": "_smartMeterAddress",
          "type": "address"
        },
        {
          "internalType": "string",
          "name": "_smartMeterId",
          "type": "string"
        }
      ],
      "name": "registerSmartMeter",
      "outputs": [],
      "stateMutability": "nonpayable",
      "type": "function"
    },
    {
      "inputs": [
        {
          "internalType": "address",
          "name": "_tenant",
          "type": "address"
        },
        {
          "internalType": "address",
          "name": "_smartMeterAddress",
          "type": "address"
        }
      ],
      "name": "removeAssignedSmartMeter",
      "outputs": [],
      "stateMutability": "nonpayable",
      "type": "function"
    },
    {
      "inputs": [
        {
          "internalType": "address",
          "name": "_tenant",
          "type": "address"
        }
      ],
      "name": "removeTenant",
      "outputs": [],
      "stateMutability": "nonpayable",
      "type": "function"
    },
    {
      "inputs": [
        {
          "internalType": "address",
          "name": "",
          "type": "address"
        }
      ],
      "name": "smartMeters",
      "outputs": [
        {
          "internalType": "string",
          "name": "name",
          "type": "string"
        },
        {
          "internalType": "string",
          "name": "ownerName",
          "type": "string"
        },
        {
          "internalType": "address",
          "name": "smartMeterAddress",
          "type": "address"
        },
        {
          "internalType": "string",
          "name": "smartMeterId",
          "type": "string"
        },
        {
          "internalType": "address",
          "name": "assignedTenant",
          "type": "address"
        },
        {
          "internalType": "bool",
          "name": "isActive",
          "type": "bool"
        }
      ],
      "stateMutability": "view",
      "type": "function"
    },
    {
      "inputs": [
        {
          "internalType": "string",
          "name": "_ipfsCID",
          "type": "string"
        }
      ],
      "name": "storeDetailedUsage",
      "outputs": [],
      "stateMutability": "nonpayable",
      "type": "function"
    },
    {
      "inputs": [
        {
          "internalType": "address",
          "name": "",
          "type": "address"
        }
      ],
      "name": "tenants",
      "outputs": [
        {
          "internalType": "string",
          "name": "fullName",
          "type": "string"
        },
        {
          "internalType": "address",
          "name": "tenantAddress",
          "type": "address"
        },
        {
          "internalType": "address",
          "name": "assignedSmartMeter",
          "type": "address"
        }
      ],
      "stateMutability": "view",
      "type": "function"
    },
    {
      "inputs": [],
      "name": "tncyToken",
      "outputs": [
        {
          "internalType": "contract TNCY",
          "name": "",
          "type": "address"
        }
      ],
      "stateMutability": "view",
      "type": "function"
    },
    {
      "inputs": [],
      "name": "utilityValidator",
      "outputs": [
        {
          "internalType": "contract UtilityValidator",
          "name": "",
          "type": "address"
        }
      ],
      "stateMutability": "view",
      "type": "function"
    },
    {
      "inputs": [
        {
          "internalType": "address",
          "name": "",
          "type": "address"
        }
      ],
      "name": "whitelistedTenants",
      "outputs": [
        {
          "internalType": "bool",
          "name": "",
          "type": "bool"
        }
      ],
      "stateMutability": "view",
      "type": "function"
    }
  ],
  "bytecode": "0x608060405234801561001057600080fd5b5060405161b34638038061b346833981810160405281019061003291906107ce565b6100776040518060400160405280601481526020017f4372656174696e67206d616e6167657220666f720000000000000000000000008152508361035c60201b60201c565b81600160006101000a81548173ffffffffffffffffffffffffffffffffffffffff021916908373ffffffffffffffffffffffffffffffffffffffff16021790555080600360008201518160000190816100d09190610a4b565b5060208201518160010190816100e69190610a4b565b5060408201518160020190816100fc9190610a4b565b5060608201518160030190816101129190610a4b565b5060808201518160040190816101289190610a4b565b5060a082015181600501908161013e9190610a4b565b5060c08201518160060190816101549190610a4b565b509050503060405161016590610455565b61016f9190610b2c565b604051809103906000f08015801561018b573d6000803e3d6000fd5b506000806101000a81548173ffffffffffffffffffffffffffffffffffffffff021916908373ffffffffffffffffffffffffffffffffffffffff16021790555060008054906101000a900473ffffffffffffffffffffffffffffffffffffffff1673ffffffffffffffffffffffffffffffffffffffff1663f5a1f5b4836040518263ffffffff1660e01b81526004016102249190610b2c565b600060405180830381600087803b15801561023e57600080fd5b505af1158015610252573d6000803e3d6000fd5b5050505060008054906101000a900473ffffffffffffffffffffffffffffffffffffffff1673ffffffffffffffffffffffffffffffffffffffff16635dcd3e33836040518263ffffffff1660e01b81526004016102af9190610b2c565b600060405180830381600087803b1580156102c957600080fd5b505af11580156102dd573d6000803e3d6000fd5b50505050306040516102ee90610462565b6102f89190610b2c565b604051809103906000f080158015610314573d6000803e3d6000fd5b50600260006101000a81548173ffffffffffffffffffffffffffffffffffffffff021916908373ffffffffffffffffffffffffffffffffffffffff1602179055505050610bf0565b6103fa8282604051602401610372929190610b91565b6040516020818303038152906040527f319af333000000000000000000000000000000000000000000000000000000007bffffffffffffffffffffffffffffffffffffffffffffffffffffffff19166020820180517bffffffffffffffffffffffffffffffffffffffffffffffffffffffff83818316178352505050506103fe60201b60201c565b5050565b61041f8161041a61042260201b614e2b1761044360201b60201c565b60201c565b50565b60006a636f6e736f6c652e6c6f679050600080835160208501845afa505050565b61046f60201b614fa317819050919050565b611fe6806181cf83390190565b6111918061a1b583390190565b610477610bc1565b565b6000604051905090565b600080fd5b600080fd5b600073ffffffffffffffffffffffffffffffffffffffff82169050919050565b60006104b88261048d565b9050919050565b6104c8816104ad565b81146104d357600080fd5b50565b6000815190506104e5816104bf565b92915050565b600080fd5b6000601f19601f8301169050919050565b7f4e487b7100000000000000000000000000000000000000000000000000000000600052604160045260246000fd5b610539826104f0565b810181811067ffffffffffffffff8211171561055857610557610501565b5b80604052505050565b600061056b610479565b90506105778282610530565b919050565b600080fd5b600080fd5b600080fd5b600067ffffffffffffffff8211156105a6576105a5610501565b5b6105af826104f0565b9050602081019050919050565b60005b838110156105da5780820151818401526020810190506105bf565b60008484015250505050565b60006105f96105f48461058b565b610561565b90508281526020810184848401111561061557610614610586565b5b6106208482856105bc565b509392505050565b600082601f83011261063d5761063c610581565b5b815161064d8482602086016105e6565b91505092915050565b600060e0828403121561066c5761066b6104eb565b5b61067660e0610561565b9050600082015167ffffffffffffffff8111156106965761069561057c565b5b6106a284828501610628565b600083015250602082015167ffffffffffffffff8111156106c6576106c561057c565b5b6106d284828501610628565b602083015250604082015167ffffffffffffffff8111156106f6576106f561057c565b5b61070284828501610628565b604083015250606082015167ffffffffffffffff8111156107265761072561057c565b5b61073284828501610628565b606083015250608082015167ffffffffffffffff8111156107565761075561057c565b5b61076284828501610628565b60808301525060a082015167ffffffffffffffff8111156107865761078561057c565b5b61079284828501610628565b60a08301525060c082015167ffffffffffffffff8111156107b6576107b561057c565b5b6107c284828501610628565b60c08301525092915050565b600080604083850312156107e5576107e4610483565b5b60006107f3858286016104d6565b925050602083015167ffffffffffffffff81111561081457610813610488565b5b61082085828601610656565b9150509250929050565b600081519050919050565b7f4e487b7100000000000000000000000000000000000000000000000000000000600052602260045260246000fd5b6000600282049050600182168061087c57607f821691505b60208210810361088f5761088e610835565b5b50919050565b60008190508160005260206000209050919050565b60006020601f8301049050919050565b600082821b905092915050565b6000600883026108f77fffffffffffffffffffffffffffffffffffffffffffffffffffffffffffffffff826108ba565b61090186836108ba565b95508019841693508086168417925050509392505050565b6000819050919050565b6000819050919050565b600061094861094361093e84610919565b610923565b610919565b9050919050565b6000819050919050565b6109628361092d565b61097661096e8261094f565b8484546108c7565b825550505050565b600090565b61098b61097e565b610996818484610959565b505050565b5b818110156109ba576109af600082610983565b60018101905061099c565b5050565b601f8211156109ff576109d081610895565b6109d9846108aa565b810160208510156109e8578190505b6109fc6109f4856108aa565b83018261099b565b50505b505050565b600082821c905092915050565b6000610a2260001984600802610a04565b1980831691505092915050565b6000610a3b8383610a11565b9150826002028217905092915050565b610a548261082a565b67ffffffffffffffff811115610a6d57610a6c610501565b5b610a778254610864565b610a828282856109be565b600060209050601f831160018114610ab55760008415610aa3578287015190505b610aad8582610a2f565b865550610b15565b601f198416610ac386610895565b60005b82811015610aeb57848901518255600182019150602085019450602081019050610ac6565b86831015610b085784890151610b04601f891682610a11565b8355505b6001600288020188555050505b505050505050565b610b26816104ad565b82525050565b6000602082019050610b416000830184610b1d565b92915050565b600082825260208201905092915050565b6000610b638261082a565b610b6d8185610b47565b9350610b7d8185602086016105bc565b610b86816104f0565b840191505092915050565b60006040820190508181036000830152610bab8185610b58565b9050610bba6020830184610b1d565b9392505050565b7f4e487b7100000000000000000000000000000000000000000000000000000000600052605160045260246000fd5b6175d080610bff6000396000f3fe608060405234801561001057600080fd5b50600436106101a95760003560e01c80639439d743116100f9578063de23dce011610097578063f11d5ea911610071578063f11d5ea9146104b1578063fba1f7b0146104e1578063fd9153a314610511578063fde0817414610543576101a9565b8063de23dce014610459578063e2520c6b14610475578063e7201d7d14610493576101a9565b8063a5803945116100d3578063a5803945146103bf578063ae2fca39146103ef578063babd96921461040d578063da4f1f3e14610429576101a9565b80639439d7431461036b5780639624f7f4146103875780639ca81fd8146103a3576101a9565b80632fdfc25f1161016657806353be7ded1161014057806353be7ded146102e15780635a7cb43f146103015780636757670d1461031d57806382b2e2571461034d576101a9565b80632fdfc25f1461028957806330d4597c146102a75780634b1b2728146102c3576101a9565b80630d79f9c9146101ae57806310f6a343146101de5780631184d8d714610213578063145ef6e91461023157806326ba1ff81461024f5780632d7100701461026d575b600080fd5b6101c860048036038101906101c391906151a7565b610561565b6040516101d59190615325565b60405180910390f35b6101f860048036038101906101f391906151a7565b6109b4565b60405161020a969594939291906153af565b60405180910390f35b61021b610bd5565b6040516102289190615484565b60405180910390f35b610239610bfb565b604051610246919061549f565b60405180910390f35b610257610c90565b6040516102649190615570565b60405180910390f35b610287600480360381019061028291906151a7565b610dae565b005b610291611234565b60405161029e9190615592565b60405180910390f35b6102c160048036038101906102bc919061569e565b611340565b005b6102cb611987565b6040516102d89190615874565b60405180910390f35b6102e9611d9f565b6040516102f893929190615958565b60405180910390f35b61031b600480360381019061031691906159a4565b612104565b005b610337600480360381019061033291906151a7565b612586565b6040516103449190615c5a565b60405180910390f35b610355612a0c565b6040516103629190615c8b565b60405180910390f35b61038560048036038101906103809190615ca6565b612b91565b005b6103a1600480360381019061039c91906159a4565b6134c2565b005b6103bd60048036038101906103b89190615e7d565b613770565b005b6103d960048036038101906103d491906151a7565b613bc6565b6040516103e69190615ed9565b60405180910390f35b6103f7613be6565b6040516104049190615c5a565b60405180910390f35b61042760048036038101906104229190615ef4565b614031565b005b610443600480360381019061043e91906151a7565b6143f3565b604051610450919061549f565b60405180910390f35b610473600480360381019061046e9190615faf565b614553565b005b61047d6146b6565b60405161048a919061601d565b60405180910390f35b61049b6146da565b6040516104a89190615592565b60405180910390f35b6104cb60048036038101906104c691906151a7565b614700565b6040516104d89190616164565b60405180910390f35b6104fb60048036038101906104f691906151a7565b614a53565b6040516105089190615592565b60405180910390f35b61052b600480360381019061052691906151a7565b614b4b565b60405161053a93929190616186565b60405180910390f35b61054b614c3d565b604051610558919061549f565b60405180910390f35b610569614fad565b600160009054906101000a900473ffffffffffffffffffffffffffffffffffffffff1673ffffffffffffffffffffffffffffffffffffffff163373ffffffffffffffffffffffffffffffffffffffff1614806106a75750601260003373ffffffffffffffffffffffffffffffffffffffff1673ffffffffffffffffffffffffffffffffffffffff16815260200190815260200160002060009054906101000a900460ff1680156106a657508173ffffffffffffffffffffffffffffffffffffffff16600c60003373ffffffffffffffffffffffffffffffffffffffff1673ffffffffffffffffffffffffffffffffffffffff16815260200190815260200160002060020160009054906101000a900473ffffffffffffffffffffffffffffffffffffffff1673ffffffffffffffffffffffffffffffffffffffff16145b5b6106e6576040517f08c379a00000000000000000000000000000000000000000000000000000000081526004016106dd90616210565b60405180910390fd5b600a60008373ffffffffffffffffffffffffffffffffffffffff1673ffffffffffffffffffffffffffffffffffffffff1681526020019081526020016000206040518060c00160405290816000820180546107409061625f565b80601f016020809104026020016040519081016040528092919081815260200182805461076c9061625f565b80156107b95780601f1061078e576101008083540402835291602001916107b9565b820191906000526020600020905b81548152906001019060200180831161079c57829003601f168201915b505050505081526020016001820180546107d29061625f565b80601f01602080910402602001604051908101604052809291908181526020018280546107fe9061625f565b801561084b5780601f106108205761010080835404028352916020019161084b565b820191906000526020600020905b81548152906001019060200180831161082e57829003601f168201915b505050505081526020016002820160009054906101000a900473ffffffffffffffffffffffffffffffffffffffff1673ffffffffffffffffffffffffffffffffffffffff1673ffffffffffffffffffffffffffffffffffffffff1681526020016003820180546108ba9061625f565b80601f01602080910402602001604051908101604052809291908181526020018280546108e69061625f565b80156109335780601f1061090857610100808354040283529160200191610933565b820191906000526020600020905b81548152906001019060200180831161091657829003601f168201915b505050505081526020016004820160009054906101000a900473ffffffffffffffffffffffffffffffffffffffff1673ffffffffffffffffffffffffffffffffffffffff1673ffffffffffffffffffffffffffffffffffffffff1681526020016004820160149054906101000a900460ff1615151515815250509050919050565b600a6020528060005260406000206000915090508060000180546109d79061625f565b80601f0160208091040260200160405190810160405280929190818152602001828054610a039061625f565b8015610a505780601f10610a2557610100808354040283529160200191610a50565b820191906000526020600020905b815481529060010190602001808311610a3357829003601f168201915b505050505090806001018054610a659061625f565b80601f0160208091040260200160405190810160405280929190818152602001828054610a919061625f565b8015610ade5780601f10610ab357610100808354040283529160200191610ade565b820191906000526020600020905b815481529060010190602001808311610ac157829003601f168201915b5050505050908060020160009054906101000a900473ffffffffffffffffffffffffffffffffffffffff1690806003018054610b199061625f565b80601f0160208091040260200160405190810160405280929190818152602001828054610b459061625f565b8015610b925780601f10610b6757610100808354040283529160200191610b92565b820191906000526020600020905b815481529060010190602001808311610b7557829003601f168201915b5050505050908060040160009054906101000a900473ffffffffffffffffffffffffffffffffffffffff16908060040160149054906101000a900460ff16905086565b600260009054906101000a900473ffffffffffffffffffffffffffffffffffffffff1681565b606060036000018054610c0d9061625f565b80601f0160208091040260200160405190810160405280929190818152602001828054610c399061625f565b8015610c865780601f10610c5b57610100808354040283529160200191610c86565b820191906000526020600020905b815481529060010190602001808311610c6957829003601f168201915b5050505050905090565b6060600160009054906101000a900473ffffffffffffffffffffffffffffffffffffffff1673ffffffffffffffffffffffffffffffffffffffff163373ffffffffffffffffffffffffffffffffffffffff1614610d22576040517f08c379a0000000000000000000000000000000000000000000000000000000008152600401610d19906162dc565b60405180910390fd5b600b805480602002602001604051908101604052809291908181526020018280548015610da457602002820191906000526020600020905b8160009054906101000a900473ffffffffffffffffffffffffffffffffffffffff1673ffffffffffffffffffffffffffffffffffffffff1681526020019060010190808311610d5a575b5050505050905090565b600160009054906101000a900473ffffffffffffffffffffffffffffffffffffffff1673ffffffffffffffffffffffffffffffffffffffff163373ffffffffffffffffffffffffffffffffffffffff1614610e3e576040517f08c379a0000000000000000000000000000000000000000000000000000000008152600401610e35906162dc565b60405180910390fd5b6000601260008373ffffffffffffffffffffffffffffffffffffffff1673ffffffffffffffffffffffffffffffffffffffff16815260200190815260200160002060006101000a81548160ff0219169083151502179055506000600c60008373ffffffffffffffffffffffffffffffffffffffff1673ffffffffffffffffffffffffffffffffffffffff16815260200190815260200160002060020160009054906101000a900473ffffffffffffffffffffffffffffffffffffffff1690506000600a60008373ffffffffffffffffffffffffffffffffffffffff1673ffffffffffffffffffffffffffffffffffffffff16815260200190815260200160002060040160006101000a81548173ffffffffffffffffffffffffffffffffffffffff021916908373ffffffffffffffffffffffffffffffffffffffff16021790555060005b600d8054905081101561118f578273ffffffffffffffffffffffffffffffffffffffff16600d8281548110610fba57610fb96162fc565b5b9060005260206000200160009054906101000a900473ffffffffffffffffffffffffffffffffffffffff1673ffffffffffffffffffffffffffffffffffffffff160361118257600d6001600d80549050611014919061635a565b81548110611025576110246162fc565b5b9060005260206000200160009054906101000a900473ffffffffffffffffffffffffffffffffffffffff16600d8281548110611064576110636162fc565b5b9060005260206000200160006101000a81548173ffffffffffffffffffffffffffffffffffffffff021916908373ffffffffffffffffffffffffffffffffffffffff160217905550600d8054806110be576110bd61638e565b5b6001900381819060005260206000200160006101000a81549073ffffffffffffffffffffffffffffffffffffffff02191690559055600e6001600e80549050611107919061635a565b81548110611118576111176162fc565b5b90600052602060002001600e8281548110611136576111356162fc565b5b90600052602060002001908161114c919061658a565b50600e80548061115f5761115e61638e565b5b60019003818190600052602060002001600061117b9190615011565b905561118f565b8080600101915050610f82565b50600c60008373ffffffffffffffffffffffffffffffffffffffff1673ffffffffffffffffffffffffffffffffffffffff168152602001908152602001600020600080820160006111e09190615011565b6001820160006101000a81549073ffffffffffffffffffffffffffffffffffffffff02191690556002820160006101000a81549073ffffffffffffffffffffffffffffffffffffffff021916905550505050565b6000600160009054906101000a900473ffffffffffffffffffffffffffffffffffffffff1673ffffffffffffffffffffffffffffffffffffffff163373ffffffffffffffffffffffffffffffffffffffff1614806112db5750601260003373ffffffffffffffffffffffffffffffffffffffff1673ffffffffffffffffffffffffffffffffffffffff16815260200190815260200160002060009054906101000a900460ff165b61131a576040517f08c379a0000000000000000000000000000000000000000000000000000000008152600401611311906166be565b60405180910390fd5b60008054906101000a900473ffffffffffffffffffffffffffffffffffffffff16905090565b600160009054906101000a900473ffffffffffffffffffffffffffffffffffffffff1673ffffffffffffffffffffffffffffffffffffffff163373ffffffffffffffffffffffffffffffffffffffff16146113d0576040517f08c379a00000000000000000000000000000000000000000000000000000000081526004016113c7906162dc565b60405180910390fd5b60006040518061012001604052803373ffffffffffffffffffffffffffffffffffffffff1681526020018c81526020018b81526020016000151581526020016040518060200160405280600081525081526020018a8a8080601f016020809104026020016040519081016040528093929190818152602001838380828437600081840152601f19601f82011690508083019250505050505050815260200188888080601f016020809104026020016040519081016040528093929190818152602001838380828437600081840152601f19601f82011690508083019250505050505050815260200186868080601f016020809104026020016040519081016040528093929190818152602001838380828437600081840152601f19601f820116905080830192505050505050508152602001848480806020026020016040519081016040528093929190818152602001838360200280828437600081840152601f19601f8201169050808301925050505050505081525090506000600260009054906101000a900473ffffffffffffffffffffffffffffffffffffffff1673ffffffffffffffffffffffffffffffffffffffff16634be731d0836040518263ffffffff1660e01b81526004016115a691906167bf565b6000604051808303816000875af11580156115c5573d6000803e3d6000fd5b505050506040513d6000823e3d601f19601f820116820180604052508101906115ee9190616b81565b9050601381908060018154018082558091505060019003906000526020600020906009020160009091909190915060008201518160000160006101000a81548173ffffffffffffffffffffffffffffffffffffffff021916908373ffffffffffffffffffffffffffffffffffffffff160217905550602082015181600101556040820151816002015560608201518160030160006101000a81548160ff02191690831515021790555060808201518160040190816116ac9190616c25565b5060a08201518160050190816116c29190616cf7565b5060c08201518160060190816116d89190616cf7565b5060e08201518160070190816116ee9190616cf7565b5061010082015181600801908051906020019061170c929190615051565b50505060008484905090506000818e6117259190616df8565b905060005b828110156119765760146000888884818110611749576117486162fc565b5b905060200201602081019061175e91906151a7565b73ffffffffffffffffffffffffffffffffffffffff1673ffffffffffffffffffffffffffffffffffffffff16815260200190815260200160002084908060018154018082558091505060019003906000526020600020906009020160009091909190915060008201518160000160006101000a81548173ffffffffffffffffffffffffffffffffffffffff021916908373ffffffffffffffffffffffffffffffffffffffff160217905550602082015181600101556040820151816002015560608201518160030160006101000a81548160ff02191690831515021790555060808201518160040190816118529190616c25565b5060a08201518160050190816118689190616cf7565b5060c082015181600601908161187e9190616cf7565b5060e08201518160070190816118949190616cf7565b506101008201518160080190805190602001906118b2929190615051565b50505060008054906101000a900473ffffffffffffffffffffffffffffffffffffffff1673ffffffffffffffffffffffffffffffffffffffff1663bd493ad1888884818110611904576119036162fc565b5b905060200201602081019061191991906151a7565b846040518363ffffffff1660e01b8152600401611937929190616e29565b600060405180830381600087803b15801561195157600080fd5b505af1158015611965573d6000803e3d6000fd5b50505050808060010191505061172a565b505050505050505050505050505050565b61198f6150db565b60036040518060e00160405290816000820180546119ac9061625f565b80601f01602080910402602001604051908101604052809291908181526020018280546119d89061625f565b8015611a255780601f106119fa57610100808354040283529160200191611a25565b820191906000526020600020905b815481529060010190602001808311611a0857829003601f168201915b50505050508152602001600182018054611a3e9061625f565b80601f0160208091040260200160405190810160405280929190818152602001828054611a6a9061625f565b8015611ab75780601f10611a8c57610100808354040283529160200191611ab7565b820191906000526020600020905b815481529060010190602001808311611a9a57829003601f168201915b50505050508152602001600282018054611ad09061625f565b80601f0160208091040260200160405190810160405280929190818152602001828054611afc9061625f565b8015611b495780601f10611b1e57610100808354040283529160200191611b49565b820191906000526020600020905b815481529060010190602001808311611b2c57829003601f168201915b50505050508152602001600382018054611b629061625f565b80601f0160208091040260200160405190810160405280929190818152602001828054611b8e9061625f565b8015611bdb5780601f10611bb057610100808354040283529160200191611bdb565b820191906000526020600020905b815481529060010190602001808311611bbe57829003601f168201915b50505050508152602001600482018054611bf49061625f565b80601f0160208091040260200160405190810160405280929190818152602001828054611c209061625f565b8015611c6d5780601f10611c4257610100808354040283529160200191611c6d565b820191906000526020600020905b815481529060010190602001808311611c5057829003601f168201915b50505050508152602001600582018054611c869061625f565b80601f0160208091040260200160405190810160405280929190818152602001828054611cb29061625f565b8015611cff5780601f10611cd457610100808354040283529160200191611cff565b820191906000526020600020905b815481529060010190602001808311611ce257829003601f168201915b50505050508152602001600682018054611d189061625f565b80601f0160208091040260200160405190810160405280929190818152602001828054611d449061625f565b8015611d915780601f10611d6657610100808354040283529160200191611d91565b820191906000526020600020905b815481529060010190602001808311611d7457829003601f168201915b505050505081525050905090565b6060806060600160009054906101000a900473ffffffffffffffffffffffffffffffffffffffff1673ffffffffffffffffffffffffffffffffffffffff163373ffffffffffffffffffffffffffffffffffffffff1614611e34576040517f08c379a0000000000000000000000000000000000000000000000000000000008152600401611e2b906162dc565b60405180910390fd5b6000600d80549050905060008167ffffffffffffffff811115611e5a57611e59615d52565b5b604051908082528060200260200182016040528015611e885781602001602082028036833780820191505090505b50905060005b600d80549050811015611f9657600c6000600d8381548110611eb357611eb26162fc565b5b9060005260206000200160009054906101000a900473ffffffffffffffffffffffffffffffffffffffff1673ffffffffffffffffffffffffffffffffffffffff1673ffffffffffffffffffffffffffffffffffffffff16815260200190815260200160002060020160009054906101000a900473ffffffffffffffffffffffffffffffffffffffff16828281518110611f4f57611f4e6162fc565b5b602002602001019073ffffffffffffffffffffffffffffffffffffffff16908173ffffffffffffffffffffffffffffffffffffffff16815250508080600101915050611e8e565b50600d81600e8280548060200260200160405190810160405280929190818152602001828054801561201d57602002820191906000526020600020905b8160009054906101000a900473ffffffffffffffffffffffffffffffffffffffff1673ffffffffffffffffffffffffffffffffffffffff1681526020019060010190808311611fd3575b5050505050925080805480602002602001604051908101604052809291908181526020016000905b828210156120f15783829060005260206000200180546120649061625f565b80601f01602080910402602001604051908101604052809291908181526020018280546120909061625f565b80156120dd5780601f106120b2576101008083540402835291602001916120dd565b820191906000526020600020905b8154815290600101906020018083116120c057829003601f168201915b505050505081526020019060010190612045565b5050505090509450945094505050909192565b600160009054906101000a900473ffffffffffffffffffffffffffffffffffffffff1673ffffffffffffffffffffffffffffffffffffffff163373ffffffffffffffffffffffffffffffffffffffff1614612194576040517f08c379a000000000000000000000000000000000000000000000000000000000815260040161218b906162dc565b60405180910390fd5b8073ffffffffffffffffffffffffffffffffffffffff168173ffffffffffffffffffffffffffffffffffffffff1614612202576040517f08c379a00000000000000000000000000000000000000000000000000000000081526004016121f990616e9e565b60405180910390fd5b8173ffffffffffffffffffffffffffffffffffffffff168273ffffffffffffffffffffffffffffffffffffffff1614612270576040517f08c379a000000000000000000000000000000000000000000000000000000000815260040161226790616e9e565b60405180910390fd5b601160008273ffffffffffffffffffffffffffffffffffffffff1673ffffffffffffffffffffffffffffffffffffffff16815260200190815260200160002060009054906101000a900460ff166122fc576040517f08c379a00000000000000000000000000000000000000000000000000000000081526004016122f390616f0a565b60405180910390fd5b60008273ffffffffffffffffffffffffffffffffffffffff16600a60008473ffffffffffffffffffffffffffffffffffffffff1673ffffffffffffffffffffffffffffffffffffffff16815260200190815260200160002060040160009054906101000a900473ffffffffffffffffffffffffffffffffffffffff1673ffffffffffffffffffffffffffffffffffffffff1614905060008273ffffffffffffffffffffffffffffffffffffffff16600c60008673ffffffffffffffffffffffffffffffffffffffff1673ffffffffffffffffffffffffffffffffffffffff16815260200190815260200160002060020160009054906101000a900473ffffffffffffffffffffffffffffffffffffffff1673ffffffffffffffffffffffffffffffffffffffff16149050818061242f5750805b61246e576040517f08c379a000000000000000000000000000000000000000000000000000000000815260040161246590616f76565b60405180910390fd5b80156124f7576000600c60008673ffffffffffffffffffffffffffffffffffffffff1673ffffffffffffffffffffffffffffffffffffffff16815260200190815260200160002060020160006101000a81548173ffffffffffffffffffffffffffffffffffffffff021916908373ffffffffffffffffffffffffffffffffffffffff1602179055505b8115612580576000600a60008573ffffffffffffffffffffffffffffffffffffffff1673ffffffffffffffffffffffffffffffffffffffff16815260200190815260200160002060040160006101000a81548173ffffffffffffffffffffffffffffffffffffffff021916908373ffffffffffffffffffffffffffffffffffffffff1602179055505b50505050565b6060601260003373ffffffffffffffffffffffffffffffffffffffff1673ffffffffffffffffffffffffffffffffffffffff16815260200190815260200160002060009054906101000a900460ff16612614576040517f08c379a000000000000000000000000000000000000000000000000000000000815260040161260b90616fe2565b60405180910390fd5b601460008373ffffffffffffffffffffffffffffffffffffffff1673ffffffffffffffffffffffffffffffffffffffff168152602001908152602001600020805480602002602001604051908101604052809291908181526020016000905b82821015612a015783829060005260206000209060090201604051806101200160405290816000820160009054906101000a900473ffffffffffffffffffffffffffffffffffffffff1673ffffffffffffffffffffffffffffffffffffffff1673ffffffffffffffffffffffffffffffffffffffff16815260200160018201548152602001600282015481526020016003820160009054906101000a900460ff1615151515815260200160048201805461272c9061625f565b80601f01602080910402602001604051908101604052809291908181526020018280546127589061625f565b80156127a55780601f1061277a576101008083540402835291602001916127a5565b820191906000526020600020905b81548152906001019060200180831161278857829003601f168201915b505050505081526020016005820180546127be9061625f565b80601f01602080910402602001604051908101604052809291908181526020018280546127ea9061625f565b80156128375780601f1061280c57610100808354040283529160200191612837565b820191906000526020600020905b81548152906001019060200180831161281a57829003601f168201915b505050505081526020016006820180546128509061625f565b80601f016020809104026020016040519081016040528092919081815260200182805461287c9061625f565b80156128c95780601f1061289e576101008083540402835291602001916128c9565b820191906000526020600020905b8154815290600101906020018083116128ac57829003601f168201915b505050505081526020016007820180546128e29061625f565b80601f016020809104026020016040519081016040528092919081815260200182805461290e9061625f565b801561295b5780601f106129305761010080835404028352916020019161295b565b820191906000526020600020905b81548152906001019060200180831161293e57829003601f168201915b50505050508152602001600882018054806020026020016040519081016040528092919081815260200182805480156129e957602002820191906000526020600020905b8160009054906101000a900473ffffffffffffffffffffffffffffffffffffffff1673ffffffffffffffffffffffffffffffffffffffff168152602001906001019080831161299f575b50505050508152505081526020019060010190612673565b505050509050919050565b6000600160009054906101000a900473ffffffffffffffffffffffffffffffffffffffff1673ffffffffffffffffffffffffffffffffffffffff163373ffffffffffffffffffffffffffffffffffffffff161480612ab35750601260003373ffffffffffffffffffffffffffffffffffffffff1673ffffffffffffffffffffffffffffffffffffffff16815260200190815260200160002060009054906101000a900460ff165b612af2576040517f08c379a0000000000000000000000000000000000000000000000000000000008152600401612ae990616210565b60405180910390fd5b60008054906101000a900473ffffffffffffffffffffffffffffffffffffffff1673ffffffffffffffffffffffffffffffffffffffff166370a08231336040518263ffffffff1660e01b8152600401612b4b9190615592565b602060405180830381865afa158015612b68573d6000803e3d6000fd5b505050506040513d601f19601f82011682018060405250810190612b8c9190617002565b905090565b601160003373ffffffffffffffffffffffffffffffffffffffff1673ffffffffffffffffffffffffffffffffffffffff16815260200190815260200160002060009054906101000a900460ff168015612c365750600a60003373ffffffffffffffffffffffffffffffffffffffff1673ffffffffffffffffffffffffffffffffffffffff16815260200190815260200160002060040160149054906101000a900460ff165b612c75576040517f08c379a0000000000000000000000000000000000000000000000000000000008152600401612c6c9061707b565b60405180910390fd5b600f60003373ffffffffffffffffffffffffffffffffffffffff1673ffffffffffffffffffffffffffffffffffffffff168152602001908152602001600020604051806080016040528088815260200187815260200186868080601f016020809104026020016040519081016040528093929190818152602001838380828437600081840152601f19601f82011690508083019250505050505050815260200184848080601f016020809104026020016040519081016040528093929190818152602001838380828437600081840152601f19601f82011690508083019250505050505050815250908060018154018082558091505060019003906000526020600020906004020160009091909190915060008201518160000155602082015181600101556040820151816002019081612daf9190616cf7565b506060820151816003019081612dc59190616cf7565b50505060008060009054906101000a900473ffffffffffffffffffffffffffffffffffffffff1673ffffffffffffffffffffffffffffffffffffffff1663320ab0516040518163ffffffff1660e01b8152600401602060405180830381865afa158015612e36573d6000803e3d6000fd5b505050506040513d601f19601f82011682018060405250810190612e5a9190617002565b86612e65919061709b565b90506000600a60003373ffffffffffffffffffffffffffffffffffffffff1673ffffffffffffffffffffffffffffffffffffffff168152602001908152602001600020600301604051602001612ebb91906171dd565b60405160208183030381529060405290506000600a60003373ffffffffffffffffffffffffffffffffffffffff1673ffffffffffffffffffffffffffffffffffffffff16815260200190815260200160002060040160009054906101000a900473ffffffffffffffffffffffffffffffffffffffff1690506000600167ffffffffffffffff811115612f5057612f4f615d52565b5b604051908082528060200260200182016040528015612f7e5781602001602082028036833780820191505090505b5090508181600081518110612f9657612f956162fc565b5b602002602001019073ffffffffffffffffffffffffffffffffffffffff16908173ffffffffffffffffffffffffffffffffffffffff168152505060006040518061012001604052803373ffffffffffffffffffffffffffffffffffffffff1681526020018681526020018c81526020016000151581526020016040518060200160405280600081525081526020016040518060400160405280600781526020017f48454154494e4700000000000000000000000000000000000000000000000000815250815260200185815260200188888080601f016020809104026020016040519081016040528093929190818152602001838380828437600081840152601f19601f8201169050808301925050505050505081526020018381525090506000600260009054906101000a900473ffffffffffffffffffffffffffffffffffffffff1673ffffffffffffffffffffffffffffffffffffffff16634be731d0836040518263ffffffff1660e01b815260040161311291906167bf565b6000604051808303816000875af1158015613131573d6000803e3d6000fd5b505050506040513d6000823e3d601f19601f8201168201806040525081019061315a9190616b81565b9050601381908060018154018082558091505060019003906000526020600020906009020160009091909190915060008201518160000160006101000a81548173ffffffffffffffffffffffffffffffffffffffff021916908373ffffffffffffffffffffffffffffffffffffffff160217905550602082015181600101556040820151816002015560608201518160030160006101000a81548160ff02191690831515021790555060808201518160040190816132189190616c25565b5060a082015181600501908161322e9190616cf7565b5060c08201518160060190816132449190616cf7565b5060e082015181600701908161325a9190616cf7565b50610100820151816008019080519060200190613278929190615051565b505050601460008573ffffffffffffffffffffffffffffffffffffffff1673ffffffffffffffffffffffffffffffffffffffff16815260200190815260200160002081908060018154018082558091505060019003906000526020600020906009020160009091909190915060008201518160000160006101000a81548173ffffffffffffffffffffffffffffffffffffffff021916908373ffffffffffffffffffffffffffffffffffffffff160217905550602082015181600101556040820151816002015560608201518160030160006101000a81548160ff02191690831515021790555060808201518160040190816133749190616c25565b5060a082015181600501908161338a9190616cf7565b5060c08201518160060190816133a09190616cf7565b5060e08201518160070190816133b69190616cf7565b506101008201518160080190805190602001906133d4929190615051565b50505060008054906101000a900473ffffffffffffffffffffffffffffffffffffffff1673ffffffffffffffffffffffffffffffffffffffff1663bd493ad185886040518363ffffffff1660e01b8152600401613432929190616e29565b600060405180830381600087803b15801561344c57600080fd5b505af1158015613460573d6000803e3d6000fd5b505050503373ffffffffffffffffffffffffffffffffffffffff167f550066d608ea56e089cd4c6f3ccd9557109a2adf9eb1fc812763cbffe3a325d1428d6040516134ac9291906171ff565b60405180910390a2505050505050505050505050565b600160009054906101000a900473ffffffffffffffffffffffffffffffffffffffff1673ffffffffffffffffffffffffffffffffffffffff163373ffffffffffffffffffffffffffffffffffffffff1614613552576040517f08c379a0000000000000000000000000000000000000000000000000000000008152600401613549906162dc565b60405180910390fd5b601260008373ffffffffffffffffffffffffffffffffffffffff1673ffffffffffffffffffffffffffffffffffffffff16815260200190815260200160002060009054906101000a900460ff166135de576040517f08c379a00000000000000000000000000000000000000000000000000000000081526004016135d590617274565b60405180910390fd5b601160008273ffffffffffffffffffffffffffffffffffffffff1673ffffffffffffffffffffffffffffffffffffffff16815260200190815260200160002060009054906101000a900460ff1661366a576040517f08c379a0000000000000000000000000000000000000000000000000000000008152600401613661906172e0565b60405180910390fd5b81600a60008373ffffffffffffffffffffffffffffffffffffffff1673ffffffffffffffffffffffffffffffffffffffff16815260200190815260200160002060040160006101000a81548173ffffffffffffffffffffffffffffffffffffffff021916908373ffffffffffffffffffffffffffffffffffffffff16021790555080600c60008473ffffffffffffffffffffffffffffffffffffffff1673ffffffffffffffffffffffffffffffffffffffff16815260200190815260200160002060020160006101000a81548173ffffffffffffffffffffffffffffffffffffffff021916908373ffffffffffffffffffffffffffffffffffffffff1602179055505050565b600160009054906101000a900473ffffffffffffffffffffffffffffffffffffffff1673ffffffffffffffffffffffffffffffffffffffff163373ffffffffffffffffffffffffffffffffffffffff1614613800576040517f08c379a00000000000000000000000000000000000000000000000000000000081526004016137f7906162dc565b60405180910390fd5b8173ffffffffffffffffffffffffffffffffffffffff168273ffffffffffffffffffffffffffffffffffffffff161461386e576040517f08c379a00000000000000000000000000000000000000000000000000000000081526004016138659061734c565b60405180910390fd5b601260008373ffffffffffffffffffffffffffffffffffffffff1673ffffffffffffffffffffffffffffffffffffffff16815260200190815260200160002060009054906101000a900460ff16156138fb576040517f08c379a00000000000000000000000000000000000000000000000000000000081526004016138f2906173b8565b60405180910390fd5b60405180606001604052808281526020018373ffffffffffffffffffffffffffffffffffffffff168152602001600073ffffffffffffffffffffffffffffffffffffffff16815250600c60008473ffffffffffffffffffffffffffffffffffffffff1673ffffffffffffffffffffffffffffffffffffffff16815260200190815260200160002060008201518160000190816139979190616cf7565b5060208201518160010160006101000a81548173ffffffffffffffffffffffffffffffffffffffff021916908373ffffffffffffffffffffffffffffffffffffffff16021790555060408201518160020160006101000a81548173ffffffffffffffffffffffffffffffffffffffff021916908373ffffffffffffffffffffffffffffffffffffffff160217905550905050613a676040518060400160405280600c81526020017f54656e616e742041646465640000000000000000000000000000000000000000815250614e4c565b613ad2600c60008473ffffffffffffffffffffffffffffffffffffffff1673ffffffffffffffffffffffffffffffffffffffff16815260200190815260200160002060020160009054906101000a900473ffffffffffffffffffffffffffffffffffffffff16614ee5565b600d829080600181540180825580915050600190039060005260206000200160009091909190916101000a81548173ffffffffffffffffffffffffffffffffffffffff021916908373ffffffffffffffffffffffffffffffffffffffff160217905550600e81908060018154018082558091505060019003906000526020600020016000909190919091509081613b699190616cf7565b506001601260008473ffffffffffffffffffffffffffffffffffffffff1673ffffffffffffffffffffffffffffffffffffffff16815260200190815260200160002060006101000a81548160ff0219169083151502179055505050565b60126020528060005260406000206000915054906101000a900460ff1681565b6060600160009054906101000a900473ffffffffffffffffffffffffffffffffffffffff1673ffffffffffffffffffffffffffffffffffffffff163373ffffffffffffffffffffffffffffffffffffffff1614613c78576040517f08c379a0000000000000000000000000000000000000000000000000000000008152600401613c6f906162dc565b60405180910390fd5b6013805480602002602001604051908101604052809291908181526020016000905b828210156140285783829060005260206000209060090201604051806101200160405290816000820160009054906101000a900473ffffffffffffffffffffffffffffffffffffffff1673ffffffffffffffffffffffffffffffffffffffff1673ffffffffffffffffffffffffffffffffffffffff16815260200160018201548152602001600282015481526020016003820160009054906101000a900460ff16151515158152602001600482018054613d539061625f565b80601f0160208091040260200160405190810160405280929190818152602001828054613d7f9061625f565b8015613dcc5780601f10613da157610100808354040283529160200191613dcc565b820191906000526020600020905b815481529060010190602001808311613daf57829003601f168201915b50505050508152602001600582018054613de59061625f565b80601f0160208091040260200160405190810160405280929190818152602001828054613e119061625f565b8015613e5e5780601f10613e3357610100808354040283529160200191613e5e565b820191906000526020600020905b815481529060010190602001808311613e4157829003601f168201915b50505050508152602001600682018054613e779061625f565b80601f0160208091040260200160405190810160405280929190818152602001828054613ea39061625f565b8015613ef05780601f10613ec557610100808354040283529160200191613ef0565b820191906000526020600020905b815481529060010190602001808311613ed357829003601f168201915b50505050508152602001600782018054613f099061625f565b80601f0160208091040260200160405190810160405280929190818152602001828054613f359061625f565b8015613f825780601f10613f5757610100808354040283529160200191613f82565b820191906000526020600020905b815481529060010190602001808311613f6557829003601f168201915b505050505081526020016008820180548060200260200160405190810160405280929190818152602001828054801561401057602002820191906000526020600020905b8160009054906101000a900473ffffffffffffffffffffffffffffffffffffffff1673ffffffffffffffffffffffffffffffffffffffff1681526020019060010190808311613fc6575b50505050508152505081526020019060010190613c9a565b50505050905090565b600160009054906101000a900473ffffffffffffffffffffffffffffffffffffffff1673ffffffffffffffffffffffffffffffffffffffff163373ffffffffffffffffffffffffffffffffffffffff16146140c1576040517f08c379a00000000000000000000000000000000000000000000000000000000081526004016140b8906162dc565b60405180910390fd5b600a60008373ffffffffffffffffffffffffffffffffffffffff1673ffffffffffffffffffffffffffffffffffffffff16815260200190815260200160002060040160149054906101000a900460ff1615614151576040517f08c379a000000000000000000000000000000000000000000000000000000000815260040161414890617424565b60405180910390fd5b6040518060c001604052808581526020018481526020018373ffffffffffffffffffffffffffffffffffffffff168152602001828152602001600073ffffffffffffffffffffffffffffffffffffffff16815260200160011515815250600a60008473ffffffffffffffffffffffffffffffffffffffff1673ffffffffffffffffffffffffffffffffffffffff16815260200190815260200160002060008201518160000190816142029190616cf7565b5060208201518160010190816142189190616cf7565b5060408201518160020160006101000a81548173ffffffffffffffffffffffffffffffffffffffff021916908373ffffffffffffffffffffffffffffffffffffffff16021790555060608201518160030190816142759190616cf7565b5060808201518160040160006101000a81548173ffffffffffffffffffffffffffffffffffffffff021916908373ffffffffffffffffffffffffffffffffffffffff16021790555060a08201518160040160146101000a81548160ff0219169083151502179055509050506001601160008473ffffffffffffffffffffffffffffffffffffffff1673ffffffffffffffffffffffffffffffffffffffff16815260200190815260200160002060006101000a81548160ff021916908315150217905550600b829080600181540180825580915050600190039060005260206000200160009091909190916101000a81548173ffffffffffffffffffffffffffffffffffffffff021916908373ffffffffffffffffffffffffffffffffffffffff1602179055508173ffffffffffffffffffffffffffffffffffffffff167f49678145bcf4dcaf25c4bff4c2bd8262ee07185373d0e2c241598420b8e4d7318585846040516143e593929190617444565b60405180910390a250505050565b6060601260003373ffffffffffffffffffffffffffffffffffffffff1673ffffffffffffffffffffffffffffffffffffffff16815260200190815260200160002060009054906101000a900460ff16614481576040517f08c379a000000000000000000000000000000000000000000000000000000000815260040161447890616fe2565b60405180910390fd5b600c60008373ffffffffffffffffffffffffffffffffffffffff1673ffffffffffffffffffffffffffffffffffffffff16815260200190815260200160002060000180546144ce9061625f565b80601f01602080910402602001604051908101604052809291908181526020018280546144fa9061625f565b80156145475780601f1061451c57610100808354040283529160200191614547565b820191906000526020600020905b81548152906001019060200180831161452a57829003601f168201915b50505050509050919050565b601160003373ffffffffffffffffffffffffffffffffffffffff1673ffffffffffffffffffffffffffffffffffffffff16815260200190815260200160002060009054906101000a900460ff1680156145f85750600a60003373ffffffffffffffffffffffffffffffffffffffff1673ffffffffffffffffffffffffffffffffffffffff16815260200190815260200160002060040160149054906101000a900460ff165b614637576040517f08c379a000000000000000000000000000000000000000000000000000000000815260040161462e9061707b565b60405180910390fd5b601060003373ffffffffffffffffffffffffffffffffffffffff1673ffffffffffffffffffffffffffffffffffffffff1681526020019081526020016000208282909180600181540180825580915050600190039060005260206000200160009091929091929091929091925091826146b192919061749b565b505050565b60008054906101000a900473ffffffffffffffffffffffffffffffffffffffff1681565b600160009054906101000a900473ffffffffffffffffffffffffffffffffffffffff1681565b6060600160009054906101000a900473ffffffffffffffffffffffffffffffffffffffff1673ffffffffffffffffffffffffffffffffffffffff163373ffffffffffffffffffffffffffffffffffffffff1614806148405750601260003373ffffffffffffffffffffffffffffffffffffffff1673ffffffffffffffffffffffffffffffffffffffff16815260200190815260200160002060009054906101000a900460ff16801561483f57508173ffffffffffffffffffffffffffffffffffffffff16600c60003373ffffffffffffffffffffffffffffffffffffffff1673ffffffffffffffffffffffffffffffffffffffff16815260200190815260200160002060020160009054906101000a900473ffffffffffffffffffffffffffffffffffffffff1673ffffffffffffffffffffffffffffffffffffffff16145b5b61487f576040517f08c379a000000000000000000000000000000000000000000000000000000000815260040161487690616210565b60405180910390fd5b600f60008373ffffffffffffffffffffffffffffffffffffffff1673ffffffffffffffffffffffffffffffffffffffff168152602001908152602001600020805480602002602001604051908101604052809291908181526020016000905b82821015614a48578382906000526020600020906004020160405180608001604052908160008201548152602001600182015481526020016002820180546149259061625f565b80601f01602080910402602001604051908101604052809291908181526020018280546149519061625f565b801561499e5780601f106149735761010080835404028352916020019161499e565b820191906000526020600020905b81548152906001019060200180831161498157829003601f168201915b505050505081526020016003820180546149b79061625f565b80601f01602080910402602001604051908101604052809291908181526020018280546149e39061625f565b8015614a305780601f10614a0557610100808354040283529160200191614a30565b820191906000526020600020905b815481529060010190602001808311614a1357829003601f168201915b505050505081525050815260200190600101906148de565b505050509050919050565b6000601260003373ffffffffffffffffffffffffffffffffffffffff1673ffffffffffffffffffffffffffffffffffffffff16815260200190815260200160002060009054906101000a900460ff16614ae1576040517f08c379a0000000000000000000000000000000000000000000000000000000008152600401614ad890616fe2565b60405180910390fd5b600c60008373ffffffffffffffffffffffffffffffffffffffff1673ffffffffffffffffffffffffffffffffffffffff16815260200190815260200160002060020160009054906101000a900473ffffffffffffffffffffffffffffffffffffffff169050919050565b600c602052806000526040600020600091509050806000018054614b6e9061625f565b80601f0160208091040260200160405190810160405280929190818152602001828054614b9a9061625f565b8015614be75780601f10614bbc57610100808354040283529160200191614be7565b820191906000526020600020905b815481529060010190602001808311614bca57829003601f168201915b5050505050908060010160009054906101000a900473ffffffffffffffffffffffffffffffffffffffff16908060020160009054906101000a900473ffffffffffffffffffffffffffffffffffffffff16905083565b6060600160009054906101000a900473ffffffffffffffffffffffffffffffffffffffff1673ffffffffffffffffffffffffffffffffffffffff163373ffffffffffffffffffffffffffffffffffffffff1603614cd1576040518060400160405280600581526020017f61646d696e0000000000000000000000000000000000000000000000000000008152509050614e28565b601160003373ffffffffffffffffffffffffffffffffffffffff1673ffffffffffffffffffffffffffffffffffffffff16815260200190815260200160002060009054906101000a900460ff1615614d60576040518060400160405280600a81526020017f736d6172744d65746572000000000000000000000000000000000000000000008152509050614e28565b601260003373ffffffffffffffffffffffffffffffffffffffff1673ffffffffffffffffffffffffffffffffffffffff16815260200190815260200160002060009054906101000a900460ff1615614def576040518060400160405280600681526020017f74656e616e7400000000000000000000000000000000000000000000000000008152509050614e28565b6040518060400160405280600781526020017f756e6b6e6f776e0000000000000000000000000000000000000000000000000081525090505b90565b60006a636f6e736f6c652e6c6f679050600080835160208501845afa505050565b614ee281604051602401614e60919061549f565b6040516020818303038152906040527f41304fac000000000000000000000000000000000000000000000000000000007bffffffffffffffffffffffffffffffffffffffffffffffffffffffff19166020820180517bffffffffffffffffffffffffffffffffffffffffffffffffffffffff8381831617835250505050614f7e565b50565b614f7b81604051602401614ef99190615592565b6040516020818303038152906040527f2c2ecbc2000000000000000000000000000000000000000000000000000000007bffffffffffffffffffffffffffffffffffffffffffffffffffffffff19166020820180517bffffffffffffffffffffffffffffffffffffffffffffffffffffffff8381831617835250505050614f7e565b50565b614f9581614f8d614e2b614f98565b63ffffffff16565b50565b614fa3819050919050565b614fab61756b565b565b6040518060c001604052806060815260200160608152602001600073ffffffffffffffffffffffffffffffffffffffff16815260200160608152602001600073ffffffffffffffffffffffffffffffffffffffff1681526020016000151581525090565b50805461501d9061625f565b6000825580601f1061502f575061504e565b601f01602090049060005260206000209081019061504d9190615118565b5b50565b8280548282559060005260206000209081019282156150ca579160200282015b828111156150c95782518260006101000a81548173ffffffffffffffffffffffffffffffffffffffff021916908373ffffffffffffffffffffffffffffffffffffffff16021790555091602001919060010190615071565b5b5090506150d79190615118565b5090565b6040518060e00160405280606081526020016060815260200160608152602001606081526020016060815260200160608152602001606081525090565b5b80821115615131576000816000905550600101615119565b5090565b6000604051905090565b600080fd5b600080fd5b600073ffffffffffffffffffffffffffffffffffffffff82169050919050565b600061517482615149565b9050919050565b61518481615169565b811461518f57600080fd5b50565b6000813590506151a18161517b565b92915050565b6000602082840312156151bd576151bc61513f565b5b60006151cb84828501615192565b91505092915050565b600081519050919050565b600082825260208201905092915050565b60005b8381101561520e5780820151818401526020810190506151f3565b60008484015250505050565b6000601f19601f8301169050919050565b6000615236826151d4565b61524081856151df565b93506152508185602086016151f0565b6152598161521a565b840191505092915050565b61526d81615169565b82525050565b60008115159050919050565b61528881615273565b82525050565b600060c08301600083015184820360008601526152ab828261522b565b915050602083015184820360208601526152c5828261522b565b91505060408301516152da6040860182615264565b50606083015184820360608601526152f2828261522b565b91505060808301516153076080860182615264565b5060a083015161531a60a086018261527f565b508091505092915050565b6000602082019050818103600083015261533f818461528e565b905092915050565b600082825260208201905092915050565b6000615363826151d4565b61536d8185615347565b935061537d8185602086016151f0565b6153868161521a565b840191505092915050565b61539a81615169565b82525050565b6153a981615273565b82525050565b600060c08201905081810360008301526153c98189615358565b905081810360208301526153dd8188615358565b90506153ec6040830187615391565b81810360608301526153fe8186615358565b905061540d6080830185615391565b61541a60a08301846153a0565b979650505050505050565b6000819050919050565b600061544a61544561544084615149565b615425565b615149565b9050919050565b600061545c8261542f565b9050919050565b600061546e82615451565b9050919050565b61547e81615463565b82525050565b60006020820190506154996000830184615475565b92915050565b600060208201905081810360008301526154b98184615358565b905092915050565b600081519050919050565b600082825260208201905092915050565b6000819050602082019050919050565b60006154f98383615264565b60208301905092915050565b6000602082019050919050565b600061551d826154c1565b61552781856154cc565b9350615532836154dd565b8060005b8381101561556357815161554a88826154ed565b975061555583615505565b925050600181019050615536565b5085935050505092915050565b6000602082019050818103600083015261558a8184615512565b905092915050565b60006020820190506155a76000830184615391565b92915050565b6000819050919050565b6155c0816155ad565b81146155cb57600080fd5b50565b6000813590506155dd816155b7565b92915050565b600080fd5b600080fd5b600080fd5b60008083601f840112615608576156076155e3565b5b8235905067ffffffffffffffff811115615625576156246155e8565b5b602083019150836001820283011115615641576156406155ed565b5b9250929050565b60008083601f84011261565e5761565d6155e3565b5b8235905067ffffffffffffffff81111561567b5761567a6155e8565b5b602083019150836020820283011115615697576156966155ed565b5b9250929050565b60008060008060008060008060008060c08b8d0312156156c1576156c061513f565b5b60006156cf8d828e016155ce565b9a505060206156e08d828e016155ce565b99505060408b013567ffffffffffffffff81111561570157615700615144565b5b61570d8d828e016155f2565b985098505060608b013567ffffffffffffffff8111156157305761572f615144565b5b61573c8d828e016155f2565b965096505060808b013567ffffffffffffffff81111561575f5761575e615144565b5b61576b8d828e016155f2565b945094505060a08b013567ffffffffffffffff81111561578e5761578d615144565b5b61579a8d828e01615648565b92509250509295989b9194979a5092959850565b600060e08301600083015184820360008601526157cb828261522b565b915050602083015184820360208601526157e5828261522b565b915050604083015184820360408601526157ff828261522b565b91505060608301518482036060860152615819828261522b565b91505060808301518482036080860152615833828261522b565b91505060a083015184820360a086015261584d828261522b565b91505060c083015184820360c0860152615867828261522b565b9150508091505092915050565b6000602082019050818103600083015261588e81846157ae565b905092915050565b600081519050919050565b600082825260208201905092915050565b6000819050602082019050919050565b60006158ce838361522b565b905092915050565b6000602082019050919050565b60006158ee82615896565b6158f881856158a1565b93508360208202850161590a856158b2565b8060005b85811015615946578484038952815161592785826158c2565b9450615932836158d6565b925060208a0199505060018101905061590e565b50829750879550505050505092915050565b600060608201905081810360008301526159728186615512565b905081810360208301526159868185615512565b9050818103604083015261599a81846158e3565b9050949350505050565b600080604083850312156159bb576159ba61513f565b5b60006159c985828601615192565b92505060206159da85828601615192565b9150509250929050565b600081519050919050565b600082825260208201905092915050565b6000819050602082019050919050565b615a19816155ad565b82525050565b600081519050919050565b600082825260208201905092915050565b6000615a4682615a1f565b615a508185615a2a565b9350615a608185602086016151f0565b615a698161521a565b840191505092915050565b600082825260208201905092915050565b6000615a90826154c1565b615a9a8185615a74565b9350615aa5836154dd565b8060005b83811015615ad6578151615abd88826154ed565b9750615ac883615505565b925050600181019050615aa9565b5085935050505092915050565b600061012083016000830151615afc6000860182615264565b506020830151615b0f6020860182615a10565b506040830151615b226040860182615a10565b506060830151615b35606086018261527f565b5060808301518482036080860152615b4d8282615a3b565b91505060a083015184820360a0860152615b67828261522b565b91505060c083015184820360c0860152615b81828261522b565b91505060e083015184820360e0860152615b9b828261522b565b915050610100830151848203610100860152615bb78282615a85565b9150508091505092915050565b6000615bd08383615ae3565b905092915050565b6000602082019050919050565b6000615bf0826159e4565b615bfa81856159ef565b935083602082028501615c0c85615a00565b8060005b85811015615c485784840389528151615c298582615bc4565b9450615c3483615bd8565b925060208a01995050600181019050615c10565b50829750879550505050505092915050565b60006020820190508181036000830152615c748184615be5565b905092915050565b615c85816155ad565b82525050565b6000602082019050615ca06000830184615c7c565b92915050565b60008060008060008060808789031215615cc357615cc261513f565b5b6000615cd189828a016155ce565b9650506020615ce289828a016155ce565b955050604087013567ffffffffffffffff811115615d0357615d02615144565b5b615d0f89828a016155f2565b9450945050606087013567ffffffffffffffff811115615d3257615d31615144565b5b615d3e89828a016155f2565b92509250509295509295509295565b600080fd5b7f4e487b7100000000000000000000000000000000000000000000000000000000600052604160045260246000fd5b615d8a8261521a565b810181811067ffffffffffffffff82111715615da957615da8615d52565b5b80604052505050565b6000615dbc615135565b9050615dc88282615d81565b919050565b600067ffffffffffffffff821115615de857615de7615d52565b5b615df18261521a565b9050602081019050919050565b82818337600083830152505050565b6000615e20615e1b84615dcd565b615db2565b905082815260208101848484011115615e3c57615e3b615d4d565b5b615e47848285615dfe565b509392505050565b600082601f830112615e6457615e636155e3565b5b8135615e74848260208601615e0d565b91505092915050565b60008060408385031215615e9457615e9361513f565b5b6000615ea285828601615192565b925050602083013567ffffffffffffffff811115615ec357615ec2615144565b5b615ecf85828601615e4f565b9150509250929050565b6000602082019050615eee60008301846153a0565b92915050565b60008060008060808587031215615f0e57615f0d61513f565b5b600085013567ffffffffffffffff811115615f2c57615f2b615144565b5b615f3887828801615e4f565b945050602085013567ffffffffffffffff811115615f5957615f58615144565b5b615f6587828801615e4f565b9350506040615f7687828801615192565b925050606085013567ffffffffffffffff811115615f9757615f96615144565b5b615fa387828801615e4f565b91505092959194509250565b60008060208385031215615fc657615fc561513f565b5b600083013567ffffffffffffffff811115615fe457615fe3615144565b5b615ff0858286016155f2565b92509250509250929050565b600061600782615451565b9050919050565b61601781615ffc565b82525050565b6000602082019050616032600083018461600e565b92915050565b600081519050919050565b600082825260208201905092915050565b6000819050602082019050919050565b600060808301600083015161607c6000860182615a10565b50602083015161608f6020860182615a10565b50604083015184820360408601526160a7828261522b565b915050606083015184820360608601526160c1828261522b565b9150508091505092915050565b60006160da8383616064565b905092915050565b6000602082019050919050565b60006160fa82616038565b6161048185616043565b93508360208202850161611685616054565b8060005b85811015616152578484038952815161613385826160ce565b945061613e836160e2565b925060208a0199505060018101905061611a565b50829750879550505050505092915050565b6000602082019050818103600083015261617e81846160ef565b905092915050565b600060608201905081810360008301526161a08186615358565b90506161af6020830185615391565b6161bc6040830184615391565b949350505050565b7f4e6f7420617574686f72697a6564000000000000000000000000000000000000600082015250565b60006161fa600e83615347565b9150616205826161c4565b602082019050919050565b60006020820190508181036000830152616229816161ed565b9050919050565b7f4e487b7100000000000000000000000000000000000000000000000000000000600052602260045260246000fd5b6000600282049050600182168061627757607f821691505b60208210810361628a57616289616230565b5b50919050565b7f4f6e6c79206d6173746572000000000000000000000000000000000000000000600082015250565b60006162c6600b83615347565b91506162d182616290565b602082019050919050565b600060208201905081810360008301526162f5816162b9565b9050919050565b7f4e487b7100000000000000000000000000000000000000000000000000000000600052603260045260246000fd5b7f4e487b7100000000000000000000000000000000000000000000000000000000600052601160045260246000fd5b6000616365826155ad565b9150616370836155ad565b92508282039050818111156163885761638761632b565b5b92915050565b7f4e487b7100000000000000000000000000000000000000000000000000000000600052603160045260246000fd5b6000815490506163cc8161625f565b9050919050565b60008190508160005260206000209050919050565b60008190508160005260206000209050919050565b60006020601f8301049050919050565b600082821b905092915050565b60006008830261644a7fffffffffffffffffffffffffffffffffffffffffffffffffffffffffffffffff8261640d565b616454868361640d565b95508019841693508086168417925050509392505050565b600061648761648261647d846155ad565b615425565b6155ad565b9050919050565b6000819050919050565b6164a18361646c565b6164b56164ad8261648e565b84845461641a565b825550505050565b600090565b6164ca6164bd565b6164d5818484616498565b505050565b5b818110156164f9576164ee6000826164c2565b6001810190506164db565b5050565b601f82111561653e5761650f816163d3565b616518846163fd565b81016020851015616527578190505b61653b616533856163fd565b8301826164da565b50505b505050565b600082821c905092915050565b600061656160001984600802616543565b1980831691505092915050565b600061657a8383616550565b9150826002028217905092915050565b818103616598575050616670565b6165a1826163bd565b67ffffffffffffffff8111156165ba576165b9615d52565b5b6165c4825461625f565b6165cf8282856164fd565b6000601f8311600181146165fe57600084156165ec578287015490505b6165f6858261656e565b865550616669565b601f19841661660c876163e8565b9650616617866163d3565b60005b8281101561663f5784890154825560018201915060018501945060208101905061661a565b8683101561665c5784890154616658601f891682616550565b8355505b6001600288020188555050505b5050505050505b565b7f556e617574686f72697a65640000000000000000000000000000000000000000600082015250565b60006166a8600c83615347565b91506166b382616672565b602082019050919050565b600060208201905081810360008301526166d78161669b565b9050919050565b6000610120830160008301516166f76000860182615264565b50602083015161670a6020860182615a10565b50604083015161671d6040860182615a10565b506060830151616730606086018261527f565b50608083015184820360808601526167488282615a3b565b91505060a083015184820360a0860152616762828261522b565b91505060c083015184820360c086015261677c828261522b565b91505060e083015184820360e0860152616796828261522b565b9150506101008301518482036101008601526167b28282615a85565b9150508091505092915050565b600060208201905081810360008301526167d981846166de565b905092915050565b600080fd5b600080fd5b6000815190506167fa8161517b565b92915050565b60008151905061680f816155b7565b92915050565b61681e81615273565b811461682957600080fd5b50565b60008151905061683b81616815565b92915050565b600067ffffffffffffffff82111561685c5761685b615d52565b5b6168658261521a565b9050602081019050919050565b600061688561688084616841565b615db2565b9050828152602081018484840111156168a1576168a0615d4d565b5b6168ac8482856151f0565b509392505050565b600082601f8301126168c9576168c86155e3565b5b81516168d9848260208601616872565b91505092915050565b60006168f56168f084615dcd565b615db2565b90508281526020810184848401111561691157616910615d4d565b5b61691c8482856151f0565b509392505050565b600082601f830112616939576169386155e3565b5b81516169498482602086016168e2565b91505092915050565b600067ffffffffffffffff82111561696d5761696c615d52565b5b602082029050602081019050919050565b600061699161698c84616952565b615db2565b905080838252602082019050602084028301858111156169b4576169b36155ed565b5b835b818110156169dd57806169c988826167eb565b8452602084019350506020810190506169b6565b5050509392505050565b600082601f8301126169fc576169fb6155e3565b5b8151616a0c84826020860161697e565b91505092915050565b60006101208284031215616a2c57616a2b6167e1565b5b616a37610120615db2565b90506000616a47848285016167eb565b6000830152506020616a5b84828501616800565b6020830152506040616a6f84828501616800565b6040830152506060616a838482850161682c565b606083015250608082015167ffffffffffffffff811115616aa757616aa66167e6565b5b616ab3848285016168b4565b60808301525060a082015167ffffffffffffffff811115616ad757616ad66167e6565b5b616ae384828501616924565b60a08301525060c082015167ffffffffffffffff811115616b0757616b066167e6565b5b616b1384828501616924565b60c08301525060e082015167ffffffffffffffff811115616b3757616b366167e6565b5b616b4384828501616924565b60e08301525061010082015167ffffffffffffffff811115616b6857616b676167e6565b5b616b74848285016169e7565b6101008301525092915050565b600060208284031215616b9757616b9661513f565b5b600082015167ffffffffffffffff811115616bb557616bb4615144565b5b616bc184828501616a15565b91505092915050565b60008190508160005260206000209050919050565b601f821115616c2057616bf181616bca565b616bfa846163fd565b81016020851015616c09578190505b616c1d616c15856163fd565b8301826164da565b50505b505050565b616c2e82615a1f565b67ffffffffffffffff811115616c4757616c46615d52565b5b616c51825461625f565b616c5c828285616bdf565b600060209050601f831160018114616c8f5760008415616c7d578287015190505b616c87858261656e565b865550616cef565b601f198416616c9d86616bca565b60005b82811015616cc557848901518255600182019150602085019450602081019050616ca0565b86831015616ce25784890151616cde601f891682616550565b8355505b6001600288020188555050505b505050505050565b616d00826151d4565b67ffffffffffffffff811115616d1957616d18615d52565b5b616d23825461625f565b616d2e8282856164fd565b600060209050601f831160018114616d615760008415616d4f578287015190505b616d59858261656e565b865550616dc1565b601f198416616d6f866163d3565b60005b82811015616d9757848901518255600182019150602085019450602081019050616d72565b86831015616db45784890151616db0601f891682616550565b8355505b6001600288020188555050505b505050505050565b7f4e487b7100000000000000000000000000000000000000000000000000000000600052601260045260246000fd5b6000616e03826155ad565b9150616e0e836155ad565b925082616e1e57616e1d616dc9565b5b828204905092915050565b6000604082019050616e3e6000830185615391565b616e4b6020830184615c7c565b9392505050565b7f496e76616c696420616464726573730000000000000000000000000000000000600082015250565b6000616e88600f83615347565b9150616e9382616e52565b602082019050919050565b60006020820190508181036000830152616eb781616e7b565b9050919050565b7f536d617274204d65746572206e6f7420666f756e640000000000000000000000600082015250565b6000616ef4601583615347565b9150616eff82616ebe565b602082019050919050565b60006020820190508181036000830152616f2381616ee7565b9050919050565b7f536d617274204d65746572206e6f742061737369676e65640000000000000000600082015250565b6000616f60601883615347565b9150616f6b82616f2a565b602082019050919050565b60006020820190508181036000830152616f8f81616f53565b9050919050565b7f4e6f742077686974656c69737465642074656e616e7400000000000000000000600082015250565b6000616fcc601683615347565b9150616fd782616f96565b602082019050919050565b60006020820190508181036000830152616ffb81616fbf565b9050919050565b6000602082840312156170185761701761513f565b5b600061702684828501616800565b91505092915050565b7f4e6f7420612077686974656c697374656420616374697665206d657465720000600082015250565b6000617065601e83615347565b91506170708261702f565b602082019050919050565b6000602082019050818103600083015261709481617058565b9050919050565b60006170a6826155ad565b91506170b1836155ad565b92508282026170bf816155ad565b915082820484148315176170d6576170d561632b565b5b5092915050565b600081905092915050565b7f48454154494e47205265636f7264656420627920534d4152544d45544552204960008201527f443a200000000000000000000000000000000000000000000000000000000000602082015250565b60006171446023836170dd565b915061714f826170e8565b602382019050919050565b600081546171678161625f565b61717181866170dd565b9450600182166000811461718c57600181146171a1576171d4565b60ff19831686528115158202860193506171d4565b6171aa856163d3565b60005b838110156171cc578154818901526001820191506020810190506171ad565b838801955050505b50505092915050565b60006171e882617137565b91506171f4828461715a565b915081905092915050565b60006040820190506172146000830185615c7c565b6172216020830184615c7c565b9392505050565b7f54656e616e74206e6f7420666f756e6400000000000000000000000000000000600082015250565b600061725e601083615347565b915061726982617228565b602082019050919050565b6000602082019050818103600083015261728d81617251565b9050919050565b7f536d6172744d65746572206e6f7420666f756e64000000000000000000000000600082015250565b60006172ca601483615347565b91506172d582617294565b602082019050919050565b600060208201905081810360008301526172f9816172bd565b9050919050565b7f496e76616c696420416464726573730000000000000000000000000000000000600082015250565b6000617336600f83615347565b915061734182617300565b602082019050919050565b6000602082019050818103600083015261736581617329565b9050919050565b7f54656e616e7420616c7265616479206578697374730000000000000000000000600082015250565b60006173a2601583615347565b91506173ad8261736c565b602082019050919050565b600060208201905081810360008301526173d181617395565b9050919050565b7f4d6574657220616c726561647920657869737473000000000000000000000000600082015250565b600061740e601483615347565b9150617419826173d8565b602082019050919050565b6000602082019050818103600083015261743d81617401565b9050919050565b6000606082019050818103600083015261745e8186615358565b905081810360208301526174728185615358565b905081810360408301526174868184615358565b9050949350505050565b600082905092915050565b6174a58383617490565b67ffffffffffffffff8111156174be576174bd615d52565b5b6174c8825461625f565b6174d38282856164fd565b6000601f83116001811461750257600084156174f0578287013590505b6174fa858261656e565b865550617562565b601f198416617510866163d3565b60005b8281101561753857848901358255600182019150602085019450602081019050617513565b868310156175555784890135617551601f891682616550565b8355505b6001600288020188555050505b50505050505050565b7f4e487b7100000000000000000000000000000000000000000000000000000000600052605160045260246000fdfea26469706673582212202a60b5d641b04599c2a12c97e436456c54968c70cfea59362617c21e662b100664736f6c634300081c00336080604052600160075534801561001557600080fd5b50604051611fe6380380611fe6833981810160405281019061003791906104b0565b6040518060400160405280600b81526020017f54656e637920546f6b656e0000000000000000000000000000000000000000008152506040518060400160405280600481526020017f544e43590000000000000000000000000000000000000000000000000000000081525081600390816100b2919061072d565b5080600490816100c2919061072d565b50505080600660006101000a81548173ffffffffffffffffffffffffffffffffffffffff021916908373ffffffffffffffffffffffffffffffffffffffff1602179055506101203369d3c21bcecceda10000006101a060201b60201c565b600160056000600660009054906101000a900473ffffffffffffffffffffffffffffffffffffffff1673ffffffffffffffffffffffffffffffffffffffff1673ffffffffffffffffffffffffffffffffffffffff16815260200190815260200160002060006101000a81548160ff021916908315150217905550506108ed565b600073ffffffffffffffffffffffffffffffffffffffff168273ffffffffffffffffffffffffffffffffffffffff16036102125760006040517fec442f05000000000000000000000000000000000000000000000000000000008152600401610209919061080e565b60405180910390fd5b6102246000838361022860201b60201c565b5050565b600073ffffffffffffffffffffffffffffffffffffffff168373ffffffffffffffffffffffffffffffffffffffff160361027a57806002600082825461026e9190610858565b9250508190555061034d565b60008060008573ffffffffffffffffffffffffffffffffffffffff1673ffffffffffffffffffffffffffffffffffffffff16815260200190815260200160002054905081811015610306578381836040517fe450d38c0000000000000000000000000000000000000000000000000000000081526004016102fd9392919061089b565b60405180910390fd5b8181036000808673ffffffffffffffffffffffffffffffffffffffff1673ffffffffffffffffffffffffffffffffffffffff16815260200190815260200160002081905550505b600073ffffffffffffffffffffffffffffffffffffffff168273ffffffffffffffffffffffffffffffffffffffff160361039657806002600082825403925050819055506103e3565b806000808473ffffffffffffffffffffffffffffffffffffffff1673ffffffffffffffffffffffffffffffffffffffff168152602001908152602001600020600082825401925050819055505b8173ffffffffffffffffffffffffffffffffffffffff168373ffffffffffffffffffffffffffffffffffffffff167fddf252ad1be2c89b69c2b068fc378daa952ba7f163c4a11628f55a4df523b3ef8360405161044091906108d2565b60405180910390a3505050565b600080fd5b600073ffffffffffffffffffffffffffffffffffffffff82169050919050565b600061047d82610452565b9050919050565b61048d81610472565b811461049857600080fd5b50565b6000815190506104aa81610484565b92915050565b6000602082840312156104c6576104c561044d565b5b60006104d48482850161049b565b91505092915050565b600081519050919050565b7f4e487b7100000000000000000000000000000000000000000000000000000000600052604160045260246000fd5b7f4e487b7100000000000000000000000000000000000000000000000000000000600052602260045260246000fd5b6000600282049050600182168061055e57607f821691505b60208210810361057157610570610517565b5b50919050565b60008190508160005260206000209050919050565b60006020601f8301049050919050565b600082821b905092915050565b6000600883026105d97fffffffffffffffffffffffffffffffffffffffffffffffffffffffffffffffff8261059c565b6105e3868361059c565b95508019841693508086168417925050509392505050565b6000819050919050565b6000819050919050565b600061062a610625610620846105fb565b610605565b6105fb565b9050919050565b6000819050919050565b6106448361060f565b61065861065082610631565b8484546105a9565b825550505050565b600090565b61066d610660565b61067881848461063b565b505050565b5b8181101561069c57610691600082610665565b60018101905061067e565b5050565b601f8211156106e1576106b281610577565b6106bb8461058c565b810160208510156106ca578190505b6106de6106d68561058c565b83018261067d565b50505b505050565b600082821c905092915050565b6000610704600019846008026106e6565b1980831691505092915050565b600061071d83836106f3565b9150826002028217905092915050565b610736826104dd565b67ffffffffffffffff81111561074f5761074e6104e8565b5b6107598254610546565b6107648282856106a0565b600060209050601f8311600181146107975760008415610785578287015190505b61078f8582610711565b8655506107f7565b601f1984166107a586610577565b60005b828110156107cd578489015182556001820191506020850194506020810190506107a8565b868310156107ea57848901516107e6601f8916826106f3565b8355505b6001600288020188555050505b505050505050565b61080881610472565b82525050565b600060208201905061082360008301846107ff565b92915050565b7f4e487b7100000000000000000000000000000000000000000000000000000000600052601160045260246000fd5b6000610863826105fb565b915061086e836105fb565b925082820190508082111561088657610885610829565b5b92915050565b610895816105fb565b82525050565b60006060820190506108b060008301866107ff565b6108bd602083018561088c565b6108ca604083018461088c565b949350505050565b60006020820190506108e7600083018461088c565b92915050565b6116ea806108fc6000396000f3fe608060405234801561001057600080fd5b50600436106101005760003560e01c80635dcd3e3311610097578063a9059cbb11610066578063a9059cbb146102af578063bd493ad1146102df578063dd62ed3e146102fb578063f5a1f5b41461032b57610100565b80635dcd3e331461022957806370a08231146102455780637f6f9d9b1461027557806395d89b411461029157610100565b806323b872dd116100d357806323b872dd146101a1578063313ce567146101d1578063320ab051146101ef57806340c10f191461020d57610100565b806306fdde0314610105578063095ea7b3146101235780630ece9cb41461015357806318160ddd14610183575b600080fd5b61010d610347565b60405161011a919061127c565b60405180910390f35b61013d60048036038101906101389190611337565b6103d9565b60405161014a9190611392565b60405180910390f35b61016d600480360381019061016891906113ad565b6103fc565b60405161017a9190611392565b60405180910390f35b61018b61041c565b60405161019891906113e9565b60405180910390f35b6101bb60048036038101906101b69190611404565b610426565b6040516101c89190611392565b60405180910390f35b6101d9610455565b6040516101e69190611473565b60405180910390f35b6101f761045e565b60405161020491906113e9565b60405180910390f35b61022760048036038101906102229190611337565b610464565b005b610243600480360381019061023e91906113ad565b610556565b005b61025f600480360381019061025a91906113ad565b610695565b60405161026c91906113e9565b60405180910390f35b61028f600480360381019061028a919061148e565b6106dd565b005b6102996107cb565b6040516102a6919061127c565b60405180910390f35b6102c960048036038101906102c49190611337565b61085d565b6040516102d69190611392565b60405180910390f35b6102f960048036038101906102f49190611337565b610880565b005b610315600480360381019061031091906114bb565b6109ee565b60405161032291906113e9565b60405180910390f35b610345600480360381019061034091906113ad565b610a75565b005b6060600380546103569061152a565b80601f01602080910402602001604051908101604052809291908181526020018280546103829061152a565b80156103cf5780601f106103a4576101008083540402835291602001916103cf565b820191906000526020600020905b8154815290600101906020018083116103b257829003601f168201915b5050505050905090565b6000806103e4610b49565b90506103f1818585610b51565b600191505092915050565b60056020528060005260406000206000915054906101000a900460ff1681565b6000600254905090565b600080610431610b49565b905061043e858285610b63565b610449858585610bf8565b60019150509392505050565b60006012905090565b60075481565b600560003373ffffffffffffffffffffffffffffffffffffffff1673ffffffffffffffffffffffffffffffffffffffff16815260200190815260200160002060009054906101000a900460ff16806105095750600660009054906101000a900473ffffffffffffffffffffffffffffffffffffffff1673ffffffffffffffffffffffffffffffffffffffff163373ffffffffffffffffffffffffffffffffffffffff16145b610548576040517f08c379a000000000000000000000000000000000000000000000000000000000815260040161053f906115a7565b60405180910390fd5b6105528282610cec565b5050565b600560003373ffffffffffffffffffffffffffffffffffffffff1673ffffffffffffffffffffffffffffffffffffffff16815260200190815260200160002060009054906101000a900460ff16806105fb5750600660009054906101000a900473ffffffffffffffffffffffffffffffffffffffff1673ffffffffffffffffffffffffffffffffffffffff163373ffffffffffffffffffffffffffffffffffffffff16145b61063a576040517f08c379a0000000000000000000000000000000000000000000000000000000008152600401610631906115a7565b60405180910390fd5b6001600560008373ffffffffffffffffffffffffffffffffffffffff1673ffffffffffffffffffffffffffffffffffffffff16815260200190815260200160002060006101000a81548160ff02191690831515021790555050565b60008060008373ffffffffffffffffffffffffffffffffffffffff1673ffffffffffffffffffffffffffffffffffffffff168152602001908152602001600020549050919050565b600560003373ffffffffffffffffffffffffffffffffffffffff1673ffffffffffffffffffffffffffffffffffffffff16815260200190815260200160002060009054906101000a900460ff16806107825750600660009054906101000a900473ffffffffffffffffffffffffffffffffffffffff1673ffffffffffffffffffffffffffffffffffffffff163373ffffffffffffffffffffffffffffffffffffffff16145b6107c1576040517f08c379a00000000000000000000000000000000000000000000000000000000081526004016107b8906115a7565b60405180910390fd5b8060078190555050565b6060600480546107da9061152a565b80601f01602080910402602001604051908101604052809291908181526020018280546108069061152a565b80156108535780601f1061082857610100808354040283529160200191610853565b820191906000526020600020905b81548152906001019060200180831161083657829003601f168201915b5050505050905090565b600080610868610b49565b9050610875818585610bf8565b600191505092915050565b600560003373ffffffffffffffffffffffffffffffffffffffff1673ffffffffffffffffffffffffffffffffffffffff16815260200190815260200160002060009054906101000a900460ff16806109255750600660009054906101000a900473ffffffffffffffffffffffffffffffffffffffff1673ffffffffffffffffffffffffffffffffffffffff163373ffffffffffffffffffffffffffffffffffffffff16145b610964576040517f08c379a000000000000000000000000000000000000000000000000000000000815260040161095b906115a7565b60405180910390fd5b61096e8282610d6e565b61099a600660009054906101000a900473ffffffffffffffffffffffffffffffffffffffff1682610cec565b8173ffffffffffffffffffffffffffffffffffffffff167f5ee81488a8c866569c02800403bbf9145d931cf759737ed853eedb84dbb5a9e382426040516109e29291906115c7565b60405180910390a25050565b6000600160008473ffffffffffffffffffffffffffffffffffffffff1673ffffffffffffffffffffffffffffffffffffffff16815260200190815260200160002060008373ffffffffffffffffffffffffffffffffffffffff1673ffffffffffffffffffffffffffffffffffffffff16815260200190815260200160002054905092915050565b600660009054906101000a900473ffffffffffffffffffffffffffffffffffffffff1673ffffffffffffffffffffffffffffffffffffffff163373ffffffffffffffffffffffffffffffffffffffff1614610b05576040517f08c379a0000000000000000000000000000000000000000000000000000000008152600401610afc906115a7565b60405180910390fd5b80600660006101000a81548173ffffffffffffffffffffffffffffffffffffffff021916908373ffffffffffffffffffffffffffffffffffffffff16021790555050565b600033905090565b610b5e8383836001610df0565b505050565b6000610b6f84846109ee565b90507fffffffffffffffffffffffffffffffffffffffffffffffffffffffffffffffff811015610bf25781811015610be2578281836040517ffb8f41b2000000000000000000000000000000000000000000000000000000008152600401610bd9939291906115ff565b60405180910390fd5b610bf184848484036000610df0565b5b50505050565b600073ffffffffffffffffffffffffffffffffffffffff168373ffffffffffffffffffffffffffffffffffffffff1603610c6a5760006040517f96c6fd1e000000000000000000000000000000000000000000000000000000008152600401610c619190611636565b60405180910390fd5b600073ffffffffffffffffffffffffffffffffffffffff168273ffffffffffffffffffffffffffffffffffffffff1603610cdc5760006040517fec442f05000000000000000000000000000000000000000000000000000000008152600401610cd39190611636565b60405180910390fd5b610ce7838383610fc7565b505050565b600073ffffffffffffffffffffffffffffffffffffffff168273ffffffffffffffffffffffffffffffffffffffff1603610d5e5760006040517fec442f05000000000000000000000000000000000000000000000000000000008152600401610d559190611636565b60405180910390fd5b610d6a60008383610fc7565b5050565b600073ffffffffffffffffffffffffffffffffffffffff168273ffffffffffffffffffffffffffffffffffffffff1603610de05760006040517f96c6fd1e000000000000000000000000000000000000000000000000000000008152600401610dd79190611636565b60405180910390fd5b610dec82600083610fc7565b5050565b600073ffffffffffffffffffffffffffffffffffffffff168473ffffffffffffffffffffffffffffffffffffffff1603610e625760006040517fe602df05000000000000000000000000000000000000000000000000000000008152600401610e599190611636565b60405180910390fd5b600073ffffffffffffffffffffffffffffffffffffffff168373ffffffffffffffffffffffffffffffffffffffff1603610ed45760006040517f94280d62000000000000000000000000000000000000000000000000000000008152600401610ecb9190611636565b60405180910390fd5b81600160008673ffffffffffffffffffffffffffffffffffffffff1673ffffffffffffffffffffffffffffffffffffffff16815260200190815260200160002060008573ffffffffffffffffffffffffffffffffffffffff1673ffffffffffffffffffffffffffffffffffffffff168152602001908152602001600020819055508015610fc1578273ffffffffffffffffffffffffffffffffffffffff168473ffffffffffffffffffffffffffffffffffffffff167f8c5be1e5ebec7d5bd14f71427d1e84f3dd0314c0f7b2291e5b200ac8c7c3b92584604051610fb891906113e9565b60405180910390a35b50505050565b600073ffffffffffffffffffffffffffffffffffffffff168373ffffffffffffffffffffffffffffffffffffffff160361101957806002600082825461100d9190611680565b925050819055506110ec565b60008060008573ffffffffffffffffffffffffffffffffffffffff1673ffffffffffffffffffffffffffffffffffffffff168152602001908152602001600020549050818110156110a5578381836040517fe450d38c00000000000000000000000000000000000000000000000000000000815260040161109c939291906115ff565b60405180910390fd5b8181036000808673ffffffffffffffffffffffffffffffffffffffff1673ffffffffffffffffffffffffffffffffffffffff16815260200190815260200160002081905550505b600073ffffffffffffffffffffffffffffffffffffffff168273ffffffffffffffffffffffffffffffffffffffff16036111355780600260008282540392505081905550611182565b806000808473ffffffffffffffffffffffffffffffffffffffff1673ffffffffffffffffffffffffffffffffffffffff168152602001908152602001600020600082825401925050819055505b8173ffffffffffffffffffffffffffffffffffffffff168373ffffffffffffffffffffffffffffffffffffffff167fddf252ad1be2c89b69c2b068fc378daa952ba7f163c4a11628f55a4df523b3ef836040516111df91906113e9565b60405180910390a3505050565b600081519050919050565b600082825260208201905092915050565b60005b8381101561122657808201518184015260208101905061120b565b60008484015250505050565b6000601f19601f8301169050919050565b600061124e826111ec565b61125881856111f7565b9350611268818560208601611208565b61127181611232565b840191505092915050565b600060208201905081810360008301526112968184611243565b905092915050565b600080fd5b600073ffffffffffffffffffffffffffffffffffffffff82169050919050565b60006112ce826112a3565b9050919050565b6112de816112c3565b81146112e957600080fd5b50565b6000813590506112fb816112d5565b92915050565b6000819050919050565b61131481611301565b811461131f57600080fd5b50565b6000813590506113318161130b565b92915050565b6000806040838503121561134e5761134d61129e565b5b600061135c858286016112ec565b925050602061136d85828601611322565b9150509250929050565b60008115159050919050565b61138c81611377565b82525050565b60006020820190506113a76000830184611383565b92915050565b6000602082840312156113c3576113c261129e565b5b60006113d1848285016112ec565b91505092915050565b6113e381611301565b82525050565b60006020820190506113fe60008301846113da565b92915050565b60008060006060848603121561141d5761141c61129e565b5b600061142b868287016112ec565b935050602061143c868287016112ec565b925050604061144d86828701611322565b9150509250925092565b600060ff82169050919050565b61146d81611457565b82525050565b60006020820190506114886000830184611464565b92915050565b6000602082840312156114a4576114a361129e565b5b60006114b284828501611322565b91505092915050565b600080604083850312156114d2576114d161129e565b5b60006114e0858286016112ec565b92505060206114f1858286016112ec565b9150509250929050565b7f4e487b7100000000000000000000000000000000000000000000000000000000600052602260045260246000fd5b6000600282049050600182168061154257607f821691505b602082108103611555576115546114fb565b5b50919050565b7f556e617574686f72697a65640000000000000000000000000000000000000000600082015250565b6000611591600c836111f7565b915061159c8261155b565b602082019050919050565b600060208201905081810360008301526115c081611584565b9050919050565b60006040820190506115dc60008301856113da565b6115e960208301846113da565b9392505050565b6115f9816112c3565b82525050565b600060608201905061161460008301866115f0565b61162160208301856113da565b61162e60408301846113da565b949350505050565b600060208201905061164b60008301846115f0565b92915050565b7f4e487b7100000000000000000000000000000000000000000000000000000000600052601160045260246000fd5b600061168b82611301565b915061169683611301565b92508282019050808211156116ae576116ad611651565b5b9291505056fea26469706673582212202d6ba8550895acedad84dc608e080aa24adb517616455a40e2c1d9238dcefb0d64736f6c634300081c0033608060405234801561001057600080fd5b50604051611191380380611191833981810160405281019061003291906100dc565b80600160006101000a81548173ffffffffffffffffffffffffffffffffffffffff021916908373ffffffffffffffffffffffffffffffffffffffff16021790555050610109565b600080fd5b600073ffffffffffffffffffffffffffffffffffffffff82169050919050565b60006100a98261007e565b9050919050565b6100b98161009e565b81146100c457600080fd5b50565b6000815190506100d6816100b0565b92915050565b6000602082840312156100f2576100f1610079565b5b6000610100848285016100c7565b91505092915050565b611079806101186000396000f3fe608060405234801561001057600080fd5b506004361061004c5760003560e01c80633fe4676e14610051578063481c6a751461006f5780634be731d01461008d578063aef18bf7146100bd575b600080fd5b6100596100ed565b604051610066919061043f565b60405180910390f35b610077610113565b604051610084919061043f565b60405180910390f35b6100a760048036038101906100a2919061092d565b610139565b6040516100b49190610c07565b60405180910390f35b6100d760048036038101906100d29190610c5f565b61037a565b6040516100e49190610c9b565b60405180910390f35b600260009054906101000a900473ffffffffffffffffffffffffffffffffffffffff1681565b600160009054906101000a900473ffffffffffffffffffffffffffffffffffffffff1681565b61014161039a565b600160009054906101000a900473ffffffffffffffffffffffffffffffffffffffff1673ffffffffffffffffffffffffffffffffffffffff163373ffffffffffffffffffffffffffffffffffffffff16146101d1576040517f08c379a00000000000000000000000000000000000000000000000000000000081526004016101c890610d13565b60405180910390fd5b816060015115610216576040517f08c379a000000000000000000000000000000000000000000000000000000000815260040161020d90610d7f565b60405180910390fd5b600073ffffffffffffffffffffffffffffffffffffffff16826000015173ffffffffffffffffffffffffffffffffffffffff1603610289576040517f08c379a000000000000000000000000000000000000000000000000000000000815260040161028090610deb565b60405180910390fd5b6000829050600181606001901515908115158152505060008360000151846020015185604001518660a001518760c001518860e00151896101000151466040516020016102dd989796959493929190610ec2565b604051602081830303815290604052805190602001209050806040516020016103069190610f7d565b60405160208183030381529060405282608001819052507fcf0ac668d71947d2a0a24588f61f6b12243dc1b3b299f2d1bbf3383a248a1d4b8260000151836020015184604001518560a001518660800151604051610368959493929190610fe2565b60405180910390a18192505050919050565b60006020528060005260406000206000915054906101000a900460ff1681565b604051806101200160405280600073ffffffffffffffffffffffffffffffffffffffff168152602001600081526020016000815260200160001515815260200160608152602001606081526020016060815260200160608152602001606081525090565b600073ffffffffffffffffffffffffffffffffffffffff82169050919050565b6000610429826103fe565b9050919050565b6104398161041e565b82525050565b60006020820190506104546000830184610430565b92915050565b6000604051905090565b600080fd5b600080fd5b600080fd5b6000601f19601f8301169050919050565b7f4e487b7100000000000000000000000000000000000000000000000000000000600052604160045260246000fd5b6104bc82610473565b810181811067ffffffffffffffff821117156104db576104da610484565b5b80604052505050565b60006104ee61045a565b90506104fa82826104b3565b919050565b600080fd5b61050d8161041e565b811461051857600080fd5b50565b60008135905061052a81610504565b92915050565b6000819050919050565b61054381610530565b811461054e57600080fd5b50565b6000813590506105608161053a565b92915050565b60008115159050919050565b61057b81610566565b811461058657600080fd5b50565b60008135905061059881610572565b92915050565b600080fd5b600080fd5b600067ffffffffffffffff8211156105c3576105c2610484565b5b6105cc82610473565b9050602081019050919050565b82818337600083830152505050565b60006105fb6105f6846105a8565b6104e4565b905082815260208101848484011115610617576106166105a3565b5b6106228482856105d9565b509392505050565b600082601f83011261063f5761063e61059e565b5b813561064f8482602086016105e8565b91505092915050565b600067ffffffffffffffff82111561067357610672610484565b5b61067c82610473565b9050602081019050919050565b600061069c61069784610658565b6104e4565b9050828152602081018484840111156106b8576106b76105a3565b5b6106c38482856105d9565b509392505050565b600082601f8301126106e0576106df61059e565b5b81356106f0848260208601610689565b91505092915050565b600067ffffffffffffffff82111561071457610713610484565b5b602082029050602081019050919050565b600080fd5b600061073d610738846106f9565b6104e4565b905080838252602082019050602084028301858111156107605761075f610725565b5b835b818110156107895780610775888261051b565b845260208401935050602081019050610762565b5050509392505050565b600082601f8301126107a8576107a761059e565b5b81356107b884826020860161072a565b91505092915050565b600061012082840312156107d8576107d761046e565b5b6107e36101206104e4565b905060006107f38482850161051b565b600083015250602061080784828501610551565b602083015250604061081b84828501610551565b604083015250606061082f84828501610589565b606083015250608082013567ffffffffffffffff811115610853576108526104ff565b5b61085f8482850161062a565b60808301525060a082013567ffffffffffffffff811115610883576108826104ff565b5b61088f848285016106cb565b60a08301525060c082013567ffffffffffffffff8111156108b3576108b26104ff565b5b6108bf848285016106cb565b60c08301525060e082013567ffffffffffffffff8111156108e3576108e26104ff565b5b6108ef848285016106cb565b60e08301525061010082013567ffffffffffffffff811115610914576109136104ff565b5b61092084828501610793565b6101008301525092915050565b60006020828403121561094357610942610464565b5b600082013567ffffffffffffffff81111561096157610960610469565b5b61096d848285016107c1565b91505092915050565b61097f8161041e565b82525050565b61098e81610530565b82525050565b61099d81610566565b82525050565b600081519050919050565b600082825260208201905092915050565b60005b838110156109dd5780820151818401526020810190506109c2565b60008484015250505050565b60006109f4826109a3565b6109fe81856109ae565b9350610a0e8185602086016109bf565b610a1781610473565b840191505092915050565b600081519050919050565b600082825260208201905092915050565b6000610a4982610a22565b610a538185610a2d565b9350610a638185602086016109bf565b610a6c81610473565b840191505092915050565b600081519050919050565b600082825260208201905092915050565b6000819050602082019050919050565b6000610aaf8383610976565b60208301905092915050565b6000602082019050919050565b6000610ad382610a77565b610add8185610a82565b9350610ae883610a93565b8060005b83811015610b19578151610b008882610aa3565b9750610b0b83610abb565b925050600181019050610aec565b5085935050505092915050565b600061012083016000830151610b3f6000860182610976565b506020830151610b526020860182610985565b506040830151610b656040860182610985565b506060830151610b786060860182610994565b5060808301518482036080860152610b9082826109e9565b91505060a083015184820360a0860152610baa8282610a3e565b91505060c083015184820360c0860152610bc48282610a3e565b91505060e083015184820360e0860152610bde8282610a3e565b915050610100830151848203610100860152610bfa8282610ac8565b9150508091505092915050565b60006020820190508181036000830152610c218184610b26565b905092915050565b6000819050919050565b610c3c81610c29565b8114610c4757600080fd5b50565b600081359050610c5981610c33565b92915050565b600060208284031215610c7557610c74610464565b5b6000610c8384828501610c4a565b91505092915050565b610c9581610566565b82525050565b6000602082019050610cb06000830184610c8c565b92915050565b600082825260208201905092915050565b7f556e617574686f72697a65640000000000000000000000000000000000000000600082015250565b6000610cfd600c83610cb6565b9150610d0882610cc7565b602082019050919050565b60006020820190508181036000830152610d2c81610cf0565b9050919050565b7f457870656e736520616c72656164792076616c69646174656400000000000000600082015250565b6000610d69601983610cb6565b9150610d7482610d33565b602082019050919050565b60006020820190508181036000830152610d9881610d5c565b9050919050565b7f496e76616c696420697373756572000000000000000000000000000000000000600082015250565b6000610dd5600e83610cb6565b9150610de082610d9f565b602082019050919050565b60006020820190508181036000830152610e0481610dc8565b9050919050565b610e1481610530565b82525050565b6000610e2582610a22565b610e2f8185610cb6565b9350610e3f8185602086016109bf565b610e4881610473565b840191505092915050565b600082825260208201905092915050565b6000610e6f82610a77565b610e798185610e53565b9350610e8483610a93565b8060005b83811015610eb5578151610e9c8882610aa3565b9750610ea783610abb565b925050600181019050610e88565b5085935050505092915050565b600061010082019050610ed8600083018b610430565b610ee5602083018a610e0b565b610ef26040830189610e0b565b8181036060830152610f048188610e1a565b90508181036080830152610f188187610e1a565b905081810360a0830152610f2c8186610e1a565b905081810360c0830152610f408185610e64565b9050610f4f60e0830184610e0b565b9998505050505050505050565b6000819050919050565b610f77610f7282610c29565b610f5c565b82525050565b6000610f898284610f66565b60208201915081905092915050565b600082825260208201905092915050565b6000610fb4826109a3565b610fbe8185610f98565b9350610fce8185602086016109bf565b610fd781610473565b840191505092915050565b600060a082019050610ff76000830188610430565b6110046020830187610e0b565b6110116040830186610e0b565b81810360608301526110238185610e1a565b905081810360808301526110378184610fa9565b9050969550505050505056fea2646970667358221220c570de24e703f6d6bc119591078fb567e016ee6e8c2a3f18436bdb5f07ad2f6664736f6c634300081c0033",
  "linkReferences": {},
  "deployedLinkReferences": {}
}