{
  "_format": "hh-sol-artifact-1",
  "contractName": "TencyManagerFactory",
  "sourceName": "contracts/TencyManagerFactory.sol",
  "abi": [
    {
      "inputs": [],
      "stateMutability": "nonpayable",
      "type": "constructor"
    },
    {
      "anonymous": false,
      "inputs": [
        {
          "indexed": true,
          "internalType": "address",
          "name": "contractAddress",
          "type": "address"
        },
        {
          "indexed": true,
          "internalType": "address",
          "name": "creator",
          "type": "address"
        }
      ],
      "name": "ContractCreated",
      "type": "event"
    },
    {
      "inputs": [
        {
          "internalType": "address",
          "name": "_master",
          "type": "address"
        }
      ],
      "name": "addMasterParticipant",
      "outputs": [],
      "stateMutability": "nonpayable",
      "type": "function"
    },
    {
      "inputs": [
        {
          "internalType": "string",
          "name": "_name",
          "type": "string"
        },
        {
          "internalType": "string",
          "name": "_ownerName",
          "type": "string"
        },
        {
          "internalType": "address",
          "name": "_smartMeterAddress",
          "type": "address"
        },
        {
          "internalType": "string",
          "name": "_smartMeterId",
          "type": "string"
        },
        {
          "components": [
            {
              "internalType": "string",
              "name": "ownerName",
              "type": "string"
            },
            {
              "internalType": "string",
              "name": "streetName",
              "type": "string"
            },
            {
              "internalType": "string",
              "name": "cityCode",
              "type": "string"
            },
            {
              "internalType": "string",
              "name": "cityName",
              "type": "string"
            },
            {
              "internalType": "string",
              "name": "country",
              "type": "string"
            },
            {
              "internalType": "string",
              "name": "email",
              "type": "string"
            },
            {
              "internalType": "string",
              "name": "phone",
              "type": "string"
            }
          ],
          "internalType": "struct AddressInfo",
          "name": "_ownerContactInfo",
          "type": "tuple"
        }
      ],
      "name": "createCollectionContract",
      "outputs": [
        {
          "internalType": "address",
          "name": "",
          "type": "address"
        },
        {
          "components": [
            {
              "internalType": "string",
              "name": "ownerName",
              "type": "string"
            },
            {
              "internalType": "string",
              "name": "streetName",
              "type": "string"
            },
            {
              "internalType": "string",
              "name": "cityCode",
              "type": "string"
            },
            {
              "internalType": "string",
              "name": "cityName",
              "type": "string"
            },
            {
              "internalType": "string",
              "name": "country",
              "type": "string"
            },
            {
              "internalType": "string",
              "name": "email",
              "type": "string"
            },
            {
              "internalType": "string",
              "name": "phone",
              "type": "string"
            }
          ],
          "internalType": "struct AddressInfo",
          "name": "",
          "type": "tuple"
        }
      ],
      "stateMutability": "nonpayable",
      "type": "function"
    },
    {
      "inputs": [],
      "name": "getMasterContracts",
      "outputs": [
        {
          "internalType": "address[]",
          "name": "",
          "type": "address[]"
        }
      ],
      "stateMutability": "view",
      "type": "function"
    },
    {
      "inputs": [
        {
          "internalType": "address",
          "name": "",
          "type": "address"
        }
      ],
      "name": "isMasterParticipant",
      "outputs": [
        {
          "internalType": "bool",
          "name": "",
          "type": "bool"
        }
      ],
      "stateMutability": "view",
      "type": "function"
    },
    {
      "inputs": [
        {
          "internalType": "address",
          "name": "",
          "type": "address"
        },
        {
          "internalType": "uint256",
          "name": "",
          "type": "uint256"
        }
      ],
      "name": "masterContracts",
      "outputs": [
        {
          "internalType": "address",
          "name": "",
          "type": "address"
        }
      ],
      "stateMutability": "view",
      "type": "function"
    },
    {
      "inputs": [],
      "name": "masterParticipant",
      "outputs": [
        {
          "internalType": "address",
          "name": "",
          "type": "address"
        }
      ],
      "stateMutability": "view",
      "type": "function"
    }
  ],
  "bytecode": "0x6080604052348015600f57600080fd5b50336000806101000a81548173ffffffffffffffffffffffffffffffffffffffff021916908373ffffffffffffffffffffffffffffffffffffffff16021790555060018060003373ffffffffffffffffffffffffffffffffffffffff1673ffffffffffffffffffffffffffffffffffffffff16815260200190815260200160002060006101000a81548160ff02191690831515021790555061a4f5806100b66000396000f3fe608060405234801561001057600080fd5b50600436106100625760003560e01c806322fe8f331461006757806379aadcf7146100855780639885d945146100b55780639a8b0e66146100d35780639f014b0e14610104578063fb57b67214610120575b600080fd5b61006f610150565b60405161007c919061066c565b60405180910390f35b61009f600480360381019061009a91906106c7565b610174565b6040516100ac919061070f565b60405180910390f35b6100bd610194565b6040516100ca91906107e8565b60405180910390f35b6100ed60048036038101906100e89190610ad2565b61025f565b6040516100fb929190610d02565b60405180910390f35b61011e600480360381019061011991906106c7565b6104ab565b005b61013a60048036038101906101359190610d68565b610593565b604051610147919061066c565b60405180910390f35b60008054906101000a900473ffffffffffffffffffffffffffffffffffffffff1681565b60016020528060005260406000206000915054906101000a900460ff1681565b6060600260003373ffffffffffffffffffffffffffffffffffffffff1673ffffffffffffffffffffffffffffffffffffffff16815260200190815260200160002080548060200260200160405190810160405280929190818152602001828054801561025557602002820191906000526020600020905b8160009054906101000a900473ffffffffffffffffffffffffffffffffffffffff1673ffffffffffffffffffffffffffffffffffffffff168152602001906001019080831161020b575b5050505050905090565b60006102696105e1565b600160003373ffffffffffffffffffffffffffffffffffffffff1673ffffffffffffffffffffffffffffffffffffffff16815260200190815260200160002060009054906101000a900460ff166102f5576040517f08c379a00000000000000000000000000000000000000000000000000000000081526004016102ec90610e05565b60405180910390fd5b600033846040516103059061061e565b610310929190610d02565b604051809103906000f08015801561032c573d6000803e3d6000fd5b5090508073ffffffffffffffffffffffffffffffffffffffff1663babd9692898989896040518563ffffffff1660e01b815260040161036e9493929190610e5e565b600060405180830381600087803b15801561038857600080fd5b505af115801561039c573d6000803e3d6000fd5b50505050600260003373ffffffffffffffffffffffffffffffffffffffff1673ffffffffffffffffffffffffffffffffffffffff168152602001908152602001600020819080600181540180825580915050600190039060005260206000200160009091909190916101000a81548173ffffffffffffffffffffffffffffffffffffffff021916908373ffffffffffffffffffffffffffffffffffffffff1602179055503373ffffffffffffffffffffffffffffffffffffffff168173ffffffffffffffffffffffffffffffffffffffff167f2d49c67975aadd2d389580b368cfff5b49965b0bd5da33c144922ce01e7a4d7b60405160405180910390a3808492509250509550959350505050565b60008054906101000a900473ffffffffffffffffffffffffffffffffffffffff1673ffffffffffffffffffffffffffffffffffffffff163373ffffffffffffffffffffffffffffffffffffffff1614610539576040517f08c379a000000000000000000000000000000000000000000000000000000000815260040161053090610f04565b60405180910390fd5b60018060008373ffffffffffffffffffffffffffffffffffffffff1673ffffffffffffffffffffffffffffffffffffffff16815260200190815260200160002060006101000a81548160ff02191690831515021790555050565b600260205281600052604060002081815481106105af57600080fd5b906000526020600020016000915091509054906101000a900473ffffffffffffffffffffffffffffffffffffffff1681565b6040518060e00160405280606081526020016060815260200160608152602001606081526020016060815260200160608152602001606081525090565b61959b80610f2583390190565b600073ffffffffffffffffffffffffffffffffffffffff82169050919050565b60006106568261062b565b9050919050565b6106668161064b565b82525050565b6000602082019050610681600083018461065d565b92915050565b6000604051905090565b600080fd5b600080fd5b6106a48161064b565b81146106af57600080fd5b50565b6000813590506106c18161069b565b92915050565b6000602082840312156106dd576106dc610691565b5b60006106eb848285016106b2565b91505092915050565b60008115159050919050565b610709816106f4565b82525050565b60006020820190506107246000830184610700565b92915050565b600081519050919050565b600082825260208201905092915050565b6000819050602082019050919050565b61075f8161064b565b82525050565b60006107718383610756565b60208301905092915050565b6000602082019050919050565b60006107958261072a565b61079f8185610735565b93506107aa83610746565b8060005b838110156107db5781516107c28882610765565b97506107cd8361077d565b9250506001810190506107ae565b5085935050505092915050565b60006020820190508181036000830152610802818461078a565b905092915050565b600080fd5b600080fd5b6000601f19601f8301169050919050565b7f4e487b7100000000000000000000000000000000000000000000000000000000600052604160045260246000fd5b61085d82610814565b810181811067ffffffffffffffff8211171561087c5761087b610825565b5b80604052505050565b600061088f610687565b905061089b8282610854565b919050565b600067ffffffffffffffff8211156108bb576108ba610825565b5b6108c482610814565b9050602081019050919050565b82818337600083830152505050565b60006108f36108ee846108a0565b610885565b90508281526020810184848401111561090f5761090e61080f565b5b61091a8482856108d1565b509392505050565b600082601f8301126109375761093661080a565b5b81356109478482602086016108e0565b91505092915050565b600080fd5b600080fd5b600060e082840312156109705761096f610950565b5b61097a60e0610885565b9050600082013567ffffffffffffffff81111561099a57610999610955565b5b6109a684828501610922565b600083015250602082013567ffffffffffffffff8111156109ca576109c9610955565b5b6109d684828501610922565b602083015250604082013567ffffffffffffffff8111156109fa576109f9610955565b5b610a0684828501610922565b604083015250606082013567ffffffffffffffff811115610a2a57610a29610955565b5b610a3684828501610922565b606083015250608082013567ffffffffffffffff811115610a5a57610a59610955565b5b610a6684828501610922565b60808301525060a082013567ffffffffffffffff811115610a8a57610a89610955565b5b610a9684828501610922565b60a08301525060c082013567ffffffffffffffff811115610aba57610ab9610955565b5b610ac684828501610922565b60c08301525092915050565b600080600080600060a08688031215610aee57610aed610691565b5b600086013567ffffffffffffffff811115610b0c57610b0b610696565b5b610b1888828901610922565b955050602086013567ffffffffffffffff811115610b3957610b38610696565b5b610b4588828901610922565b9450506040610b56888289016106b2565b935050606086013567ffffffffffffffff811115610b7757610b76610696565b5b610b8388828901610922565b925050608086013567ffffffffffffffff811115610ba457610ba3610696565b5b610bb08882890161095a565b9150509295509295909350565b600081519050919050565b600082825260208201905092915050565b60005b83811015610bf7578082015181840152602081019050610bdc565b60008484015250505050565b6000610c0e82610bbd565b610c188185610bc8565b9350610c28818560208601610bd9565b610c3181610814565b840191505092915050565b600060e0830160008301518482036000860152610c598282610c03565b91505060208301518482036020860152610c738282610c03565b91505060408301518482036040860152610c8d8282610c03565b91505060608301518482036060860152610ca78282610c03565b91505060808301518482036080860152610cc18282610c03565b91505060a083015184820360a0860152610cdb8282610c03565b91505060c083015184820360c0860152610cf58282610c03565b9150508091505092915050565b6000604082019050610d17600083018561065d565b8181036020830152610d298184610c3c565b90509392505050565b6000819050919050565b610d4581610d32565b8114610d5057600080fd5b50565b600081359050610d6281610d3c565b92915050565b60008060408385031215610d7f57610d7e610691565b5b6000610d8d858286016106b2565b9250506020610d9e85828601610d53565b9150509250929050565b600082825260208201905092915050565b7f4f6e6c79206d6173746572207061727469636970616e74730000000000000000600082015250565b6000610def601883610da8565b9150610dfa82610db9565b602082019050919050565b60006020820190508181036000830152610e1e81610de2565b9050919050565b6000610e3082610bbd565b610e3a8185610da8565b9350610e4a818560208601610bd9565b610e5381610814565b840191505092915050565b60006080820190508181036000830152610e788187610e25565b90508181036020830152610e8c8186610e25565b9050610e9b604083018561065d565b8181036060830152610ead8184610e25565b905095945050505050565b7f4f6e6c79206d61696e206d617374657200000000000000000000000000000000600082015250565b6000610eee601083610da8565b9150610ef982610eb8565b602082019050919050565b60006020820190508181036000830152610f1d81610ee1565b905091905056fe608060405234801561001057600080fd5b5060405161959b38038061959b833981810160405281019061003291906106dc565b6100776040518060400160405280601781526020017f4372656174696e6720636f6c6c656374696f6e20666f720000000000000000008152508361026a60201b60201c565b816000806101000a81548173ffffffffffffffffffffffffffffffffffffffff021916908373ffffffffffffffffffffffffffffffffffffffff16021790555080600360008201518160000190816100cf9190610959565b5060208201518160010190816100e59190610959565b5060408201518160020190816100fb9190610959565b5060608201518160030190816101119190610959565b5060808201518160040190816101279190610959565b5060a082015181600501908161013d9190610959565b5060c08201518160060190816101539190610959565b509050503060405161016490610363565b61016e9190610a3a565b604051809103906000f08015801561018a573d6000803e3d6000fd5b50600160006101000a81548173ffffffffffffffffffffffffffffffffffffffff021916908373ffffffffffffffffffffffffffffffffffffffff16021790555081600160009054906101000a900473ffffffffffffffffffffffffffffffffffffffff166040516101fb90610370565b610206929190610aaa565b604051809103906000f080158015610222573d6000803e3d6000fd5b50600260006101000a81548173ffffffffffffffffffffffffffffffffffffffff021916908373ffffffffffffffffffffffffffffffffffffffff1602179055505050610b7c565b6103088282604051602401610280929190610b1d565b6040516020818303038152906040527f319af333000000000000000000000000000000000000000000000000000000007bffffffffffffffffffffffffffffffffffffffffffffffffffffffff19166020820180517bffffffffffffffffffffffffffffffffffffffffffffffffffffffff838183161783525050505061030c60201b60201c565b5050565b61032d8161032861033060201b6134391761035160201b60201c565b60201c565b50565b60006a636f6e736f6c652e6c6f679050600080835160208501845afa505050565b61037d60201b61345a17819050919050565b6118d680615dde83390190565b611ee7806176b483390190565b610385610b4d565b565b6000604051905090565b600080fd5b600080fd5b600073ffffffffffffffffffffffffffffffffffffffff82169050919050565b60006103c68261039b565b9050919050565b6103d6816103bb565b81146103e157600080fd5b50565b6000815190506103f3816103cd565b92915050565b600080fd5b6000601f19601f8301169050919050565b7f4e487b7100000000000000000000000000000000000000000000000000000000600052604160045260246000fd5b610447826103fe565b810181811067ffffffffffffffff821117156104665761046561040f565b5b80604052505050565b6000610479610387565b9050610485828261043e565b919050565b600080fd5b600080fd5b600080fd5b600067ffffffffffffffff8211156104b4576104b361040f565b5b6104bd826103fe565b9050602081019050919050565b60005b838110156104e85780820151818401526020810190506104cd565b60008484015250505050565b600061050761050284610499565b61046f565b90508281526020810184848401111561052357610522610494565b5b61052e8482856104ca565b509392505050565b600082601f83011261054b5761054a61048f565b5b815161055b8482602086016104f4565b91505092915050565b600060e0828403121561057a576105796103f9565b5b61058460e061046f565b9050600082015167ffffffffffffffff8111156105a4576105a361048a565b5b6105b084828501610536565b600083015250602082015167ffffffffffffffff8111156105d4576105d361048a565b5b6105e084828501610536565b602083015250604082015167ffffffffffffffff8111156106045761060361048a565b5b61061084828501610536565b604083015250606082015167ffffffffffffffff8111156106345761063361048a565b5b61064084828501610536565b606083015250608082015167ffffffffffffffff8111156106645761066361048a565b5b61067084828501610536565b60808301525060a082015167ffffffffffffffff8111156106945761069361048a565b5b6106a084828501610536565b60a08301525060c082015167ffffffffffffffff8111156106c4576106c361048a565b5b6106d084828501610536565b60c08301525092915050565b600080604083850312156106f3576106f2610391565b5b6000610701858286016103e4565b925050602083015167ffffffffffffffff81111561072257610721610396565b5b61072e85828601610564565b9150509250929050565b600081519050919050565b7f4e487b7100000000000000000000000000000000000000000000000000000000600052602260045260246000fd5b6000600282049050600182168061078a57607f821691505b60208210810361079d5761079c610743565b5b50919050565b60008190508160005260206000209050919050565b60006020601f8301049050919050565b600082821b905092915050565b6000600883026108057fffffffffffffffffffffffffffffffffffffffffffffffffffffffffffffffff826107c8565b61080f86836107c8565b95508019841693508086168417925050509392505050565b6000819050919050565b6000819050919050565b600061085661085161084c84610827565b610831565b610827565b9050919050565b6000819050919050565b6108708361083b565b61088461087c8261085d565b8484546107d5565b825550505050565b600090565b61089961088c565b6108a4818484610867565b505050565b5b818110156108c8576108bd600082610891565b6001810190506108aa565b5050565b601f82111561090d576108de816107a3565b6108e7846107b8565b810160208510156108f6578190505b61090a610902856107b8565b8301826108a9565b50505b505050565b600082821c905092915050565b600061093060001984600802610912565b1980831691505092915050565b6000610949838361091f565b9150826002028217905092915050565b61096282610738565b67ffffffffffffffff81111561097b5761097a61040f565b5b6109858254610772565b6109908282856108cc565b600060209050601f8311600181146109c357600084156109b1578287015190505b6109bb858261093d565b865550610a23565b601f1984166109d1866107a3565b60005b828110156109f9578489015182556001820191506020850194506020810190506109d4565b86831015610a165784890151610a12601f89168261091f565b8355505b6001600288020188555050505b505050505050565b610a34816103bb565b82525050565b6000602082019050610a4f6000830184610a2b565b92915050565b6000610a70610a6b610a668461039b565b610831565b61039b565b9050919050565b6000610a8282610a55565b9050919050565b6000610a9482610a77565b9050919050565b610aa481610a89565b82525050565b6000604082019050610abf6000830185610a2b565b610acc6020830184610a9b565b9392505050565b600082825260208201905092915050565b6000610aef82610738565b610af98185610ad3565b9350610b098185602086016104ca565b610b12816103fe565b840191505092915050565b60006040820190508181036000830152610b378185610ae4565b9050610b466020830184610a2b565b9392505050565b7f4e487b7100000000000000000000000000000000000000000000000000000000600052605160045260246000fd5b61525380610b8b6000396000f3fe608060405234801561001057600080fd5b50600436106101c45760003560e01c806382b2e257116100f9578063da4f1f3e11610097578063f11d5ea911610071578063f11d5ea9146104e8578063fba1f7b014610518578063fd9153a314610548578063fde0817414610579576101c4565b8063da4f1f3e1461047e578063de23dce0146104ae578063e7201d7d146104ca576101c4565b8063a5803945116100d3578063a5803945146103e4578063ae428d7814610414578063babd969214610432578063d57bc4151461044e576101c4565b806382b2e257146103a057806389160939146103be5780639439d743146103c8576101c4565b80632d7100701161016657806345a132aa1161014057806345a132aa146103175780634b1b27281461034757806353be7ded1461036557806363a3fa6114610384576101c4565b80632d710070146102c15780632dda7a72146102dd5780632fdfc25f146102f9576101c4565b8063145ef6e9116101a2578063145ef6e91461024b57806326ba1ff81461026957806326d6ec641461028757806328a11702146102a3576101c4565b806301e6f372146101c95780630d79f9c9146101e757806310f6a34314610217575b600080fd5b6101d1610597565b6040516101de91906135c4565b60405180910390f35b61020160048036038101906101fc9190613631565b6105bd565b60405161020e919061379c565b60405180910390f35b610231600480360381019061022c9190613631565b6109b8565b604051610242959493929190613826565b60405180910390f35b610253610bb3565b604051610260919061388e565b60405180910390f35b610271610c48565b60405161027e919061395f565b60405180910390f35b6102a1600480360381019061029c9190613ab6565b610d64565b005b6102ab610fb1565b6040516102b89190613b3e565b60405180910390f35b6102db60048036038101906102d69190613631565b611054565b005b6102f760048036038101906102f29190613b85565b6113c7565b005b61030161157c565b60405161030e9190613c24565b60405180910390f35b610331600480360381019061032c9190613631565b611689565b60405161033e9190613dc7565b60405180910390f35b61034f61184c565b60405161035c9190613eaf565b60405180910390f35b61036d611c64565b60405161037b929190613f93565b60405180910390f35b61039e60048036038101906103999190613fca565b611e5c565b005b6103a8611f7d565b6040516103b59190613b3e565b60405180910390f35b6103c6612103565b005b6103e260048036038101906103dd919061406a565b612376565b005b6103fe60048036038101906103f99190613631565b612605565b60405161040b9190614111565b60405180910390f35b61041c612625565b604051610429919061414d565b60405180910390f35b61044c60048036038101906104479190614168565b61264b565b005b61046860048036038101906104639190614223565b6129a7565b6040516104759190614111565b60405180910390f35b61049860048036038101906104939190613631565b612a51565b6040516104a5919061388e565b60405180910390f35b6104c860048036038101906104c3919061427f565b612bb1565b005b6104d2612d14565b6040516104df9190613c24565b60405180910390f35b61050260048036038101906104fd9190613631565b612d38565b60405161050f91906143f8565b60405180910390f35b610532600480360381019061052d9190613631565b613089565b60405161053f9190613c24565b60405180910390f35b610562600480360381019061055d9190613631565b613181565b60405161057092919061441a565b60405180910390f35b61058161324d565b60405161058e919061388e565b60405180910390f35b600260009054906101000a900473ffffffffffffffffffffffffffffffffffffffff1681565b6105c5613464565b60008054906101000a900473ffffffffffffffffffffffffffffffffffffffff1673ffffffffffffffffffffffffffffffffffffffff163373ffffffffffffffffffffffffffffffffffffffff1614806107015750601260003373ffffffffffffffffffffffffffffffffffffffff1673ffffffffffffffffffffffffffffffffffffffff16815260200190815260200160002060009054906101000a900460ff16801561070057508173ffffffffffffffffffffffffffffffffffffffff16600c60003373ffffffffffffffffffffffffffffffffffffffff1673ffffffffffffffffffffffffffffffffffffffff16815260200190815260200160002060010160009054906101000a900473ffffffffffffffffffffffffffffffffffffffff1673ffffffffffffffffffffffffffffffffffffffff16145b5b610740576040517f08c379a000000000000000000000000000000000000000000000000000000000815260040161073790614496565b60405180910390fd5b600a60008373ffffffffffffffffffffffffffffffffffffffff1673ffffffffffffffffffffffffffffffffffffffff1681526020019081526020016000206040518060a001604052908160008201805461079a906144e5565b80601f01602080910402602001604051908101604052809291908181526020018280546107c6906144e5565b80156108135780601f106107e857610100808354040283529160200191610813565b820191906000526020600020905b8154815290600101906020018083116107f657829003601f168201915b5050505050815260200160018201805461082c906144e5565b80601f0160208091040260200160405190810160405280929190818152602001828054610858906144e5565b80156108a55780601f1061087a576101008083540402835291602001916108a5565b820191906000526020600020905b81548152906001019060200180831161088857829003601f168201915b505050505081526020016002820160009054906101000a900473ffffffffffffffffffffffffffffffffffffffff1673ffffffffffffffffffffffffffffffffffffffff1673ffffffffffffffffffffffffffffffffffffffff168152602001600382018054610914906144e5565b80601f0160208091040260200160405190810160405280929190818152602001828054610940906144e5565b801561098d5780601f106109625761010080835404028352916020019161098d565b820191906000526020600020905b81548152906001019060200180831161097057829003601f168201915b505050505081526020016004820160009054906101000a900460ff1615151515815250509050919050565b600a6020528060005260406000206000915090508060000180546109db906144e5565b80601f0160208091040260200160405190810160405280929190818152602001828054610a07906144e5565b8015610a545780601f10610a2957610100808354040283529160200191610a54565b820191906000526020600020905b815481529060010190602001808311610a3757829003601f168201915b505050505090806001018054610a69906144e5565b80601f0160208091040260200160405190810160405280929190818152602001828054610a95906144e5565b8015610ae25780601f10610ab757610100808354040283529160200191610ae2565b820191906000526020600020905b815481529060010190602001808311610ac557829003601f168201915b5050505050908060020160009054906101000a900473ffffffffffffffffffffffffffffffffffffffff1690806003018054610b1d906144e5565b80601f0160208091040260200160405190810160405280929190818152602001828054610b49906144e5565b8015610b965780601f10610b6b57610100808354040283529160200191610b96565b820191906000526020600020905b815481529060010190602001808311610b7957829003601f168201915b5050505050908060040160009054906101000a900460ff16905085565b606060036000018054610bc5906144e5565b80601f0160208091040260200160405190810160405280929190818152602001828054610bf1906144e5565b8015610c3e5780601f10610c1357610100808354040283529160200191610c3e565b820191906000526020600020905b815481529060010190602001808311610c2157829003601f168201915b5050505050905090565b606060008054906101000a900473ffffffffffffffffffffffffffffffffffffffff1673ffffffffffffffffffffffffffffffffffffffff163373ffffffffffffffffffffffffffffffffffffffff1614610cd8576040517f08c379a0000000000000000000000000000000000000000000000000000000008152600401610ccf90614562565b60405180910390fd5b600b805480602002602001604051908101604052809291908181526020018280548015610d5a57602002820191906000526020600020905b8160009054906101000a900473ffffffffffffffffffffffffffffffffffffffff1673ffffffffffffffffffffffffffffffffffffffff1681526020019060010190808311610d10575b5050505050905090565b60008054906101000a900473ffffffffffffffffffffffffffffffffffffffff1673ffffffffffffffffffffffffffffffffffffffff163373ffffffffffffffffffffffffffffffffffffffff1614610df2576040517f08c379a0000000000000000000000000000000000000000000000000000000008152600401610de990614562565b60405180910390fd5b60405180604001604052808381526020018273ffffffffffffffffffffffffffffffffffffffff16815250600c60008573ffffffffffffffffffffffffffffffffffffffff1673ffffffffffffffffffffffffffffffffffffffff1681526020019081526020016000206000820151816000019081610e719190614724565b5060208201518160010160006101000a81548173ffffffffffffffffffffffffffffffffffffffff021916908373ffffffffffffffffffffffffffffffffffffffff160217905550905050600d839080600181540180825580915050600190039060005260206000200160009091909190916101000a81548173ffffffffffffffffffffffffffffffffffffffff021916908373ffffffffffffffffffffffffffffffffffffffff160217905550600e82908060018154018082558091505060019003906000526020600020016000909190919091509081610f539190614724565b506001601260008573ffffffffffffffffffffffffffffffffffffffff1673ffffffffffffffffffffffffffffffffffffffff16815260200190815260200160002060006101000a81548160ff021916908315150217905550505050565b6000600260009054906101000a900473ffffffffffffffffffffffffffffffffffffffff1673ffffffffffffffffffffffffffffffffffffffff1663755873c5336040518263ffffffff1660e01b815260040161100e9190613c24565b602060405180830381865afa15801561102b573d6000803e3d6000fd5b505050506040513d601f19601f8201168201806040525081019061104f919061480b565b905090565b60008054906101000a900473ffffffffffffffffffffffffffffffffffffffff1673ffffffffffffffffffffffffffffffffffffffff163373ffffffffffffffffffffffffffffffffffffffff16146110e2576040517f08c379a00000000000000000000000000000000000000000000000000000000081526004016110d990614562565b60405180910390fd5b6000601260008373ffffffffffffffffffffffffffffffffffffffff1673ffffffffffffffffffffffffffffffffffffffff16815260200190815260200160002060006101000a81548160ff02191690831515021790555060005b600d8054905081101561134a578173ffffffffffffffffffffffffffffffffffffffff16600d828154811061117557611174614838565b5b9060005260206000200160009054906101000a900473ffffffffffffffffffffffffffffffffffffffff1673ffffffffffffffffffffffffffffffffffffffff160361133d57600d6001600d805490506111cf9190614896565b815481106111e0576111df614838565b5b9060005260206000200160009054906101000a900473ffffffffffffffffffffffffffffffffffffffff16600d828154811061121f5761121e614838565b5b9060005260206000200160006101000a81548173ffffffffffffffffffffffffffffffffffffffff021916908373ffffffffffffffffffffffffffffffffffffffff160217905550600d805480611279576112786148ca565b5b6001900381819060005260206000200160006101000a81549073ffffffffffffffffffffffffffffffffffffffff02191690559055600e6001600e805490506112c29190614896565b815481106112d3576112d2614838565b5b90600052602060002001600e82815481106112f1576112f0614838565b5b9060005260206000200190816113079190614924565b50600e80548061131a576113196148ca565b5b60019003818190600052602060002001600061133691906134ab565b905561134a565b808060010191505061113d565b50600c60008273ffffffffffffffffffffffffffffffffffffffff1673ffffffffffffffffffffffffffffffffffffffff1681526020019081526020016000206000808201600061139b91906134ab565b6001820160006101000a81549073ffffffffffffffffffffffffffffffffffffffff0219169055505050565b60008054906101000a900473ffffffffffffffffffffffffffffffffffffffff1673ffffffffffffffffffffffffffffffffffffffff163373ffffffffffffffffffffffffffffffffffffffff1614611455576040517f08c379a000000000000000000000000000000000000000000000000000000000815260040161144c90614562565b60405180910390fd5b601260008573ffffffffffffffffffffffffffffffffffffffff1673ffffffffffffffffffffffffffffffffffffffff16815260200190815260200160002060009054906101000a900460ff166114e1576040517f08c379a00000000000000000000000000000000000000000000000000000000081526004016114d890614a58565b60405180910390fd5b600260009054906101000a900473ffffffffffffffffffffffffffffffffffffffff1673ffffffffffffffffffffffffffffffffffffffff1663a343fc1285338686866040518663ffffffff1660e01b8152600401611544959493929190614a78565b600060405180830381600087803b15801561155e57600080fd5b505af1158015611572573d6000803e3d6000fd5b5050505050505050565b60008060009054906101000a900473ffffffffffffffffffffffffffffffffffffffff1673ffffffffffffffffffffffffffffffffffffffff163373ffffffffffffffffffffffffffffffffffffffff1614806116225750601260003373ffffffffffffffffffffffffffffffffffffffff1673ffffffffffffffffffffffffffffffffffffffff16815260200190815260200160002060009054906101000a900460ff165b611661576040517f08c379a000000000000000000000000000000000000000000000000000000000815260040161165890614b25565b60405180910390fd5b600160009054906101000a900473ffffffffffffffffffffffffffffffffffffffff16905090565b606060008054906101000a900473ffffffffffffffffffffffffffffffffffffffff1673ffffffffffffffffffffffffffffffffffffffff163373ffffffffffffffffffffffffffffffffffffffff16148061176557508173ffffffffffffffffffffffffffffffffffffffff163373ffffffffffffffffffffffffffffffffffffffff161480156117645750601260008373ffffffffffffffffffffffffffffffffffffffff1673ffffffffffffffffffffffffffffffffffffffff16815260200190815260200160002060009054906101000a900460ff165b5b6117a4576040517f08c379a000000000000000000000000000000000000000000000000000000000815260040161179b90614496565b60405180910390fd5b600260009054906101000a900473ffffffffffffffffffffffffffffffffffffffff1673ffffffffffffffffffffffffffffffffffffffff166345a132aa836040518263ffffffff1660e01b81526004016117ff9190613c24565b600060405180830381865afa15801561181c573d6000803e3d6000fd5b505050506040513d6000823e3d601f19601f820116820180604052508101906118459190614de3565b9050919050565b6118546134eb565b60036040518060e0016040529081600082018054611871906144e5565b80601f016020809104026020016040519081016040528092919081815260200182805461189d906144e5565b80156118ea5780601f106118bf576101008083540402835291602001916118ea565b820191906000526020600020905b8154815290600101906020018083116118cd57829003601f168201915b50505050508152602001600182018054611903906144e5565b80601f016020809104026020016040519081016040528092919081815260200182805461192f906144e5565b801561197c5780601f106119515761010080835404028352916020019161197c565b820191906000526020600020905b81548152906001019060200180831161195f57829003601f168201915b50505050508152602001600282018054611995906144e5565b80601f01602080910402602001604051908101604052809291908181526020018280546119c1906144e5565b8015611a0e5780601f106119e357610100808354040283529160200191611a0e565b820191906000526020600020905b8154815290600101906020018083116119f157829003601f168201915b50505050508152602001600382018054611a27906144e5565b80601f0160208091040260200160405190810160405280929190818152602001828054611a53906144e5565b8015611aa05780601f10611a7557610100808354040283529160200191611aa0565b820191906000526020600020905b815481529060010190602001808311611a8357829003601f168201915b50505050508152602001600482018054611ab9906144e5565b80601f0160208091040260200160405190810160405280929190818152602001828054611ae5906144e5565b8015611b325780601f10611b0757610100808354040283529160200191611b32565b820191906000526020600020905b815481529060010190602001808311611b1557829003601f168201915b50505050508152602001600582018054611b4b906144e5565b80601f0160208091040260200160405190810160405280929190818152602001828054611b77906144e5565b8015611bc45780601f10611b9957610100808354040283529160200191611bc4565b820191906000526020600020905b815481529060010190602001808311611ba757829003601f168201915b50505050508152602001600682018054611bdd906144e5565b80601f0160208091040260200160405190810160405280929190818152602001828054611c09906144e5565b8015611c565780601f10611c2b57610100808354040283529160200191611c56565b820191906000526020600020905b815481529060010190602001808311611c3957829003601f168201915b505050505081525050905090565b60608060008054906101000a900473ffffffffffffffffffffffffffffffffffffffff1673ffffffffffffffffffffffffffffffffffffffff163373ffffffffffffffffffffffffffffffffffffffff1614611cf5576040517f08c379a0000000000000000000000000000000000000000000000000000000008152600401611cec90614562565b60405180910390fd5b600d600e81805480602002602001604051908101604052809291908181526020018280548015611d7a57602002820191906000526020600020905b8160009054906101000a900473ffffffffffffffffffffffffffffffffffffffff1673ffffffffffffffffffffffffffffffffffffffff1681526020019060010190808311611d30575b5050505050915080805480602002602001604051908101604052809291908181526020016000905b82821015611e4e578382906000526020600020018054611dc1906144e5565b80601f0160208091040260200160405190810160405280929190818152602001828054611ded906144e5565b8015611e3a5780601f10611e0f57610100808354040283529160200191611e3a565b820191906000526020600020905b815481529060010190602001808311611e1d57829003601f168201915b505050505081526020019060010190611da2565b505050509050915091509091565b60008054906101000a900473ffffffffffffffffffffffffffffffffffffffff1673ffffffffffffffffffffffffffffffffffffffff163373ffffffffffffffffffffffffffffffffffffffff1614611eea576040517f08c379a0000000000000000000000000000000000000000000000000000000008152600401611ee190614562565b60405180910390fd5b600160009054906101000a900473ffffffffffffffffffffffffffffffffffffffff1673ffffffffffffffffffffffffffffffffffffffff166340c10f1983836040518363ffffffff1660e01b8152600401611f47929190614e2c565b600060405180830381600087803b158015611f6157600080fd5b505af1158015611f75573d6000803e3d6000fd5b505050505050565b60008060009054906101000a900473ffffffffffffffffffffffffffffffffffffffff1673ffffffffffffffffffffffffffffffffffffffff163373ffffffffffffffffffffffffffffffffffffffff1614806120235750601260003373ffffffffffffffffffffffffffffffffffffffff1673ffffffffffffffffffffffffffffffffffffffff16815260200190815260200160002060009054906101000a900460ff165b612062576040517f08c379a000000000000000000000000000000000000000000000000000000000815260040161205990614496565b60405180910390fd5b600160009054906101000a900473ffffffffffffffffffffffffffffffffffffffff1673ffffffffffffffffffffffffffffffffffffffff166370a08231336040518263ffffffff1660e01b81526004016120bd9190613c24565b602060405180830381865afa1580156120da573d6000803e3d6000fd5b505050506040513d601f19601f820116820180604052508101906120fe919061480b565b905090565b60008054906101000a900473ffffffffffffffffffffffffffffffffffffffff1673ffffffffffffffffffffffffffffffffffffffff163373ffffffffffffffffffffffffffffffffffffffff1614612191576040517f08c379a000000000000000000000000000000000000000000000000000000000815260040161218890614562565b60405180910390fd5b6000600160009054906101000a900473ffffffffffffffffffffffffffffffffffffffff1673ffffffffffffffffffffffffffffffffffffffff166370a08231306040518263ffffffff1660e01b81526004016121ee9190613c24565b602060405180830381865afa15801561220b573d6000803e3d6000fd5b505050506040513d601f19601f8201168201806040525081019061222f919061480b565b905060008111612274576040517f08c379a000000000000000000000000000000000000000000000000000000000815260040161226b90614ea1565b60405180910390fd5b600160009054906101000a900473ffffffffffffffffffffffffffffffffffffffff1673ffffffffffffffffffffffffffffffffffffffff1663a9059cbb60008054906101000a900473ffffffffffffffffffffffffffffffffffffffff16836040518363ffffffff1660e01b81526004016122f1929190614e2c565b6020604051808303816000875af1158015612310573d6000803e3d6000fd5b505050506040513d601f19601f820116820180604052508101906123349190614ec1565b612373576040517f08c379a000000000000000000000000000000000000000000000000000000000815260040161236a90614f3a565b60405180910390fd5b50565b601160003373ffffffffffffffffffffffffffffffffffffffff1673ffffffffffffffffffffffffffffffffffffffff16815260200190815260200160002060009054906101000a900460ff16801561241b5750600a60003373ffffffffffffffffffffffffffffffffffffffff1673ffffffffffffffffffffffffffffffffffffffff16815260200190815260200160002060040160009054906101000a900460ff165b61245a576040517f08c379a000000000000000000000000000000000000000000000000000000000815260040161245190614fa6565b60405180910390fd5b600f60003373ffffffffffffffffffffffffffffffffffffffff1673ffffffffffffffffffffffffffffffffffffffff168152602001908152602001600020604051806080016040528088815260200187815260200186868080601f016020809104026020016040519081016040528093929190818152602001838380828437600081840152601f19601f82011690508083019250505050505050815260200184848080601f016020809104026020016040519081016040528093929190818152602001838380828437600081840152601f19601f820116905080830192505050505050508152509080600181540180825580915050600190039060005260206000209060040201600090919091909150600082015181600001556020820151816001015560408201518160020190816125949190614724565b5060608201518160030190816125aa9190614724565b5050503373ffffffffffffffffffffffffffffffffffffffff167f550066d608ea56e089cd4c6f3ccd9557109a2adf9eb1fc812763cbffe3a325d142876040516125f5929190614fc6565b60405180910390a2505050505050565b60126020528060005260406000206000915054906101000a900460ff1681565b600160009054906101000a900473ffffffffffffffffffffffffffffffffffffffff1681565b60008054906101000a900473ffffffffffffffffffffffffffffffffffffffff1673ffffffffffffffffffffffffffffffffffffffff163373ffffffffffffffffffffffffffffffffffffffff16146126d9576040517f08c379a00000000000000000000000000000000000000000000000000000000081526004016126d090614562565b60405180910390fd5b600a60008373ffffffffffffffffffffffffffffffffffffffff1673ffffffffffffffffffffffffffffffffffffffff16815260200190815260200160002060040160009054906101000a900460ff1615612769576040517f08c379a00000000000000000000000000000000000000000000000000000000081526004016127609061503b565b60405180910390fd5b6040518060a001604052808581526020018481526020018373ffffffffffffffffffffffffffffffffffffffff16815260200182815260200160011515815250600a60008473ffffffffffffffffffffffffffffffffffffffff1673ffffffffffffffffffffffffffffffffffffffff16815260200190815260200160002060008201518160000190816127fd9190614724565b5060208201518160010190816128139190614724565b5060408201518160020160006101000a81548173ffffffffffffffffffffffffffffffffffffffff021916908373ffffffffffffffffffffffffffffffffffffffff16021790555060608201518160030190816128709190614724565b5060808201518160040160006101000a81548160ff0219169083151502179055509050506001601160008473ffffffffffffffffffffffffffffffffffffffff1673ffffffffffffffffffffffffffffffffffffffff16815260200190815260200160002060006101000a81548160ff021916908315150217905550600b829080600181540180825580915050600190039060005260206000200160009091909190916101000a81548173ffffffffffffffffffffffffffffffffffffffff021916908373ffffffffffffffffffffffffffffffffffffffff1602179055508173ffffffffffffffffffffffffffffffffffffffff167f49678145bcf4dcaf25c4bff4c2bd8262ee07185373d0e2c241598420b8e4d7318585846040516129999392919061505b565b60405180910390a250505050565b6000600260009054906101000a900473ffffffffffffffffffffffffffffffffffffffff1673ffffffffffffffffffffffffffffffffffffffff1663f4858c6684846040518363ffffffff1660e01b8152600401612a0692919061441a565b6020604051808303816000875af1158015612a25573d6000803e3d6000fd5b505050506040513d601f19601f82011682018060405250810190612a499190614ec1565b905092915050565b6060601260003373ffffffffffffffffffffffffffffffffffffffff1673ffffffffffffffffffffffffffffffffffffffff16815260200190815260200160002060009054906101000a900460ff16612adf576040517f08c379a0000000000000000000000000000000000000000000000000000000008152600401612ad6906150f3565b60405180910390fd5b600c60008373ffffffffffffffffffffffffffffffffffffffff1673ffffffffffffffffffffffffffffffffffffffff1681526020019081526020016000206000018054612b2c906144e5565b80601f0160208091040260200160405190810160405280929190818152602001828054612b58906144e5565b8015612ba55780601f10612b7a57610100808354040283529160200191612ba5565b820191906000526020600020905b815481529060010190602001808311612b8857829003601f168201915b50505050509050919050565b601160003373ffffffffffffffffffffffffffffffffffffffff1673ffffffffffffffffffffffffffffffffffffffff16815260200190815260200160002060009054906101000a900460ff168015612c565750600a60003373ffffffffffffffffffffffffffffffffffffffff1673ffffffffffffffffffffffffffffffffffffffff16815260200190815260200160002060040160009054906101000a900460ff165b612c95576040517f08c379a0000000000000000000000000000000000000000000000000000000008152600401612c8c90614fa6565b60405180910390fd5b601060003373ffffffffffffffffffffffffffffffffffffffff1673ffffffffffffffffffffffffffffffffffffffff168152602001908152602001600020828290918060018154018082558091505060019003906000526020600020016000909192909192909192909192509182612d0f92919061511e565b505050565b60008054906101000a900473ffffffffffffffffffffffffffffffffffffffff1681565b606060008054906101000a900473ffffffffffffffffffffffffffffffffffffffff1673ffffffffffffffffffffffffffffffffffffffff163373ffffffffffffffffffffffffffffffffffffffff161480612e765750601260003373ffffffffffffffffffffffffffffffffffffffff1673ffffffffffffffffffffffffffffffffffffffff16815260200190815260200160002060009054906101000a900460ff168015612e7557508173ffffffffffffffffffffffffffffffffffffffff16600c60003373ffffffffffffffffffffffffffffffffffffffff1673ffffffffffffffffffffffffffffffffffffffff16815260200190815260200160002060010160009054906101000a900473ffffffffffffffffffffffffffffffffffffffff1673ffffffffffffffffffffffffffffffffffffffff16145b5b612eb5576040517f08c379a0000000000000000000000000000000000000000000000000000000008152600401612eac90614496565b60405180910390fd5b600f60008373ffffffffffffffffffffffffffffffffffffffff1673ffffffffffffffffffffffffffffffffffffffff168152602001908152602001600020805480602002602001604051908101604052809291908181526020016000905b8282101561307e57838290600052602060002090600402016040518060800160405290816000820154815260200160018201548152602001600282018054612f5b906144e5565b80601f0160208091040260200160405190810160405280929190818152602001828054612f87906144e5565b8015612fd45780601f10612fa957610100808354040283529160200191612fd4565b820191906000526020600020905b815481529060010190602001808311612fb757829003601f168201915b50505050508152602001600382018054612fed906144e5565b80601f0160208091040260200160405190810160405280929190818152602001828054613019906144e5565b80156130665780601f1061303b57610100808354040283529160200191613066565b820191906000526020600020905b81548152906001019060200180831161304957829003601f168201915b50505050508152505081526020019060010190612f14565b505050509050919050565b6000601260003373ffffffffffffffffffffffffffffffffffffffff1673ffffffffffffffffffffffffffffffffffffffff16815260200190815260200160002060009054906101000a900460ff16613117576040517f08c379a000000000000000000000000000000000000000000000000000000000815260040161310e906150f3565b60405180910390fd5b600c60008373ffffffffffffffffffffffffffffffffffffffff1673ffffffffffffffffffffffffffffffffffffffff16815260200190815260200160002060010160009054906101000a900473ffffffffffffffffffffffffffffffffffffffff169050919050565b600c6020528060005260406000206000915090508060000180546131a4906144e5565b80601f01602080910402602001604051908101604052809291908181526020018280546131d0906144e5565b801561321d5780601f106131f25761010080835404028352916020019161321d565b820191906000526020600020905b81548152906001019060200180831161320057829003601f168201915b5050505050908060010160009054906101000a900473ffffffffffffffffffffffffffffffffffffffff16905082565b606060008054906101000a900473ffffffffffffffffffffffffffffffffffffffff1673ffffffffffffffffffffffffffffffffffffffff163373ffffffffffffffffffffffffffffffffffffffff16036132df576040518060400160405280600581526020017f61646d696e0000000000000000000000000000000000000000000000000000008152509050613436565b601160003373ffffffffffffffffffffffffffffffffffffffff1673ffffffffffffffffffffffffffffffffffffffff16815260200190815260200160002060009054906101000a900460ff161561336e576040518060400160405280600a81526020017f736d6172744d65746572000000000000000000000000000000000000000000008152509050613436565b601260003373ffffffffffffffffffffffffffffffffffffffff1673ffffffffffffffffffffffffffffffffffffffff16815260200190815260200160002060009054906101000a900460ff16156133fd576040518060400160405280600681526020017f74656e616e7400000000000000000000000000000000000000000000000000008152509050613436565b6040518060400160405280600781526020017f756e6b6e6f776e0000000000000000000000000000000000000000000000000081525090505b90565b60006a636f6e736f6c652e6c6f679050600080835160208501845afa505050565b6134626151ee565b565b6040518060a001604052806060815260200160608152602001600073ffffffffffffffffffffffffffffffffffffffff168152602001606081526020016000151581525090565b5080546134b7906144e5565b6000825580601f106134c957506134e8565b601f0160209004906000526020600020908101906134e79190613528565b5b50565b6040518060e00160405280606081526020016060815260200160608152602001606081526020016060815260200160608152602001606081525090565b5b80821115613541576000816000905550600101613529565b5090565b600073ffffffffffffffffffffffffffffffffffffffff82169050919050565b6000819050919050565b600061358a61358561358084613545565b613565565b613545565b9050919050565b600061359c8261356f565b9050919050565b60006135ae82613591565b9050919050565b6135be816135a3565b82525050565b60006020820190506135d960008301846135b5565b92915050565b6000604051905090565b600080fd5b600080fd5b60006135fe82613545565b9050919050565b61360e816135f3565b811461361957600080fd5b50565b60008135905061362b81613605565b92915050565b600060208284031215613647576136466135e9565b5b60006136558482850161361c565b91505092915050565b600081519050919050565b600082825260208201905092915050565b60005b8381101561369857808201518184015260208101905061367d565b60008484015250505050565b6000601f19601f8301169050919050565b60006136c08261365e565b6136ca8185613669565b93506136da81856020860161367a565b6136e3816136a4565b840191505092915050565b6136f7816135f3565b82525050565b60008115159050919050565b613712816136fd565b82525050565b600060a083016000830151848203600086015261373582826136b5565b9150506020830151848203602086015261374f82826136b5565b915050604083015161376460408601826136ee565b506060830151848203606086015261377c82826136b5565b91505060808301516137916080860182613709565b508091505092915050565b600060208201905081810360008301526137b68184613718565b905092915050565b600082825260208201905092915050565b60006137da8261365e565b6137e481856137be565b93506137f481856020860161367a565b6137fd816136a4565b840191505092915050565b613811816135f3565b82525050565b613820816136fd565b82525050565b600060a082019050818103600083015261384081886137cf565b9050818103602083015261385481876137cf565b90506138636040830186613808565b818103606083015261387581856137cf565b90506138846080830184613817565b9695505050505050565b600060208201905081810360008301526138a881846137cf565b905092915050565b600081519050919050565b600082825260208201905092915050565b6000819050602082019050919050565b60006138e883836136ee565b60208301905092915050565b6000602082019050919050565b600061390c826138b0565b61391681856138bb565b9350613921836138cc565b8060005b8381101561395257815161393988826138dc565b9750613944836138f4565b925050600181019050613925565b5085935050505092915050565b600060208201905081810360008301526139798184613901565b905092915050565b600080fd5b600080fd5b7f4e487b7100000000000000000000000000000000000000000000000000000000600052604160045260246000fd5b6139c3826136a4565b810181811067ffffffffffffffff821117156139e2576139e161398b565b5b80604052505050565b60006139f56135df565b9050613a0182826139ba565b919050565b600067ffffffffffffffff821115613a2157613a2061398b565b5b613a2a826136a4565b9050602081019050919050565b82818337600083830152505050565b6000613a59613a5484613a06565b6139eb565b905082815260208101848484011115613a7557613a74613986565b5b613a80848285613a37565b509392505050565b600082601f830112613a9d57613a9c613981565b5b8135613aad848260208601613a46565b91505092915050565b600080600060608486031215613acf57613ace6135e9565b5b6000613add8682870161361c565b935050602084013567ffffffffffffffff811115613afe57613afd6135ee565b5b613b0a86828701613a88565b9250506040613b1b8682870161361c565b9150509250925092565b6000819050919050565b613b3881613b25565b82525050565b6000602082019050613b536000830184613b2f565b92915050565b613b6281613b25565b8114613b6d57600080fd5b50565b600081359050613b7f81613b59565b92915050565b60008060008060808587031215613b9f57613b9e6135e9565b5b6000613bad8782880161361c565b9450506020613bbe87828801613b70565b935050604085013567ffffffffffffffff811115613bdf57613bde6135ee565b5b613beb87828801613a88565b925050606085013567ffffffffffffffff811115613c0c57613c0b6135ee565b5b613c1887828801613a88565b91505092959194509250565b6000602082019050613c396000830184613808565b92915050565b600081519050919050565b600082825260208201905092915050565b6000819050602082019050919050565b613c7481613b25565b82525050565b6000610100830160008301518482036000860152613c9882826136b5565b9150506020830151613cad6020860182613709565b506040830151613cc060408601826136ee565b506060830151613cd360608601826136ee565b506080830151613ce66080860182613c6b565b5060a0830151613cf960a0860182613c6b565b5060c0830151613d0c60c0860182613c6b565b5060e083015184820360e0860152613d2482826136b5565b9150508091505092915050565b6000613d3d8383613c7a565b905092915050565b6000602082019050919050565b6000613d5d82613c3f565b613d678185613c4a565b935083602082028501613d7985613c5b565b8060005b85811015613db55784840389528151613d968582613d31565b9450613da183613d45565b925060208a01995050600181019050613d7d565b50829750879550505050505092915050565b60006020820190508181036000830152613de18184613d52565b905092915050565b600060e0830160008301518482036000860152613e0682826136b5565b91505060208301518482036020860152613e2082826136b5565b91505060408301518482036040860152613e3a82826136b5565b91505060608301518482036060860152613e5482826136b5565b91505060808301518482036080860152613e6e82826136b5565b91505060a083015184820360a0860152613e8882826136b5565b91505060c083015184820360c0860152613ea282826136b5565b9150508091505092915050565b60006020820190508181036000830152613ec98184613de9565b905092915050565b600081519050919050565b600082825260208201905092915050565b6000819050602082019050919050565b6000613f0983836136b5565b905092915050565b6000602082019050919050565b6000613f2982613ed1565b613f338185613edc565b935083602082028501613f4585613eed565b8060005b85811015613f815784840389528151613f628582613efd565b9450613f6d83613f11565b925060208a01995050600181019050613f49565b50829750879550505050505092915050565b60006040820190508181036000830152613fad8185613901565b90508181036020830152613fc18184613f1e565b90509392505050565b60008060408385031215613fe157613fe06135e9565b5b6000613fef8582860161361c565b925050602061400085828601613b70565b9150509250929050565b600080fd5b600080fd5b60008083601f84011261402a57614029613981565b5b8235905067ffffffffffffffff8111156140475761404661400a565b5b6020830191508360018202830111156140635761406261400f565b5b9250929050565b60008060008060008060808789031215614087576140866135e9565b5b600061409589828a01613b70565b96505060206140a689828a01613b70565b955050604087013567ffffffffffffffff8111156140c7576140c66135ee565b5b6140d389828a01614014565b9450945050606087013567ffffffffffffffff8111156140f6576140f56135ee565b5b61410289828a01614014565b92509250509295509295509295565b60006020820190506141266000830184613817565b92915050565b600061413782613591565b9050919050565b6141478161412c565b82525050565b6000602082019050614162600083018461413e565b92915050565b60008060008060808587031215614182576141816135e9565b5b600085013567ffffffffffffffff8111156141a05761419f6135ee565b5b6141ac87828801613a88565b945050602085013567ffffffffffffffff8111156141cd576141cc6135ee565b5b6141d987828801613a88565b93505060406141ea8782880161361c565b925050606085013567ffffffffffffffff81111561420b5761420a6135ee565b5b61421787828801613a88565b91505092959194509250565b6000806040838503121561423a576142396135e9565b5b600083013567ffffffffffffffff811115614258576142576135ee565b5b61426485828601613a88565b92505060206142758582860161361c565b9150509250929050565b60008060208385031215614296576142956135e9565b5b600083013567ffffffffffffffff8111156142b4576142b36135ee565b5b6142c085828601614014565b92509250509250929050565b600081519050919050565b600082825260208201905092915050565b6000819050602082019050919050565b60006080830160008301516143106000860182613c6b565b5060208301516143236020860182613c6b565b506040830151848203604086015261433b82826136b5565b9150506060830151848203606086015261435582826136b5565b9150508091505092915050565b600061436e83836142f8565b905092915050565b6000602082019050919050565b600061438e826142cc565b61439881856142d7565b9350836020820285016143aa856142e8565b8060005b858110156143e657848403895281516143c78582614362565b94506143d283614376565b925060208a019950506001810190506143ae565b50829750879550505050505092915050565b600060208201905081810360008301526144128184614383565b905092915050565b6000604082019050818103600083015261443481856137cf565b90506144436020830184613808565b9392505050565b7f4e6f7420617574686f72697a6564000000000000000000000000000000000000600082015250565b6000614480600e836137be565b915061448b8261444a565b602082019050919050565b600060208201905081810360008301526144af81614473565b9050919050565b7f4e487b7100000000000000000000000000000000000000000000000000000000600052602260045260246000fd5b600060028204905060018216806144fd57607f821691505b6020821081036145105761450f6144b6565b5b50919050565b7f4f6e6c79206d6173746572000000000000000000000000000000000000000000600082015250565b600061454c600b836137be565b915061455782614516565b602082019050919050565b6000602082019050818103600083015261457b8161453f565b9050919050565b60008190508160005260206000209050919050565b60006020601f8301049050919050565b600082821b905092915050565b6000600883026145e47fffffffffffffffffffffffffffffffffffffffffffffffffffffffffffffffff826145a7565b6145ee86836145a7565b95508019841693508086168417925050509392505050565b600061462161461c61461784613b25565b613565565b613b25565b9050919050565b6000819050919050565b61463b83614606565b61464f61464782614628565b8484546145b4565b825550505050565b600090565b614664614657565b61466f818484614632565b505050565b5b818110156146935761468860008261465c565b600181019050614675565b5050565b601f8211156146d8576146a981614582565b6146b284614597565b810160208510156146c1578190505b6146d56146cd85614597565b830182614674565b50505b505050565b600082821c905092915050565b60006146fb600019846008026146dd565b1980831691505092915050565b600061471483836146ea565b9150826002028217905092915050565b61472d8261365e565b67ffffffffffffffff8111156147465761474561398b565b5b61475082546144e5565b61475b828285614697565b600060209050601f83116001811461478e576000841561477c578287015190505b6147868582614708565b8655506147ee565b601f19841661479c86614582565b60005b828110156147c45784890151825560018201915060208501945060208101905061479f565b868310156147e157848901516147dd601f8916826146ea565b8355505b6001600288020188555050505b505050505050565b60008151905061480581613b59565b92915050565b600060208284031215614821576148206135e9565b5b600061482f848285016147f6565b91505092915050565b7f4e487b7100000000000000000000000000000000000000000000000000000000600052603260045260246000fd5b7f4e487b7100000000000000000000000000000000000000000000000000000000600052601160045260246000fd5b60006148a182613b25565b91506148ac83613b25565b92508282039050818111156148c4576148c3614867565b5b92915050565b7f4e487b7100000000000000000000000000000000000000000000000000000000600052603160045260246000fd5b600081549050614908816144e5565b9050919050565b60008190508160005260206000209050919050565b818103614932575050614a0a565b61493b826148f9565b67ffffffffffffffff8111156149545761495361398b565b5b61495e82546144e5565b614969828285614697565b6000601f8311600181146149985760008415614986578287015490505b6149908582614708565b865550614a03565b601f1984166149a68761490f565b96506149b186614582565b60005b828110156149d9578489015482556001820191506001850194506020810190506149b4565b868310156149f657848901546149f2601f8916826146ea565b8355505b6001600288020188555050505b5050505050505b565b7f496e76616c69642074656e616e74206164647265737300000000000000000000600082015250565b6000614a426016836137be565b9150614a4d82614a0c565b602082019050919050565b60006020820190508181036000830152614a7181614a35565b9050919050565b600060a082019050614a8d6000830188613808565b614a9a6020830187613808565b614aa76040830186613b2f565b8181036060830152614ab981856137cf565b90508181036080830152614acd81846137cf565b90509695505050505050565b7f556e617574686f72697a65640000000000000000000000000000000000000000600082015250565b6000614b0f600c836137be565b9150614b1a82614ad9565b602082019050919050565b60006020820190508181036000830152614b3e81614b02565b9050919050565b600067ffffffffffffffff821115614b6057614b5f61398b565b5b602082029050602081019050919050565b600080fd5b600080fd5b6000614b8e614b8984613a06565b6139eb565b905082815260208101848484011115614baa57614ba9613986565b5b614bb584828561367a565b509392505050565b600082601f830112614bd257614bd1613981565b5b8151614be2848260208601614b7b565b91505092915050565b614bf4816136fd565b8114614bff57600080fd5b50565b600081519050614c1181614beb565b92915050565b600081519050614c2681613605565b92915050565b60006101008284031215614c4357614c42614b71565b5b614c4e6101006139eb565b9050600082015167ffffffffffffffff811115614c6e57614c6d614b76565b5b614c7a84828501614bbd565b6000830152506020614c8e84828501614c02565b6020830152506040614ca284828501614c17565b6040830152506060614cb684828501614c17565b6060830152506080614cca848285016147f6565b60808301525060a0614cde848285016147f6565b60a08301525060c0614cf2848285016147f6565b60c08301525060e082015167ffffffffffffffff811115614d1657614d15614b76565b5b614d2284828501614bbd565b60e08301525092915050565b6000614d41614d3c84614b45565b6139eb565b90508083825260208201905060208402830185811115614d6457614d6361400f565b5b835b81811015614dab57805167ffffffffffffffff811115614d8957614d88613981565b5b808601614d968982614c2c565b85526020850194505050602081019050614d66565b5050509392505050565b600082601f830112614dca57614dc9613981565b5b8151614dda848260208601614d2e565b91505092915050565b600060208284031215614df957614df86135e9565b5b600082015167ffffffffffffffff811115614e1757614e166135ee565b5b614e2384828501614db5565b91505092915050565b6000604082019050614e416000830185613808565b614e4e6020830184613b2f565b9392505050565b7f4e6f2066756e647320746f207769746864726177000000000000000000000000600082015250565b6000614e8b6014836137be565b9150614e9682614e55565b602082019050919050565b60006020820190508181036000830152614eba81614e7e565b9050919050565b600060208284031215614ed757614ed66135e9565b5b6000614ee584828501614c02565b91505092915050565b7f5472616e73666572206661696c65640000000000000000000000000000000000600082015250565b6000614f24600f836137be565b9150614f2f82614eee565b602082019050919050565b60006020820190508181036000830152614f5381614f17565b9050919050565b7f4e6f7420612077686974656c697374656420616374697665206d657465720000600082015250565b6000614f90601e836137be565b9150614f9b82614f5a565b602082019050919050565b60006020820190508181036000830152614fbf81614f83565b9050919050565b6000604082019050614fdb6000830185613b2f565b614fe86020830184613b2f565b9392505050565b7f4d6574657220616c726561647920657869737473000000000000000000000000600082015250565b60006150256014836137be565b915061503082614fef565b602082019050919050565b6000602082019050818103600083015261505481615018565b9050919050565b6000606082019050818103600083015261507581866137cf565b9050818103602083015261508981856137cf565b9050818103604083015261509d81846137cf565b9050949350505050565b7f4e6f742077686974656c69737465642074656e616e7400000000000000000000600082015250565b60006150dd6016836137be565b91506150e8826150a7565b602082019050919050565b6000602082019050818103600083015261510c816150d0565b9050919050565b600082905092915050565b6151288383615113565b67ffffffffffffffff8111156151415761514061398b565b5b61514b82546144e5565b615156828285614697565b6000601f8311600181146151855760008415615173578287013590505b61517d8582614708565b8655506151e5565b601f19841661519386614582565b60005b828110156151bb57848901358255600182019150602085019450602081019050615196565b868310156151d857848901356151d4601f8916826146ea565b8355505b6001600288020188555050505b50505050505050565b7f4e487b7100000000000000000000000000000000000000000000000000000000600052605160045260246000fdfea2646970667358221220bda84093eeaee56a400c97c49d1b8381cf6f8cb94fdc8b3e128d14a2da9df8b464736f6c634300081c0033608060405234801561001057600080fd5b506040516118d63803806118d683398181016040528101906100329190610272565b806040518060400160405280600a81526020017f544e435920546f6b656e000000000000000000000000000000000000000000008152506040518060400160405280600481526020017f544e43590000000000000000000000000000000000000000000000000000000081525081600390816100ae91906104ef565b5080600490816100be91906104ef565b505050600073ffffffffffffffffffffffffffffffffffffffff168173ffffffffffffffffffffffffffffffffffffffff16036101335760006040517f1e4fbdf700000000000000000000000000000000000000000000000000000000815260040161012a91906105d0565b60405180910390fd5b6101428161014960201b60201c565b50506105eb565b6000600560009054906101000a900473ffffffffffffffffffffffffffffffffffffffff16905081600560006101000a81548173ffffffffffffffffffffffffffffffffffffffff021916908373ffffffffffffffffffffffffffffffffffffffff1602179055508173ffffffffffffffffffffffffffffffffffffffff168173ffffffffffffffffffffffffffffffffffffffff167f8be0079c531659141344cd1fd0a4f28419497f9722a3daafe3b4186f6b6457e060405160405180910390a35050565b600080fd5b600073ffffffffffffffffffffffffffffffffffffffff82169050919050565b600061023f82610214565b9050919050565b61024f81610234565b811461025a57600080fd5b50565b60008151905061026c81610246565b92915050565b6000602082840312156102885761028761020f565b5b60006102968482850161025d565b91505092915050565b600081519050919050565b7f4e487b7100000000000000000000000000000000000000000000000000000000600052604160045260246000fd5b7f4e487b7100000000000000000000000000000000000000000000000000000000600052602260045260246000fd5b6000600282049050600182168061032057607f821691505b602082108103610333576103326102d9565b5b50919050565b60008190508160005260206000209050919050565b60006020601f8301049050919050565b600082821b905092915050565b60006008830261039b7fffffffffffffffffffffffffffffffffffffffffffffffffffffffffffffffff8261035e565b6103a5868361035e565b95508019841693508086168417925050509392505050565b6000819050919050565b6000819050919050565b60006103ec6103e76103e2846103bd565b6103c7565b6103bd565b9050919050565b6000819050919050565b610406836103d1565b61041a610412826103f3565b84845461036b565b825550505050565b600090565b61042f610422565b61043a8184846103fd565b505050565b5b8181101561045e57610453600082610427565b600181019050610440565b5050565b601f8211156104a35761047481610339565b61047d8461034e565b8101602085101561048c578190505b6104a06104988561034e565b83018261043f565b50505b505050565b600082821c905092915050565b60006104c6600019846008026104a8565b1980831691505092915050565b60006104df83836104b5565b9150826002028217905092915050565b6104f88261029f565b67ffffffffffffffff811115610511576105106102aa565b5b61051b8254610308565b610526828285610462565b600060209050601f8311600181146105595760008415610547578287015190505b61055185826104d3565b8655506105b9565b601f19841661056786610339565b60005b8281101561058f5784890151825560018201915060208501945060208101905061056a565b868310156105ac57848901516105a8601f8916826104b5565b8355505b6001600288020188555050505b505050505050565b6105ca81610234565b82525050565b60006020820190506105e560008301846105c1565b92915050565b6112dc806105fa6000396000f3fe608060405234801561001057600080fd5b50600436106100f55760003560e01c806370a082311161009757806395d89b411161006657806395d89b4114610260578063a9059cbb1461027e578063dd62ed3e146102ae578063f2fde38b146102de576100f5565b806370a08231146101ec578063715018a61461021c57806379cc6790146102265780638da5cb5b14610242576100f5565b806323b872dd116100d357806323b872dd14610166578063313ce5671461019657806340c10f19146101b457806342966c68146101d0576100f5565b806306fdde03146100fa578063095ea7b31461011857806318160ddd14610148575b600080fd5b6101026102fa565b60405161010f9190610f03565b60405180910390f35b610132600480360381019061012d9190610fbe565b61038c565b60405161013f9190611019565b60405180910390f35b6101506103af565b60405161015d9190611043565b60405180910390f35b610180600480360381019061017b919061105e565b6103b9565b60405161018d9190611019565b60405180910390f35b61019e6103e8565b6040516101ab91906110cd565b60405180910390f35b6101ce60048036038101906101c99190610fbe565b6103f1565b005b6101ea60048036038101906101e591906110e8565b610407565b005b61020660048036038101906102019190611115565b61041b565b6040516102139190611043565b60405180910390f35b610224610463565b005b610240600480360381019061023b9190610fbe565b610477565b005b61024a610497565b6040516102579190611151565b60405180910390f35b6102686104c1565b6040516102759190610f03565b60405180910390f35b61029860048036038101906102939190610fbe565b610553565b6040516102a59190611019565b60405180910390f35b6102c860048036038101906102c3919061116c565b610576565b6040516102d59190611043565b60405180910390f35b6102f860048036038101906102f39190611115565b6105fd565b005b606060038054610309906111db565b80601f0160208091040260200160405190810160405280929190818152602001828054610335906111db565b80156103825780601f1061035757610100808354040283529160200191610382565b820191906000526020600020905b81548152906001019060200180831161036557829003601f168201915b5050505050905090565b600080610397610683565b90506103a481858561068b565b600191505092915050565b6000600254905090565b6000806103c4610683565b90506103d185828561069d565b6103dc858585610732565b60019150509392505050565b60006012905090565b6103f9610826565b61040382826108ad565b5050565b610418610412610683565b8261092f565b50565b60008060008373ffffffffffffffffffffffffffffffffffffffff1673ffffffffffffffffffffffffffffffffffffffff168152602001908152602001600020549050919050565b61046b610826565b61047560006109b1565b565b61048982610483610683565b8361069d565b610493828261092f565b5050565b6000600560009054906101000a900473ffffffffffffffffffffffffffffffffffffffff16905090565b6060600480546104d0906111db565b80601f01602080910402602001604051908101604052809291908181526020018280546104fc906111db565b80156105495780601f1061051e57610100808354040283529160200191610549565b820191906000526020600020905b81548152906001019060200180831161052c57829003601f168201915b5050505050905090565b60008061055e610683565b905061056b818585610732565b600191505092915050565b6000600160008473ffffffffffffffffffffffffffffffffffffffff1673ffffffffffffffffffffffffffffffffffffffff16815260200190815260200160002060008373ffffffffffffffffffffffffffffffffffffffff1673ffffffffffffffffffffffffffffffffffffffff16815260200190815260200160002054905092915050565b610605610826565b600073ffffffffffffffffffffffffffffffffffffffff168173ffffffffffffffffffffffffffffffffffffffff16036106775760006040517f1e4fbdf700000000000000000000000000000000000000000000000000000000815260040161066e9190611151565b60405180910390fd5b610680816109b1565b50565b600033905090565b6106988383836001610a77565b505050565b60006106a98484610576565b90507fffffffffffffffffffffffffffffffffffffffffffffffffffffffffffffffff81101561072c578181101561071c578281836040517ffb8f41b20000000000000000000000000000000000000000000000000000000081526004016107139392919061120c565b60405180910390fd5b61072b84848484036000610a77565b5b50505050565b600073ffffffffffffffffffffffffffffffffffffffff168373ffffffffffffffffffffffffffffffffffffffff16036107a45760006040517f96c6fd1e00000000000000000000000000000000000000000000000000000000815260040161079b9190611151565b60405180910390fd5b600073ffffffffffffffffffffffffffffffffffffffff168273ffffffffffffffffffffffffffffffffffffffff16036108165760006040517fec442f0500000000000000000000000000000000000000000000000000000000815260040161080d9190611151565b60405180910390fd5b610821838383610c4e565b505050565b61082e610683565b73ffffffffffffffffffffffffffffffffffffffff1661084c610497565b73ffffffffffffffffffffffffffffffffffffffff16146108ab5761086f610683565b6040517f118cdaa70000000000000000000000000000000000000000000000000000000081526004016108a29190611151565b60405180910390fd5b565b600073ffffffffffffffffffffffffffffffffffffffff168273ffffffffffffffffffffffffffffffffffffffff160361091f5760006040517fec442f050000000000000000000000000000000000000000000000000000000081526004016109169190611151565b60405180910390fd5b61092b60008383610c4e565b5050565b600073ffffffffffffffffffffffffffffffffffffffff168273ffffffffffffffffffffffffffffffffffffffff16036109a15760006040517f96c6fd1e0000000000000000000000000000000000000000000000000000000081526004016109989190611151565b60405180910390fd5b6109ad82600083610c4e565b5050565b6000600560009054906101000a900473ffffffffffffffffffffffffffffffffffffffff16905081600560006101000a81548173ffffffffffffffffffffffffffffffffffffffff021916908373ffffffffffffffffffffffffffffffffffffffff1602179055508173ffffffffffffffffffffffffffffffffffffffff168173ffffffffffffffffffffffffffffffffffffffff167f8be0079c531659141344cd1fd0a4f28419497f9722a3daafe3b4186f6b6457e060405160405180910390a35050565b600073ffffffffffffffffffffffffffffffffffffffff168473ffffffffffffffffffffffffffffffffffffffff1603610ae95760006040517fe602df05000000000000000000000000000000000000000000000000000000008152600401610ae09190611151565b60405180910390fd5b600073ffffffffffffffffffffffffffffffffffffffff168373ffffffffffffffffffffffffffffffffffffffff1603610b5b5760006040517f94280d62000000000000000000000000000000000000000000000000000000008152600401610b529190611151565b60405180910390fd5b81600160008673ffffffffffffffffffffffffffffffffffffffff1673ffffffffffffffffffffffffffffffffffffffff16815260200190815260200160002060008573ffffffffffffffffffffffffffffffffffffffff1673ffffffffffffffffffffffffffffffffffffffff168152602001908152602001600020819055508015610c48578273ffffffffffffffffffffffffffffffffffffffff168473ffffffffffffffffffffffffffffffffffffffff167f8c5be1e5ebec7d5bd14f71427d1e84f3dd0314c0f7b2291e5b200ac8c7c3b92584604051610c3f9190611043565b60405180910390a35b50505050565b600073ffffffffffffffffffffffffffffffffffffffff168373ffffffffffffffffffffffffffffffffffffffff1603610ca0578060026000828254610c949190611272565b92505081905550610d73565b60008060008573ffffffffffffffffffffffffffffffffffffffff1673ffffffffffffffffffffffffffffffffffffffff16815260200190815260200160002054905081811015610d2c578381836040517fe450d38c000000000000000000000000000000000000000000000000000000008152600401610d239392919061120c565b60405180910390fd5b8181036000808673ffffffffffffffffffffffffffffffffffffffff1673ffffffffffffffffffffffffffffffffffffffff16815260200190815260200160002081905550505b600073ffffffffffffffffffffffffffffffffffffffff168273ffffffffffffffffffffffffffffffffffffffff1603610dbc5780600260008282540392505081905550610e09565b806000808473ffffffffffffffffffffffffffffffffffffffff1673ffffffffffffffffffffffffffffffffffffffff168152602001908152602001600020600082825401925050819055505b8173ffffffffffffffffffffffffffffffffffffffff168373ffffffffffffffffffffffffffffffffffffffff167fddf252ad1be2c89b69c2b068fc378daa952ba7f163c4a11628f55a4df523b3ef83604051610e669190611043565b60405180910390a3505050565b600081519050919050565b600082825260208201905092915050565b60005b83811015610ead578082015181840152602081019050610e92565b60008484015250505050565b6000601f19601f8301169050919050565b6000610ed582610e73565b610edf8185610e7e565b9350610eef818560208601610e8f565b610ef881610eb9565b840191505092915050565b60006020820190508181036000830152610f1d8184610eca565b905092915050565b600080fd5b600073ffffffffffffffffffffffffffffffffffffffff82169050919050565b6000610f5582610f2a565b9050919050565b610f6581610f4a565b8114610f7057600080fd5b50565b600081359050610f8281610f5c565b92915050565b6000819050919050565b610f9b81610f88565b8114610fa657600080fd5b50565b600081359050610fb881610f92565b92915050565b60008060408385031215610fd557610fd4610f25565b5b6000610fe385828601610f73565b9250506020610ff485828601610fa9565b9150509250929050565b60008115159050919050565b61101381610ffe565b82525050565b600060208201905061102e600083018461100a565b92915050565b61103d81610f88565b82525050565b60006020820190506110586000830184611034565b92915050565b60008060006060848603121561107757611076610f25565b5b600061108586828701610f73565b935050602061109686828701610f73565b92505060406110a786828701610fa9565b9150509250925092565b600060ff82169050919050565b6110c7816110b1565b82525050565b60006020820190506110e260008301846110be565b92915050565b6000602082840312156110fe576110fd610f25565b5b600061110c84828501610fa9565b91505092915050565b60006020828403121561112b5761112a610f25565b5b600061113984828501610f73565b91505092915050565b61114b81610f4a565b82525050565b60006020820190506111666000830184611142565b92915050565b6000806040838503121561118357611182610f25565b5b600061119185828601610f73565b92505060206111a285828601610f73565b9150509250929050565b7f4e487b7100000000000000000000000000000000000000000000000000000000600052602260045260246000fd5b600060028204905060018216806111f357607f821691505b602082108103611206576112056111ac565b5b50919050565b60006060820190506112216000830186611142565b61122e6020830185611034565b61123b6040830184611034565b949350505050565b7f4e487b7100000000000000000000000000000000000000000000000000000000600052601160045260246000fd5b600061127d82610f88565b915061128883610f88565b92508282019050808211156112a05761129f611243565b5b9291505056fea264697066735822122003d118cea02527eeb50f4c6a65795579f610fef54216b11bc15d4df199e94cc064736f6c634300081c00336080604052670de0b6b3a764000060025534801561001c57600080fd5b50604051611ee7380380611ee7833981810160405281019061003e9190610167565b81600160006101000a81548173ffffffffffffffffffffffffffffffffffffffff021916908373ffffffffffffffffffffffffffffffffffffffff160217905550806000806101000a81548173ffffffffffffffffffffffffffffffffffffffff021916908373ffffffffffffffffffffffffffffffffffffffff16021790555050506101a7565b600080fd5b600073ffffffffffffffffffffffffffffffffffffffff82169050919050565b60006100f6826100cb565b9050919050565b610106816100eb565b811461011157600080fd5b50565b600081519050610123816100fd565b92915050565b6000610134826100eb565b9050919050565b61014481610129565b811461014f57600080fd5b50565b6000815190506101618161013b565b92915050565b6000806040838503121561017e5761017d6100c6565b5b600061018c85828601610114565b925050602061019d85828601610152565b9150509250929050565b611d31806101b66000396000f3fe608060405234801561001057600080fd5b506004361061009e5760003560e01c80638ddcdc5b116100665780638ddcdc5b1461019a578063a343fc12146101b8578063ae428d78146101d4578063e7201d7d146101f2578063f4858c66146102105761009e565b806345a132aa146100a357806351c87677146100d35780636a6da61e14610103578063755873c51461013357806382c3807b14610163575b600080fd5b6100bd60048036038101906100b89190610fed565b610240565b6040516100ca9190611266565b60405180910390f35b6100ed60048036038101906100e891906112b4565b61063d565b6040516100fa919061133e565b60405180910390f35b61011d60048036038101906101189190610fed565b6106f6565b60405161012a919061136f565b60405180910390f35b61014d60048036038101906101489190610fed565b61070e565b60405161015a919061136f565b60405180910390f35b61017d600480360381019061017891906114bf565b610757565b604051610191989796959493929190611526565b60405180910390f35b6101a2610912565b6040516101af919061136f565b60405180910390f35b6101d260048036038101906101cd91906115b2565b610918565b005b6101dc610c49565b6040516101e991906116c4565b60405180910390f35b6101fa610c6d565b60405161020791906116df565b60405180910390f35b61022a600480360381019061022591906116fa565b610c93565b6040516102379190611756565b60405180910390f35b60606000600560008473ffffffffffffffffffffffffffffffffffffffff1673ffffffffffffffffffffffffffffffffffffffff168152602001908152602001600020805480602002602001604051908101604052809291908181526020016000905b8282101561034f5783829060005260206000200180546102c2906117a0565b80601f01602080910402602001604051908101604052809291908181526020018280546102ee906117a0565b801561033b5780601f106103105761010080835404028352916020019161033b565b820191906000526020600020905b81548152906001019060200180831161031e57829003601f168201915b5050505050815260200190600101906102a3565b5050505090506000815167ffffffffffffffff81111561037257610371611394565b5b6040519080825280602002602001820160405280156103ab57816020015b610398610f08565b8152602001906001900390816103905790505b50905060005b82518110156106325760048382815181106103cf576103ce6117d1565b5b60200260200101516040516103e4919061183c565b90815260200160405180910390206040518061010001604052908160008201805461040e906117a0565b80601f016020809104026020016040519081016040528092919081815260200182805461043a906117a0565b80156104875780601f1061045c57610100808354040283529160200191610487565b820191906000526020600020905b81548152906001019060200180831161046a57829003601f168201915b505050505081526020016001820160009054906101000a900460ff161515151581526020016001820160019054906101000a900473ffffffffffffffffffffffffffffffffffffffff1673ffffffffffffffffffffffffffffffffffffffff1673ffffffffffffffffffffffffffffffffffffffff1681526020016002820160009054906101000a900473ffffffffffffffffffffffffffffffffffffffff1673ffffffffffffffffffffffffffffffffffffffff1673ffffffffffffffffffffffffffffffffffffffff168152602001600382015481526020016004820154815260200160058201548152602001600682018054610585906117a0565b80601f01602080910402602001604051908101604052809291908181526020018280546105b1906117a0565b80156105fe5780601f106105d3576101008083540402835291602001916105fe565b820191906000526020600020905b8154815290600101906020018083116105e157829003601f168201915b50505050508152505082828151811061061a576106196117d1565b5b602002602001018190525080806001019150506103b1565b508092505050919050565b6005602052816000526040600020818154811061065957600080fd5b90600052602060002001600091509150508054610675906117a0565b80601f01602080910402602001604051908101604052809291908181526020018280546106a1906117a0565b80156106ee5780601f106106c3576101008083540402835291602001916106ee565b820191906000526020600020905b8154815290600101906020018083116106d157829003601f168201915b505050505081565b60036020528060005260406000206000915090505481565b6000600360008373ffffffffffffffffffffffffffffffffffffffff1673ffffffffffffffffffffffffffffffffffffffff168152602001908152602001600020549050919050565b600481805160208101820180518482526020830160208501208183528095505050505050600091509050806000018054610790906117a0565b80601f01602080910402602001604051908101604052809291908181526020018280546107bc906117a0565b80156108095780601f106107de57610100808354040283529160200191610809565b820191906000526020600020905b8154815290600101906020018083116107ec57829003601f168201915b5050505050908060010160009054906101000a900460ff16908060010160019054906101000a900473ffffffffffffffffffffffffffffffffffffffff16908060020160009054906101000a900473ffffffffffffffffffffffffffffffffffffffff169080600301549080600401549080600501549080600601805461088f906117a0565b80601f01602080910402602001604051908101604052809291908181526020018280546108bb906117a0565b80156109085780601f106108dd57610100808354040283529160200191610908565b820191906000526020600020905b8154815290600101906020018083116108eb57829003601f168201915b5050505050905088565b60025481565b80600060048260405161092b919061183c565b90815260200160405180910390206000018054610947906117a0565b905014610989576040517f08c379a00000000000000000000000000000000000000000000000000000000081526004016109809061189f565b60405180910390fd5b60006040518061010001604052808481526020016000151581526020018773ffffffffffffffffffffffffffffffffffffffff1681526020018873ffffffffffffffffffffffffffffffffffffffff1681526020018681526020014281526020016000815260200185815250905080600484604051610a08919061183c565b90815260200160405180910390206000820151816000019081610a2b9190611a61565b5060208201518160010160006101000a81548160ff02191690831515021790555060408201518160010160016101000a81548173ffffffffffffffffffffffffffffffffffffffff021916908373ffffffffffffffffffffffffffffffffffffffff16021790555060608201518160020160006101000a81548173ffffffffffffffffffffffffffffffffffffffff021916908373ffffffffffffffffffffffffffffffffffffffff1602179055506080820151816003015560a0820151816004015560c0820151816005015560e0820151816006019081610b0d9190611a61565b50905050600560008873ffffffffffffffffffffffffffffffffffffffff1673ffffffffffffffffffffffffffffffffffffffff16815260200190815260200160002083908060018154018082558091505060019003906000526020600020016000909190919091509081610b829190611a61565b5084600360008973ffffffffffffffffffffffffffffffffffffffff1673ffffffffffffffffffffffffffffffffffffffff1681526020019081526020016000206000828254610bd29190611b62565b925050819055508673ffffffffffffffffffffffffffffffffffffffff163373ffffffffffffffffffffffffffffffffffffffff167fb810f68ef93d0b5c98b363f0d47a6e1f3e9af7ea538b02fc226ad84eb32f77a08786604051610c38929190611b96565b60405180910390a350505050505050565b60008054906101000a900473ffffffffffffffffffffffffffffffffffffffff1681565b600160009054906101000a900473ffffffffffffffffffffffffffffffffffffffff1681565b600080600484604051610ca6919061183c565b908152602001604051809103902090508060010160009054906101000a900460ff1615610d08576040517f08c379a0000000000000000000000000000000000000000000000000000000008152600401610cff90611c12565b60405180910390fd5b8060020160009054906101000a900473ffffffffffffffffffffffffffffffffffffffff1673ffffffffffffffffffffffffffffffffffffffff168373ffffffffffffffffffffffffffffffffffffffff1614610d9a576040517f08c379a0000000000000000000000000000000000000000000000000000000008152600401610d9190611c7e565b60405180910390fd5b60008160030154905060008054906101000a900473ffffffffffffffffffffffffffffffffffffffff1673ffffffffffffffffffffffffffffffffffffffff166379cc679085836040518363ffffffff1660e01b8152600401610dfe929190611c9e565b600060405180830381600087803b158015610e1857600080fd5b505af1158015610e2c573d6000803e3d6000fd5b5050505060018260010160006101000a81548160ff02191690831515021790555042826005018190555080600360008673ffffffffffffffffffffffffffffffffffffffff1673ffffffffffffffffffffffffffffffffffffffff1681526020019081526020016000206000828254610ea59190611cc7565b925050819055508373ffffffffffffffffffffffffffffffffffffffff167f5ce0614a46459714585c219d6fb0dd3a4b01b81fc18567ebe68bf418067c91d48287604051610ef4929190611b96565b60405180910390a260019250505092915050565b60405180610100016040528060608152602001600015158152602001600073ffffffffffffffffffffffffffffffffffffffff168152602001600073ffffffffffffffffffffffffffffffffffffffff168152602001600081526020016000815260200160008152602001606081525090565b6000604051905090565b600080fd5b600080fd5b600073ffffffffffffffffffffffffffffffffffffffff82169050919050565b6000610fba82610f8f565b9050919050565b610fca81610faf565b8114610fd557600080fd5b50565b600081359050610fe781610fc1565b92915050565b60006020828403121561100357611002610f85565b5b600061101184828501610fd8565b91505092915050565b600081519050919050565b600082825260208201905092915050565b6000819050602082019050919050565b600081519050919050565b600082825260208201905092915050565b60005b83811015611080578082015181840152602081019050611065565b60008484015250505050565b6000601f19601f8301169050919050565b60006110a882611046565b6110b28185611051565b93506110c2818560208601611062565b6110cb8161108c565b840191505092915050565b60008115159050919050565b6110eb816110d6565b82525050565b6110fa81610faf565b82525050565b6000819050919050565b61111381611100565b82525050565b6000610100830160008301518482036000860152611137828261109d565b915050602083015161114c60208601826110e2565b50604083015161115f60408601826110f1565b50606083015161117260608601826110f1565b506080830151611185608086018261110a565b5060a083015161119860a086018261110a565b5060c08301516111ab60c086018261110a565b5060e083015184820360e08601526111c3828261109d565b9150508091505092915050565b60006111dc8383611119565b905092915050565b6000602082019050919050565b60006111fc8261101a565b6112068185611025565b93508360208202850161121885611036565b8060005b85811015611254578484038952815161123585826111d0565b9450611240836111e4565b925060208a0199505060018101905061121c565b50829750879550505050505092915050565b6000602082019050818103600083015261128081846111f1565b905092915050565b61129181611100565b811461129c57600080fd5b50565b6000813590506112ae81611288565b92915050565b600080604083850312156112cb576112ca610f85565b5b60006112d985828601610fd8565b92505060206112ea8582860161129f565b9150509250929050565b600082825260208201905092915050565b600061131082611046565b61131a81856112f4565b935061132a818560208601611062565b6113338161108c565b840191505092915050565b600060208201905081810360008301526113588184611305565b905092915050565b61136981611100565b82525050565b60006020820190506113846000830184611360565b92915050565b600080fd5b600080fd5b7f4e487b7100000000000000000000000000000000000000000000000000000000600052604160045260246000fd5b6113cc8261108c565b810181811067ffffffffffffffff821117156113eb576113ea611394565b5b80604052505050565b60006113fe610f7b565b905061140a82826113c3565b919050565b600067ffffffffffffffff82111561142a57611429611394565b5b6114338261108c565b9050602081019050919050565b82818337600083830152505050565b600061146261145d8461140f565b6113f4565b90508281526020810184848401111561147e5761147d61138f565b5b611489848285611440565b509392505050565b600082601f8301126114a6576114a561138a565b5b81356114b684826020860161144f565b91505092915050565b6000602082840312156114d5576114d4610f85565b5b600082013567ffffffffffffffff8111156114f3576114f2610f8a565b5b6114ff84828501611491565b91505092915050565b611511816110d6565b82525050565b61152081610faf565b82525050565b6000610100820190508181036000830152611541818b611305565b9050611550602083018a611508565b61155d6040830189611517565b61156a6060830188611517565b6115776080830187611360565b61158460a0830186611360565b61159160c0830185611360565b81810360e08301526115a38184611305565b90509998505050505050505050565b600080600080600060a086880312156115ce576115cd610f85565b5b60006115dc88828901610fd8565b95505060206115ed88828901610fd8565b94505060406115fe8882890161129f565b935050606086013567ffffffffffffffff81111561161f5761161e610f8a565b5b61162b88828901611491565b925050608086013567ffffffffffffffff81111561164c5761164b610f8a565b5b61165888828901611491565b9150509295509295909350565b6000819050919050565b600061168a61168561168084610f8f565b611665565b610f8f565b9050919050565b600061169c8261166f565b9050919050565b60006116ae82611691565b9050919050565b6116be816116a3565b82525050565b60006020820190506116d960008301846116b5565b92915050565b60006020820190506116f46000830184611517565b92915050565b6000806040838503121561171157611710610f85565b5b600083013567ffffffffffffffff81111561172f5761172e610f8a565b5b61173b85828601611491565b925050602061174c85828601610fd8565b9150509250929050565b600060208201905061176b6000830184611508565b92915050565b7f4e487b7100000000000000000000000000000000000000000000000000000000600052602260045260246000fd5b600060028204905060018216806117b857607f821691505b6020821081036117cb576117ca611771565b5b50919050565b7f4e487b7100000000000000000000000000000000000000000000000000000000600052603260045260246000fd5b600081905092915050565b600061181682611046565b6118208185611800565b9350611830818560208601611062565b80840191505092915050565b6000611848828461180b565b915081905092915050565b7f42696c6c20494420616c72656164792065786973747300000000000000000000600082015250565b60006118896016836112f4565b915061189482611853565b602082019050919050565b600060208201905081810360008301526118b88161187c565b9050919050565b60008190508160005260206000209050919050565b60006020601f8301049050919050565b600082821b905092915050565b6000600883026119217fffffffffffffffffffffffffffffffffffffffffffffffffffffffffffffffff826118e4565b61192b86836118e4565b95508019841693508086168417925050509392505050565b600061195e61195961195484611100565b611665565b611100565b9050919050565b6000819050919050565b61197883611943565b61198c61198482611965565b8484546118f1565b825550505050565b600090565b6119a1611994565b6119ac81848461196f565b505050565b5b818110156119d0576119c5600082611999565b6001810190506119b2565b5050565b601f821115611a15576119e6816118bf565b6119ef846118d4565b810160208510156119fe578190505b611a12611a0a856118d4565b8301826119b1565b50505b505050565b600082821c905092915050565b6000611a3860001984600802611a1a565b1980831691505092915050565b6000611a518383611a27565b9150826002028217905092915050565b611a6a82611046565b67ffffffffffffffff811115611a8357611a82611394565b5b611a8d82546117a0565b611a988282856119d4565b600060209050601f831160018114611acb5760008415611ab9578287015190505b611ac38582611a45565b865550611b2b565b601f198416611ad9866118bf565b60005b82811015611b0157848901518255600182019150602085019450602081019050611adc565b86831015611b1e5784890151611b1a601f891682611a27565b8355505b6001600288020188555050505b505050505050565b7f4e487b7100000000000000000000000000000000000000000000000000000000600052601160045260246000fd5b6000611b6d82611100565b9150611b7883611100565b9250828201905080821115611b9057611b8f611b33565b5b92915050565b6000604082019050611bab6000830185611360565b8181036020830152611bbd8184611305565b90509392505050565b7f42696c6c20616c72656164792070616964000000000000000000000000000000600082015250565b6000611bfc6011836112f4565b9150611c0782611bc6565b602082019050919050565b60006020820190508181036000830152611c2b81611bef565b9050919050565b7f4e6f74207468652062696c6c6565000000000000000000000000000000000000600082015250565b6000611c68600e836112f4565b9150611c7382611c32565b602082019050919050565b60006020820190508181036000830152611c9781611c5b565b9050919050565b6000604082019050611cb36000830185611517565b611cc06020830184611360565b9392505050565b6000611cd282611100565b9150611cdd83611100565b9250828203905081811115611cf557611cf4611b33565b5b9291505056fea26469706673582212202e4f5f945dc6892940e59e1fcc3cc5d5b20429b8bbc1f8520bacb4f3e36f453f64736f6c634300081c0033a2646970667358221220a09e7dfc2ef35ea8afe9bd0a5ff75cefcdb43349ac3e5bad5b4d0e5d1aab0b6064736f6c634300081c0033",
  "linkReferences": {},
  "deployedLinkReferences": {}
}