{
  "_format": "hh-sol-artifact-1",
  "contractName": "TencyManager",
  "sourceName": "contracts/TencyManager.sol",
  "abi": [
    {
      "inputs": [
        {
          "internalType": "address",
          "name": "_master",
          "type": "address"
        },
        {
          "components": [
            {
              "internalType": "string",
              "name": "ownerName",
              "type": "string"
            },
            {
              "internalType": "string",
              "name": "streetName",
              "type": "string"
            },
            {
              "internalType": "string",
              "name": "cityCode",
              "type": "string"
            },
            {
              "internalType": "string",
              "name": "cityName",
              "type": "string"
            },
            {
              "internalType": "string",
              "name": "country",
              "type": "string"
            },
            {
              "internalType": "string",
              "name": "email",
              "type": "string"
            },
            {
              "internalType": "string",
              "name": "phone",
              "type": "string"
            }
          ],
          "internalType": "struct AddressInfo",
          "name": "_ownerContactInfo",
          "type": "tuple"
        }
      ],
      "stateMutability": "nonpayable",
      "type": "constructor"
    },
    {
      "anonymous": false,
      "inputs": [
        {
          "indexed": true,
          "internalType": "address",
          "name": "meter",
          "type": "address"
        },
        {
          "indexed": false,
          "internalType": "uint256",
          "name": "timestamp",
          "type": "uint256"
        },
        {
          "indexed": false,
          "internalType": "uint256",
          "name": "value",
          "type": "uint256"
        }
      ],
      "name": "DataRecorded",
      "type": "event"
    },
    {
      "anonymous": false,
      "inputs": [
        {
          "indexed": false,
          "internalType": "string",
          "name": "name",
          "type": "string"
        },
        {
          "indexed": false,
          "internalType": "string",
          "name": "ownerName",
          "type": "string"
        },
        {
          "indexed": true,
          "internalType": "address",
          "name": "smartMeterAddress",
          "type": "address"
        },
        {
          "indexed": false,
          "internalType": "string",
          "name": "smartMeterId",
          "type": "string"
        }
      ],
      "name": "MeterRegistered",
      "type": "event"
    },
    {
      "inputs": [
        {
          "internalType": "address",
          "name": "_tenant",
          "type": "address"
        },
        {
          "internalType": "string",
          "name": "_fullName",
          "type": "string"
        },
        {
          "internalType": "address",
          "name": "_smartMeterAddress",
          "type": "address"
        }
      ],
      "name": "addTenant",
      "outputs": [],
      "stateMutability": "nonpayable",
      "type": "function"
    },
    {
      "inputs": [
        {
          "internalType": "address",
          "name": "_tenantAddress",
          "type": "address"
        }
      ],
      "name": "getAssignedSmartMeterAddress",
      "outputs": [
        {
          "internalType": "address",
          "name": "",
          "type": "address"
        }
      ],
      "stateMutability": "view",
      "type": "function"
    },
    {
      "inputs": [
        {
          "internalType": "address",
          "name": "_meterAddress",
          "type": "address"
        }
      ],
      "name": "getDailyUsage",
      "outputs": [
        {
          "components": [
            {
              "internalType": "uint256",
              "name": "timestamp",
              "type": "uint256"
            },
            {
              "internalType": "uint256",
              "name": "usage",
              "type": "uint256"
            },
            {
              "internalType": "string",
              "name": "unit",
              "type": "string"
            },
            {
              "internalType": "string",
              "name": "ipfsCID",
              "type": "string"
            }
          ],
          "internalType": "struct DailyMeasurement[]",
          "name": "",
          "type": "tuple[]"
        }
      ],
      "stateMutability": "view",
      "type": "function"
    },
    {
      "inputs": [
        {
          "internalType": "address",
          "name": "_meterAddress",
          "type": "address"
        }
      ],
      "name": "getMeterInfo",
      "outputs": [
        {
          "components": [
            {
              "internalType": "string",
              "name": "name",
              "type": "string"
            },
            {
              "internalType": "string",
              "name": "ownerName",
              "type": "string"
            },
            {
              "internalType": "address",
              "name": "smartMeterAddress",
              "type": "address"
            },
            {
              "internalType": "string",
              "name": "smartMeterId",
              "type": "string"
            },
            {
              "internalType": "address",
              "name": "assignedTenant",
              "type": "address"
            },
            {
              "internalType": "bool",
              "name": "isActive",
              "type": "bool"
            }
          ],
          "internalType": "struct SmartMeter",
          "name": "",
          "type": "tuple"
        }
      ],
      "stateMutability": "view",
      "type": "function"
    },
    {
      "inputs": [],
      "name": "getOwnerContactInfo",
      "outputs": [
        {
          "components": [
            {
              "internalType": "string",
              "name": "ownerName",
              "type": "string"
            },
            {
              "internalType": "string",
              "name": "streetName",
              "type": "string"
            },
            {
              "internalType": "string",
              "name": "cityCode",
              "type": "string"
            },
            {
              "internalType": "string",
              "name": "cityName",
              "type": "string"
            },
            {
              "internalType": "string",
              "name": "country",
              "type": "string"
            },
            {
              "internalType": "string",
              "name": "email",
              "type": "string"
            },
            {
              "internalType": "string",
              "name": "phone",
              "type": "string"
            }
          ],
          "internalType": "struct AddressInfo",
          "name": "",
          "type": "tuple"
        }
      ],
      "stateMutability": "view",
      "type": "function"
    },
    {
      "inputs": [],
      "name": "getOwnerName",
      "outputs": [
        {
          "internalType": "string",
          "name": "",
          "type": "string"
        }
      ],
      "stateMutability": "view",
      "type": "function"
    },
    {
      "inputs": [],
      "name": "getRole",
      "outputs": [
        {
          "internalType": "string",
          "name": "",
          "type": "string"
        }
      ],
      "stateMutability": "view",
      "type": "function"
    },
    {
      "inputs": [],
      "name": "getSmartMeters",
      "outputs": [
        {
          "internalType": "address[]",
          "name": "",
          "type": "address[]"
        }
      ],
      "stateMutability": "view",
      "type": "function"
    },
    {
      "inputs": [],
      "name": "getTNCYAddress",
      "outputs": [
        {
          "internalType": "address",
          "name": "",
          "type": "address"
        }
      ],
      "stateMutability": "view",
      "type": "function"
    },
    {
      "inputs": [
        {
          "internalType": "address",
          "name": "_tenant",
          "type": "address"
        }
      ],
      "name": "getTenantName",
      "outputs": [
        {
          "internalType": "string",
          "name": "",
          "type": "string"
        }
      ],
      "stateMutability": "view",
      "type": "function"
    },
    {
      "inputs": [
        {
          "internalType": "address",
          "name": "_tenant",
          "type": "address"
        }
      ],
      "name": "getTenantUtilityExpenses",
      "outputs": [
        {
          "components": [
            {
              "internalType": "address",
              "name": "issuer",
              "type": "address"
            },
            {
              "internalType": "uint256",
              "name": "amountTNCY",
              "type": "uint256"
            },
            {
              "internalType": "uint256",
              "name": "dateIssuance",
              "type": "uint256"
            },
            {
              "internalType": "bool",
              "name": "validated",
              "type": "bool"
            },
            {
              "internalType": "bytes",
              "name": "messageHash",
              "type": "bytes"
            },
            {
              "internalType": "string",
              "name": "utilityType",
              "type": "string"
            },
            {
              "internalType": "string",
              "name": "description",
              "type": "string"
            },
            {
              "internalType": "string",
              "name": "ipfsCID",
              "type": "string"
            },
            {
              "internalType": "address[]",
              "name": "tenants",
              "type": "address[]"
            }
          ],
          "internalType": "struct UtilityExpense[]",
          "name": "",
          "type": "tuple[]"
        }
      ],
      "stateMutability": "view",
      "type": "function"
    },
    {
      "inputs": [],
      "name": "getTenants",
      "outputs": [
        {
          "internalType": "address[]",
          "name": "",
          "type": "address[]"
        },
        {
          "internalType": "string[]",
          "name": "",
          "type": "string[]"
        }
      ],
      "stateMutability": "view",
      "type": "function"
    },
    {
      "inputs": [],
      "name": "getTokenBalance",
      "outputs": [
        {
          "internalType": "uint256",
          "name": "",
          "type": "uint256"
        }
      ],
      "stateMutability": "view",
      "type": "function"
    },
    {
      "inputs": [],
      "name": "getUtilityExpenses",
      "outputs": [
        {
          "components": [
            {
              "internalType": "address",
              "name": "issuer",
              "type": "address"
            },
            {
              "internalType": "uint256",
              "name": "amountTNCY",
              "type": "uint256"
            },
            {
              "internalType": "uint256",
              "name": "dateIssuance",
              "type": "uint256"
            },
            {
              "internalType": "bool",
              "name": "validated",
              "type": "bool"
            },
            {
              "internalType": "bytes",
              "name": "messageHash",
              "type": "bytes"
            },
            {
              "internalType": "string",
              "name": "utilityType",
              "type": "string"
            },
            {
              "internalType": "string",
              "name": "description",
              "type": "string"
            },
            {
              "internalType": "string",
              "name": "ipfsCID",
              "type": "string"
            },
            {
              "internalType": "address[]",
              "name": "tenants",
              "type": "address[]"
            }
          ],
          "internalType": "struct UtilityExpense[]",
          "name": "",
          "type": "tuple[]"
        }
      ],
      "stateMutability": "view",
      "type": "function"
    },
    {
      "inputs": [],
      "name": "masterOwner",
      "outputs": [
        {
          "internalType": "address",
          "name": "",
          "type": "address"
        }
      ],
      "stateMutability": "view",
      "type": "function"
    },
    {
      "inputs": [
        {
          "internalType": "uint256",
          "name": "_timestamp",
          "type": "uint256"
        },
        {
          "internalType": "uint256",
          "name": "_usage",
          "type": "uint256"
        },
        {
          "internalType": "string",
          "name": "_unit",
          "type": "string"
        },
        {
          "internalType": "string",
          "name": "_ipfsCID",
          "type": "string"
        }
      ],
      "name": "recordDailyUsage",
      "outputs": [],
      "stateMutability": "nonpayable",
      "type": "function"
    },
    {
      "inputs": [
        {
          "internalType": "uint256",
          "name": "_amountTNCY",
          "type": "uint256"
        },
        {
          "internalType": "uint256",
          "name": "_dateIssuance",
          "type": "uint256"
        },
        {
          "internalType": "string",
          "name": "_utilityType",
          "type": "string"
        },
        {
          "internalType": "string",
          "name": "_description",
          "type": "string"
        },
        {
          "internalType": "string",
          "name": "_ipfsCID",
          "type": "string"
        },
        {
          "internalType": "address[]",
          "name": "_tenants",
          "type": "address[]"
        }
      ],
      "name": "recordUtilityExpense",
      "outputs": [],
      "stateMutability": "nonpayable",
      "type": "function"
    },
    {
      "inputs": [
        {
          "internalType": "string",
          "name": "_name",
          "type": "string"
        },
        {
          "internalType": "string",
          "name": "_ownerName",
          "type": "string"
        },
        {
          "internalType": "address",
          "name": "_smartMeterAddress",
          "type": "address"
        },
        {
          "internalType": "string",
          "name": "_smartMeterId",
          "type": "string"
        }
      ],
      "name": "registerSmartMeter",
      "outputs": [],
      "stateMutability": "nonpayable",
      "type": "function"
    },
    {
      "inputs": [
        {
          "internalType": "address",
          "name": "_tenant",
          "type": "address"
        }
      ],
      "name": "removeTenant",
      "outputs": [],
      "stateMutability": "nonpayable",
      "type": "function"
    },
    {
      "inputs": [
        {
          "internalType": "address",
          "name": "",
          "type": "address"
        }
      ],
      "name": "smartMeters",
      "outputs": [
        {
          "internalType": "string",
          "name": "name",
          "type": "string"
        },
        {
          "internalType": "string",
          "name": "ownerName",
          "type": "string"
        },
        {
          "internalType": "address",
          "name": "smartMeterAddress",
          "type": "address"
        },
        {
          "internalType": "string",
          "name": "smartMeterId",
          "type": "string"
        },
        {
          "internalType": "address",
          "name": "assignedTenant",
          "type": "address"
        },
        {
          "internalType": "bool",
          "name": "isActive",
          "type": "bool"
        }
      ],
      "stateMutability": "view",
      "type": "function"
    },
    {
      "inputs": [
        {
          "internalType": "string",
          "name": "_ipfsCID",
          "type": "string"
        }
      ],
      "name": "storeDetailedUsage",
      "outputs": [],
      "stateMutability": "nonpayable",
      "type": "function"
    },
    {
      "inputs": [
        {
          "internalType": "address",
          "name": "",
          "type": "address"
        }
      ],
      "name": "tenants",
      "outputs": [
        {
          "internalType": "string",
          "name": "fullName",
          "type": "string"
        },
        {
          "internalType": "address",
          "name": "assignedSmartMeter",
          "type": "address"
        }
      ],
      "stateMutability": "view",
      "type": "function"
    },
    {
      "inputs": [],
      "name": "tncyToken",
      "outputs": [
        {
          "internalType": "contract TNCY",
          "name": "",
          "type": "address"
        }
      ],
      "stateMutability": "view",
      "type": "function"
    },
    {
      "inputs": [],
      "name": "utilityValidator",
      "outputs": [
        {
          "internalType": "contract UtilityValidator",
          "name": "",
          "type": "address"
        }
      ],
      "stateMutability": "view",
      "type": "function"
    },
    {
      "inputs": [
        {
          "internalType": "address",
          "name": "",
          "type": "address"
        }
      ],
      "name": "whitelistedTenants",
      "outputs": [
        {
          "internalType": "bool",
          "name": "",
          "type": "bool"
        }
      ],
      "stateMutability": "view",
      "type": "function"
    }
  ],
  "bytecode": "0x608060405234801561001057600080fd5b5060405161a32938038061a329833981810160405281019061003291906107ce565b6100776040518060400160405280601481526020017f4372656174696e67206d616e6167657220666f720000000000000000000000008152508361035c60201b60201c565b81600160006101000a81548173ffffffffffffffffffffffffffffffffffffffff021916908373ffffffffffffffffffffffffffffffffffffffff16021790555080600360008201518160000190816100d09190610a4b565b5060208201518160010190816100e69190610a4b565b5060408201518160020190816100fc9190610a4b565b5060608201518160030190816101129190610a4b565b5060808201518160040190816101289190610a4b565b5060a082015181600501908161013e9190610a4b565b5060c08201518160060190816101549190610a4b565b509050503060405161016590610455565b61016f9190610b2c565b604051809103906000f08015801561018b573d6000803e3d6000fd5b506000806101000a81548173ffffffffffffffffffffffffffffffffffffffff021916908373ffffffffffffffffffffffffffffffffffffffff16021790555060008054906101000a900473ffffffffffffffffffffffffffffffffffffffff1673ffffffffffffffffffffffffffffffffffffffff1663f5a1f5b4836040518263ffffffff1660e01b81526004016102249190610b2c565b600060405180830381600087803b15801561023e57600080fd5b505af1158015610252573d6000803e3d6000fd5b5050505060008054906101000a900473ffffffffffffffffffffffffffffffffffffffff1673ffffffffffffffffffffffffffffffffffffffff16635dcd3e33836040518263ffffffff1660e01b81526004016102af9190610b2c565b600060405180830381600087803b1580156102c957600080fd5b505af11580156102dd573d6000803e3d6000fd5b50505050306040516102ee90610462565b6102f89190610b2c565b604051809103906000f080158015610314573d6000803e3d6000fd5b50600260006101000a81548173ffffffffffffffffffffffffffffffffffffffff021916908373ffffffffffffffffffffffffffffffffffffffff1602179055505050610bf0565b6103fa8282604051602401610372929190610b91565b6040516020818303038152906040527f319af333000000000000000000000000000000000000000000000000000000007bffffffffffffffffffffffffffffffffffffffffffffffffffffffff19166020820180517bffffffffffffffffffffffffffffffffffffffffffffffffffffffff83818316178352505050506103fe60201b60201c565b5050565b61041f8161041a61042260201b6142c61761044360201b60201c565b60201c565b50565b60006a636f6e736f6c652e6c6f679050600080835160208501845afa505050565b61046f60201b6142e717819050919050565b611fe6806171b283390190565b6111918061919883390190565b610477610bc1565b565b6000604051905090565b600080fd5b600080fd5b600073ffffffffffffffffffffffffffffffffffffffff82169050919050565b60006104b88261048d565b9050919050565b6104c8816104ad565b81146104d357600080fd5b50565b6000815190506104e5816104bf565b92915050565b600080fd5b6000601f19601f8301169050919050565b7f4e487b7100000000000000000000000000000000000000000000000000000000600052604160045260246000fd5b610539826104f0565b810181811067ffffffffffffffff8211171561055857610557610501565b5b80604052505050565b600061056b610479565b90506105778282610530565b919050565b600080fd5b600080fd5b600080fd5b600067ffffffffffffffff8211156105a6576105a5610501565b5b6105af826104f0565b9050602081019050919050565b60005b838110156105da5780820151818401526020810190506105bf565b60008484015250505050565b60006105f96105f48461058b565b610561565b90508281526020810184848401111561061557610614610586565b5b6106208482856105bc565b509392505050565b600082601f83011261063d5761063c610581565b5b815161064d8482602086016105e6565b91505092915050565b600060e0828403121561066c5761066b6104eb565b5b61067660e0610561565b9050600082015167ffffffffffffffff8111156106965761069561057c565b5b6106a284828501610628565b600083015250602082015167ffffffffffffffff8111156106c6576106c561057c565b5b6106d284828501610628565b602083015250604082015167ffffffffffffffff8111156106f6576106f561057c565b5b61070284828501610628565b604083015250606082015167ffffffffffffffff8111156107265761072561057c565b5b61073284828501610628565b606083015250608082015167ffffffffffffffff8111156107565761075561057c565b5b61076284828501610628565b60808301525060a082015167ffffffffffffffff8111156107865761078561057c565b5b61079284828501610628565b60a08301525060c082015167ffffffffffffffff8111156107b6576107b561057c565b5b6107c284828501610628565b60c08301525092915050565b600080604083850312156107e5576107e4610483565b5b60006107f3858286016104d6565b925050602083015167ffffffffffffffff81111561081457610813610488565b5b61082085828601610656565b9150509250929050565b600081519050919050565b7f4e487b7100000000000000000000000000000000000000000000000000000000600052602260045260246000fd5b6000600282049050600182168061087c57607f821691505b60208210810361088f5761088e610835565b5b50919050565b60008190508160005260206000209050919050565b60006020601f8301049050919050565b600082821b905092915050565b6000600883026108f77fffffffffffffffffffffffffffffffffffffffffffffffffffffffffffffffff826108ba565b61090186836108ba565b95508019841693508086168417925050509392505050565b6000819050919050565b6000819050919050565b600061094861094361093e84610919565b610923565b610919565b9050919050565b6000819050919050565b6109628361092d565b61097661096e8261094f565b8484546108c7565b825550505050565b600090565b61098b61097e565b610996818484610959565b505050565b5b818110156109ba576109af600082610983565b60018101905061099c565b5050565b601f8211156109ff576109d081610895565b6109d9846108aa565b810160208510156109e8578190505b6109fc6109f4856108aa565b83018261099b565b50505b505050565b600082821c905092915050565b6000610a2260001984600802610a04565b1980831691505092915050565b6000610a3b8383610a11565b9150826002028217905092915050565b610a548261082a565b67ffffffffffffffff811115610a6d57610a6c610501565b5b610a778254610864565b610a828282856109be565b600060209050601f831160018114610ab55760008415610aa3578287015190505b610aad8582610a2f565b865550610b15565b601f198416610ac386610895565b60005b82811015610aeb57848901518255600182019150602085019450602081019050610ac6565b86831015610b085784890151610b04601f891682610a11565b8355505b6001600288020188555050505b505050505050565b610b26816104ad565b82525050565b6000602082019050610b416000830184610b1d565b92915050565b600082825260208201905092915050565b6000610b638261082a565b610b6d8185610b47565b9350610b7d8185602086016105bc565b610b86816104f0565b840191505092915050565b60006040820190508181036000830152610bab8185610b58565b9050610bba6020830184610b1d565b9392505050565b7f4e487b7100000000000000000000000000000000000000000000000000000000600052605160045260246000fd5b6165b380610bff6000396000f3fe608060405234801561001057600080fd5b50600436106101735760003560e01c806382b2e257116100de578063de23dce011610097578063f11d5ea911610071578063f11d5ea914610442578063fba1f7b014610472578063fd9153a3146104a2578063fde08174146104d357610173565b8063de23dce0146103ea578063e2520c6b14610406578063e7201d7d1461042457610173565b806382b2e257146103165780639439d74314610334578063a580394514610350578063ae2fca3914610380578063babd96921461039e578063da4f1f3e146103ba57610173565b80632d710070116101305780632d710070146102535780632fdfc25f1461026f57806330d4597c1461028d5780634b1b2728146102a957806353be7ded146102c75780636757670d146102e657610173565b80630d79f9c91461017857806310f6a343146101a85780631184d8d7146101dd578063145ef6e9146101fb57806326ba1ff81461021957806326d6ec6414610237575b600080fd5b610192600480360381019061018d91906144eb565b6104f1565b60405161019f9190614669565b60405180910390f35b6101c260048036038101906101bd91906144eb565b610944565b6040516101d4969594939291906146f3565b60405180910390f35b6101e5610b65565b6040516101f291906147c8565b60405180910390f35b610203610b8b565b60405161021091906147e3565b60405180910390f35b610221610c20565b60405161022e91906148b4565b60405180910390f35b610251600480360381019061024c9190614a0b565b610d3e565b005b61026d600480360381019061026891906144eb565b6110df565b005b61027761153e565b6040516102849190614a7a565b60405180910390f35b6102a760048036038101906102a29190614b81565b61164a565b005b6102b1611bc6565b6040516102be9190614d57565b60405180910390f35b6102cf611fde565b6040516102dd929190614e3b565b60405180910390f35b61030060048036038101906102fb91906144eb565b6121d8565b60405161030d91906150e8565b60405180910390f35b61031e61265e565b60405161032b9190615119565b60405180910390f35b61034e60048036038101906103499190615134565b6127e3565b005b61036a600480360381019061036591906144eb565b613087565b60405161037791906151db565b60405180910390f35b6103886130a7565b60405161039591906150e8565b60405180910390f35b6103b860048036038101906103b391906151f6565b6134f2565b005b6103d460048036038101906103cf91906144eb565b6138b4565b6040516103e191906147e3565b60405180910390f35b61040460048036038101906103ff91906152b1565b613a14565b005b61040e613b77565b60405161041b919061531f565b60405180910390f35b61042c613b9b565b6040516104399190614a7a565b60405180910390f35b61045c600480360381019061045791906144eb565b613bc1565b6040516104699190615466565b60405180910390f35b61048c600480360381019061048791906144eb565b613f14565b6040516104999190614a7a565b60405180910390f35b6104bc60048036038101906104b791906144eb565b61400c565b6040516104ca929190615488565b60405180910390f35b6104db6140d8565b6040516104e891906147e3565b60405180910390f35b6104f96142f1565b600160009054906101000a900473ffffffffffffffffffffffffffffffffffffffff1673ffffffffffffffffffffffffffffffffffffffff163373ffffffffffffffffffffffffffffffffffffffff1614806106375750601260003373ffffffffffffffffffffffffffffffffffffffff1673ffffffffffffffffffffffffffffffffffffffff16815260200190815260200160002060009054906101000a900460ff16801561063657508173ffffffffffffffffffffffffffffffffffffffff16600c60003373ffffffffffffffffffffffffffffffffffffffff1673ffffffffffffffffffffffffffffffffffffffff16815260200190815260200160002060010160009054906101000a900473ffffffffffffffffffffffffffffffffffffffff1673ffffffffffffffffffffffffffffffffffffffff16145b5b610676576040517f08c379a000000000000000000000000000000000000000000000000000000000815260040161066d90615504565b60405180910390fd5b600a60008373ffffffffffffffffffffffffffffffffffffffff1673ffffffffffffffffffffffffffffffffffffffff1681526020019081526020016000206040518060c00160405290816000820180546106d090615553565b80601f01602080910402602001604051908101604052809291908181526020018280546106fc90615553565b80156107495780601f1061071e57610100808354040283529160200191610749565b820191906000526020600020905b81548152906001019060200180831161072c57829003601f168201915b5050505050815260200160018201805461076290615553565b80601f016020809104026020016040519081016040528092919081815260200182805461078e90615553565b80156107db5780601f106107b0576101008083540402835291602001916107db565b820191906000526020600020905b8154815290600101906020018083116107be57829003601f168201915b505050505081526020016002820160009054906101000a900473ffffffffffffffffffffffffffffffffffffffff1673ffffffffffffffffffffffffffffffffffffffff1673ffffffffffffffffffffffffffffffffffffffff16815260200160038201805461084a90615553565b80601f016020809104026020016040519081016040528092919081815260200182805461087690615553565b80156108c35780601f10610898576101008083540402835291602001916108c3565b820191906000526020600020905b8154815290600101906020018083116108a657829003601f168201915b505050505081526020016004820160009054906101000a900473ffffffffffffffffffffffffffffffffffffffff1673ffffffffffffffffffffffffffffffffffffffff1673ffffffffffffffffffffffffffffffffffffffff1681526020016004820160149054906101000a900460ff1615151515815250509050919050565b600a60205280600052604060002060009150905080600001805461096790615553565b80601f016020809104026020016040519081016040528092919081815260200182805461099390615553565b80156109e05780601f106109b5576101008083540402835291602001916109e0565b820191906000526020600020905b8154815290600101906020018083116109c357829003601f168201915b5050505050908060010180546109f590615553565b80601f0160208091040260200160405190810160405280929190818152602001828054610a2190615553565b8015610a6e5780601f10610a4357610100808354040283529160200191610a6e565b820191906000526020600020905b815481529060010190602001808311610a5157829003601f168201915b5050505050908060020160009054906101000a900473ffffffffffffffffffffffffffffffffffffffff1690806003018054610aa990615553565b80601f0160208091040260200160405190810160405280929190818152602001828054610ad590615553565b8015610b225780601f10610af757610100808354040283529160200191610b22565b820191906000526020600020905b815481529060010190602001808311610b0557829003601f168201915b5050505050908060040160009054906101000a900473ffffffffffffffffffffffffffffffffffffffff16908060040160149054906101000a900460ff16905086565b600260009054906101000a900473ffffffffffffffffffffffffffffffffffffffff1681565b606060036000018054610b9d90615553565b80601f0160208091040260200160405190810160405280929190818152602001828054610bc990615553565b8015610c165780601f10610beb57610100808354040283529160200191610c16565b820191906000526020600020905b815481529060010190602001808311610bf957829003601f168201915b5050505050905090565b6060600160009054906101000a900473ffffffffffffffffffffffffffffffffffffffff1673ffffffffffffffffffffffffffffffffffffffff163373ffffffffffffffffffffffffffffffffffffffff1614610cb2576040517f08c379a0000000000000000000000000000000000000000000000000000000008152600401610ca9906155d0565b60405180910390fd5b600b805480602002602001604051908101604052809291908181526020018280548015610d3457602002820191906000526020600020905b8160009054906101000a900473ffffffffffffffffffffffffffffffffffffffff1673ffffffffffffffffffffffffffffffffffffffff1681526020019060010190808311610cea575b5050505050905090565b600160009054906101000a900473ffffffffffffffffffffffffffffffffffffffff1673ffffffffffffffffffffffffffffffffffffffff163373ffffffffffffffffffffffffffffffffffffffff1614610dce576040517f08c379a0000000000000000000000000000000000000000000000000000000008152600401610dc5906155d0565b60405180910390fd5b600073ffffffffffffffffffffffffffffffffffffffff16600a60008373ffffffffffffffffffffffffffffffffffffffff1673ffffffffffffffffffffffffffffffffffffffff16815260200190815260200160002060040160009054906101000a900473ffffffffffffffffffffffffffffffffffffffff1673ffffffffffffffffffffffffffffffffffffffff1614610e9f576040517f08c379a0000000000000000000000000000000000000000000000000000000008152600401610e969061563c565b60405180910390fd5b60405180604001604052808381526020018273ffffffffffffffffffffffffffffffffffffffff16815250600c60008573ffffffffffffffffffffffffffffffffffffffff1673ffffffffffffffffffffffffffffffffffffffff1681526020019081526020016000206000820151816000019081610f1e91906157fe565b5060208201518160010160006101000a81548173ffffffffffffffffffffffffffffffffffffffff021916908373ffffffffffffffffffffffffffffffffffffffff160217905550905050600d839080600181540180825580915050600190039060005260206000200160009091909190916101000a81548173ffffffffffffffffffffffffffffffffffffffff021916908373ffffffffffffffffffffffffffffffffffffffff160217905550600e8290806001815401808255809150506001900390600052602060002001600090919091909150908161100091906157fe565b506001601260008573ffffffffffffffffffffffffffffffffffffffff1673ffffffffffffffffffffffffffffffffffffffff16815260200190815260200160002060006101000a81548160ff02191690831515021790555082600a60008373ffffffffffffffffffffffffffffffffffffffff1673ffffffffffffffffffffffffffffffffffffffff16815260200190815260200160002060040160006101000a81548173ffffffffffffffffffffffffffffffffffffffff021916908373ffffffffffffffffffffffffffffffffffffffff160217905550505050565b600160009054906101000a900473ffffffffffffffffffffffffffffffffffffffff1673ffffffffffffffffffffffffffffffffffffffff163373ffffffffffffffffffffffffffffffffffffffff161461116f576040517f08c379a0000000000000000000000000000000000000000000000000000000008152600401611166906155d0565b60405180910390fd5b6000601260008373ffffffffffffffffffffffffffffffffffffffff1673ffffffffffffffffffffffffffffffffffffffff16815260200190815260200160002060006101000a81548160ff0219169083151502179055506000600c60008373ffffffffffffffffffffffffffffffffffffffff1673ffffffffffffffffffffffffffffffffffffffff16815260200190815260200160002060010160009054906101000a900473ffffffffffffffffffffffffffffffffffffffff1690506000600a60008373ffffffffffffffffffffffffffffffffffffffff1673ffffffffffffffffffffffffffffffffffffffff16815260200190815260200160002060040160006101000a81548173ffffffffffffffffffffffffffffffffffffffff021916908373ffffffffffffffffffffffffffffffffffffffff16021790555060005b600d805490508110156114c0578273ffffffffffffffffffffffffffffffffffffffff16600d82815481106112eb576112ea6158d0565b5b9060005260206000200160009054906101000a900473ffffffffffffffffffffffffffffffffffffffff1673ffffffffffffffffffffffffffffffffffffffff16036114b357600d6001600d80549050611345919061592e565b81548110611356576113556158d0565b5b9060005260206000200160009054906101000a900473ffffffffffffffffffffffffffffffffffffffff16600d8281548110611395576113946158d0565b5b9060005260206000200160006101000a81548173ffffffffffffffffffffffffffffffffffffffff021916908373ffffffffffffffffffffffffffffffffffffffff160217905550600d8054806113ef576113ee615962565b5b6001900381819060005260206000200160006101000a81549073ffffffffffffffffffffffffffffffffffffffff02191690559055600e6001600e80549050611438919061592e565b81548110611449576114486158d0565b5b90600052602060002001600e8281548110611467576114666158d0565b5b90600052602060002001908161147d91906159bc565b50600e8054806114905761148f615962565b5b6001900381819060005260206000200160006114ac9190614355565b90556114c0565b80806001019150506112b3565b50600c60008373ffffffffffffffffffffffffffffffffffffffff1673ffffffffffffffffffffffffffffffffffffffff168152602001908152602001600020600080820160006115119190614355565b6001820160006101000a81549073ffffffffffffffffffffffffffffffffffffffff021916905550505050565b6000600160009054906101000a900473ffffffffffffffffffffffffffffffffffffffff1673ffffffffffffffffffffffffffffffffffffffff163373ffffffffffffffffffffffffffffffffffffffff1614806115e55750601260003373ffffffffffffffffffffffffffffffffffffffff1673ffffffffffffffffffffffffffffffffffffffff16815260200190815260200160002060009054906101000a900460ff165b611624576040517f08c379a000000000000000000000000000000000000000000000000000000000815260040161161b90615af0565b60405180910390fd5b60008054906101000a900473ffffffffffffffffffffffffffffffffffffffff16905090565b600160009054906101000a900473ffffffffffffffffffffffffffffffffffffffff1673ffffffffffffffffffffffffffffffffffffffff163373ffffffffffffffffffffffffffffffffffffffff16146116da576040517f08c379a00000000000000000000000000000000000000000000000000000000081526004016116d1906155d0565b60405180910390fd5b60006040518061012001604052803373ffffffffffffffffffffffffffffffffffffffff1681526020018c81526020018b81526020016000151581526020016040518060200160405280600081525081526020018a8a8080601f016020809104026020016040519081016040528093929190818152602001838380828437600081840152601f19601f82011690508083019250505050505050815260200188888080601f016020809104026020016040519081016040528093929190818152602001838380828437600081840152601f19601f82011690508083019250505050505050815260200186868080601f016020809104026020016040519081016040528093929190818152602001838380828437600081840152601f19601f820116905080830192505050505050508152602001848480806020026020016040519081016040528093929190818152602001838360200280828437600081840152601f19601f8201169050808301925050505050505081525090506000600260009054906101000a900473ffffffffffffffffffffffffffffffffffffffff1673ffffffffffffffffffffffffffffffffffffffff16634be731d0836040518263ffffffff1660e01b81526004016118b09190615bf1565b6000604051808303816000875af11580156118cf573d6000803e3d6000fd5b505050506040513d6000823e3d601f19601f820116820180604052508101906118f89190615fb3565b9050601381908060018154018082558091505060019003906000526020600020906009020160009091909190915060008201518160000160006101000a81548173ffffffffffffffffffffffffffffffffffffffff021916908373ffffffffffffffffffffffffffffffffffffffff160217905550602082015181600101556040820151816002015560608201518160030160006101000a81548160ff02191690831515021790555060808201518160040190816119b69190616057565b5060a08201518160050190816119cc91906157fe565b5060c08201518160060190816119e291906157fe565b5060e08201518160070190816119f891906157fe565b50610100820151816008019080519060200190611a16929190614395565b50505060005b84849050811015611bb75760146000868684818110611a3e57611a3d6158d0565b5b9050602002016020810190611a5391906144eb565b73ffffffffffffffffffffffffffffffffffffffff1673ffffffffffffffffffffffffffffffffffffffff16815260200190815260200160002082908060018154018082558091505060019003906000526020600020906009020160009091909190915060008201518160000160006101000a81548173ffffffffffffffffffffffffffffffffffffffff021916908373ffffffffffffffffffffffffffffffffffffffff160217905550602082015181600101556040820151816002015560608201518160030160006101000a81548160ff0219169083151502179055506080820151816004019081611b479190616057565b5060a0820151816005019081611b5d91906157fe565b5060c0820151816006019081611b7391906157fe565b5060e0820151816007019081611b8991906157fe565b50610100820151816008019080519060200190611ba7929190614395565b5050508080600101915050611a1c565b50505050505050505050505050565b611bce61441f565b60036040518060e0016040529081600082018054611beb90615553565b80601f0160208091040260200160405190810160405280929190818152602001828054611c1790615553565b8015611c645780601f10611c3957610100808354040283529160200191611c64565b820191906000526020600020905b815481529060010190602001808311611c4757829003601f168201915b50505050508152602001600182018054611c7d90615553565b80601f0160208091040260200160405190810160405280929190818152602001828054611ca990615553565b8015611cf65780601f10611ccb57610100808354040283529160200191611cf6565b820191906000526020600020905b815481529060010190602001808311611cd957829003601f168201915b50505050508152602001600282018054611d0f90615553565b80601f0160208091040260200160405190810160405280929190818152602001828054611d3b90615553565b8015611d885780601f10611d5d57610100808354040283529160200191611d88565b820191906000526020600020905b815481529060010190602001808311611d6b57829003601f168201915b50505050508152602001600382018054611da190615553565b80601f0160208091040260200160405190810160405280929190818152602001828054611dcd90615553565b8015611e1a5780601f10611def57610100808354040283529160200191611e1a565b820191906000526020600020905b815481529060010190602001808311611dfd57829003601f168201915b50505050508152602001600482018054611e3390615553565b80601f0160208091040260200160405190810160405280929190818152602001828054611e5f90615553565b8015611eac5780601f10611e8157610100808354040283529160200191611eac565b820191906000526020600020905b815481529060010190602001808311611e8f57829003601f168201915b50505050508152602001600582018054611ec590615553565b80601f0160208091040260200160405190810160405280929190818152602001828054611ef190615553565b8015611f3e5780601f10611f1357610100808354040283529160200191611f3e565b820191906000526020600020905b815481529060010190602001808311611f2157829003601f168201915b50505050508152602001600682018054611f5790615553565b80601f0160208091040260200160405190810160405280929190818152602001828054611f8390615553565b8015611fd05780601f10611fa557610100808354040283529160200191611fd0565b820191906000526020600020905b815481529060010190602001808311611fb357829003601f168201915b505050505081525050905090565b606080600160009054906101000a900473ffffffffffffffffffffffffffffffffffffffff1673ffffffffffffffffffffffffffffffffffffffff163373ffffffffffffffffffffffffffffffffffffffff1614612071576040517f08c379a0000000000000000000000000000000000000000000000000000000008152600401612068906155d0565b60405180910390fd5b600d600e818054806020026020016040519081016040528092919081815260200182805480156120f657602002820191906000526020600020905b8160009054906101000a900473ffffffffffffffffffffffffffffffffffffffff1673ffffffffffffffffffffffffffffffffffffffff16815260200190600101908083116120ac575b5050505050915080805480602002602001604051908101604052809291908181526020016000905b828210156121ca57838290600052602060002001805461213d90615553565b80601f016020809104026020016040519081016040528092919081815260200182805461216990615553565b80156121b65780601f1061218b576101008083540402835291602001916121b6565b820191906000526020600020905b81548152906001019060200180831161219957829003601f168201915b50505050508152602001906001019061211e565b505050509050915091509091565b6060601260003373ffffffffffffffffffffffffffffffffffffffff1673ffffffffffffffffffffffffffffffffffffffff16815260200190815260200160002060009054906101000a900460ff16612266576040517f08c379a000000000000000000000000000000000000000000000000000000000815260040161225d90616175565b60405180910390fd5b601460008373ffffffffffffffffffffffffffffffffffffffff1673ffffffffffffffffffffffffffffffffffffffff168152602001908152602001600020805480602002602001604051908101604052809291908181526020016000905b828210156126535783829060005260206000209060090201604051806101200160405290816000820160009054906101000a900473ffffffffffffffffffffffffffffffffffffffff1673ffffffffffffffffffffffffffffffffffffffff1673ffffffffffffffffffffffffffffffffffffffff16815260200160018201548152602001600282015481526020016003820160009054906101000a900460ff1615151515815260200160048201805461237e90615553565b80601f01602080910402602001604051908101604052809291908181526020018280546123aa90615553565b80156123f75780601f106123cc576101008083540402835291602001916123f7565b820191906000526020600020905b8154815290600101906020018083116123da57829003601f168201915b5050505050815260200160058201805461241090615553565b80601f016020809104026020016040519081016040528092919081815260200182805461243c90615553565b80156124895780601f1061245e57610100808354040283529160200191612489565b820191906000526020600020905b81548152906001019060200180831161246c57829003601f168201915b505050505081526020016006820180546124a290615553565b80601f01602080910402602001604051908101604052809291908181526020018280546124ce90615553565b801561251b5780601f106124f05761010080835404028352916020019161251b565b820191906000526020600020905b8154815290600101906020018083116124fe57829003601f168201915b5050505050815260200160078201805461253490615553565b80601f016020809104026020016040519081016040528092919081815260200182805461256090615553565b80156125ad5780601f10612582576101008083540402835291602001916125ad565b820191906000526020600020905b81548152906001019060200180831161259057829003601f168201915b505050505081526020016008820180548060200260200160405190810160405280929190818152602001828054801561263b57602002820191906000526020600020905b8160009054906101000a900473ffffffffffffffffffffffffffffffffffffffff1673ffffffffffffffffffffffffffffffffffffffff16815260200190600101908083116125f1575b505050505081525050815260200190600101906122c5565b505050509050919050565b6000600160009054906101000a900473ffffffffffffffffffffffffffffffffffffffff1673ffffffffffffffffffffffffffffffffffffffff163373ffffffffffffffffffffffffffffffffffffffff1614806127055750601260003373ffffffffffffffffffffffffffffffffffffffff1673ffffffffffffffffffffffffffffffffffffffff16815260200190815260200160002060009054906101000a900460ff165b612744576040517f08c379a000000000000000000000000000000000000000000000000000000000815260040161273b90615504565b60405180910390fd5b60008054906101000a900473ffffffffffffffffffffffffffffffffffffffff1673ffffffffffffffffffffffffffffffffffffffff166370a08231336040518263ffffffff1660e01b815260040161279d9190614a7a565b602060405180830381865afa1580156127ba573d6000803e3d6000fd5b505050506040513d601f19601f820116820180604052508101906127de9190616195565b905090565b601160003373ffffffffffffffffffffffffffffffffffffffff1673ffffffffffffffffffffffffffffffffffffffff16815260200190815260200160002060009054906101000a900460ff1680156128885750600a60003373ffffffffffffffffffffffffffffffffffffffff1673ffffffffffffffffffffffffffffffffffffffff16815260200190815260200160002060040160149054906101000a900460ff165b6128c7576040517f08c379a00000000000000000000000000000000000000000000000000000000081526004016128be9061620e565b60405180910390fd5b600f60003373ffffffffffffffffffffffffffffffffffffffff1673ffffffffffffffffffffffffffffffffffffffff168152602001908152602001600020604051806080016040528088815260200187815260200186868080601f016020809104026020016040519081016040528093929190818152602001838380828437600081840152601f19601f82011690508083019250505050505050815260200184848080601f016020809104026020016040519081016040528093929190818152602001838380828437600081840152601f19601f82011690508083019250505050505050815250908060018154018082558091505060019003906000526020600020906004020160009091909190915060008201518160000155602082015181600101556040820151816002019081612a0191906157fe565b506060820151816003019081612a1791906157fe565b50505060008060009054906101000a900473ffffffffffffffffffffffffffffffffffffffff1673ffffffffffffffffffffffffffffffffffffffff1663320ab0516040518163ffffffff1660e01b8152600401602060405180830381865afa158015612a88573d6000803e3d6000fd5b505050506040513d601f19601f82011682018060405250810190612aac9190616195565b86612ab7919061622e565b90506000600a60003373ffffffffffffffffffffffffffffffffffffffff1673ffffffffffffffffffffffffffffffffffffffff168152602001908152602001600020600301604051602001612b0d9190616370565b60405160208183030381529060405290506000600a60003373ffffffffffffffffffffffffffffffffffffffff1673ffffffffffffffffffffffffffffffffffffffff16815260200190815260200160002060040160009054906101000a900473ffffffffffffffffffffffffffffffffffffffff1690506000600167ffffffffffffffff811115612ba257612ba16148e0565b5b604051908082528060200260200182016040528015612bd05781602001602082028036833780820191505090505b5090508181600081518110612be857612be76158d0565b5b602002602001019073ffffffffffffffffffffffffffffffffffffffff16908173ffffffffffffffffffffffffffffffffffffffff168152505060006040518061012001604052803373ffffffffffffffffffffffffffffffffffffffff1681526020018681526020018c81526020016000151581526020016040518060200160405280600081525081526020016040518060400160405280600781526020017f48454154494e4700000000000000000000000000000000000000000000000000815250815260200185815260200188888080601f016020809104026020016040519081016040528093929190818152602001838380828437600081840152601f19601f8201169050808301925050505050505081526020018381525090506000600260009054906101000a900473ffffffffffffffffffffffffffffffffffffffff1673ffffffffffffffffffffffffffffffffffffffff16634be731d0836040518263ffffffff1660e01b8152600401612d649190615bf1565b6000604051808303816000875af1158015612d83573d6000803e3d6000fd5b505050506040513d6000823e3d601f19601f82011682018060405250810190612dac9190615fb3565b9050601381908060018154018082558091505060019003906000526020600020906009020160009091909190915060008201518160000160006101000a81548173ffffffffffffffffffffffffffffffffffffffff021916908373ffffffffffffffffffffffffffffffffffffffff160217905550602082015181600101556040820151816002015560608201518160030160006101000a81548160ff0219169083151502179055506080820151816004019081612e6a9190616057565b5060a0820151816005019081612e8091906157fe565b5060c0820151816006019081612e9691906157fe565b5060e0820151816007019081612eac91906157fe565b50610100820151816008019080519060200190612eca929190614395565b505050601460008573ffffffffffffffffffffffffffffffffffffffff1673ffffffffffffffffffffffffffffffffffffffff16815260200190815260200160002081908060018154018082558091505060019003906000526020600020906009020160009091909190915060008201518160000160006101000a81548173ffffffffffffffffffffffffffffffffffffffff021916908373ffffffffffffffffffffffffffffffffffffffff160217905550602082015181600101556040820151816002015560608201518160030160006101000a81548160ff0219169083151502179055506080820151816004019081612fc69190616057565b5060a0820151816005019081612fdc91906157fe565b5060c0820151816006019081612ff291906157fe565b5060e082015181600701908161300891906157fe565b50610100820151816008019080519060200190613026929190614395565b5050503373ffffffffffffffffffffffffffffffffffffffff167f550066d608ea56e089cd4c6f3ccd9557109a2adf9eb1fc812763cbffe3a325d1428d604051613071929190616392565b60405180910390a2505050505050505050505050565b60126020528060005260406000206000915054906101000a900460ff1681565b6060600160009054906101000a900473ffffffffffffffffffffffffffffffffffffffff1673ffffffffffffffffffffffffffffffffffffffff163373ffffffffffffffffffffffffffffffffffffffff1614613139576040517f08c379a0000000000000000000000000000000000000000000000000000000008152600401613130906155d0565b60405180910390fd5b6013805480602002602001604051908101604052809291908181526020016000905b828210156134e95783829060005260206000209060090201604051806101200160405290816000820160009054906101000a900473ffffffffffffffffffffffffffffffffffffffff1673ffffffffffffffffffffffffffffffffffffffff1673ffffffffffffffffffffffffffffffffffffffff16815260200160018201548152602001600282015481526020016003820160009054906101000a900460ff1615151515815260200160048201805461321490615553565b80601f016020809104026020016040519081016040528092919081815260200182805461324090615553565b801561328d5780601f106132625761010080835404028352916020019161328d565b820191906000526020600020905b81548152906001019060200180831161327057829003601f168201915b505050505081526020016005820180546132a690615553565b80601f01602080910402602001604051908101604052809291908181526020018280546132d290615553565b801561331f5780601f106132f45761010080835404028352916020019161331f565b820191906000526020600020905b81548152906001019060200180831161330257829003601f168201915b5050505050815260200160068201805461333890615553565b80601f016020809104026020016040519081016040528092919081815260200182805461336490615553565b80156133b15780601f10613386576101008083540402835291602001916133b1565b820191906000526020600020905b81548152906001019060200180831161339457829003601f168201915b505050505081526020016007820180546133ca90615553565b80601f01602080910402602001604051908101604052809291908181526020018280546133f690615553565b80156134435780601f1061341857610100808354040283529160200191613443565b820191906000526020600020905b81548152906001019060200180831161342657829003601f168201915b50505050508152602001600882018054806020026020016040519081016040528092919081815260200182805480156134d157602002820191906000526020600020905b8160009054906101000a900473ffffffffffffffffffffffffffffffffffffffff1673ffffffffffffffffffffffffffffffffffffffff1681526020019060010190808311613487575b5050505050815250508152602001906001019061315b565b50505050905090565b600160009054906101000a900473ffffffffffffffffffffffffffffffffffffffff1673ffffffffffffffffffffffffffffffffffffffff163373ffffffffffffffffffffffffffffffffffffffff1614613582576040517f08c379a0000000000000000000000000000000000000000000000000000000008152600401613579906155d0565b60405180910390fd5b600a60008373ffffffffffffffffffffffffffffffffffffffff1673ffffffffffffffffffffffffffffffffffffffff16815260200190815260200160002060040160149054906101000a900460ff1615613612576040517f08c379a000000000000000000000000000000000000000000000000000000000815260040161360990616407565b60405180910390fd5b6040518060c001604052808581526020018481526020018373ffffffffffffffffffffffffffffffffffffffff168152602001828152602001600073ffffffffffffffffffffffffffffffffffffffff16815260200160011515815250600a60008473ffffffffffffffffffffffffffffffffffffffff1673ffffffffffffffffffffffffffffffffffffffff16815260200190815260200160002060008201518160000190816136c391906157fe565b5060208201518160010190816136d991906157fe565b5060408201518160020160006101000a81548173ffffffffffffffffffffffffffffffffffffffff021916908373ffffffffffffffffffffffffffffffffffffffff160217905550606082015181600301908161373691906157fe565b5060808201518160040160006101000a81548173ffffffffffffffffffffffffffffffffffffffff021916908373ffffffffffffffffffffffffffffffffffffffff16021790555060a08201518160040160146101000a81548160ff0219169083151502179055509050506001601160008473ffffffffffffffffffffffffffffffffffffffff1673ffffffffffffffffffffffffffffffffffffffff16815260200190815260200160002060006101000a81548160ff021916908315150217905550600b829080600181540180825580915050600190039060005260206000200160009091909190916101000a81548173ffffffffffffffffffffffffffffffffffffffff021916908373ffffffffffffffffffffffffffffffffffffffff1602179055508173ffffffffffffffffffffffffffffffffffffffff167f49678145bcf4dcaf25c4bff4c2bd8262ee07185373d0e2c241598420b8e4d7318585846040516138a693929190616427565b60405180910390a250505050565b6060601260003373ffffffffffffffffffffffffffffffffffffffff1673ffffffffffffffffffffffffffffffffffffffff16815260200190815260200160002060009054906101000a900460ff16613942576040517f08c379a000000000000000000000000000000000000000000000000000000000815260040161393990616175565b60405180910390fd5b600c60008373ffffffffffffffffffffffffffffffffffffffff1673ffffffffffffffffffffffffffffffffffffffff168152602001908152602001600020600001805461398f90615553565b80601f01602080910402602001604051908101604052809291908181526020018280546139bb90615553565b8015613a085780601f106139dd57610100808354040283529160200191613a08565b820191906000526020600020905b8154815290600101906020018083116139eb57829003601f168201915b50505050509050919050565b601160003373ffffffffffffffffffffffffffffffffffffffff1673ffffffffffffffffffffffffffffffffffffffff16815260200190815260200160002060009054906101000a900460ff168015613ab95750600a60003373ffffffffffffffffffffffffffffffffffffffff1673ffffffffffffffffffffffffffffffffffffffff16815260200190815260200160002060040160149054906101000a900460ff165b613af8576040517f08c379a0000000000000000000000000000000000000000000000000000000008152600401613aef9061620e565b60405180910390fd5b601060003373ffffffffffffffffffffffffffffffffffffffff1673ffffffffffffffffffffffffffffffffffffffff168152602001908152602001600020828290918060018154018082558091505060019003906000526020600020016000909192909192909192909192509182613b7292919061647e565b505050565b60008054906101000a900473ffffffffffffffffffffffffffffffffffffffff1681565b600160009054906101000a900473ffffffffffffffffffffffffffffffffffffffff1681565b6060600160009054906101000a900473ffffffffffffffffffffffffffffffffffffffff1673ffffffffffffffffffffffffffffffffffffffff163373ffffffffffffffffffffffffffffffffffffffff161480613d015750601260003373ffffffffffffffffffffffffffffffffffffffff1673ffffffffffffffffffffffffffffffffffffffff16815260200190815260200160002060009054906101000a900460ff168015613d0057508173ffffffffffffffffffffffffffffffffffffffff16600c60003373ffffffffffffffffffffffffffffffffffffffff1673ffffffffffffffffffffffffffffffffffffffff16815260200190815260200160002060010160009054906101000a900473ffffffffffffffffffffffffffffffffffffffff1673ffffffffffffffffffffffffffffffffffffffff16145b5b613d40576040517f08c379a0000000000000000000000000000000000000000000000000000000008152600401613d3790615504565b60405180910390fd5b600f60008373ffffffffffffffffffffffffffffffffffffffff1673ffffffffffffffffffffffffffffffffffffffff168152602001908152602001600020805480602002602001604051908101604052809291908181526020016000905b82821015613f0957838290600052602060002090600402016040518060800160405290816000820154815260200160018201548152602001600282018054613de690615553565b80601f0160208091040260200160405190810160405280929190818152602001828054613e1290615553565b8015613e5f5780601f10613e3457610100808354040283529160200191613e5f565b820191906000526020600020905b815481529060010190602001808311613e4257829003601f168201915b50505050508152602001600382018054613e7890615553565b80601f0160208091040260200160405190810160405280929190818152602001828054613ea490615553565b8015613ef15780601f10613ec657610100808354040283529160200191613ef1565b820191906000526020600020905b815481529060010190602001808311613ed457829003601f168201915b50505050508152505081526020019060010190613d9f565b505050509050919050565b6000601260003373ffffffffffffffffffffffffffffffffffffffff1673ffffffffffffffffffffffffffffffffffffffff16815260200190815260200160002060009054906101000a900460ff16613fa2576040517f08c379a0000000000000000000000000000000000000000000000000000000008152600401613f9990616175565b60405180910390fd5b600c60008373ffffffffffffffffffffffffffffffffffffffff1673ffffffffffffffffffffffffffffffffffffffff16815260200190815260200160002060010160009054906101000a900473ffffffffffffffffffffffffffffffffffffffff169050919050565b600c60205280600052604060002060009150905080600001805461402f90615553565b80601f016020809104026020016040519081016040528092919081815260200182805461405b90615553565b80156140a85780601f1061407d576101008083540402835291602001916140a8565b820191906000526020600020905b81548152906001019060200180831161408b57829003601f168201915b5050505050908060010160009054906101000a900473ffffffffffffffffffffffffffffffffffffffff16905082565b6060600160009054906101000a900473ffffffffffffffffffffffffffffffffffffffff1673ffffffffffffffffffffffffffffffffffffffff163373ffffffffffffffffffffffffffffffffffffffff160361416c576040518060400160405280600581526020017f61646d696e00000000000000000000000000000000000000000000000000000081525090506142c3565b601160003373ffffffffffffffffffffffffffffffffffffffff1673ffffffffffffffffffffffffffffffffffffffff16815260200190815260200160002060009054906101000a900460ff16156141fb576040518060400160405280600a81526020017f736d6172744d657465720000000000000000000000000000000000000000000081525090506142c3565b601260003373ffffffffffffffffffffffffffffffffffffffff1673ffffffffffffffffffffffffffffffffffffffff16815260200190815260200160002060009054906101000a900460ff161561428a576040518060400160405280600681526020017f74656e616e74000000000000000000000000000000000000000000000000000081525090506142c3565b6040518060400160405280600781526020017f756e6b6e6f776e0000000000000000000000000000000000000000000000000081525090505b90565b60006a636f6e736f6c652e6c6f679050600080835160208501845afa505050565b6142ef61654e565b565b6040518060c001604052806060815260200160608152602001600073ffffffffffffffffffffffffffffffffffffffff16815260200160608152602001600073ffffffffffffffffffffffffffffffffffffffff1681526020016000151581525090565b50805461436190615553565b6000825580601f106143735750614392565b601f016020900490600052602060002090810190614391919061445c565b5b50565b82805482825590600052602060002090810192821561440e579160200282015b8281111561440d5782518260006101000a81548173ffffffffffffffffffffffffffffffffffffffff021916908373ffffffffffffffffffffffffffffffffffffffff160217905550916020019190600101906143b5565b5b50905061441b919061445c565b5090565b6040518060e00160405280606081526020016060815260200160608152602001606081526020016060815260200160608152602001606081525090565b5b8082111561447557600081600090555060010161445d565b5090565b6000604051905090565b600080fd5b600080fd5b600073ffffffffffffffffffffffffffffffffffffffff82169050919050565b60006144b88261448d565b9050919050565b6144c8816144ad565b81146144d357600080fd5b50565b6000813590506144e5816144bf565b92915050565b60006020828403121561450157614500614483565b5b600061450f848285016144d6565b91505092915050565b600081519050919050565b600082825260208201905092915050565b60005b83811015614552578082015181840152602081019050614537565b60008484015250505050565b6000601f19601f8301169050919050565b600061457a82614518565b6145848185614523565b9350614594818560208601614534565b61459d8161455e565b840191505092915050565b6145b1816144ad565b82525050565b60008115159050919050565b6145cc816145b7565b82525050565b600060c08301600083015184820360008601526145ef828261456f565b91505060208301518482036020860152614609828261456f565b915050604083015161461e60408601826145a8565b5060608301518482036060860152614636828261456f565b915050608083015161464b60808601826145a8565b5060a083015161465e60a08601826145c3565b508091505092915050565b6000602082019050818103600083015261468381846145d2565b905092915050565b600082825260208201905092915050565b60006146a782614518565b6146b1818561468b565b93506146c1818560208601614534565b6146ca8161455e565b840191505092915050565b6146de816144ad565b82525050565b6146ed816145b7565b82525050565b600060c082019050818103600083015261470d818961469c565b90508181036020830152614721818861469c565b905061473060408301876146d5565b8181036060830152614742818661469c565b905061475160808301856146d5565b61475e60a08301846146e4565b979650505050505050565b6000819050919050565b600061478e6147896147848461448d565b614769565b61448d565b9050919050565b60006147a082614773565b9050919050565b60006147b282614795565b9050919050565b6147c2816147a7565b82525050565b60006020820190506147dd60008301846147b9565b92915050565b600060208201905081810360008301526147fd818461469c565b905092915050565b600081519050919050565b600082825260208201905092915050565b6000819050602082019050919050565b600061483d83836145a8565b60208301905092915050565b6000602082019050919050565b600061486182614805565b61486b8185614810565b935061487683614821565b8060005b838110156148a757815161488e8882614831565b975061489983614849565b92505060018101905061487a565b5085935050505092915050565b600060208201905081810360008301526148ce8184614856565b905092915050565b600080fd5b600080fd5b7f4e487b7100000000000000000000000000000000000000000000000000000000600052604160045260246000fd5b6149188261455e565b810181811067ffffffffffffffff82111715614937576149366148e0565b5b80604052505050565b600061494a614479565b9050614956828261490f565b919050565b600067ffffffffffffffff821115614976576149756148e0565b5b61497f8261455e565b9050602081019050919050565b82818337600083830152505050565b60006149ae6149a98461495b565b614940565b9050828152602081018484840111156149ca576149c96148db565b5b6149d584828561498c565b509392505050565b600082601f8301126149f2576149f16148d6565b5b8135614a0284826020860161499b565b91505092915050565b600080600060608486031215614a2457614a23614483565b5b6000614a32868287016144d6565b935050602084013567ffffffffffffffff811115614a5357614a52614488565b5b614a5f868287016149dd565b9250506040614a70868287016144d6565b9150509250925092565b6000602082019050614a8f60008301846146d5565b92915050565b6000819050919050565b614aa881614a95565b8114614ab357600080fd5b50565b600081359050614ac581614a9f565b92915050565b600080fd5b600080fd5b60008083601f840112614aeb57614aea6148d6565b5b8235905067ffffffffffffffff811115614b0857614b07614acb565b5b602083019150836001820283011115614b2457614b23614ad0565b5b9250929050565b60008083601f840112614b4157614b406148d6565b5b8235905067ffffffffffffffff811115614b5e57614b5d614acb565b5b602083019150836020820283011115614b7a57614b79614ad0565b5b9250929050565b60008060008060008060008060008060c08b8d031215614ba457614ba3614483565b5b6000614bb28d828e01614ab6565b9a50506020614bc38d828e01614ab6565b99505060408b013567ffffffffffffffff811115614be457614be3614488565b5b614bf08d828e01614ad5565b985098505060608b013567ffffffffffffffff811115614c1357614c12614488565b5b614c1f8d828e01614ad5565b965096505060808b013567ffffffffffffffff811115614c4257614c41614488565b5b614c4e8d828e01614ad5565b945094505060a08b013567ffffffffffffffff811115614c7157614c70614488565b5b614c7d8d828e01614b2b565b92509250509295989b9194979a5092959850565b600060e0830160008301518482036000860152614cae828261456f565b91505060208301518482036020860152614cc8828261456f565b91505060408301518482036040860152614ce2828261456f565b91505060608301518482036060860152614cfc828261456f565b91505060808301518482036080860152614d16828261456f565b91505060a083015184820360a0860152614d30828261456f565b91505060c083015184820360c0860152614d4a828261456f565b9150508091505092915050565b60006020820190508181036000830152614d718184614c91565b905092915050565b600081519050919050565b600082825260208201905092915050565b6000819050602082019050919050565b6000614db1838361456f565b905092915050565b6000602082019050919050565b6000614dd182614d79565b614ddb8185614d84565b935083602082028501614ded85614d95565b8060005b85811015614e295784840389528151614e0a8582614da5565b9450614e1583614db9565b925060208a01995050600181019050614df1565b50829750879550505050505092915050565b60006040820190508181036000830152614e558185614856565b90508181036020830152614e698184614dc6565b90509392505050565b600081519050919050565b600082825260208201905092915050565b6000819050602082019050919050565b614ea781614a95565b82525050565b600081519050919050565b600082825260208201905092915050565b6000614ed482614ead565b614ede8185614eb8565b9350614eee818560208601614534565b614ef78161455e565b840191505092915050565b600082825260208201905092915050565b6000614f1e82614805565b614f288185614f02565b9350614f3383614821565b8060005b83811015614f64578151614f4b8882614831565b9750614f5683614849565b925050600181019050614f37565b5085935050505092915050565b600061012083016000830151614f8a60008601826145a8565b506020830151614f9d6020860182614e9e565b506040830151614fb06040860182614e9e565b506060830151614fc360608601826145c3565b5060808301518482036080860152614fdb8282614ec9565b91505060a083015184820360a0860152614ff5828261456f565b91505060c083015184820360c086015261500f828261456f565b91505060e083015184820360e0860152615029828261456f565b9150506101008301518482036101008601526150458282614f13565b9150508091505092915050565b600061505e8383614f71565b905092915050565b6000602082019050919050565b600061507e82614e72565b6150888185614e7d565b93508360208202850161509a85614e8e565b8060005b858110156150d657848403895281516150b78582615052565b94506150c283615066565b925060208a0199505060018101905061509e565b50829750879550505050505092915050565b600060208201905081810360008301526151028184615073565b905092915050565b61511381614a95565b82525050565b600060208201905061512e600083018461510a565b92915050565b6000806000806000806080878903121561515157615150614483565b5b600061515f89828a01614ab6565b965050602061517089828a01614ab6565b955050604087013567ffffffffffffffff81111561519157615190614488565b5b61519d89828a01614ad5565b9450945050606087013567ffffffffffffffff8111156151c0576151bf614488565b5b6151cc89828a01614ad5565b92509250509295509295509295565b60006020820190506151f060008301846146e4565b92915050565b600080600080608085870312156152105761520f614483565b5b600085013567ffffffffffffffff81111561522e5761522d614488565b5b61523a878288016149dd565b945050602085013567ffffffffffffffff81111561525b5761525a614488565b5b615267878288016149dd565b9350506040615278878288016144d6565b925050606085013567ffffffffffffffff81111561529957615298614488565b5b6152a5878288016149dd565b91505092959194509250565b600080602083850312156152c8576152c7614483565b5b600083013567ffffffffffffffff8111156152e6576152e5614488565b5b6152f285828601614ad5565b92509250509250929050565b600061530982614795565b9050919050565b615319816152fe565b82525050565b60006020820190506153346000830184615310565b92915050565b600081519050919050565b600082825260208201905092915050565b6000819050602082019050919050565b600060808301600083015161537e6000860182614e9e565b5060208301516153916020860182614e9e565b50604083015184820360408601526153a9828261456f565b915050606083015184820360608601526153c3828261456f565b9150508091505092915050565b60006153dc8383615366565b905092915050565b6000602082019050919050565b60006153fc8261533a565b6154068185615345565b93508360208202850161541885615356565b8060005b85811015615454578484038952815161543585826153d0565b9450615440836153e4565b925060208a0199505060018101905061541c565b50829750879550505050505092915050565b6000602082019050818103600083015261548081846153f1565b905092915050565b600060408201905081810360008301526154a2818561469c565b90506154b160208301846146d5565b9392505050565b7f4e6f7420617574686f72697a6564000000000000000000000000000000000000600082015250565b60006154ee600e8361468b565b91506154f9826154b8565b602082019050919050565b6000602082019050818103600083015261551d816154e1565b9050919050565b7f4e487b7100000000000000000000000000000000000000000000000000000000600052602260045260246000fd5b6000600282049050600182168061556b57607f821691505b60208210810361557e5761557d615524565b5b50919050565b7f4f6e6c79206d6173746572000000000000000000000000000000000000000000600082015250565b60006155ba600b8361468b565b91506155c582615584565b602082019050919050565b600060208201905081810360008301526155e9816155ad565b9050919050565b7f536d6172744d6574657220616c72656164792061737369676e65642100000000600082015250565b6000615626601c8361468b565b9150615631826155f0565b602082019050919050565b6000602082019050818103600083015261565581615619565b9050919050565b60008190508160005260206000209050919050565b60006020601f8301049050919050565b600082821b905092915050565b6000600883026156be7fffffffffffffffffffffffffffffffffffffffffffffffffffffffffffffffff82615681565b6156c88683615681565b95508019841693508086168417925050509392505050565b60006156fb6156f66156f184614a95565b614769565b614a95565b9050919050565b6000819050919050565b615715836156e0565b61572961572182615702565b84845461568e565b825550505050565b600090565b61573e615731565b61574981848461570c565b505050565b5b8181101561576d57615762600082615736565b60018101905061574f565b5050565b601f8211156157b2576157838161565c565b61578c84615671565b8101602085101561579b578190505b6157af6157a785615671565b83018261574e565b50505b505050565b600082821c905092915050565b60006157d5600019846008026157b7565b1980831691505092915050565b60006157ee83836157c4565b9150826002028217905092915050565b61580782614518565b67ffffffffffffffff8111156158205761581f6148e0565b5b61582a8254615553565b615835828285615771565b600060209050601f8311600181146158685760008415615856578287015190505b61586085826157e2565b8655506158c8565b601f1984166158768661565c565b60005b8281101561589e57848901518255600182019150602085019450602081019050615879565b868310156158bb57848901516158b7601f8916826157c4565b8355505b6001600288020188555050505b505050505050565b7f4e487b7100000000000000000000000000000000000000000000000000000000600052603260045260246000fd5b7f4e487b7100000000000000000000000000000000000000000000000000000000600052601160045260246000fd5b600061593982614a95565b915061594483614a95565b925082820390508181111561595c5761595b6158ff565b5b92915050565b7f4e487b7100000000000000000000000000000000000000000000000000000000600052603160045260246000fd5b6000815490506159a081615553565b9050919050565b60008190508160005260206000209050919050565b8181036159ca575050615aa2565b6159d382615991565b67ffffffffffffffff8111156159ec576159eb6148e0565b5b6159f68254615553565b615a01828285615771565b6000601f831160018114615a305760008415615a1e578287015490505b615a2885826157e2565b865550615a9b565b601f198416615a3e876159a7565b9650615a498661565c565b60005b82811015615a7157848901548255600182019150600185019450602081019050615a4c565b86831015615a8e5784890154615a8a601f8916826157c4565b8355505b6001600288020188555050505b5050505050505b565b7f556e617574686f72697a65640000000000000000000000000000000000000000600082015250565b6000615ada600c8361468b565b9150615ae582615aa4565b602082019050919050565b60006020820190508181036000830152615b0981615acd565b9050919050565b600061012083016000830151615b2960008601826145a8565b506020830151615b3c6020860182614e9e565b506040830151615b4f6040860182614e9e565b506060830151615b6260608601826145c3565b5060808301518482036080860152615b7a8282614ec9565b91505060a083015184820360a0860152615b94828261456f565b91505060c083015184820360c0860152615bae828261456f565b91505060e083015184820360e0860152615bc8828261456f565b915050610100830151848203610100860152615be48282614f13565b9150508091505092915050565b60006020820190508181036000830152615c0b8184615b10565b905092915050565b600080fd5b600080fd5b600081519050615c2c816144bf565b92915050565b600081519050615c4181614a9f565b92915050565b615c50816145b7565b8114615c5b57600080fd5b50565b600081519050615c6d81615c47565b92915050565b600067ffffffffffffffff821115615c8e57615c8d6148e0565b5b615c978261455e565b9050602081019050919050565b6000615cb7615cb284615c73565b614940565b905082815260208101848484011115615cd357615cd26148db565b5b615cde848285614534565b509392505050565b600082601f830112615cfb57615cfa6148d6565b5b8151615d0b848260208601615ca4565b91505092915050565b6000615d27615d228461495b565b614940565b905082815260208101848484011115615d4357615d426148db565b5b615d4e848285614534565b509392505050565b600082601f830112615d6b57615d6a6148d6565b5b8151615d7b848260208601615d14565b91505092915050565b600067ffffffffffffffff821115615d9f57615d9e6148e0565b5b602082029050602081019050919050565b6000615dc3615dbe84615d84565b614940565b90508083825260208201905060208402830185811115615de657615de5614ad0565b5b835b81811015615e0f5780615dfb8882615c1d565b845260208401935050602081019050615de8565b5050509392505050565b600082601f830112615e2e57615e2d6148d6565b5b8151615e3e848260208601615db0565b91505092915050565b60006101208284031215615e5e57615e5d615c13565b5b615e69610120614940565b90506000615e7984828501615c1d565b6000830152506020615e8d84828501615c32565b6020830152506040615ea184828501615c32565b6040830152506060615eb584828501615c5e565b606083015250608082015167ffffffffffffffff811115615ed957615ed8615c18565b5b615ee584828501615ce6565b60808301525060a082015167ffffffffffffffff811115615f0957615f08615c18565b5b615f1584828501615d56565b60a08301525060c082015167ffffffffffffffff811115615f3957615f38615c18565b5b615f4584828501615d56565b60c08301525060e082015167ffffffffffffffff811115615f6957615f68615c18565b5b615f7584828501615d56565b60e08301525061010082015167ffffffffffffffff811115615f9a57615f99615c18565b5b615fa684828501615e19565b6101008301525092915050565b600060208284031215615fc957615fc8614483565b5b600082015167ffffffffffffffff811115615fe757615fe6614488565b5b615ff384828501615e47565b91505092915050565b60008190508160005260206000209050919050565b601f8211156160525761602381615ffc565b61602c84615671565b8101602085101561603b578190505b61604f61604785615671565b83018261574e565b50505b505050565b61606082614ead565b67ffffffffffffffff811115616079576160786148e0565b5b6160838254615553565b61608e828285616011565b600060209050601f8311600181146160c157600084156160af578287015190505b6160b985826157e2565b865550616121565b601f1984166160cf86615ffc565b60005b828110156160f7578489015182556001820191506020850194506020810190506160d2565b868310156161145784890151616110601f8916826157c4565b8355505b6001600288020188555050505b505050505050565b7f4e6f742077686974656c69737465642074656e616e7400000000000000000000600082015250565b600061615f60168361468b565b915061616a82616129565b602082019050919050565b6000602082019050818103600083015261618e81616152565b9050919050565b6000602082840312156161ab576161aa614483565b5b60006161b984828501615c32565b91505092915050565b7f4e6f7420612077686974656c697374656420616374697665206d657465720000600082015250565b60006161f8601e8361468b565b9150616203826161c2565b602082019050919050565b60006020820190508181036000830152616227816161eb565b9050919050565b600061623982614a95565b915061624483614a95565b925082820261625281614a95565b91508282048414831517616269576162686158ff565b5b5092915050565b600081905092915050565b7f48454154494e47205265636f7264656420627920534d4152544d45544552204960008201527f443a200000000000000000000000000000000000000000000000000000000000602082015250565b60006162d7602383616270565b91506162e28261627b565b602382019050919050565b600081546162fa81615553565b6163048186616270565b9450600182166000811461631f576001811461633457616367565b60ff1983168652811515820286019350616367565b61633d8561565c565b60005b8381101561635f57815481890152600182019150602081019050616340565b838801955050505b50505092915050565b600061637b826162ca565b915061638782846162ed565b915081905092915050565b60006040820190506163a7600083018561510a565b6163b4602083018461510a565b9392505050565b7f4d6574657220616c726561647920657869737473000000000000000000000000600082015250565b60006163f160148361468b565b91506163fc826163bb565b602082019050919050565b60006020820190508181036000830152616420816163e4565b9050919050565b60006060820190508181036000830152616441818661469c565b90508181036020830152616455818561469c565b90508181036040830152616469818461469c565b9050949350505050565b600082905092915050565b6164888383616473565b67ffffffffffffffff8111156164a1576164a06148e0565b5b6164ab8254615553565b6164b6828285615771565b6000601f8311600181146164e557600084156164d3578287013590505b6164dd85826157e2565b865550616545565b601f1984166164f38661565c565b60005b8281101561651b578489013582556001820191506020850194506020810190506164f6565b868310156165385784890135616534601f8916826157c4565b8355505b6001600288020188555050505b50505050505050565b7f4e487b7100000000000000000000000000000000000000000000000000000000600052605160045260246000fdfea26469706673582212202812b1c7228e4048f7f23699dec0f565e5f900cba68a75b5af7bc0e8fda4342c64736f6c634300081c00336080604052600160075534801561001557600080fd5b50604051611fe6380380611fe6833981810160405281019061003791906104b0565b6040518060400160405280600b81526020017f54656e637920546f6b656e0000000000000000000000000000000000000000008152506040518060400160405280600481526020017f544e43590000000000000000000000000000000000000000000000000000000081525081600390816100b2919061072d565b5080600490816100c2919061072d565b50505080600660006101000a81548173ffffffffffffffffffffffffffffffffffffffff021916908373ffffffffffffffffffffffffffffffffffffffff1602179055506101203369d3c21bcecceda10000006101a060201b60201c565b600160056000600660009054906101000a900473ffffffffffffffffffffffffffffffffffffffff1673ffffffffffffffffffffffffffffffffffffffff1673ffffffffffffffffffffffffffffffffffffffff16815260200190815260200160002060006101000a81548160ff021916908315150217905550506108ed565b600073ffffffffffffffffffffffffffffffffffffffff168273ffffffffffffffffffffffffffffffffffffffff16036102125760006040517fec442f05000000000000000000000000000000000000000000000000000000008152600401610209919061080e565b60405180910390fd5b6102246000838361022860201b60201c565b5050565b600073ffffffffffffffffffffffffffffffffffffffff168373ffffffffffffffffffffffffffffffffffffffff160361027a57806002600082825461026e9190610858565b9250508190555061034d565b60008060008573ffffffffffffffffffffffffffffffffffffffff1673ffffffffffffffffffffffffffffffffffffffff16815260200190815260200160002054905081811015610306578381836040517fe450d38c0000000000000000000000000000000000000000000000000000000081526004016102fd9392919061089b565b60405180910390fd5b8181036000808673ffffffffffffffffffffffffffffffffffffffff1673ffffffffffffffffffffffffffffffffffffffff16815260200190815260200160002081905550505b600073ffffffffffffffffffffffffffffffffffffffff168273ffffffffffffffffffffffffffffffffffffffff160361039657806002600082825403925050819055506103e3565b806000808473ffffffffffffffffffffffffffffffffffffffff1673ffffffffffffffffffffffffffffffffffffffff168152602001908152602001600020600082825401925050819055505b8173ffffffffffffffffffffffffffffffffffffffff168373ffffffffffffffffffffffffffffffffffffffff167fddf252ad1be2c89b69c2b068fc378daa952ba7f163c4a11628f55a4df523b3ef8360405161044091906108d2565b60405180910390a3505050565b600080fd5b600073ffffffffffffffffffffffffffffffffffffffff82169050919050565b600061047d82610452565b9050919050565b61048d81610472565b811461049857600080fd5b50565b6000815190506104aa81610484565b92915050565b6000602082840312156104c6576104c561044d565b5b60006104d48482850161049b565b91505092915050565b600081519050919050565b7f4e487b7100000000000000000000000000000000000000000000000000000000600052604160045260246000fd5b7f4e487b7100000000000000000000000000000000000000000000000000000000600052602260045260246000fd5b6000600282049050600182168061055e57607f821691505b60208210810361057157610570610517565b5b50919050565b60008190508160005260206000209050919050565b60006020601f8301049050919050565b600082821b905092915050565b6000600883026105d97fffffffffffffffffffffffffffffffffffffffffffffffffffffffffffffffff8261059c565b6105e3868361059c565b95508019841693508086168417925050509392505050565b6000819050919050565b6000819050919050565b600061062a610625610620846105fb565b610605565b6105fb565b9050919050565b6000819050919050565b6106448361060f565b61065861065082610631565b8484546105a9565b825550505050565b600090565b61066d610660565b61067881848461063b565b505050565b5b8181101561069c57610691600082610665565b60018101905061067e565b5050565b601f8211156106e1576106b281610577565b6106bb8461058c565b810160208510156106ca578190505b6106de6106d68561058c565b83018261067d565b50505b505050565b600082821c905092915050565b6000610704600019846008026106e6565b1980831691505092915050565b600061071d83836106f3565b9150826002028217905092915050565b610736826104dd565b67ffffffffffffffff81111561074f5761074e6104e8565b5b6107598254610546565b6107648282856106a0565b600060209050601f8311600181146107975760008415610785578287015190505b61078f8582610711565b8655506107f7565b601f1984166107a586610577565b60005b828110156107cd578489015182556001820191506020850194506020810190506107a8565b868310156107ea57848901516107e6601f8916826106f3565b8355505b6001600288020188555050505b505050505050565b61080881610472565b82525050565b600060208201905061082360008301846107ff565b92915050565b7f4e487b7100000000000000000000000000000000000000000000000000000000600052601160045260246000fd5b6000610863826105fb565b915061086e836105fb565b925082820190508082111561088657610885610829565b5b92915050565b610895816105fb565b82525050565b60006060820190506108b060008301866107ff565b6108bd602083018561088c565b6108ca604083018461088c565b949350505050565b60006020820190506108e7600083018461088c565b92915050565b6116ea806108fc6000396000f3fe608060405234801561001057600080fd5b50600436106101005760003560e01c80635dcd3e3311610097578063a9059cbb11610066578063a9059cbb146102af578063bd493ad1146102df578063dd62ed3e146102fb578063f5a1f5b41461032b57610100565b80635dcd3e331461022957806370a08231146102455780637f6f9d9b1461027557806395d89b411461029157610100565b806323b872dd116100d357806323b872dd146101a1578063313ce567146101d1578063320ab051146101ef57806340c10f191461020d57610100565b806306fdde0314610105578063095ea7b3146101235780630ece9cb41461015357806318160ddd14610183575b600080fd5b61010d610347565b60405161011a919061127c565b60405180910390f35b61013d60048036038101906101389190611337565b6103d9565b60405161014a9190611392565b60405180910390f35b61016d600480360381019061016891906113ad565b6103fc565b60405161017a9190611392565b60405180910390f35b61018b61041c565b60405161019891906113e9565b60405180910390f35b6101bb60048036038101906101b69190611404565b610426565b6040516101c89190611392565b60405180910390f35b6101d9610455565b6040516101e69190611473565b60405180910390f35b6101f761045e565b60405161020491906113e9565b60405180910390f35b61022760048036038101906102229190611337565b610464565b005b610243600480360381019061023e91906113ad565b610556565b005b61025f600480360381019061025a91906113ad565b610695565b60405161026c91906113e9565b60405180910390f35b61028f600480360381019061028a919061148e565b6106dd565b005b6102996107cb565b6040516102a6919061127c565b60405180910390f35b6102c960048036038101906102c49190611337565b61085d565b6040516102d69190611392565b60405180910390f35b6102f960048036038101906102f49190611337565b610880565b005b610315600480360381019061031091906114bb565b6109ee565b60405161032291906113e9565b60405180910390f35b610345600480360381019061034091906113ad565b610a75565b005b6060600380546103569061152a565b80601f01602080910402602001604051908101604052809291908181526020018280546103829061152a565b80156103cf5780601f106103a4576101008083540402835291602001916103cf565b820191906000526020600020905b8154815290600101906020018083116103b257829003601f168201915b5050505050905090565b6000806103e4610b49565b90506103f1818585610b51565b600191505092915050565b60056020528060005260406000206000915054906101000a900460ff1681565b6000600254905090565b600080610431610b49565b905061043e858285610b63565b610449858585610bf8565b60019150509392505050565b60006012905090565b60075481565b600560003373ffffffffffffffffffffffffffffffffffffffff1673ffffffffffffffffffffffffffffffffffffffff16815260200190815260200160002060009054906101000a900460ff16806105095750600660009054906101000a900473ffffffffffffffffffffffffffffffffffffffff1673ffffffffffffffffffffffffffffffffffffffff163373ffffffffffffffffffffffffffffffffffffffff16145b610548576040517f08c379a000000000000000000000000000000000000000000000000000000000815260040161053f906115a7565b60405180910390fd5b6105528282610cec565b5050565b600560003373ffffffffffffffffffffffffffffffffffffffff1673ffffffffffffffffffffffffffffffffffffffff16815260200190815260200160002060009054906101000a900460ff16806105fb5750600660009054906101000a900473ffffffffffffffffffffffffffffffffffffffff1673ffffffffffffffffffffffffffffffffffffffff163373ffffffffffffffffffffffffffffffffffffffff16145b61063a576040517f08c379a0000000000000000000000000000000000000000000000000000000008152600401610631906115a7565b60405180910390fd5b6001600560008373ffffffffffffffffffffffffffffffffffffffff1673ffffffffffffffffffffffffffffffffffffffff16815260200190815260200160002060006101000a81548160ff02191690831515021790555050565b60008060008373ffffffffffffffffffffffffffffffffffffffff1673ffffffffffffffffffffffffffffffffffffffff168152602001908152602001600020549050919050565b600560003373ffffffffffffffffffffffffffffffffffffffff1673ffffffffffffffffffffffffffffffffffffffff16815260200190815260200160002060009054906101000a900460ff16806107825750600660009054906101000a900473ffffffffffffffffffffffffffffffffffffffff1673ffffffffffffffffffffffffffffffffffffffff163373ffffffffffffffffffffffffffffffffffffffff16145b6107c1576040517f08c379a00000000000000000000000000000000000000000000000000000000081526004016107b8906115a7565b60405180910390fd5b8060078190555050565b6060600480546107da9061152a565b80601f01602080910402602001604051908101604052809291908181526020018280546108069061152a565b80156108535780601f1061082857610100808354040283529160200191610853565b820191906000526020600020905b81548152906001019060200180831161083657829003601f168201915b5050505050905090565b600080610868610b49565b9050610875818585610bf8565b600191505092915050565b600560003373ffffffffffffffffffffffffffffffffffffffff1673ffffffffffffffffffffffffffffffffffffffff16815260200190815260200160002060009054906101000a900460ff16806109255750600660009054906101000a900473ffffffffffffffffffffffffffffffffffffffff1673ffffffffffffffffffffffffffffffffffffffff163373ffffffffffffffffffffffffffffffffffffffff16145b610964576040517f08c379a000000000000000000000000000000000000000000000000000000000815260040161095b906115a7565b60405180910390fd5b61096e8282610d6e565b61099a600660009054906101000a900473ffffffffffffffffffffffffffffffffffffffff1682610cec565b8173ffffffffffffffffffffffffffffffffffffffff167f5ee81488a8c866569c02800403bbf9145d931cf759737ed853eedb84dbb5a9e382426040516109e29291906115c7565b60405180910390a25050565b6000600160008473ffffffffffffffffffffffffffffffffffffffff1673ffffffffffffffffffffffffffffffffffffffff16815260200190815260200160002060008373ffffffffffffffffffffffffffffffffffffffff1673ffffffffffffffffffffffffffffffffffffffff16815260200190815260200160002054905092915050565b600660009054906101000a900473ffffffffffffffffffffffffffffffffffffffff1673ffffffffffffffffffffffffffffffffffffffff163373ffffffffffffffffffffffffffffffffffffffff1614610b05576040517f08c379a0000000000000000000000000000000000000000000000000000000008152600401610afc906115a7565b60405180910390fd5b80600660006101000a81548173ffffffffffffffffffffffffffffffffffffffff021916908373ffffffffffffffffffffffffffffffffffffffff16021790555050565b600033905090565b610b5e8383836001610df0565b505050565b6000610b6f84846109ee565b90507fffffffffffffffffffffffffffffffffffffffffffffffffffffffffffffffff811015610bf25781811015610be2578281836040517ffb8f41b2000000000000000000000000000000000000000000000000000000008152600401610bd9939291906115ff565b60405180910390fd5b610bf184848484036000610df0565b5b50505050565b600073ffffffffffffffffffffffffffffffffffffffff168373ffffffffffffffffffffffffffffffffffffffff1603610c6a5760006040517f96c6fd1e000000000000000000000000000000000000000000000000000000008152600401610c619190611636565b60405180910390fd5b600073ffffffffffffffffffffffffffffffffffffffff168273ffffffffffffffffffffffffffffffffffffffff1603610cdc5760006040517fec442f05000000000000000000000000000000000000000000000000000000008152600401610cd39190611636565b60405180910390fd5b610ce7838383610fc7565b505050565b600073ffffffffffffffffffffffffffffffffffffffff168273ffffffffffffffffffffffffffffffffffffffff1603610d5e5760006040517fec442f05000000000000000000000000000000000000000000000000000000008152600401610d559190611636565b60405180910390fd5b610d6a60008383610fc7565b5050565b600073ffffffffffffffffffffffffffffffffffffffff168273ffffffffffffffffffffffffffffffffffffffff1603610de05760006040517f96c6fd1e000000000000000000000000000000000000000000000000000000008152600401610dd79190611636565b60405180910390fd5b610dec82600083610fc7565b5050565b600073ffffffffffffffffffffffffffffffffffffffff168473ffffffffffffffffffffffffffffffffffffffff1603610e625760006040517fe602df05000000000000000000000000000000000000000000000000000000008152600401610e599190611636565b60405180910390fd5b600073ffffffffffffffffffffffffffffffffffffffff168373ffffffffffffffffffffffffffffffffffffffff1603610ed45760006040517f94280d62000000000000000000000000000000000000000000000000000000008152600401610ecb9190611636565b60405180910390fd5b81600160008673ffffffffffffffffffffffffffffffffffffffff1673ffffffffffffffffffffffffffffffffffffffff16815260200190815260200160002060008573ffffffffffffffffffffffffffffffffffffffff1673ffffffffffffffffffffffffffffffffffffffff168152602001908152602001600020819055508015610fc1578273ffffffffffffffffffffffffffffffffffffffff168473ffffffffffffffffffffffffffffffffffffffff167f8c5be1e5ebec7d5bd14f71427d1e84f3dd0314c0f7b2291e5b200ac8c7c3b92584604051610fb891906113e9565b60405180910390a35b50505050565b600073ffffffffffffffffffffffffffffffffffffffff168373ffffffffffffffffffffffffffffffffffffffff160361101957806002600082825461100d9190611680565b925050819055506110ec565b60008060008573ffffffffffffffffffffffffffffffffffffffff1673ffffffffffffffffffffffffffffffffffffffff168152602001908152602001600020549050818110156110a5578381836040517fe450d38c00000000000000000000000000000000000000000000000000000000815260040161109c939291906115ff565b60405180910390fd5b8181036000808673ffffffffffffffffffffffffffffffffffffffff1673ffffffffffffffffffffffffffffffffffffffff16815260200190815260200160002081905550505b600073ffffffffffffffffffffffffffffffffffffffff168273ffffffffffffffffffffffffffffffffffffffff16036111355780600260008282540392505081905550611182565b806000808473ffffffffffffffffffffffffffffffffffffffff1673ffffffffffffffffffffffffffffffffffffffff168152602001908152602001600020600082825401925050819055505b8173ffffffffffffffffffffffffffffffffffffffff168373ffffffffffffffffffffffffffffffffffffffff167fddf252ad1be2c89b69c2b068fc378daa952ba7f163c4a11628f55a4df523b3ef836040516111df91906113e9565b60405180910390a3505050565b600081519050919050565b600082825260208201905092915050565b60005b8381101561122657808201518184015260208101905061120b565b60008484015250505050565b6000601f19601f8301169050919050565b600061124e826111ec565b61125881856111f7565b9350611268818560208601611208565b61127181611232565b840191505092915050565b600060208201905081810360008301526112968184611243565b905092915050565b600080fd5b600073ffffffffffffffffffffffffffffffffffffffff82169050919050565b60006112ce826112a3565b9050919050565b6112de816112c3565b81146112e957600080fd5b50565b6000813590506112fb816112d5565b92915050565b6000819050919050565b61131481611301565b811461131f57600080fd5b50565b6000813590506113318161130b565b92915050565b6000806040838503121561134e5761134d61129e565b5b600061135c858286016112ec565b925050602061136d85828601611322565b9150509250929050565b60008115159050919050565b61138c81611377565b82525050565b60006020820190506113a76000830184611383565b92915050565b6000602082840312156113c3576113c261129e565b5b60006113d1848285016112ec565b91505092915050565b6113e381611301565b82525050565b60006020820190506113fe60008301846113da565b92915050565b60008060006060848603121561141d5761141c61129e565b5b600061142b868287016112ec565b935050602061143c868287016112ec565b925050604061144d86828701611322565b9150509250925092565b600060ff82169050919050565b61146d81611457565b82525050565b60006020820190506114886000830184611464565b92915050565b6000602082840312156114a4576114a361129e565b5b60006114b284828501611322565b91505092915050565b600080604083850312156114d2576114d161129e565b5b60006114e0858286016112ec565b92505060206114f1858286016112ec565b9150509250929050565b7f4e487b7100000000000000000000000000000000000000000000000000000000600052602260045260246000fd5b6000600282049050600182168061154257607f821691505b602082108103611555576115546114fb565b5b50919050565b7f556e617574686f72697a65640000000000000000000000000000000000000000600082015250565b6000611591600c836111f7565b915061159c8261155b565b602082019050919050565b600060208201905081810360008301526115c081611584565b9050919050565b60006040820190506115dc60008301856113da565b6115e960208301846113da565b9392505050565b6115f9816112c3565b82525050565b600060608201905061161460008301866115f0565b61162160208301856113da565b61162e60408301846113da565b949350505050565b600060208201905061164b60008301846115f0565b92915050565b7f4e487b7100000000000000000000000000000000000000000000000000000000600052601160045260246000fd5b600061168b82611301565b915061169683611301565b92508282019050808211156116ae576116ad611651565b5b9291505056fea26469706673582212202d6ba8550895acedad84dc608e080aa24adb517616455a40e2c1d9238dcefb0d64736f6c634300081c0033608060405234801561001057600080fd5b50604051611191380380611191833981810160405281019061003291906100dc565b80600160006101000a81548173ffffffffffffffffffffffffffffffffffffffff021916908373ffffffffffffffffffffffffffffffffffffffff16021790555050610109565b600080fd5b600073ffffffffffffffffffffffffffffffffffffffff82169050919050565b60006100a98261007e565b9050919050565b6100b98161009e565b81146100c457600080fd5b50565b6000815190506100d6816100b0565b92915050565b6000602082840312156100f2576100f1610079565b5b6000610100848285016100c7565b91505092915050565b611079806101186000396000f3fe608060405234801561001057600080fd5b506004361061004c5760003560e01c80633fe4676e14610051578063481c6a751461006f5780634be731d01461008d578063aef18bf7146100bd575b600080fd5b6100596100ed565b604051610066919061043f565b60405180910390f35b610077610113565b604051610084919061043f565b60405180910390f35b6100a760048036038101906100a2919061092d565b610139565b6040516100b49190610c07565b60405180910390f35b6100d760048036038101906100d29190610c5f565b61037a565b6040516100e49190610c9b565b60405180910390f35b600260009054906101000a900473ffffffffffffffffffffffffffffffffffffffff1681565b600160009054906101000a900473ffffffffffffffffffffffffffffffffffffffff1681565b61014161039a565b600160009054906101000a900473ffffffffffffffffffffffffffffffffffffffff1673ffffffffffffffffffffffffffffffffffffffff163373ffffffffffffffffffffffffffffffffffffffff16146101d1576040517f08c379a00000000000000000000000000000000000000000000000000000000081526004016101c890610d13565b60405180910390fd5b816060015115610216576040517f08c379a000000000000000000000000000000000000000000000000000000000815260040161020d90610d7f565b60405180910390fd5b600073ffffffffffffffffffffffffffffffffffffffff16826000015173ffffffffffffffffffffffffffffffffffffffff1603610289576040517f08c379a000000000000000000000000000000000000000000000000000000000815260040161028090610deb565b60405180910390fd5b6000829050600181606001901515908115158152505060008360000151846020015185604001518660a001518760c001518860e00151896101000151466040516020016102dd989796959493929190610ec2565b604051602081830303815290604052805190602001209050806040516020016103069190610f7d565b60405160208183030381529060405282608001819052507fcf0ac668d71947d2a0a24588f61f6b12243dc1b3b299f2d1bbf3383a248a1d4b8260000151836020015184604001518560a001518660800151604051610368959493929190610fe2565b60405180910390a18192505050919050565b60006020528060005260406000206000915054906101000a900460ff1681565b604051806101200160405280600073ffffffffffffffffffffffffffffffffffffffff168152602001600081526020016000815260200160001515815260200160608152602001606081526020016060815260200160608152602001606081525090565b600073ffffffffffffffffffffffffffffffffffffffff82169050919050565b6000610429826103fe565b9050919050565b6104398161041e565b82525050565b60006020820190506104546000830184610430565b92915050565b6000604051905090565b600080fd5b600080fd5b600080fd5b6000601f19601f8301169050919050565b7f4e487b7100000000000000000000000000000000000000000000000000000000600052604160045260246000fd5b6104bc82610473565b810181811067ffffffffffffffff821117156104db576104da610484565b5b80604052505050565b60006104ee61045a565b90506104fa82826104b3565b919050565b600080fd5b61050d8161041e565b811461051857600080fd5b50565b60008135905061052a81610504565b92915050565b6000819050919050565b61054381610530565b811461054e57600080fd5b50565b6000813590506105608161053a565b92915050565b60008115159050919050565b61057b81610566565b811461058657600080fd5b50565b60008135905061059881610572565b92915050565b600080fd5b600080fd5b600067ffffffffffffffff8211156105c3576105c2610484565b5b6105cc82610473565b9050602081019050919050565b82818337600083830152505050565b60006105fb6105f6846105a8565b6104e4565b905082815260208101848484011115610617576106166105a3565b5b6106228482856105d9565b509392505050565b600082601f83011261063f5761063e61059e565b5b813561064f8482602086016105e8565b91505092915050565b600067ffffffffffffffff82111561067357610672610484565b5b61067c82610473565b9050602081019050919050565b600061069c61069784610658565b6104e4565b9050828152602081018484840111156106b8576106b76105a3565b5b6106c38482856105d9565b509392505050565b600082601f8301126106e0576106df61059e565b5b81356106f0848260208601610689565b91505092915050565b600067ffffffffffffffff82111561071457610713610484565b5b602082029050602081019050919050565b600080fd5b600061073d610738846106f9565b6104e4565b905080838252602082019050602084028301858111156107605761075f610725565b5b835b818110156107895780610775888261051b565b845260208401935050602081019050610762565b5050509392505050565b600082601f8301126107a8576107a761059e565b5b81356107b884826020860161072a565b91505092915050565b600061012082840312156107d8576107d761046e565b5b6107e36101206104e4565b905060006107f38482850161051b565b600083015250602061080784828501610551565b602083015250604061081b84828501610551565b604083015250606061082f84828501610589565b606083015250608082013567ffffffffffffffff811115610853576108526104ff565b5b61085f8482850161062a565b60808301525060a082013567ffffffffffffffff811115610883576108826104ff565b5b61088f848285016106cb565b60a08301525060c082013567ffffffffffffffff8111156108b3576108b26104ff565b5b6108bf848285016106cb565b60c08301525060e082013567ffffffffffffffff8111156108e3576108e26104ff565b5b6108ef848285016106cb565b60e08301525061010082013567ffffffffffffffff811115610914576109136104ff565b5b61092084828501610793565b6101008301525092915050565b60006020828403121561094357610942610464565b5b600082013567ffffffffffffffff81111561096157610960610469565b5b61096d848285016107c1565b91505092915050565b61097f8161041e565b82525050565b61098e81610530565b82525050565b61099d81610566565b82525050565b600081519050919050565b600082825260208201905092915050565b60005b838110156109dd5780820151818401526020810190506109c2565b60008484015250505050565b60006109f4826109a3565b6109fe81856109ae565b9350610a0e8185602086016109bf565b610a1781610473565b840191505092915050565b600081519050919050565b600082825260208201905092915050565b6000610a4982610a22565b610a538185610a2d565b9350610a638185602086016109bf565b610a6c81610473565b840191505092915050565b600081519050919050565b600082825260208201905092915050565b6000819050602082019050919050565b6000610aaf8383610976565b60208301905092915050565b6000602082019050919050565b6000610ad382610a77565b610add8185610a82565b9350610ae883610a93565b8060005b83811015610b19578151610b008882610aa3565b9750610b0b83610abb565b925050600181019050610aec565b5085935050505092915050565b600061012083016000830151610b3f6000860182610976565b506020830151610b526020860182610985565b506040830151610b656040860182610985565b506060830151610b786060860182610994565b5060808301518482036080860152610b9082826109e9565b91505060a083015184820360a0860152610baa8282610a3e565b91505060c083015184820360c0860152610bc48282610a3e565b91505060e083015184820360e0860152610bde8282610a3e565b915050610100830151848203610100860152610bfa8282610ac8565b9150508091505092915050565b60006020820190508181036000830152610c218184610b26565b905092915050565b6000819050919050565b610c3c81610c29565b8114610c4757600080fd5b50565b600081359050610c5981610c33565b92915050565b600060208284031215610c7557610c74610464565b5b6000610c8384828501610c4a565b91505092915050565b610c9581610566565b82525050565b6000602082019050610cb06000830184610c8c565b92915050565b600082825260208201905092915050565b7f556e617574686f72697a65640000000000000000000000000000000000000000600082015250565b6000610cfd600c83610cb6565b9150610d0882610cc7565b602082019050919050565b60006020820190508181036000830152610d2c81610cf0565b9050919050565b7f457870656e736520616c72656164792076616c69646174656400000000000000600082015250565b6000610d69601983610cb6565b9150610d7482610d33565b602082019050919050565b60006020820190508181036000830152610d9881610d5c565b9050919050565b7f496e76616c696420697373756572000000000000000000000000000000000000600082015250565b6000610dd5600e83610cb6565b9150610de082610d9f565b602082019050919050565b60006020820190508181036000830152610e0481610dc8565b9050919050565b610e1481610530565b82525050565b6000610e2582610a22565b610e2f8185610cb6565b9350610e3f8185602086016109bf565b610e4881610473565b840191505092915050565b600082825260208201905092915050565b6000610e6f82610a77565b610e798185610e53565b9350610e8483610a93565b8060005b83811015610eb5578151610e9c8882610aa3565b9750610ea783610abb565b925050600181019050610e88565b5085935050505092915050565b600061010082019050610ed8600083018b610430565b610ee5602083018a610e0b565b610ef26040830189610e0b565b8181036060830152610f048188610e1a565b90508181036080830152610f188187610e1a565b905081810360a0830152610f2c8186610e1a565b905081810360c0830152610f408185610e64565b9050610f4f60e0830184610e0b565b9998505050505050505050565b6000819050919050565b610f77610f7282610c29565b610f5c565b82525050565b6000610f898284610f66565b60208201915081905092915050565b600082825260208201905092915050565b6000610fb4826109a3565b610fbe8185610f98565b9350610fce8185602086016109bf565b610fd781610473565b840191505092915050565b600060a082019050610ff76000830188610430565b6110046020830187610e0b565b6110116040830186610e0b565b81810360608301526110238185610e1a565b905081810360808301526110378184610fa9565b9050969550505050505056fea26469706673582212200416e327a01cdc137d23418bc754be7b0d44dec4418a6a904369f16f4fa295d564736f6c634300081c0033",
  "linkReferences": {},
  "deployedLinkReferences": {}
}