{
  "_format": "hh-sol-artifact-1",
  "contractName": "TNCY",
  "sourceName": "contracts/TNCY.sol",
  "abi": [
    {
      "inputs": [
        {
          "internalType": "address",
          "name": "_initialOwner",
          "type": "address"
        }
      ],
      "stateMutability": "nonpayable",
      "type": "constructor"
    },
    {
      "inputs": [
        {
          "internalType": "address",
          "name": "spender",
          "type": "address"
        },
        {
          "internalType": "uint256",
          "name": "allowance",
          "type": "uint256"
        },
        {
          "internalType": "uint256",
          "name": "needed",
          "type": "uint256"
        }
      ],
      "name": "ERC20InsufficientAllowance",
      "type": "error"
    },
    {
      "inputs": [
        {
          "internalType": "address",
          "name": "sender",
          "type": "address"
        },
        {
          "internalType": "uint256",
          "name": "balance",
          "type": "uint256"
        },
        {
          "internalType": "uint256",
          "name": "needed",
          "type": "uint256"
        }
      ],
      "name": "ERC20InsufficientBalance",
      "type": "error"
    },
    {
      "inputs": [
        {
          "internalType": "address",
          "name": "approver",
          "type": "address"
        }
      ],
      "name": "ERC20InvalidApprover",
      "type": "error"
    },
    {
      "inputs": [
        {
          "internalType": "address",
          "name": "receiver",
          "type": "address"
        }
      ],
      "name": "ERC20InvalidReceiver",
      "type": "error"
    },
    {
      "inputs": [
        {
          "internalType": "address",
          "name": "sender",
          "type": "address"
        }
      ],
      "name": "ERC20InvalidSender",
      "type": "error"
    },
    {
      "inputs": [
        {
          "internalType": "address",
          "name": "spender",
          "type": "address"
        }
      ],
      "name": "ERC20InvalidSpender",
      "type": "error"
    },
    {
      "anonymous": false,
      "inputs": [
        {
          "indexed": true,
          "internalType": "address",
          "name": "owner",
          "type": "address"
        },
        {
          "indexed": true,
          "internalType": "address",
          "name": "spender",
          "type": "address"
        },
        {
          "indexed": false,
          "internalType": "uint256",
          "name": "value",
          "type": "uint256"
        }
      ],
      "name": "Approval",
      "type": "event"
    },
    {
      "anonymous": false,
      "inputs": [
        {
          "indexed": true,
          "internalType": "address",
          "name": "tenant",
          "type": "address"
        },
        {
          "indexed": false,
          "internalType": "uint256",
          "name": "amount",
          "type": "uint256"
        },
        {
          "indexed": false,
          "internalType": "uint256",
          "name": "timestamp",
          "type": "uint256"
        }
      ],
      "name": "BalanceAdjusted",
      "type": "event"
    },
    {
      "anonymous": false,
      "inputs": [
        {
          "indexed": true,
          "internalType": "address",
          "name": "from",
          "type": "address"
        },
        {
          "indexed": true,
          "internalType": "address",
          "name": "to",
          "type": "address"
        },
        {
          "indexed": false,
          "internalType": "uint256",
          "name": "value",
          "type": "uint256"
        }
      ],
      "name": "Transfer",
      "type": "event"
    },
    {
      "inputs": [
        {
          "internalType": "address",
          "name": "admin",
          "type": "address"
        }
      ],
      "name": "addBillingAdmin",
      "outputs": [],
      "stateMutability": "nonpayable",
      "type": "function"
    },
    {
      "inputs": [
        {
          "internalType": "address",
          "name": "tenant",
          "type": "address"
        },
        {
          "internalType": "uint256",
          "name": "tokens",
          "type": "uint256"
        }
      ],
      "name": "adjustTenantBalance",
      "outputs": [],
      "stateMutability": "nonpayable",
      "type": "function"
    },
    {
      "inputs": [
        {
          "internalType": "address",
          "name": "owner",
          "type": "address"
        },
        {
          "internalType": "address",
          "name": "spender",
          "type": "address"
        }
      ],
      "name": "allowance",
      "outputs": [
        {
          "internalType": "uint256",
          "name": "",
          "type": "uint256"
        }
      ],
      "stateMutability": "view",
      "type": "function"
    },
    {
      "inputs": [
        {
          "internalType": "address",
          "name": "spender",
          "type": "address"
        },
        {
          "internalType": "uint256",
          "name": "value",
          "type": "uint256"
        }
      ],
      "name": "approve",
      "outputs": [
        {
          "internalType": "bool",
          "name": "",
          "type": "bool"
        }
      ],
      "stateMutability": "nonpayable",
      "type": "function"
    },
    {
      "inputs": [
        {
          "internalType": "address",
          "name": "account",
          "type": "address"
        }
      ],
      "name": "balanceOf",
      "outputs": [
        {
          "internalType": "uint256",
          "name": "",
          "type": "uint256"
        }
      ],
      "stateMutability": "view",
      "type": "function"
    },
    {
      "inputs": [
        {
          "internalType": "address",
          "name": "",
          "type": "address"
        }
      ],
      "name": "billingAdmins",
      "outputs": [
        {
          "internalType": "bool",
          "name": "",
          "type": "bool"
        }
      ],
      "stateMutability": "view",
      "type": "function"
    },
    {
      "inputs": [],
      "name": "decimals",
      "outputs": [
        {
          "internalType": "uint8",
          "name": "",
          "type": "uint8"
        }
      ],
      "stateMutability": "view",
      "type": "function"
    },
    {
      "inputs": [
        {
          "internalType": "address",
          "name": "to",
          "type": "address"
        },
        {
          "internalType": "uint256",
          "name": "amount",
          "type": "uint256"
        }
      ],
      "name": "mint",
      "outputs": [],
      "stateMutability": "nonpayable",
      "type": "function"
    },
    {
      "inputs": [],
      "name": "name",
      "outputs": [
        {
          "internalType": "string",
          "name": "",
          "type": "string"
        }
      ],
      "stateMutability": "view",
      "type": "function"
    },
    {
      "inputs": [],
      "name": "ratePerKwh",
      "outputs": [
        {
          "internalType": "uint256",
          "name": "",
          "type": "uint256"
        }
      ],
      "stateMutability": "view",
      "type": "function"
    },
    {
      "inputs": [
        {
          "internalType": "address",
          "name": "newOwner",
          "type": "address"
        }
      ],
      "name": "setNewOwner",
      "outputs": [],
      "stateMutability": "nonpayable",
      "type": "function"
    },
    {
      "inputs": [
        {
          "internalType": "uint256",
          "name": "newRate",
          "type": "uint256"
        }
      ],
      "name": "setRatePerKwh",
      "outputs": [],
      "stateMutability": "nonpayable",
      "type": "function"
    },
    {
      "inputs": [],
      "name": "symbol",
      "outputs": [
        {
          "internalType": "string",
          "name": "",
          "type": "string"
        }
      ],
      "stateMutability": "view",
      "type": "function"
    },
    {
      "inputs": [],
      "name": "totalSupply",
      "outputs": [
        {
          "internalType": "uint256",
          "name": "",
          "type": "uint256"
        }
      ],
      "stateMutability": "view",
      "type": "function"
    },
    {
      "inputs": [
        {
          "internalType": "address",
          "name": "to",
          "type": "address"
        },
        {
          "internalType": "uint256",
          "name": "value",
          "type": "uint256"
        }
      ],
      "name": "transfer",
      "outputs": [
        {
          "internalType": "bool",
          "name": "",
          "type": "bool"
        }
      ],
      "stateMutability": "nonpayable",
      "type": "function"
    },
    {
      "inputs": [
        {
          "internalType": "address",
          "name": "from",
          "type": "address"
        },
        {
          "internalType": "address",
          "name": "to",
          "type": "address"
        },
        {
          "internalType": "uint256",
          "name": "value",
          "type": "uint256"
        }
      ],
      "name": "transferFrom",
      "outputs": [
        {
          "internalType": "bool",
          "name": "",
          "type": "bool"
        }
      ],
      "stateMutability": "nonpayable",
      "type": "function"
    }
  ],
  "bytecode": "0x6080604052600160075534801561001557600080fd5b50604051611fe6380380611fe6833981810160405281019061003791906104b0565b6040518060400160405280600b81526020017f54656e637920546f6b656e0000000000000000000000000000000000000000008152506040518060400160405280600481526020017f544e43590000000000000000000000000000000000000000000000000000000081525081600390816100b2919061072d565b5080600490816100c2919061072d565b50505080600660006101000a81548173ffffffffffffffffffffffffffffffffffffffff021916908373ffffffffffffffffffffffffffffffffffffffff1602179055506101203369d3c21bcecceda10000006101a060201b60201c565b600160056000600660009054906101000a900473ffffffffffffffffffffffffffffffffffffffff1673ffffffffffffffffffffffffffffffffffffffff1673ffffffffffffffffffffffffffffffffffffffff16815260200190815260200160002060006101000a81548160ff021916908315150217905550506108ed565b600073ffffffffffffffffffffffffffffffffffffffff168273ffffffffffffffffffffffffffffffffffffffff16036102125760006040517fec442f05000000000000000000000000000000000000000000000000000000008152600401610209919061080e565b60405180910390fd5b6102246000838361022860201b60201c565b5050565b600073ffffffffffffffffffffffffffffffffffffffff168373ffffffffffffffffffffffffffffffffffffffff160361027a57806002600082825461026e9190610858565b9250508190555061034d565b60008060008573ffffffffffffffffffffffffffffffffffffffff1673ffffffffffffffffffffffffffffffffffffffff16815260200190815260200160002054905081811015610306578381836040517fe450d38c0000000000000000000000000000000000000000000000000000000081526004016102fd9392919061089b565b60405180910390fd5b8181036000808673ffffffffffffffffffffffffffffffffffffffff1673ffffffffffffffffffffffffffffffffffffffff16815260200190815260200160002081905550505b600073ffffffffffffffffffffffffffffffffffffffff168273ffffffffffffffffffffffffffffffffffffffff160361039657806002600082825403925050819055506103e3565b806000808473ffffffffffffffffffffffffffffffffffffffff1673ffffffffffffffffffffffffffffffffffffffff168152602001908152602001600020600082825401925050819055505b8173ffffffffffffffffffffffffffffffffffffffff168373ffffffffffffffffffffffffffffffffffffffff167fddf252ad1be2c89b69c2b068fc378daa952ba7f163c4a11628f55a4df523b3ef8360405161044091906108d2565b60405180910390a3505050565b600080fd5b600073ffffffffffffffffffffffffffffffffffffffff82169050919050565b600061047d82610452565b9050919050565b61048d81610472565b811461049857600080fd5b50565b6000815190506104aa81610484565b92915050565b6000602082840312156104c6576104c561044d565b5b60006104d48482850161049b565b91505092915050565b600081519050919050565b7f4e487b7100000000000000000000000000000000000000000000000000000000600052604160045260246000fd5b7f4e487b7100000000000000000000000000000000000000000000000000000000600052602260045260246000fd5b6000600282049050600182168061055e57607f821691505b60208210810361057157610570610517565b5b50919050565b60008190508160005260206000209050919050565b60006020601f8301049050919050565b600082821b905092915050565b6000600883026105d97fffffffffffffffffffffffffffffffffffffffffffffffffffffffffffffffff8261059c565b6105e3868361059c565b95508019841693508086168417925050509392505050565b6000819050919050565b6000819050919050565b600061062a610625610620846105fb565b610605565b6105fb565b9050919050565b6000819050919050565b6106448361060f565b61065861065082610631565b8484546105a9565b825550505050565b600090565b61066d610660565b61067881848461063b565b505050565b5b8181101561069c57610691600082610665565b60018101905061067e565b5050565b601f8211156106e1576106b281610577565b6106bb8461058c565b810160208510156106ca578190505b6106de6106d68561058c565b83018261067d565b50505b505050565b600082821c905092915050565b6000610704600019846008026106e6565b1980831691505092915050565b600061071d83836106f3565b9150826002028217905092915050565b610736826104dd565b67ffffffffffffffff81111561074f5761074e6104e8565b5b6107598254610546565b6107648282856106a0565b600060209050601f8311600181146107975760008415610785578287015190505b61078f8582610711565b8655506107f7565b601f1984166107a586610577565b60005b828110156107cd578489015182556001820191506020850194506020810190506107a8565b868310156107ea57848901516107e6601f8916826106f3565b8355505b6001600288020188555050505b505050505050565b61080881610472565b82525050565b600060208201905061082360008301846107ff565b92915050565b7f4e487b7100000000000000000000000000000000000000000000000000000000600052601160045260246000fd5b6000610863826105fb565b915061086e836105fb565b925082820190508082111561088657610885610829565b5b92915050565b610895816105fb565b82525050565b60006060820190506108b060008301866107ff565b6108bd602083018561088c565b6108ca604083018461088c565b949350505050565b60006020820190506108e7600083018461088c565b92915050565b6116ea806108fc6000396000f3fe608060405234801561001057600080fd5b50600436106101005760003560e01c80635dcd3e3311610097578063a9059cbb11610066578063a9059cbb146102af578063bd493ad1146102df578063dd62ed3e146102fb578063f5a1f5b41461032b57610100565b80635dcd3e331461022957806370a08231146102455780637f6f9d9b1461027557806395d89b411461029157610100565b806323b872dd116100d357806323b872dd146101a1578063313ce567146101d1578063320ab051146101ef57806340c10f191461020d57610100565b806306fdde0314610105578063095ea7b3146101235780630ece9cb41461015357806318160ddd14610183575b600080fd5b61010d610347565b60405161011a919061127c565b60405180910390f35b61013d60048036038101906101389190611337565b6103d9565b60405161014a9190611392565b60405180910390f35b61016d600480360381019061016891906113ad565b6103fc565b60405161017a9190611392565b60405180910390f35b61018b61041c565b60405161019891906113e9565b60405180910390f35b6101bb60048036038101906101b69190611404565b610426565b6040516101c89190611392565b60405180910390f35b6101d9610455565b6040516101e69190611473565b60405180910390f35b6101f761045e565b60405161020491906113e9565b60405180910390f35b61022760048036038101906102229190611337565b610464565b005b610243600480360381019061023e91906113ad565b610556565b005b61025f600480360381019061025a91906113ad565b610695565b60405161026c91906113e9565b60405180910390f35b61028f600480360381019061028a919061148e565b6106dd565b005b6102996107cb565b6040516102a6919061127c565b60405180910390f35b6102c960048036038101906102c49190611337565b61085d565b6040516102d69190611392565b60405180910390f35b6102f960048036038101906102f49190611337565b610880565b005b610315600480360381019061031091906114bb565b6109ee565b60405161032291906113e9565b60405180910390f35b610345600480360381019061034091906113ad565b610a75565b005b6060600380546103569061152a565b80601f01602080910402602001604051908101604052809291908181526020018280546103829061152a565b80156103cf5780601f106103a4576101008083540402835291602001916103cf565b820191906000526020600020905b8154815290600101906020018083116103b257829003601f168201915b5050505050905090565b6000806103e4610b49565b90506103f1818585610b51565b600191505092915050565b60056020528060005260406000206000915054906101000a900460ff1681565b6000600254905090565b600080610431610b49565b905061043e858285610b63565b610449858585610bf8565b60019150509392505050565b60006012905090565b60075481565b600560003373ffffffffffffffffffffffffffffffffffffffff1673ffffffffffffffffffffffffffffffffffffffff16815260200190815260200160002060009054906101000a900460ff16806105095750600660009054906101000a900473ffffffffffffffffffffffffffffffffffffffff1673ffffffffffffffffffffffffffffffffffffffff163373ffffffffffffffffffffffffffffffffffffffff16145b610548576040517f08c379a000000000000000000000000000000000000000000000000000000000815260040161053f906115a7565b60405180910390fd5b6105528282610cec565b5050565b600560003373ffffffffffffffffffffffffffffffffffffffff1673ffffffffffffffffffffffffffffffffffffffff16815260200190815260200160002060009054906101000a900460ff16806105fb5750600660009054906101000a900473ffffffffffffffffffffffffffffffffffffffff1673ffffffffffffffffffffffffffffffffffffffff163373ffffffffffffffffffffffffffffffffffffffff16145b61063a576040517f08c379a0000000000000000000000000000000000000000000000000000000008152600401610631906115a7565b60405180910390fd5b6001600560008373ffffffffffffffffffffffffffffffffffffffff1673ffffffffffffffffffffffffffffffffffffffff16815260200190815260200160002060006101000a81548160ff02191690831515021790555050565b60008060008373ffffffffffffffffffffffffffffffffffffffff1673ffffffffffffffffffffffffffffffffffffffff168152602001908152602001600020549050919050565b600560003373ffffffffffffffffffffffffffffffffffffffff1673ffffffffffffffffffffffffffffffffffffffff16815260200190815260200160002060009054906101000a900460ff16806107825750600660009054906101000a900473ffffffffffffffffffffffffffffffffffffffff1673ffffffffffffffffffffffffffffffffffffffff163373ffffffffffffffffffffffffffffffffffffffff16145b6107c1576040517f08c379a00000000000000000000000000000000000000000000000000000000081526004016107b8906115a7565b60405180910390fd5b8060078190555050565b6060600480546107da9061152a565b80601f01602080910402602001604051908101604052809291908181526020018280546108069061152a565b80156108535780601f1061082857610100808354040283529160200191610853565b820191906000526020600020905b81548152906001019060200180831161083657829003601f168201915b5050505050905090565b600080610868610b49565b9050610875818585610bf8565b600191505092915050565b600560003373ffffffffffffffffffffffffffffffffffffffff1673ffffffffffffffffffffffffffffffffffffffff16815260200190815260200160002060009054906101000a900460ff16806109255750600660009054906101000a900473ffffffffffffffffffffffffffffffffffffffff1673ffffffffffffffffffffffffffffffffffffffff163373ffffffffffffffffffffffffffffffffffffffff16145b610964576040517f08c379a000000000000000000000000000000000000000000000000000000000815260040161095b906115a7565b60405180910390fd5b61096e8282610d6e565b61099a600660009054906101000a900473ffffffffffffffffffffffffffffffffffffffff1682610cec565b8173ffffffffffffffffffffffffffffffffffffffff167f5ee81488a8c866569c02800403bbf9145d931cf759737ed853eedb84dbb5a9e382426040516109e29291906115c7565b60405180910390a25050565b6000600160008473ffffffffffffffffffffffffffffffffffffffff1673ffffffffffffffffffffffffffffffffffffffff16815260200190815260200160002060008373ffffffffffffffffffffffffffffffffffffffff1673ffffffffffffffffffffffffffffffffffffffff16815260200190815260200160002054905092915050565b600660009054906101000a900473ffffffffffffffffffffffffffffffffffffffff1673ffffffffffffffffffffffffffffffffffffffff163373ffffffffffffffffffffffffffffffffffffffff1614610b05576040517f08c379a0000000000000000000000000000000000000000000000000000000008152600401610afc906115a7565b60405180910390fd5b80600660006101000a81548173ffffffffffffffffffffffffffffffffffffffff021916908373ffffffffffffffffffffffffffffffffffffffff16021790555050565b600033905090565b610b5e8383836001610df0565b505050565b6000610b6f84846109ee565b90507fffffffffffffffffffffffffffffffffffffffffffffffffffffffffffffffff811015610bf25781811015610be2578281836040517ffb8f41b2000000000000000000000000000000000000000000000000000000008152600401610bd9939291906115ff565b60405180910390fd5b610bf184848484036000610df0565b5b50505050565b600073ffffffffffffffffffffffffffffffffffffffff168373ffffffffffffffffffffffffffffffffffffffff1603610c6a5760006040517f96c6fd1e000000000000000000000000000000000000000000000000000000008152600401610c619190611636565b60405180910390fd5b600073ffffffffffffffffffffffffffffffffffffffff168273ffffffffffffffffffffffffffffffffffffffff1603610cdc5760006040517fec442f05000000000000000000000000000000000000000000000000000000008152600401610cd39190611636565b60405180910390fd5b610ce7838383610fc7565b505050565b600073ffffffffffffffffffffffffffffffffffffffff168273ffffffffffffffffffffffffffffffffffffffff1603610d5e5760006040517fec442f05000000000000000000000000000000000000000000000000000000008152600401610d559190611636565b60405180910390fd5b610d6a60008383610fc7565b5050565b600073ffffffffffffffffffffffffffffffffffffffff168273ffffffffffffffffffffffffffffffffffffffff1603610de05760006040517f96c6fd1e000000000000000000000000000000000000000000000000000000008152600401610dd79190611636565b60405180910390fd5b610dec82600083610fc7565b5050565b600073ffffffffffffffffffffffffffffffffffffffff168473ffffffffffffffffffffffffffffffffffffffff1603610e625760006040517fe602df05000000000000000000000000000000000000000000000000000000008152600401610e599190611636565b60405180910390fd5b600073ffffffffffffffffffffffffffffffffffffffff168373ffffffffffffffffffffffffffffffffffffffff1603610ed45760006040517f94280d62000000000000000000000000000000000000000000000000000000008152600401610ecb9190611636565b60405180910390fd5b81600160008673ffffffffffffffffffffffffffffffffffffffff1673ffffffffffffffffffffffffffffffffffffffff16815260200190815260200160002060008573ffffffffffffffffffffffffffffffffffffffff1673ffffffffffffffffffffffffffffffffffffffff168152602001908152602001600020819055508015610fc1578273ffffffffffffffffffffffffffffffffffffffff168473ffffffffffffffffffffffffffffffffffffffff167f8c5be1e5ebec7d5bd14f71427d1e84f3dd0314c0f7b2291e5b200ac8c7c3b92584604051610fb891906113e9565b60405180910390a35b50505050565b600073ffffffffffffffffffffffffffffffffffffffff168373ffffffffffffffffffffffffffffffffffffffff160361101957806002600082825461100d9190611680565b925050819055506110ec565b60008060008573ffffffffffffffffffffffffffffffffffffffff1673ffffffffffffffffffffffffffffffffffffffff168152602001908152602001600020549050818110156110a5578381836040517fe450d38c00000000000000000000000000000000000000000000000000000000815260040161109c939291906115ff565b60405180910390fd5b8181036000808673ffffffffffffffffffffffffffffffffffffffff1673ffffffffffffffffffffffffffffffffffffffff16815260200190815260200160002081905550505b600073ffffffffffffffffffffffffffffffffffffffff168273ffffffffffffffffffffffffffffffffffffffff16036111355780600260008282540392505081905550611182565b806000808473ffffffffffffffffffffffffffffffffffffffff1673ffffffffffffffffffffffffffffffffffffffff168152602001908152602001600020600082825401925050819055505b8173ffffffffffffffffffffffffffffffffffffffff168373ffffffffffffffffffffffffffffffffffffffff167fddf252ad1be2c89b69c2b068fc378daa952ba7f163c4a11628f55a4df523b3ef836040516111df91906113e9565b60405180910390a3505050565b600081519050919050565b600082825260208201905092915050565b60005b8381101561122657808201518184015260208101905061120b565b60008484015250505050565b6000601f19601f8301169050919050565b600061124e826111ec565b61125881856111f7565b9350611268818560208601611208565b61127181611232565b840191505092915050565b600060208201905081810360008301526112968184611243565b905092915050565b600080fd5b600073ffffffffffffffffffffffffffffffffffffffff82169050919050565b60006112ce826112a3565b9050919050565b6112de816112c3565b81146112e957600080fd5b50565b6000813590506112fb816112d5565b92915050565b6000819050919050565b61131481611301565b811461131f57600080fd5b50565b6000813590506113318161130b565b92915050565b6000806040838503121561134e5761134d61129e565b5b600061135c858286016112ec565b925050602061136d85828601611322565b9150509250929050565b60008115159050919050565b61138c81611377565b82525050565b60006020820190506113a76000830184611383565b92915050565b6000602082840312156113c3576113c261129e565b5b60006113d1848285016112ec565b91505092915050565b6113e381611301565b82525050565b60006020820190506113fe60008301846113da565b92915050565b60008060006060848603121561141d5761141c61129e565b5b600061142b868287016112ec565b935050602061143c868287016112ec565b925050604061144d86828701611322565b9150509250925092565b600060ff82169050919050565b61146d81611457565b82525050565b60006020820190506114886000830184611464565b92915050565b6000602082840312156114a4576114a361129e565b5b60006114b284828501611322565b91505092915050565b600080604083850312156114d2576114d161129e565b5b60006114e0858286016112ec565b92505060206114f1858286016112ec565b9150509250929050565b7f4e487b7100000000000000000000000000000000000000000000000000000000600052602260045260246000fd5b6000600282049050600182168061154257607f821691505b602082108103611555576115546114fb565b5b50919050565b7f556e617574686f72697a65640000000000000000000000000000000000000000600082015250565b6000611591600c836111f7565b915061159c8261155b565b602082019050919050565b600060208201905081810360008301526115c081611584565b9050919050565b60006040820190506115dc60008301856113da565b6115e960208301846113da565b9392505050565b6115f9816112c3565b82525050565b600060608201905061161460008301866115f0565b61162160208301856113da565b61162e60408301846113da565b949350505050565b600060208201905061164b60008301846115f0565b92915050565b7f4e487b7100000000000000000000000000000000000000000000000000000000600052601160045260246000fd5b600061168b82611301565b915061169683611301565b92508282019050808211156116ae576116ad611651565b5b9291505056fea26469706673582212202d6ba8550895acedad84dc608e080aa24adb517616455a40e2c1d9238dcefb0d64736f6c634300081c0033",
  "linkReferences": {},
  "deployedLinkReferences": {}
}