{
  "_format": "hh-sol-artifact-1",
  "contractName": "UtilityValidator",
  "sourceName": "contracts/UtilityValidator.sol",
  "abi": [
    {
      "inputs": [
        {
          "internalType": "address",
          "name": "_manager",
          "type": "address"
        }
      ],
      "stateMutability": "nonpayable",
      "type": "constructor"
    },
    {
      "anonymous": false,
      "inputs": [
        {
          "indexed": false,
          "internalType": "address",
          "name": "issuer",
          "type": "address"
        },
        {
          "indexed": false,
          "internalType": "uint256",
          "name": "amountTNCY",
          "type": "uint256"
        },
        {
          "indexed": false,
          "internalType": "uint256",
          "name": "dateIssuance",
          "type": "uint256"
        },
        {
          "indexed": false,
          "internalType": "string",
          "name": "utilityType",
          "type": "string"
        },
        {
          "indexed": false,
          "internalType": "bytes",
          "name": "messageHash",
          "type": "bytes"
        }
      ],
      "name": "ExpenseValidated",
      "type": "event"
    },
    {
      "inputs": [],
      "name": "manager",
      "outputs": [
        {
          "internalType": "address",
          "name": "",
          "type": "address"
        }
      ],
      "stateMutability": "view",
      "type": "function"
    },
    {
      "inputs": [
        {
          "internalType": "bytes32",
          "name": "",
          "type": "bytes32"
        }
      ],
      "name": "usedHashes",
      "outputs": [
        {
          "internalType": "bool",
          "name": "",
          "type": "bool"
        }
      ],
      "stateMutability": "view",
      "type": "function"
    },
    {
      "inputs": [
        {
          "components": [
            {
              "internalType": "address",
              "name": "issuer",
              "type": "address"
            },
            {
              "internalType": "uint256",
              "name": "amountTNCY",
              "type": "uint256"
            },
            {
              "internalType": "uint256",
              "name": "dateIssuance",
              "type": "uint256"
            },
            {
              "internalType": "bool",
              "name": "validated",
              "type": "bool"
            },
            {
              "internalType": "bytes",
              "name": "messageHash",
              "type": "bytes"
            },
            {
              "internalType": "string",
              "name": "utilityType",
              "type": "string"
            },
            {
              "internalType": "string",
              "name": "description",
              "type": "string"
            },
            {
              "internalType": "string",
              "name": "ipfsCID",
              "type": "string"
            },
            {
              "internalType": "address[]",
              "name": "tenants",
              "type": "address[]"
            }
          ],
          "internalType": "struct UtilityExpense",
          "name": "_expense",
          "type": "tuple"
        }
      ],
      "name": "validateExpense",
      "outputs": [
        {
          "components": [
            {
              "internalType": "address",
              "name": "issuer",
              "type": "address"
            },
            {
              "internalType": "uint256",
              "name": "amountTNCY",
              "type": "uint256"
            },
            {
              "internalType": "uint256",
              "name": "dateIssuance",
              "type": "uint256"
            },
            {
              "internalType": "bool",
              "name": "validated",
              "type": "bool"
            },
            {
              "internalType": "bytes",
              "name": "messageHash",
              "type": "bytes"
            },
            {
              "internalType": "string",
              "name": "utilityType",
              "type": "string"
            },
            {
              "internalType": "string",
              "name": "description",
              "type": "string"
            },
            {
              "internalType": "string",
              "name": "ipfsCID",
              "type": "string"
            },
            {
              "internalType": "address[]",
              "name": "tenants",
              "type": "address[]"
            }
          ],
          "internalType": "struct UtilityExpense",
          "name": "",
          "type": "tuple"
        }
      ],
      "stateMutability": "nonpayable",
      "type": "function"
    },
    {
      "inputs": [],
      "name": "validatorAddress",
      "outputs": [
        {
          "internalType": "address",
          "name": "",
          "type": "address"
        }
      ],
      "stateMutability": "view",
      "type": "function"
    }
  ],
  "bytecode": "0x608060405234801561001057600080fd5b50604051611191380380611191833981810160405281019061003291906100dc565b80600160006101000a81548173ffffffffffffffffffffffffffffffffffffffff021916908373ffffffffffffffffffffffffffffffffffffffff16021790555050610109565b600080fd5b600073ffffffffffffffffffffffffffffffffffffffff82169050919050565b60006100a98261007e565b9050919050565b6100b98161009e565b81146100c457600080fd5b50565b6000815190506100d6816100b0565b92915050565b6000602082840312156100f2576100f1610079565b5b6000610100848285016100c7565b91505092915050565b611079806101186000396000f3fe608060405234801561001057600080fd5b506004361061004c5760003560e01c80633fe4676e14610051578063481c6a751461006f5780634be731d01461008d578063aef18bf7146100bd575b600080fd5b6100596100ed565b604051610066919061043f565b60405180910390f35b610077610113565b604051610084919061043f565b60405180910390f35b6100a760048036038101906100a2919061092d565b610139565b6040516100b49190610c07565b60405180910390f35b6100d760048036038101906100d29190610c5f565b61037a565b6040516100e49190610c9b565b60405180910390f35b600260009054906101000a900473ffffffffffffffffffffffffffffffffffffffff1681565b600160009054906101000a900473ffffffffffffffffffffffffffffffffffffffff1681565b61014161039a565b600160009054906101000a900473ffffffffffffffffffffffffffffffffffffffff1673ffffffffffffffffffffffffffffffffffffffff163373ffffffffffffffffffffffffffffffffffffffff16146101d1576040517f08c379a00000000000000000000000000000000000000000000000000000000081526004016101c890610d13565b60405180910390fd5b816060015115610216576040517f08c379a000000000000000000000000000000000000000000000000000000000815260040161020d90610d7f565b60405180910390fd5b600073ffffffffffffffffffffffffffffffffffffffff16826000015173ffffffffffffffffffffffffffffffffffffffff1603610289576040517f08c379a000000000000000000000000000000000000000000000000000000000815260040161028090610deb565b60405180910390fd5b6000829050600181606001901515908115158152505060008360000151846020015185604001518660a001518760c001518860e00151896101000151466040516020016102dd989796959493929190610ec2565b604051602081830303815290604052805190602001209050806040516020016103069190610f7d565b60405160208183030381529060405282608001819052507fcf0ac668d71947d2a0a24588f61f6b12243dc1b3b299f2d1bbf3383a248a1d4b8260000151836020015184604001518560a001518660800151604051610368959493929190610fe2565b60405180910390a18192505050919050565b60006020528060005260406000206000915054906101000a900460ff1681565b604051806101200160405280600073ffffffffffffffffffffffffffffffffffffffff168152602001600081526020016000815260200160001515815260200160608152602001606081526020016060815260200160608152602001606081525090565b600073ffffffffffffffffffffffffffffffffffffffff82169050919050565b6000610429826103fe565b9050919050565b6104398161041e565b82525050565b60006020820190506104546000830184610430565b92915050565b6000604051905090565b600080fd5b600080fd5b600080fd5b6000601f19601f8301169050919050565b7f4e487b7100000000000000000000000000000000000000000000000000000000600052604160045260246000fd5b6104bc82610473565b810181811067ffffffffffffffff821117156104db576104da610484565b5b80604052505050565b60006104ee61045a565b90506104fa82826104b3565b919050565b600080fd5b61050d8161041e565b811461051857600080fd5b50565b60008135905061052a81610504565b92915050565b6000819050919050565b61054381610530565b811461054e57600080fd5b50565b6000813590506105608161053a565b92915050565b60008115159050919050565b61057b81610566565b811461058657600080fd5b50565b60008135905061059881610572565b92915050565b600080fd5b600080fd5b600067ffffffffffffffff8211156105c3576105c2610484565b5b6105cc82610473565b9050602081019050919050565b82818337600083830152505050565b60006105fb6105f6846105a8565b6104e4565b905082815260208101848484011115610617576106166105a3565b5b6106228482856105d9565b509392505050565b600082601f83011261063f5761063e61059e565b5b813561064f8482602086016105e8565b91505092915050565b600067ffffffffffffffff82111561067357610672610484565b5b61067c82610473565b9050602081019050919050565b600061069c61069784610658565b6104e4565b9050828152602081018484840111156106b8576106b76105a3565b5b6106c38482856105d9565b509392505050565b600082601f8301126106e0576106df61059e565b5b81356106f0848260208601610689565b91505092915050565b600067ffffffffffffffff82111561071457610713610484565b5b602082029050602081019050919050565b600080fd5b600061073d610738846106f9565b6104e4565b905080838252602082019050602084028301858111156107605761075f610725565b5b835b818110156107895780610775888261051b565b845260208401935050602081019050610762565b5050509392505050565b600082601f8301126107a8576107a761059e565b5b81356107b884826020860161072a565b91505092915050565b600061012082840312156107d8576107d761046e565b5b6107e36101206104e4565b905060006107f38482850161051b565b600083015250602061080784828501610551565b602083015250604061081b84828501610551565b604083015250606061082f84828501610589565b606083015250608082013567ffffffffffffffff811115610853576108526104ff565b5b61085f8482850161062a565b60808301525060a082013567ffffffffffffffff811115610883576108826104ff565b5b61088f848285016106cb565b60a08301525060c082013567ffffffffffffffff8111156108b3576108b26104ff565b5b6108bf848285016106cb565b60c08301525060e082013567ffffffffffffffff8111156108e3576108e26104ff565b5b6108ef848285016106cb565b60e08301525061010082013567ffffffffffffffff811115610914576109136104ff565b5b61092084828501610793565b6101008301525092915050565b60006020828403121561094357610942610464565b5b600082013567ffffffffffffffff81111561096157610960610469565b5b61096d848285016107c1565b91505092915050565b61097f8161041e565b82525050565b61098e81610530565b82525050565b61099d81610566565b82525050565b600081519050919050565b600082825260208201905092915050565b60005b838110156109dd5780820151818401526020810190506109c2565b60008484015250505050565b60006109f4826109a3565b6109fe81856109ae565b9350610a0e8185602086016109bf565b610a1781610473565b840191505092915050565b600081519050919050565b600082825260208201905092915050565b6000610a4982610a22565b610a538185610a2d565b9350610a638185602086016109bf565b610a6c81610473565b840191505092915050565b600081519050919050565b600082825260208201905092915050565b6000819050602082019050919050565b6000610aaf8383610976565b60208301905092915050565b6000602082019050919050565b6000610ad382610a77565b610add8185610a82565b9350610ae883610a93565b8060005b83811015610b19578151610b008882610aa3565b9750610b0b83610abb565b925050600181019050610aec565b5085935050505092915050565b600061012083016000830151610b3f6000860182610976565b506020830151610b526020860182610985565b506040830151610b656040860182610985565b506060830151610b786060860182610994565b5060808301518482036080860152610b9082826109e9565b91505060a083015184820360a0860152610baa8282610a3e565b91505060c083015184820360c0860152610bc48282610a3e565b91505060e083015184820360e0860152610bde8282610a3e565b915050610100830151848203610100860152610bfa8282610ac8565b9150508091505092915050565b60006020820190508181036000830152610c218184610b26565b905092915050565b6000819050919050565b610c3c81610c29565b8114610c4757600080fd5b50565b600081359050610c5981610c33565b92915050565b600060208284031215610c7557610c74610464565b5b6000610c8384828501610c4a565b91505092915050565b610c9581610566565b82525050565b6000602082019050610cb06000830184610c8c565b92915050565b600082825260208201905092915050565b7f556e617574686f72697a65640000000000000000000000000000000000000000600082015250565b6000610cfd600c83610cb6565b9150610d0882610cc7565b602082019050919050565b60006020820190508181036000830152610d2c81610cf0565b9050919050565b7f457870656e736520616c72656164792076616c69646174656400000000000000600082015250565b6000610d69601983610cb6565b9150610d7482610d33565b602082019050919050565b60006020820190508181036000830152610d9881610d5c565b9050919050565b7f496e76616c696420697373756572000000000000000000000000000000000000600082015250565b6000610dd5600e83610cb6565b9150610de082610d9f565b602082019050919050565b60006020820190508181036000830152610e0481610dc8565b9050919050565b610e1481610530565b82525050565b6000610e2582610a22565b610e2f8185610cb6565b9350610e3f8185602086016109bf565b610e4881610473565b840191505092915050565b600082825260208201905092915050565b6000610e6f82610a77565b610e798185610e53565b9350610e8483610a93565b8060005b83811015610eb5578151610e9c8882610aa3565b9750610ea783610abb565b925050600181019050610e88565b5085935050505092915050565b600061010082019050610ed8600083018b610430565b610ee5602083018a610e0b565b610ef26040830189610e0b565b8181036060830152610f048188610e1a565b90508181036080830152610f188187610e1a565b905081810360a0830152610f2c8186610e1a565b905081810360c0830152610f408185610e64565b9050610f4f60e0830184610e0b565b9998505050505050505050565b6000819050919050565b610f77610f7282610c29565b610f5c565b82525050565b6000610f898284610f66565b60208201915081905092915050565b600082825260208201905092915050565b6000610fb4826109a3565b610fbe8185610f98565b9350610fce8185602086016109bf565b610fd781610473565b840191505092915050565b600060a082019050610ff76000830188610430565b6110046020830187610e0b565b6110116040830186610e0b565b81810360608301526110238185610e1a565b905081810360808301526110378184610fa9565b9050969550505050505056fea26469706673582212200416e327a01cdc137d23418bc754be7b0d44dec4418a6a904369f16f4fa295d564736f6c634300081c0033",
  "linkReferences": {},
  "deployedLinkReferences": {}
}