{
  "_format": "hh-sol-artifact-1",
  "contractName": "SmartMeterCollection",
  "sourceName": "contracts/SmartMeterCollection.sol",
  "abi": [
    {
      "inputs": [
        {
          "internalType": "address",
          "name": "_master",
          "type": "address"
        }
      ],
      "stateMutability": "nonpayable",
      "type": "constructor"
    },
    {
      "anonymous": false,
      "inputs": [
        {
          "indexed": true,
          "internalType": "address",
          "name": "meter",
          "type": "address"
        },
        {
          "indexed": false,
          "internalType": "uint256",
          "name": "timestamp",
          "type": "uint256"
        },
        {
          "indexed": false,
          "internalType": "uint256",
          "name": "value",
          "type": "uint256"
        }
      ],
      "name": "DataRecorded",
      "type": "event"
    },
    {
      "anonymous": false,
      "inputs": [
        {
          "indexed": false,
          "internalType": "string",
          "name": "name",
          "type": "string"
        },
        {
          "indexed": false,
          "internalType": "string",
          "name": "ownerName",
          "type": "string"
        },
        {
          "indexed": true,
          "internalType": "address",
          "name": "smartMeterAddress",
          "type": "address"
        },
        {
          "indexed": false,
          "internalType": "string",
          "name": "smartMeterId",
          "type": "string"
        }
      ],
      "name": "MeterRegistered",
      "type": "event"
    },
    {
      "inputs": [
        {
          "internalType": "address",
          "name": "_tenant",
          "type": "address"
        },
        {
          "internalType": "string",
          "name": "_fullName",
          "type": "string"
        },
        {
          "internalType": "address",
          "name": "_smartMeterAddress",
          "type": "address"
        }
      ],
      "name": "addTenant",
      "outputs": [],
      "stateMutability": "nonpayable",
      "type": "function"
    },
    {
      "inputs": [
        {
          "internalType": "address",
          "name": "_tenantAddress",
          "type": "address"
        }
      ],
      "name": "getAssignedSmartMeterAddress",
      "outputs": [
        {
          "internalType": "address",
          "name": "",
          "type": "address"
        }
      ],
      "stateMutability": "view",
      "type": "function"
    },
    {
      "inputs": [
        {
          "internalType": "address",
          "name": "_meterAddress",
          "type": "address"
        }
      ],
      "name": "getMeterData",
      "outputs": [
        {
          "components": [
            {
              "internalType": "uint256",
              "name": "timestamp",
              "type": "uint256"
            },
            {
              "internalType": "uint256",
              "name": "value",
              "type": "uint256"
            },
            {
              "internalType": "string",
              "name": "unit",
              "type": "string"
            }
          ],
          "internalType": "struct SmartMeterCollection.Measurement[]",
          "name": "",
          "type": "tuple[]"
        }
      ],
      "stateMutability": "view",
      "type": "function"
    },
    {
      "inputs": [
        {
          "internalType": "address",
          "name": "_meterAddress",
          "type": "address"
        }
      ],
      "name": "getMeterInfo",
      "outputs": [
        {
          "components": [
            {
              "internalType": "string",
              "name": "name",
              "type": "string"
            },
            {
              "internalType": "string",
              "name": "ownerName",
              "type": "string"
            },
            {
              "internalType": "address",
              "name": "smartMeterAddress",
              "type": "address"
            },
            {
              "internalType": "string",
              "name": "smartMeterId",
              "type": "string"
            },
            {
              "internalType": "bool",
              "name": "isActive",
              "type": "bool"
            }
          ],
          "internalType": "struct SmartMeterCollection.SmartMeter",
          "name": "",
          "type": "tuple"
        }
      ],
      "stateMutability": "view",
      "type": "function"
    },
    {
      "inputs": [],
      "name": "masterOwner",
      "outputs": [
        {
          "internalType": "address",
          "name": "",
          "type": "address"
        }
      ],
      "stateMutability": "view",
      "type": "function"
    },
    {
      "inputs": [
        {
          "internalType": "address",
          "name": "",
          "type": "address"
        },
        {
          "internalType": "uint256",
          "name": "",
          "type": "uint256"
        }
      ],
      "name": "meterData",
      "outputs": [
        {
          "internalType": "uint256",
          "name": "timestamp",
          "type": "uint256"
        },
        {
          "internalType": "uint256",
          "name": "value",
          "type": "uint256"
        },
        {
          "internalType": "string",
          "name": "unit",
          "type": "string"
        }
      ],
      "stateMutability": "view",
      "type": "function"
    },
    {
      "inputs": [
        {
          "internalType": "uint256",
          "name": "_value",
          "type": "uint256"
        },
        {
          "internalType": "string",
          "name": "_unit",
          "type": "string"
        }
      ],
      "name": "recordData",
      "outputs": [],
      "stateMutability": "nonpayable",
      "type": "function"
    },
    {
      "inputs": [
        {
          "internalType": "string",
          "name": "_name",
          "type": "string"
        },
        {
          "internalType": "string",
          "name": "_ownerName",
          "type": "string"
        },
        {
          "internalType": "address",
          "name": "_smartMeterAddress",
          "type": "address"
        },
        {
          "internalType": "string",
          "name": "_smartMeterId",
          "type": "string"
        }
      ],
      "name": "registerSmartMeter",
      "outputs": [],
      "stateMutability": "nonpayable",
      "type": "function"
    },
    {
      "inputs": [
        {
          "internalType": "address",
          "name": "_tenant",
          "type": "address"
        }
      ],
      "name": "removeTenant",
      "outputs": [],
      "stateMutability": "nonpayable",
      "type": "function"
    },
    {
      "inputs": [
        {
          "internalType": "address",
          "name": "",
          "type": "address"
        }
      ],
      "name": "smartMeters",
      "outputs": [
        {
          "internalType": "string",
          "name": "name",
          "type": "string"
        },
        {
          "internalType": "string",
          "name": "ownerName",
          "type": "string"
        },
        {
          "internalType": "address",
          "name": "smartMeterAddress",
          "type": "address"
        },
        {
          "internalType": "string",
          "name": "smartMeterId",
          "type": "string"
        },
        {
          "internalType": "bool",
          "name": "isActive",
          "type": "bool"
        }
      ],
      "stateMutability": "view",
      "type": "function"
    },
    {
      "inputs": [
        {
          "internalType": "address",
          "name": "",
          "type": "address"
        }
      ],
      "name": "tenants",
      "outputs": [
        {
          "internalType": "string",
          "name": "fullName",
          "type": "string"
        },
        {
          "internalType": "address",
          "name": "assignedSmartMeter",
          "type": "address"
        }
      ],
      "stateMutability": "view",
      "type": "function"
    },
    {
      "inputs": [
        {
          "internalType": "address",
          "name": "",
          "type": "address"
        }
      ],
      "name": "whitelistedTenants",
      "outputs": [
        {
          "internalType": "bool",
          "name": "",
          "type": "bool"
        }
      ],
      "stateMutability": "view",
      "type": "function"
    }
  ],
  "bytecode": "0x608060405234801561001057600080fd5b506040516125e93803806125e983398181016040528101906100329190610223565b6100776040518060400160405280601781526020017f4372656174696e6720636f6c6c656374696f6e20666f72000000000000000000815250826100bd60201b60201c565b806000806101000a81548173ffffffffffffffffffffffffffffffffffffffff021916908373ffffffffffffffffffffffffffffffffffffffff1602179055505061034e565b61015b82826040516024016100d39291906102ef565b6040516020818303038152906040527f319af333000000000000000000000000000000000000000000000000000000007bffffffffffffffffffffffffffffffffffffffffffffffffffffffff19166020820180517bffffffffffffffffffffffffffffffffffffffffffffffffffffffff838183161783525050505061015f60201b60201c565b5050565b6101808161017b61018360201b611389176101a460201b60201c565b60201c565b50565b60006a636f6e736f6c652e6c6f679050600080835160208501845afa505050565b6101b660201b61146817819050919050565b6101be61031f565b565b600080fd5b600073ffffffffffffffffffffffffffffffffffffffff82169050919050565b60006101f0826101c5565b9050919050565b610200816101e5565b811461020b57600080fd5b50565b60008151905061021d816101f7565b92915050565b600060208284031215610239576102386101c0565b5b60006102478482850161020e565b91505092915050565b600081519050919050565b600082825260208201905092915050565b60005b8381101561028a57808201518184015260208101905061026f565b60008484015250505050565b6000601f19601f8301169050919050565b60006102b282610250565b6102bc818561025b565b93506102cc81856020860161026c565b6102d581610296565b840191505092915050565b6102e9816101e5565b82525050565b6000604082019050818103600083015261030981856102a7565b905061031860208301846102e0565b9392505050565b7f4e487b7100000000000000000000000000000000000000000000000000000000600052605160045260246000fd5b61228c8061035d6000396000f3fe608060405234801561001057600080fd5b50600436106100b45760003560e01c80638aeea728116100715780638aeea728146101a1578063a5803945146101d3578063babd969214610203578063e7201d7d1461021f578063fba1f7b01461023d578063fd9153a31461026d576100b4565b80630d79f9c9146100b957806310f6a343146100e957806324c759931461011d57806326d6ec64146101395780632d7100701461015557806333d808ce14610171575b600080fd5b6100d360048036038101906100ce9190611588565b61029e565b6040516100e091906116f3565b60405180910390f35b61010360048036038101906100fe9190611588565b61051e565b60405161011495949392919061177d565b60405180910390f35b61013760048036038101906101329190611880565b610719565b005b610153600480360381019061014e9190611a10565b610945565b005b61016f600480360381019061016a9190611588565b610afa565b005b61018b60048036038101906101869190611588565b610c5c565b6040516101989190611ba0565b60405180910390f35b6101bb60048036038101906101b69190611bc2565b610da0565b6040516101ca93929190611c11565b60405180910390f35b6101ed60048036038101906101e89190611588565b610e6f565b6040516101fa9190611c4f565b60405180910390f35b61021d60048036038101906102189190611c6a565b610e8f565b005b610227611136565b6040516102349190611d25565b60405180910390f35b61025760048036038101906102529190611588565b61115a565b6040516102649190611d25565b60405180910390f35b61028760048036038101906102829190611588565b6112bd565b604051610295929190611d40565b60405180910390f35b6102a6611472565b600160008373ffffffffffffffffffffffffffffffffffffffff1673ffffffffffffffffffffffffffffffffffffffff1681526020019081526020016000206040518060a001604052908160008201805461030090611d9f565b80601f016020809104026020016040519081016040528092919081815260200182805461032c90611d9f565b80156103795780601f1061034e57610100808354040283529160200191610379565b820191906000526020600020905b81548152906001019060200180831161035c57829003601f168201915b5050505050815260200160018201805461039290611d9f565b80601f01602080910402602001604051908101604052809291908181526020018280546103be90611d9f565b801561040b5780601f106103e05761010080835404028352916020019161040b565b820191906000526020600020905b8154815290600101906020018083116103ee57829003601f168201915b505050505081526020016002820160009054906101000a900473ffffffffffffffffffffffffffffffffffffffff1673ffffffffffffffffffffffffffffffffffffffff1673ffffffffffffffffffffffffffffffffffffffff16815260200160038201805461047a90611d9f565b80601f01602080910402602001604051908101604052809291908181526020018280546104a690611d9f565b80156104f35780601f106104c8576101008083540402835291602001916104f3565b820191906000526020600020905b8154815290600101906020018083116104d657829003601f168201915b505050505081526020016004820160009054906101000a900460ff1615151515815250509050919050565b600160205280600052604060002060009150905080600001805461054190611d9f565b80601f016020809104026020016040519081016040528092919081815260200182805461056d90611d9f565b80156105ba5780601f1061058f576101008083540402835291602001916105ba565b820191906000526020600020905b81548152906001019060200180831161059d57829003601f168201915b5050505050908060010180546105cf90611d9f565b80601f01602080910402602001604051908101604052809291908181526020018280546105fb90611d9f565b80156106485780601f1061061d57610100808354040283529160200191610648565b820191906000526020600020905b81548152906001019060200180831161062b57829003601f168201915b5050505050908060020160009054906101000a900473ffffffffffffffffffffffffffffffffffffffff169080600301805461068390611d9f565b80601f01602080910402602001604051908101604052809291908181526020018280546106af90611d9f565b80156106fc5780601f106106d1576101008083540402835291602001916106fc565b820191906000526020600020905b8154815290600101906020018083116106df57829003601f168201915b5050505050908060040160009054906101000a900460ff16905085565b600460003373ffffffffffffffffffffffffffffffffffffffff1673ffffffffffffffffffffffffffffffffffffffff16815260200190815260200160002060009054906101000a900460ff1680156107be5750600160003373ffffffffffffffffffffffffffffffffffffffff1673ffffffffffffffffffffffffffffffffffffffff16815260200190815260200160002060040160009054906101000a900460ff165b6107fd576040517f08c379a00000000000000000000000000000000000000000000000000000000081526004016107f490611e1c565b60405180910390fd5b600360003373ffffffffffffffffffffffffffffffffffffffff1673ffffffffffffffffffffffffffffffffffffffff168152602001908152602001600020604051806060016040528042815260200185815260200184848080601f016020809104026020016040519081016040528093929190818152602001838380828437600081840152601f19601f820116905080830192505050505050508152509080600181540180825580915050600190039060005260206000209060030201600090919091909150600082015181600001556020820151816001015560408201518160020190816108ed9190611fe8565b5050503373ffffffffffffffffffffffffffffffffffffffff167f550066d608ea56e089cd4c6f3ccd9557109a2adf9eb1fc812763cbffe3a325d142856040516109389291906120ba565b60405180910390a2505050565b60008054906101000a900473ffffffffffffffffffffffffffffffffffffffff1673ffffffffffffffffffffffffffffffffffffffff163373ffffffffffffffffffffffffffffffffffffffff16146109d3576040517f08c379a00000000000000000000000000000000000000000000000000000000081526004016109ca9061212f565b60405180910390fd5b60405180604001604052808381526020018273ffffffffffffffffffffffffffffffffffffffff16815250600260008573ffffffffffffffffffffffffffffffffffffffff1673ffffffffffffffffffffffffffffffffffffffff1681526020019081526020016000206000820151816000019081610a529190611fe8565b5060208201518160010160006101000a81548173ffffffffffffffffffffffffffffffffffffffff021916908373ffffffffffffffffffffffffffffffffffffffff1602179055509050506001600560008573ffffffffffffffffffffffffffffffffffffffff1673ffffffffffffffffffffffffffffffffffffffff16815260200190815260200160002060006101000a81548160ff021916908315150217905550505050565b60008054906101000a900473ffffffffffffffffffffffffffffffffffffffff1673ffffffffffffffffffffffffffffffffffffffff163373ffffffffffffffffffffffffffffffffffffffff1614610b88576040517f08c379a0000000000000000000000000000000000000000000000000000000008152600401610b7f9061212f565b60405180910390fd5b6000600460008373ffffffffffffffffffffffffffffffffffffffff1673ffffffffffffffffffffffffffffffffffffffff16815260200190815260200160002060006101000a81548160ff021916908315150217905550600260008273ffffffffffffffffffffffffffffffffffffffff1673ffffffffffffffffffffffffffffffffffffffff16815260200190815260200160002060008082016000610c3091906114b9565b6001820160006101000a81549073ffffffffffffffffffffffffffffffffffffffff0219169055505050565b6060600360008373ffffffffffffffffffffffffffffffffffffffff1673ffffffffffffffffffffffffffffffffffffffff168152602001908152602001600020805480602002602001604051908101604052809291908181526020016000905b82821015610d9557838290600052602060002090600302016040518060600160405290816000820154815260200160018201548152602001600282018054610d0490611d9f565b80601f0160208091040260200160405190810160405280929190818152602001828054610d3090611d9f565b8015610d7d5780601f10610d5257610100808354040283529160200191610d7d565b820191906000526020600020905b815481529060010190602001808311610d6057829003601f168201915b50505050508152505081526020019060010190610cbd565b505050509050919050565b60036020528160005260406000208181548110610dbc57600080fd5b906000526020600020906003020160009150915050806000015490806001015490806002018054610dec90611d9f565b80601f0160208091040260200160405190810160405280929190818152602001828054610e1890611d9f565b8015610e655780601f10610e3a57610100808354040283529160200191610e65565b820191906000526020600020905b815481529060010190602001808311610e4857829003601f168201915b5050505050905083565b60056020528060005260406000206000915054906101000a900460ff1681565b60008054906101000a900473ffffffffffffffffffffffffffffffffffffffff1673ffffffffffffffffffffffffffffffffffffffff163373ffffffffffffffffffffffffffffffffffffffff1614610f1d576040517f08c379a0000000000000000000000000000000000000000000000000000000008152600401610f149061212f565b60405180910390fd5b600160008373ffffffffffffffffffffffffffffffffffffffff1673ffffffffffffffffffffffffffffffffffffffff16815260200190815260200160002060040160009054906101000a900460ff1615610fad576040517f08c379a0000000000000000000000000000000000000000000000000000000008152600401610fa49061219b565b60405180910390fd5b6040518060a001604052808581526020018481526020018373ffffffffffffffffffffffffffffffffffffffff16815260200182815260200160011515815250600160008473ffffffffffffffffffffffffffffffffffffffff1673ffffffffffffffffffffffffffffffffffffffff16815260200190815260200160002060008201518160000190816110419190611fe8565b5060208201518160010190816110579190611fe8565b5060408201518160020160006101000a81548173ffffffffffffffffffffffffffffffffffffffff021916908373ffffffffffffffffffffffffffffffffffffffff16021790555060608201518160030190816110b49190611fe8565b5060808201518160040160006101000a81548160ff0219169083151502179055509050506001600460008473ffffffffffffffffffffffffffffffffffffffff1673ffffffffffffffffffffffffffffffffffffffff16815260200190815260200160002060006101000a81548160ff02191690831515021790555050505050565b60008054906101000a900473ffffffffffffffffffffffffffffffffffffffff1681565b6000611165336113aa565b600560003373ffffffffffffffffffffffffffffffffffffffff1673ffffffffffffffffffffffffffffffffffffffff16815260200190815260200160002060009054906101000a900460ff166111f1576040517f08c379a00000000000000000000000000000000000000000000000000000000081526004016111e890612207565b60405180910390fd5b60016000600260008573ffffffffffffffffffffffffffffffffffffffff1673ffffffffffffffffffffffffffffffffffffffff16815260200190815260200160002060010160009054906101000a900473ffffffffffffffffffffffffffffffffffffffff1673ffffffffffffffffffffffffffffffffffffffff1673ffffffffffffffffffffffffffffffffffffffff16815260200190815260200160002060020160009054906101000a900473ffffffffffffffffffffffffffffffffffffffff169050919050565b60026020528060005260406000206000915090508060000180546112e090611d9f565b80601f016020809104026020016040519081016040528092919081815260200182805461130c90611d9f565b80156113595780601f1061132e57610100808354040283529160200191611359565b820191906000526020600020905b81548152906001019060200180831161133c57829003601f168201915b5050505050908060010160009054906101000a900473ffffffffffffffffffffffffffffffffffffffff16905082565b60006a636f6e736f6c652e6c6f679050600080835160208501845afa505050565b611440816040516024016113be9190611d25565b6040516020818303038152906040527f2c2ecbc2000000000000000000000000000000000000000000000000000000007bffffffffffffffffffffffffffffffffffffffffffffffffffffffff19166020820180517bffffffffffffffffffffffffffffffffffffffffffffffffffffffff8381831617835250505050611443565b50565b61145a8161145261138961145d565b63ffffffff16565b50565b611468819050919050565b611470612227565b565b6040518060a001604052806060815260200160608152602001600073ffffffffffffffffffffffffffffffffffffffff168152602001606081526020016000151581525090565b5080546114c590611d9f565b6000825580601f106114d757506114f6565b601f0160209004906000526020600020908101906114f591906114f9565b5b50565b5b808211156115125760008160009055506001016114fa565b5090565b6000604051905090565b600080fd5b600080fd5b600073ffffffffffffffffffffffffffffffffffffffff82169050919050565b60006115558261152a565b9050919050565b6115658161154a565b811461157057600080fd5b50565b6000813590506115828161155c565b92915050565b60006020828403121561159e5761159d611520565b5b60006115ac84828501611573565b91505092915050565b600081519050919050565b600082825260208201905092915050565b60005b838110156115ef5780820151818401526020810190506115d4565b60008484015250505050565b6000601f19601f8301169050919050565b6000611617826115b5565b61162181856115c0565b93506116318185602086016115d1565b61163a816115fb565b840191505092915050565b61164e8161154a565b82525050565b60008115159050919050565b61166981611654565b82525050565b600060a083016000830151848203600086015261168c828261160c565b915050602083015184820360208601526116a6828261160c565b91505060408301516116bb6040860182611645565b50606083015184820360608601526116d3828261160c565b91505060808301516116e86080860182611660565b508091505092915050565b6000602082019050818103600083015261170d818461166f565b905092915050565b600082825260208201905092915050565b6000611731826115b5565b61173b8185611715565b935061174b8185602086016115d1565b611754816115fb565b840191505092915050565b6117688161154a565b82525050565b61177781611654565b82525050565b600060a08201905081810360008301526117978188611726565b905081810360208301526117ab8187611726565b90506117ba604083018661175f565b81810360608301526117cc8185611726565b90506117db608083018461176e565b9695505050505050565b6000819050919050565b6117f8816117e5565b811461180357600080fd5b50565b600081359050611815816117ef565b92915050565b600080fd5b600080fd5b600080fd5b60008083601f8401126118405761183f61181b565b5b8235905067ffffffffffffffff81111561185d5761185c611820565b5b60208301915083600182028301111561187957611878611825565b5b9250929050565b60008060006040848603121561189957611898611520565b5b60006118a786828701611806565b935050602084013567ffffffffffffffff8111156118c8576118c7611525565b5b6118d48682870161182a565b92509250509250925092565b600080fd5b7f4e487b7100000000000000000000000000000000000000000000000000000000600052604160045260246000fd5b61191d826115fb565b810181811067ffffffffffffffff8211171561193c5761193b6118e5565b5b80604052505050565b600061194f611516565b905061195b8282611914565b919050565b600067ffffffffffffffff82111561197b5761197a6118e5565b5b611984826115fb565b9050602081019050919050565b82818337600083830152505050565b60006119b36119ae84611960565b611945565b9050828152602081018484840111156119cf576119ce6118e0565b5b6119da848285611991565b509392505050565b600082601f8301126119f7576119f661181b565b5b8135611a078482602086016119a0565b91505092915050565b600080600060608486031215611a2957611a28611520565b5b6000611a3786828701611573565b935050602084013567ffffffffffffffff811115611a5857611a57611525565b5b611a64868287016119e2565b9250506040611a7586828701611573565b9150509250925092565b600081519050919050565b600082825260208201905092915050565b6000819050602082019050919050565b611ab4816117e5565b82525050565b6000606083016000830151611ad26000860182611aab565b506020830151611ae56020860182611aab565b5060408301518482036040860152611afd828261160c565b9150508091505092915050565b6000611b168383611aba565b905092915050565b6000602082019050919050565b6000611b3682611a7f565b611b408185611a8a565b935083602082028501611b5285611a9b565b8060005b85811015611b8e5784840389528151611b6f8582611b0a565b9450611b7a83611b1e565b925060208a01995050600181019050611b56565b50829750879550505050505092915050565b60006020820190508181036000830152611bba8184611b2b565b905092915050565b60008060408385031215611bd957611bd8611520565b5b6000611be785828601611573565b9250506020611bf885828601611806565b9150509250929050565b611c0b816117e5565b82525050565b6000606082019050611c266000830186611c02565b611c336020830185611c02565b8181036040830152611c458184611726565b9050949350505050565b6000602082019050611c64600083018461176e565b92915050565b60008060008060808587031215611c8457611c83611520565b5b600085013567ffffffffffffffff811115611ca257611ca1611525565b5b611cae878288016119e2565b945050602085013567ffffffffffffffff811115611ccf57611cce611525565b5b611cdb878288016119e2565b9350506040611cec87828801611573565b925050606085013567ffffffffffffffff811115611d0d57611d0c611525565b5b611d19878288016119e2565b91505092959194509250565b6000602082019050611d3a600083018461175f565b92915050565b60006040820190508181036000830152611d5a8185611726565b9050611d69602083018461175f565b9392505050565b7f4e487b7100000000000000000000000000000000000000000000000000000000600052602260045260246000fd5b60006002820490506001821680611db757607f821691505b602082108103611dca57611dc9611d70565b5b50919050565b7f4e6f7420612077686974656c697374656420616374697665206d657465720000600082015250565b6000611e06601e83611715565b9150611e1182611dd0565b602082019050919050565b60006020820190508181036000830152611e3581611df9565b9050919050565b60008190508160005260206000209050919050565b60006020601f8301049050919050565b600082821b905092915050565b600060088302611e9e7fffffffffffffffffffffffffffffffffffffffffffffffffffffffffffffffff82611e61565b611ea88683611e61565b95508019841693508086168417925050509392505050565b6000819050919050565b6000611ee5611ee0611edb846117e5565b611ec0565b6117e5565b9050919050565b6000819050919050565b611eff83611eca565b611f13611f0b82611eec565b848454611e6e565b825550505050565b600090565b611f28611f1b565b611f33818484611ef6565b505050565b5b81811015611f5757611f4c600082611f20565b600181019050611f39565b5050565b601f821115611f9c57611f6d81611e3c565b611f7684611e51565b81016020851015611f85578190505b611f99611f9185611e51565b830182611f38565b50505b505050565b600082821c905092915050565b6000611fbf60001984600802611fa1565b1980831691505092915050565b6000611fd88383611fae565b9150826002028217905092915050565b611ff1826115b5565b67ffffffffffffffff81111561200a576120096118e5565b5b6120148254611d9f565b61201f828285611f5b565b600060209050601f8311600181146120525760008415612040578287015190505b61204a8582611fcc565b8655506120b2565b601f19841661206086611e3c565b60005b8281101561208857848901518255600182019150602085019450602081019050612063565b868310156120a557848901516120a1601f891682611fae565b8355505b6001600288020188555050505b505050505050565b60006040820190506120cf6000830185611c02565b6120dc6020830184611c02565b9392505050565b7f4f6e6c79206d6173746572000000000000000000000000000000000000000000600082015250565b6000612119600b83611715565b9150612124826120e3565b602082019050919050565b600060208201905081810360008301526121488161210c565b9050919050565b7f4d6574657220616c726561647920657869737473000000000000000000000000600082015250565b6000612185601483611715565b91506121908261214f565b602082019050919050565b600060208201905081810360008301526121b481612178565b9050919050565b7f4e6f742077686974656c69737465642074656e616e7400000000000000000000600082015250565b60006121f1601683611715565b91506121fc826121bb565b602082019050919050565b60006020820190508181036000830152612220816121e4565b9050919050565b7f4e487b7100000000000000000000000000000000000000000000000000000000600052605160045260246000fdfea26469706673582212205ccb6e652e7696b351bd24551b4a0f7bc074034151e3f591132f0254ccd462e464736f6c634300081c0033",
  "linkReferences": {},
  "deployedLinkReferences": {}
}