{
  "_format": "hh-sol-artifact-1",
  "contractName": "SmartMeterCollection",
  "sourceName": "contracts/SmartMeterCollection.sol",
  "abi": [
    {
      "inputs": [
        {
          "internalType": "address",
          "name": "_master",
          "type": "address"
        }
      ],
      "stateMutability": "nonpayable",
      "type": "constructor"
    },
    {
      "anonymous": false,
      "inputs": [
        {
          "indexed": true,
          "internalType": "address",
          "name": "meter",
          "type": "address"
        },
        {
          "indexed": false,
          "internalType": "uint256",
          "name": "timestamp",
          "type": "uint256"
        },
        {
          "indexed": false,
          "internalType": "uint256",
          "name": "value",
          "type": "uint256"
        }
      ],
      "name": "DataRecorded",
      "type": "event"
    },
    {
      "anonymous": false,
      "inputs": [
        {
          "indexed": false,
          "internalType": "string",
          "name": "name",
          "type": "string"
        },
        {
          "indexed": false,
          "internalType": "string",
          "name": "ownerName",
          "type": "string"
        },
        {
          "indexed": true,
          "internalType": "address",
          "name": "smartMeterAddress",
          "type": "address"
        },
        {
          "indexed": false,
          "internalType": "string",
          "name": "smartMeterId",
          "type": "string"
        }
      ],
      "name": "MeterRegistered",
      "type": "event"
    },
    {
      "inputs": [],
      "name": "INITIAL_TENANT_SUPPLY",
      "outputs": [
        {
          "internalType": "uint256",
          "name": "",
          "type": "uint256"
        }
      ],
      "stateMutability": "view",
      "type": "function"
    },
    {
      "inputs": [
        {
          "internalType": "address",
          "name": "_tenant",
          "type": "address"
        },
        {
          "internalType": "string",
          "name": "_fullName",
          "type": "string"
        },
        {
          "internalType": "address",
          "name": "_smartMeterAddress",
          "type": "address"
        }
      ],
      "name": "addTenant",
      "outputs": [],
      "stateMutability": "nonpayable",
      "type": "function"
    },
    {
      "inputs": [],
      "name": "billingContract",
      "outputs": [
        {
          "internalType": "contract BillingContract",
          "name": "",
          "type": "address"
        }
      ],
      "stateMutability": "view",
      "type": "function"
    },
    {
      "inputs": [
        {
          "internalType": "address",
          "name": "_billee",
          "type": "address"
        },
        {
          "internalType": "uint256",
          "name": "_amountHEAT",
          "type": "uint256"
        },
        {
          "internalType": "string",
          "name": "_description",
          "type": "string"
        },
        {
          "internalType": "string",
          "name": "_billId",
          "type": "string"
        }
      ],
      "name": "createBill",
      "outputs": [],
      "stateMutability": "nonpayable",
      "type": "function"
    },
    {
      "inputs": [
        {
          "internalType": "address",
          "name": "_tenantAddress",
          "type": "address"
        }
      ],
      "name": "getAssignedSmartMeterAddress",
      "outputs": [
        {
          "internalType": "address",
          "name": "",
          "type": "address"
        }
      ],
      "stateMutability": "view",
      "type": "function"
    },
    {
      "inputs": [
        {
          "internalType": "address",
          "name": "_tenant",
          "type": "address"
        }
      ],
      "name": "getBills",
      "outputs": [
        {
          "components": [
            {
              "internalType": "string",
              "name": "billId",
              "type": "string"
            },
            {
              "internalType": "bool",
              "name": "paid",
              "type": "bool"
            },
            {
              "internalType": "address",
              "name": "biller",
              "type": "address"
            },
            {
              "internalType": "address",
              "name": "billee",
              "type": "address"
            },
            {
              "internalType": "uint256",
              "name": "amountHEAT",
              "type": "uint256"
            },
            {
              "internalType": "uint256",
              "name": "dateIssuance",
              "type": "uint256"
            },
            {
              "internalType": "uint256",
              "name": "datePaid",
              "type": "uint256"
            },
            {
              "internalType": "string",
              "name": "description",
              "type": "string"
            }
          ],
          "internalType": "struct Bill[]",
          "name": "",
          "type": "tuple[]"
        }
      ],
      "stateMutability": "view",
      "type": "function"
    },
    {
      "inputs": [
        {
          "internalType": "address",
          "name": "_meterAddress",
          "type": "address"
        }
      ],
      "name": "getMeterData",
      "outputs": [
        {
          "components": [
            {
              "internalType": "uint256",
              "name": "timestamp",
              "type": "uint256"
            },
            {
              "internalType": "uint256",
              "name": "value",
              "type": "uint256"
            },
            {
              "internalType": "string",
              "name": "unit",
              "type": "string"
            }
          ],
          "internalType": "struct Measurement[]",
          "name": "",
          "type": "tuple[]"
        }
      ],
      "stateMutability": "view",
      "type": "function"
    },
    {
      "inputs": [
        {
          "internalType": "address",
          "name": "_meterAddress",
          "type": "address"
        }
      ],
      "name": "getMeterInfo",
      "outputs": [
        {
          "components": [
            {
              "internalType": "string",
              "name": "name",
              "type": "string"
            },
            {
              "internalType": "string",
              "name": "ownerName",
              "type": "string"
            },
            {
              "internalType": "address",
              "name": "smartMeterAddress",
              "type": "address"
            },
            {
              "internalType": "string",
              "name": "smartMeterId",
              "type": "string"
            },
            {
              "internalType": "bool",
              "name": "isActive",
              "type": "bool"
            }
          ],
          "internalType": "struct SmartMeter",
          "name": "",
          "type": "tuple"
        }
      ],
      "stateMutability": "view",
      "type": "function"
    },
    {
      "inputs": [],
      "name": "getOutstandingBalance",
      "outputs": [
        {
          "internalType": "uint256",
          "name": "",
          "type": "uint256"
        }
      ],
      "stateMutability": "view",
      "type": "function"
    },
    {
      "inputs": [],
      "name": "getRole",
      "outputs": [
        {
          "internalType": "string",
          "name": "",
          "type": "string"
        }
      ],
      "stateMutability": "view",
      "type": "function"
    },
    {
      "inputs": [],
      "name": "getTokenSupply",
      "outputs": [
        {
          "internalType": "uint256",
          "name": "",
          "type": "uint256"
        }
      ],
      "stateMutability": "view",
      "type": "function"
    },
    {
      "inputs": [],
      "name": "heatToken",
      "outputs": [
        {
          "internalType": "contract HeatingToken",
          "name": "",
          "type": "address"
        }
      ],
      "stateMutability": "view",
      "type": "function"
    },
    {
      "inputs": [],
      "name": "masterOwner",
      "outputs": [
        {
          "internalType": "address",
          "name": "",
          "type": "address"
        }
      ],
      "stateMutability": "view",
      "type": "function"
    },
    {
      "inputs": [
        {
          "internalType": "address",
          "name": "",
          "type": "address"
        },
        {
          "internalType": "uint256",
          "name": "",
          "type": "uint256"
        }
      ],
      "name": "meterData",
      "outputs": [
        {
          "internalType": "uint256",
          "name": "timestamp",
          "type": "uint256"
        },
        {
          "internalType": "uint256",
          "name": "value",
          "type": "uint256"
        },
        {
          "internalType": "string",
          "name": "unit",
          "type": "string"
        }
      ],
      "stateMutability": "view",
      "type": "function"
    },
    {
      "inputs": [
        {
          "internalType": "string",
          "name": "_billId",
          "type": "string"
        },
        {
          "internalType": "uint256",
          "name": "_amount",
          "type": "uint256"
        }
      ],
      "name": "payBill",
      "outputs": [],
      "stateMutability": "nonpayable",
      "type": "function"
    },
    {
      "inputs": [
        {
          "internalType": "uint256",
          "name": "_value",
          "type": "uint256"
        },
        {
          "internalType": "string",
          "name": "_unit",
          "type": "string"
        }
      ],
      "name": "recordData",
      "outputs": [],
      "stateMutability": "nonpayable",
      "type": "function"
    },
    {
      "inputs": [
        {
          "internalType": "string",
          "name": "_name",
          "type": "string"
        },
        {
          "internalType": "string",
          "name": "_ownerName",
          "type": "string"
        },
        {
          "internalType": "address",
          "name": "_smartMeterAddress",
          "type": "address"
        },
        {
          "internalType": "string",
          "name": "_smartMeterId",
          "type": "string"
        }
      ],
      "name": "registerSmartMeter",
      "outputs": [],
      "stateMutability": "nonpayable",
      "type": "function"
    },
    {
      "inputs": [
        {
          "internalType": "address",
          "name": "_tenant",
          "type": "address"
        }
      ],
      "name": "removeTenant",
      "outputs": [],
      "stateMutability": "nonpayable",
      "type": "function"
    },
    {
      "inputs": [
        {
          "internalType": "address",
          "name": "",
          "type": "address"
        }
      ],
      "name": "smartMeters",
      "outputs": [
        {
          "internalType": "string",
          "name": "name",
          "type": "string"
        },
        {
          "internalType": "string",
          "name": "ownerName",
          "type": "string"
        },
        {
          "internalType": "address",
          "name": "smartMeterAddress",
          "type": "address"
        },
        {
          "internalType": "string",
          "name": "smartMeterId",
          "type": "string"
        },
        {
          "internalType": "bool",
          "name": "isActive",
          "type": "bool"
        }
      ],
      "stateMutability": "view",
      "type": "function"
    },
    {
      "inputs": [
        {
          "internalType": "address",
          "name": "",
          "type": "address"
        }
      ],
      "name": "tenants",
      "outputs": [
        {
          "internalType": "string",
          "name": "fullName",
          "type": "string"
        },
        {
          "internalType": "address",
          "name": "assignedSmartMeter",
          "type": "address"
        }
      ],
      "stateMutability": "view",
      "type": "function"
    },
    {
      "inputs": [
        {
          "internalType": "address",
          "name": "",
          "type": "address"
        }
      ],
      "name": "whitelistedTenants",
      "outputs": [
        {
          "internalType": "bool",
          "name": "",
          "type": "bool"
        }
      ],
      "stateMutability": "view",
      "type": "function"
    },
    {
      "inputs": [],
      "name": "withdrawCollectedFunds",
      "outputs": [],
      "stateMutability": "nonpayable",
      "type": "function"
    }
  ],
  "bytecode": "0x608060405234801561001057600080fd5b5060405161813838038061813883398181016040528101906100329190610355565b6100776040518060400160405280601781526020017f4372656174696e6720636f6c6c656374696f6e20666f72000000000000000000815250826101d560201b60201c565b806000806101000a81548173ffffffffffffffffffffffffffffffffffffffff021916908373ffffffffffffffffffffffffffffffffffffffff16021790555069d3c21bcecceda1000000816040516100cf906102ce565b6100da9291906103e0565b604051809103906000f0801580156100f6573d6000803e3d6000fd5b50600160006101000a81548173ffffffffffffffffffffffffffffffffffffffff021916908373ffffffffffffffffffffffffffffffffffffffff16021790555080600160009054906101000a900473ffffffffffffffffffffffffffffffffffffffff16604051610167906102db565b61017292919061045e565b604051809103906000f08015801561018e573d6000803e3d6000fd5b50600260006101000a81548173ffffffffffffffffffffffffffffffffffffffff021916908373ffffffffffffffffffffffffffffffffffffffff16021790555050610576565b61027382826040516024016101eb929190610517565b6040516020818303038152906040527f319af333000000000000000000000000000000000000000000000000000000007bffffffffffffffffffffffffffffffffffffffffffffffffffffffff19166020820180517bffffffffffffffffffffffffffffffffffffffffffffffffffffffff838183161783525050505061027760201b60201c565b5050565b6102988161029361029b60201b6123d5176102bc60201b60201c565b60201c565b50565b60006a636f6e736f6c652e6c6f679050600080835160208501845afa505050565b6102e860201b6123f617819050919050565b6119f48061413883390190565b61260c80615b2c83390190565b6102f0610547565b565b600080fd5b600073ffffffffffffffffffffffffffffffffffffffff82169050919050565b6000610322826102f7565b9050919050565b61033281610317565b811461033d57600080fd5b50565b60008151905061034f81610329565b92915050565b60006020828403121561036b5761036a6102f2565b5b600061037984828501610340565b91505092915050565b6000819050919050565b6000819050919050565b6000819050919050565b60006103bb6103b66103b184610382565b610396565b61038c565b9050919050565b6103cb816103a0565b82525050565b6103da81610317565b82525050565b60006040820190506103f560008301856103c2565b61040260208301846103d1565b9392505050565b600061042461041f61041a846102f7565b610396565b6102f7565b9050919050565b600061043682610409565b9050919050565b60006104488261042b565b9050919050565b6104588161043d565b82525050565b600060408201905061047360008301856103d1565b610480602083018461044f565b9392505050565b600081519050919050565b600082825260208201905092915050565b60005b838110156104c15780820151818401526020810190506104a6565b60008484015250505050565b6000601f19601f8301169050919050565b60006104e982610487565b6104f38185610492565b93506105038185602086016104a3565b61050c816104cd565b840191505092915050565b6000604082019050818103600083015261053181856104de565b905061054060208301846103d1565b9392505050565b7f4e487b7100000000000000000000000000000000000000000000000000000000600052605160045260246000fd5b613bb3806105856000396000f3fe608060405234801561001057600080fd5b50600436106101425760003560e01c80638aeea728116100b8578063ae428d781161007c578063ae428d781461037b578063babd969214610399578063e7201d7d146103b5578063fba1f7b0146103d3578063fd9153a314610403578063fde081741461043457610142565b80638aeea728146102bf57806390affb51146102f1578063a3f4458d1461030f578063a58039451461032d578063ad974f4c1461035d57610142565b80632d7100701161010a5780632d710070146102015780632dda7a721461021d57806333d808ce1461023957806345a132aa146102695780637ad744761461029957806389160939146102b557610142565b80630d79f9c91461014757806310f6a3431461017757806324c75993146101ab57806326d6ec64146101c757806328a11702146101e3575b600080fd5b610161600480360381019061015c9190612516565b610452565b60405161016e9190612681565b60405180910390f35b610191600480360381019061018c9190612516565b61084d565b6040516101a295949392919061270b565b60405180910390f35b6101c560048036038101906101c0919061280e565b610a48565b005b6101e160048036038101906101dc919061299e565b610c74565b005b6101eb610ec1565b6040516101f89190612a1c565b60405180910390f35b61021b60048036038101906102169190612516565b610f64565b005b61023760048036038101906102329190612a37565b6110c6565b005b610253600480360381019061024e9190612516565b61127b565b6040516102609190612bf7565b60405180910390f35b610283600480360381019061027e9190612516565b61153a565b6040516102909190612d92565b60405180910390f35b6102b360048036038101906102ae9190612db4565b6116fd565b005b6102bd61181e565b005b6102d960048036038101906102d49190612e10565b611a91565b6040516102e893929190612e50565b60405180910390f35b6102f9611b60565b6040516103069190612eed565b60405180910390f35b610317611b86565b6040516103249190612a1c565b60405180910390f35b61034760048036038101906103429190612516565b611b93565b6040516103549190612f08565b60405180910390f35b610365611bb3565b6040516103729190612a1c565b60405180910390f35b610383611ce2565b6040516103909190612f44565b60405180910390f35b6103b360048036038101906103ae9190612f5f565b611d08565b005b6103bd612001565b6040516103ca919061301a565b60405180910390f35b6103ed60048036038101906103e89190612516565b612025565b6040516103fa919061301a565b60405180910390f35b61041d60048036038101906104189190612516565b61211d565b60405161042b929190613035565b60405180910390f35b61043c6121e9565b6040516104499190613065565b60405180910390f35b61045a612400565b60008054906101000a900473ffffffffffffffffffffffffffffffffffffffff1673ffffffffffffffffffffffffffffffffffffffff163373ffffffffffffffffffffffffffffffffffffffff1614806105965750600760003373ffffffffffffffffffffffffffffffffffffffff1673ffffffffffffffffffffffffffffffffffffffff16815260200190815260200160002060009054906101000a900460ff16801561059557508173ffffffffffffffffffffffffffffffffffffffff16600460003373ffffffffffffffffffffffffffffffffffffffff1673ffffffffffffffffffffffffffffffffffffffff16815260200190815260200160002060010160009054906101000a900473ffffffffffffffffffffffffffffffffffffffff1673ffffffffffffffffffffffffffffffffffffffff16145b5b6105d5576040517f08c379a00000000000000000000000000000000000000000000000000000000081526004016105cc906130d3565b60405180910390fd5b600360008373ffffffffffffffffffffffffffffffffffffffff1673ffffffffffffffffffffffffffffffffffffffff1681526020019081526020016000206040518060a001604052908160008201805461062f90613122565b80601f016020809104026020016040519081016040528092919081815260200182805461065b90613122565b80156106a85780601f1061067d576101008083540402835291602001916106a8565b820191906000526020600020905b81548152906001019060200180831161068b57829003601f168201915b505050505081526020016001820180546106c190613122565b80601f01602080910402602001604051908101604052809291908181526020018280546106ed90613122565b801561073a5780601f1061070f5761010080835404028352916020019161073a565b820191906000526020600020905b81548152906001019060200180831161071d57829003601f168201915b505050505081526020016002820160009054906101000a900473ffffffffffffffffffffffffffffffffffffffff1673ffffffffffffffffffffffffffffffffffffffff1673ffffffffffffffffffffffffffffffffffffffff1681526020016003820180546107a990613122565b80601f01602080910402602001604051908101604052809291908181526020018280546107d590613122565b80156108225780601f106107f757610100808354040283529160200191610822565b820191906000526020600020905b81548152906001019060200180831161080557829003601f168201915b505050505081526020016004820160009054906101000a900460ff1615151515815250509050919050565b600360205280600052604060002060009150905080600001805461087090613122565b80601f016020809104026020016040519081016040528092919081815260200182805461089c90613122565b80156108e95780601f106108be576101008083540402835291602001916108e9565b820191906000526020600020905b8154815290600101906020018083116108cc57829003601f168201915b5050505050908060010180546108fe90613122565b80601f016020809104026020016040519081016040528092919081815260200182805461092a90613122565b80156109775780601f1061094c57610100808354040283529160200191610977565b820191906000526020600020905b81548152906001019060200180831161095a57829003601f168201915b5050505050908060020160009054906101000a900473ffffffffffffffffffffffffffffffffffffffff16908060030180546109b290613122565b80601f01602080910402602001604051908101604052809291908181526020018280546109de90613122565b8015610a2b5780601f10610a0057610100808354040283529160200191610a2b565b820191906000526020600020905b815481529060010190602001808311610a0e57829003601f168201915b5050505050908060040160009054906101000a900460ff16905085565b600660003373ffffffffffffffffffffffffffffffffffffffff1673ffffffffffffffffffffffffffffffffffffffff16815260200190815260200160002060009054906101000a900460ff168015610aed5750600360003373ffffffffffffffffffffffffffffffffffffffff1673ffffffffffffffffffffffffffffffffffffffff16815260200190815260200160002060040160009054906101000a900460ff165b610b2c576040517f08c379a0000000000000000000000000000000000000000000000000000000008152600401610b239061319f565b60405180910390fd5b600560003373ffffffffffffffffffffffffffffffffffffffff1673ffffffffffffffffffffffffffffffffffffffff168152602001908152602001600020604051806060016040528042815260200185815260200184848080601f016020809104026020016040519081016040528093929190818152602001838380828437600081840152601f19601f82011690508083019250505050505050815250908060018154018082558091505060019003906000526020600020906003020160009091909190915060008201518160000155602082015181600101556040820151816002019081610c1c9190613361565b5050503373ffffffffffffffffffffffffffffffffffffffff167f550066d608ea56e089cd4c6f3ccd9557109a2adf9eb1fc812763cbffe3a325d14285604051610c67929190613433565b60405180910390a2505050565b60008054906101000a900473ffffffffffffffffffffffffffffffffffffffff1673ffffffffffffffffffffffffffffffffffffffff163373ffffffffffffffffffffffffffffffffffffffff1614610d02576040517f08c379a0000000000000000000000000000000000000000000000000000000008152600401610cf9906134a8565b60405180910390fd5b60405180604001604052808381526020018273ffffffffffffffffffffffffffffffffffffffff16815250600460008573ffffffffffffffffffffffffffffffffffffffff1673ffffffffffffffffffffffffffffffffffffffff1681526020019081526020016000206000820151816000019081610d819190613361565b5060208201518160010160006101000a81548173ffffffffffffffffffffffffffffffffffffffff021916908373ffffffffffffffffffffffffffffffffffffffff160217905550905050600160009054906101000a900473ffffffffffffffffffffffffffffffffffffffff1673ffffffffffffffffffffffffffffffffffffffff16635423c22e84681b1ae4d6e2ef5000006040518363ffffffff1660e01b8152600401610e329291906134c8565b600060405180830381600087803b158015610e4c57600080fd5b505af1158015610e60573d6000803e3d6000fd5b505050506001600760008573ffffffffffffffffffffffffffffffffffffffff1673ffffffffffffffffffffffffffffffffffffffff16815260200190815260200160002060006101000a81548160ff021916908315150217905550505050565b6000600260009054906101000a900473ffffffffffffffffffffffffffffffffffffffff1673ffffffffffffffffffffffffffffffffffffffff1663755873c5336040518263ffffffff1660e01b8152600401610f1e919061301a565b602060405180830381865afa158015610f3b573d6000803e3d6000fd5b505050506040513d601f19601f82011682018060405250810190610f5f9190613506565b905090565b60008054906101000a900473ffffffffffffffffffffffffffffffffffffffff1673ffffffffffffffffffffffffffffffffffffffff163373ffffffffffffffffffffffffffffffffffffffff1614610ff2576040517f08c379a0000000000000000000000000000000000000000000000000000000008152600401610fe9906134a8565b60405180910390fd5b6000600760008373ffffffffffffffffffffffffffffffffffffffff1673ffffffffffffffffffffffffffffffffffffffff16815260200190815260200160002060006101000a81548160ff021916908315150217905550600460008273ffffffffffffffffffffffffffffffffffffffff1673ffffffffffffffffffffffffffffffffffffffff1681526020019081526020016000206000808201600061109a9190612447565b6001820160006101000a81549073ffffffffffffffffffffffffffffffffffffffff0219169055505050565b60008054906101000a900473ffffffffffffffffffffffffffffffffffffffff1673ffffffffffffffffffffffffffffffffffffffff163373ffffffffffffffffffffffffffffffffffffffff1614611154576040517f08c379a000000000000000000000000000000000000000000000000000000000815260040161114b906134a8565b60405180910390fd5b600760008573ffffffffffffffffffffffffffffffffffffffff1673ffffffffffffffffffffffffffffffffffffffff16815260200190815260200160002060009054906101000a900460ff166111e0576040517f08c379a00000000000000000000000000000000000000000000000000000000081526004016111d79061357f565b60405180910390fd5b600260009054906101000a900473ffffffffffffffffffffffffffffffffffffffff1673ffffffffffffffffffffffffffffffffffffffff1663a343fc1285338686866040518663ffffffff1660e01b815260040161124395949392919061359f565b600060405180830381600087803b15801561125d57600080fd5b505af1158015611271573d6000803e3d6000fd5b5050505050505050565b606060008054906101000a900473ffffffffffffffffffffffffffffffffffffffff1673ffffffffffffffffffffffffffffffffffffffff163373ffffffffffffffffffffffffffffffffffffffff1614806113b95750600760003373ffffffffffffffffffffffffffffffffffffffff1673ffffffffffffffffffffffffffffffffffffffff16815260200190815260200160002060009054906101000a900460ff1680156113b857508173ffffffffffffffffffffffffffffffffffffffff16600460003373ffffffffffffffffffffffffffffffffffffffff1673ffffffffffffffffffffffffffffffffffffffff16815260200190815260200160002060010160009054906101000a900473ffffffffffffffffffffffffffffffffffffffff1673ffffffffffffffffffffffffffffffffffffffff16145b5b6113f8576040517f08c379a00000000000000000000000000000000000000000000000000000000081526004016113ef906130d3565b60405180910390fd5b600560008373ffffffffffffffffffffffffffffffffffffffff1673ffffffffffffffffffffffffffffffffffffffff168152602001908152602001600020805480602002602001604051908101604052809291908181526020016000905b8282101561152f5783829060005260206000209060030201604051806060016040529081600082015481526020016001820154815260200160028201805461149e90613122565b80601f01602080910402602001604051908101604052809291908181526020018280546114ca90613122565b80156115175780601f106114ec57610100808354040283529160200191611517565b820191906000526020600020905b8154815290600101906020018083116114fa57829003601f168201915b50505050508152505081526020019060010190611457565b505050509050919050565b606060008054906101000a900473ffffffffffffffffffffffffffffffffffffffff1673ffffffffffffffffffffffffffffffffffffffff163373ffffffffffffffffffffffffffffffffffffffff16148061161657508173ffffffffffffffffffffffffffffffffffffffff163373ffffffffffffffffffffffffffffffffffffffff161480156116155750600760008373ffffffffffffffffffffffffffffffffffffffff1673ffffffffffffffffffffffffffffffffffffffff16815260200190815260200160002060009054906101000a900460ff165b5b611655576040517f08c379a000000000000000000000000000000000000000000000000000000000815260040161164c906130d3565b60405180910390fd5b600260009054906101000a900473ffffffffffffffffffffffffffffffffffffffff1673ffffffffffffffffffffffffffffffffffffffff166345a132aa836040518263ffffffff1660e01b81526004016116b0919061301a565b600060405180830381865afa1580156116cd573d6000803e3d6000fd5b505050506040513d6000823e3d601f19601f820116820180604052508101906116f6919061389e565b9050919050565b600760003373ffffffffffffffffffffffffffffffffffffffff1673ffffffffffffffffffffffffffffffffffffffff16815260200190815260200160002060009054906101000a900460ff16611789576040517f08c379a000000000000000000000000000000000000000000000000000000000815260040161178090613933565b60405180910390fd5b600260009054906101000a900473ffffffffffffffffffffffffffffffffffffffff1673ffffffffffffffffffffffffffffffffffffffff16632f79c7b08383336040518463ffffffff1660e01b81526004016117e893929190613953565b600060405180830381600087803b15801561180257600080fd5b505af1158015611816573d6000803e3d6000fd5b505050505050565b60008054906101000a900473ffffffffffffffffffffffffffffffffffffffff1673ffffffffffffffffffffffffffffffffffffffff163373ffffffffffffffffffffffffffffffffffffffff16146118ac576040517f08c379a00000000000000000000000000000000000000000000000000000000081526004016118a3906134a8565b60405180910390fd5b6000600160009054906101000a900473ffffffffffffffffffffffffffffffffffffffff1673ffffffffffffffffffffffffffffffffffffffff166370a08231306040518263ffffffff1660e01b8152600401611909919061301a565b602060405180830381865afa158015611926573d6000803e3d6000fd5b505050506040513d601f19601f8201168201806040525081019061194a9190613506565b90506000811161198f576040517f08c379a0000000000000000000000000000000000000000000000000000000008152600401611986906139dd565b60405180910390fd5b600160009054906101000a900473ffffffffffffffffffffffffffffffffffffffff1673ffffffffffffffffffffffffffffffffffffffff1663a9059cbb60008054906101000a900473ffffffffffffffffffffffffffffffffffffffff16836040518363ffffffff1660e01b8152600401611a0c9291906134c8565b6020604051808303816000875af1158015611a2b573d6000803e3d6000fd5b505050506040513d601f19601f82011682018060405250810190611a4f91906139fd565b611a8e576040517f08c379a0000000000000000000000000000000000000000000000000000000008152600401611a8590613a76565b60405180910390fd5b50565b60056020528160005260406000208181548110611aad57600080fd5b906000526020600020906003020160009150915050806000015490806001015490806002018054611add90613122565b80601f0160208091040260200160405190810160405280929190818152602001828054611b0990613122565b8015611b565780601f10611b2b57610100808354040283529160200191611b56565b820191906000526020600020905b815481529060010190602001808311611b3957829003601f168201915b5050505050905083565b600260009054906101000a900473ffffffffffffffffffffffffffffffffffffffff1681565b681b1ae4d6e2ef50000081565b60076020528060005260406000206000915054906101000a900460ff1681565b6000600760003373ffffffffffffffffffffffffffffffffffffffff1673ffffffffffffffffffffffffffffffffffffffff16815260200190815260200160002060009054906101000a900460ff16611c41576040517f08c379a0000000000000000000000000000000000000000000000000000000008152600401611c3890613933565b60405180910390fd5b600160009054906101000a900473ffffffffffffffffffffffffffffffffffffffff1673ffffffffffffffffffffffffffffffffffffffff166370a08231336040518263ffffffff1660e01b8152600401611c9c919061301a565b602060405180830381865afa158015611cb9573d6000803e3d6000fd5b505050506040513d601f19601f82011682018060405250810190611cdd9190613506565b905090565b600160009054906101000a900473ffffffffffffffffffffffffffffffffffffffff1681565b60008054906101000a900473ffffffffffffffffffffffffffffffffffffffff1673ffffffffffffffffffffffffffffffffffffffff163373ffffffffffffffffffffffffffffffffffffffff1614611d96576040517f08c379a0000000000000000000000000000000000000000000000000000000008152600401611d8d906134a8565b60405180910390fd5b600360008373ffffffffffffffffffffffffffffffffffffffff1673ffffffffffffffffffffffffffffffffffffffff16815260200190815260200160002060040160009054906101000a900460ff1615611e26576040517f08c379a0000000000000000000000000000000000000000000000000000000008152600401611e1d90613ae2565b60405180910390fd5b6040518060a001604052808581526020018481526020018373ffffffffffffffffffffffffffffffffffffffff16815260200182815260200160011515815250600360008473ffffffffffffffffffffffffffffffffffffffff1673ffffffffffffffffffffffffffffffffffffffff1681526020019081526020016000206000820151816000019081611eba9190613361565b506020820151816001019081611ed09190613361565b5060408201518160020160006101000a81548173ffffffffffffffffffffffffffffffffffffffff021916908373ffffffffffffffffffffffffffffffffffffffff1602179055506060820151816003019081611f2d9190613361565b5060808201518160040160006101000a81548160ff0219169083151502179055509050506001600660008473ffffffffffffffffffffffffffffffffffffffff1673ffffffffffffffffffffffffffffffffffffffff16815260200190815260200160002060006101000a81548160ff0219169083151502179055508173ffffffffffffffffffffffffffffffffffffffff167f49678145bcf4dcaf25c4bff4c2bd8262ee07185373d0e2c241598420b8e4d731858584604051611ff393929190613b02565b60405180910390a250505050565b60008054906101000a900473ffffffffffffffffffffffffffffffffffffffff1681565b6000600760003373ffffffffffffffffffffffffffffffffffffffff1673ffffffffffffffffffffffffffffffffffffffff16815260200190815260200160002060009054906101000a900460ff166120b3576040517f08c379a00000000000000000000000000000000000000000000000000000000081526004016120aa90613933565b60405180910390fd5b600460008373ffffffffffffffffffffffffffffffffffffffff1673ffffffffffffffffffffffffffffffffffffffff16815260200190815260200160002060010160009054906101000a900473ffffffffffffffffffffffffffffffffffffffff169050919050565b600460205280600052604060002060009150905080600001805461214090613122565b80601f016020809104026020016040519081016040528092919081815260200182805461216c90613122565b80156121b95780601f1061218e576101008083540402835291602001916121b9565b820191906000526020600020905b81548152906001019060200180831161219c57829003601f168201915b5050505050908060010160009054906101000a900473ffffffffffffffffffffffffffffffffffffffff16905082565b606060008054906101000a900473ffffffffffffffffffffffffffffffffffffffff1673ffffffffffffffffffffffffffffffffffffffff163373ffffffffffffffffffffffffffffffffffffffff160361227b576040518060400160405280600581526020017f61646d696e00000000000000000000000000000000000000000000000000000081525090506123d2565b600660003373ffffffffffffffffffffffffffffffffffffffff1673ffffffffffffffffffffffffffffffffffffffff16815260200190815260200160002060009054906101000a900460ff161561230a576040518060400160405280600a81526020017f736d6172744d657465720000000000000000000000000000000000000000000081525090506123d2565b600760003373ffffffffffffffffffffffffffffffffffffffff1673ffffffffffffffffffffffffffffffffffffffff16815260200190815260200160002060009054906101000a900460ff1615612399576040518060400160405280600681526020017f74656e616e74000000000000000000000000000000000000000000000000000081525090506123d2565b6040518060400160405280600781526020017f756e6b6e6f776e0000000000000000000000000000000000000000000000000081525090505b90565b60006a636f6e736f6c652e6c6f679050600080835160208501845afa505050565b6123fe613b4e565b565b6040518060a001604052806060815260200160608152602001600073ffffffffffffffffffffffffffffffffffffffff168152602001606081526020016000151581525090565b50805461245390613122565b6000825580601f106124655750612484565b601f0160209004906000526020600020908101906124839190612487565b5b50565b5b808211156124a0576000816000905550600101612488565b5090565b6000604051905090565b600080fd5b600080fd5b600073ffffffffffffffffffffffffffffffffffffffff82169050919050565b60006124e3826124b8565b9050919050565b6124f3816124d8565b81146124fe57600080fd5b50565b600081359050612510816124ea565b92915050565b60006020828403121561252c5761252b6124ae565b5b600061253a84828501612501565b91505092915050565b600081519050919050565b600082825260208201905092915050565b60005b8381101561257d578082015181840152602081019050612562565b60008484015250505050565b6000601f19601f8301169050919050565b60006125a582612543565b6125af818561254e565b93506125bf81856020860161255f565b6125c881612589565b840191505092915050565b6125dc816124d8565b82525050565b60008115159050919050565b6125f7816125e2565b82525050565b600060a083016000830151848203600086015261261a828261259a565b91505060208301518482036020860152612634828261259a565b915050604083015161264960408601826125d3565b5060608301518482036060860152612661828261259a565b915050608083015161267660808601826125ee565b508091505092915050565b6000602082019050818103600083015261269b81846125fd565b905092915050565b600082825260208201905092915050565b60006126bf82612543565b6126c981856126a3565b93506126d981856020860161255f565b6126e281612589565b840191505092915050565b6126f6816124d8565b82525050565b612705816125e2565b82525050565b600060a082019050818103600083015261272581886126b4565b9050818103602083015261273981876126b4565b905061274860408301866126ed565b818103606083015261275a81856126b4565b905061276960808301846126fc565b9695505050505050565b6000819050919050565b61278681612773565b811461279157600080fd5b50565b6000813590506127a38161277d565b92915050565b600080fd5b600080fd5b600080fd5b60008083601f8401126127ce576127cd6127a9565b5b8235905067ffffffffffffffff8111156127eb576127ea6127ae565b5b602083019150836001820283011115612807576128066127b3565b5b9250929050565b600080600060408486031215612827576128266124ae565b5b600061283586828701612794565b935050602084013567ffffffffffffffff811115612856576128556124b3565b5b612862868287016127b8565b92509250509250925092565b600080fd5b7f4e487b7100000000000000000000000000000000000000000000000000000000600052604160045260246000fd5b6128ab82612589565b810181811067ffffffffffffffff821117156128ca576128c9612873565b5b80604052505050565b60006128dd6124a4565b90506128e982826128a2565b919050565b600067ffffffffffffffff82111561290957612908612873565b5b61291282612589565b9050602081019050919050565b82818337600083830152505050565b600061294161293c846128ee565b6128d3565b90508281526020810184848401111561295d5761295c61286e565b5b61296884828561291f565b509392505050565b600082601f830112612985576129846127a9565b5b813561299584826020860161292e565b91505092915050565b6000806000606084860312156129b7576129b66124ae565b5b60006129c586828701612501565b935050602084013567ffffffffffffffff8111156129e6576129e56124b3565b5b6129f286828701612970565b9250506040612a0386828701612501565b9150509250925092565b612a1681612773565b82525050565b6000602082019050612a316000830184612a0d565b92915050565b60008060008060808587031215612a5157612a506124ae565b5b6000612a5f87828801612501565b9450506020612a7087828801612794565b935050604085013567ffffffffffffffff811115612a9157612a906124b3565b5b612a9d87828801612970565b925050606085013567ffffffffffffffff811115612abe57612abd6124b3565b5b612aca87828801612970565b91505092959194509250565b600081519050919050565b600082825260208201905092915050565b6000819050602082019050919050565b612b0b81612773565b82525050565b6000606083016000830151612b296000860182612b02565b506020830151612b3c6020860182612b02565b5060408301518482036040860152612b54828261259a565b9150508091505092915050565b6000612b6d8383612b11565b905092915050565b6000602082019050919050565b6000612b8d82612ad6565b612b978185612ae1565b935083602082028501612ba985612af2565b8060005b85811015612be55784840389528151612bc68582612b61565b9450612bd183612b75565b925060208a01995050600181019050612bad565b50829750879550505050505092915050565b60006020820190508181036000830152612c118184612b82565b905092915050565b600081519050919050565b600082825260208201905092915050565b6000819050602082019050919050565b6000610100830160008301518482036000860152612c63828261259a565b9150506020830151612c7860208601826125ee565b506040830151612c8b60408601826125d3565b506060830151612c9e60608601826125d3565b506080830151612cb16080860182612b02565b5060a0830151612cc460a0860182612b02565b5060c0830151612cd760c0860182612b02565b5060e083015184820360e0860152612cef828261259a565b9150508091505092915050565b6000612d088383612c45565b905092915050565b6000602082019050919050565b6000612d2882612c19565b612d328185612c24565b935083602082028501612d4485612c35565b8060005b85811015612d805784840389528151612d618582612cfc565b9450612d6c83612d10565b925060208a01995050600181019050612d48565b50829750879550505050505092915050565b60006020820190508181036000830152612dac8184612d1d565b905092915050565b60008060408385031215612dcb57612dca6124ae565b5b600083013567ffffffffffffffff811115612de957612de86124b3565b5b612df585828601612970565b9250506020612e0685828601612794565b9150509250929050565b60008060408385031215612e2757612e266124ae565b5b6000612e3585828601612501565b9250506020612e4685828601612794565b9150509250929050565b6000606082019050612e656000830186612a0d565b612e726020830185612a0d565b8181036040830152612e8481846126b4565b9050949350505050565b6000819050919050565b6000612eb3612eae612ea9846124b8565b612e8e565b6124b8565b9050919050565b6000612ec582612e98565b9050919050565b6000612ed782612eba565b9050919050565b612ee781612ecc565b82525050565b6000602082019050612f026000830184612ede565b92915050565b6000602082019050612f1d60008301846126fc565b92915050565b6000612f2e82612eba565b9050919050565b612f3e81612f23565b82525050565b6000602082019050612f596000830184612f35565b92915050565b60008060008060808587031215612f7957612f786124ae565b5b600085013567ffffffffffffffff811115612f9757612f966124b3565b5b612fa387828801612970565b945050602085013567ffffffffffffffff811115612fc457612fc36124b3565b5b612fd087828801612970565b9350506040612fe187828801612501565b925050606085013567ffffffffffffffff811115613002576130016124b3565b5b61300e87828801612970565b91505092959194509250565b600060208201905061302f60008301846126ed565b92915050565b6000604082019050818103600083015261304f81856126b4565b905061305e60208301846126ed565b9392505050565b6000602082019050818103600083015261307f81846126b4565b905092915050565b7f4e6f7420617574686f72697a6564000000000000000000000000000000000000600082015250565b60006130bd600e836126a3565b91506130c882613087565b602082019050919050565b600060208201905081810360008301526130ec816130b0565b9050919050565b7f4e487b7100000000000000000000000000000000000000000000000000000000600052602260045260246000fd5b6000600282049050600182168061313a57607f821691505b60208210810361314d5761314c6130f3565b5b50919050565b7f4e6f7420612077686974656c697374656420616374697665206d657465720000600082015250565b6000613189601e836126a3565b915061319482613153565b602082019050919050565b600060208201905081810360008301526131b88161317c565b9050919050565b60008190508160005260206000209050919050565b60006020601f8301049050919050565b600082821b905092915050565b6000600883026132217fffffffffffffffffffffffffffffffffffffffffffffffffffffffffffffffff826131e4565b61322b86836131e4565b95508019841693508086168417925050509392505050565b600061325e61325961325484612773565b612e8e565b612773565b9050919050565b6000819050919050565b61327883613243565b61328c61328482613265565b8484546131f1565b825550505050565b600090565b6132a1613294565b6132ac81848461326f565b505050565b5b818110156132d0576132c5600082613299565b6001810190506132b2565b5050565b601f821115613315576132e6816131bf565b6132ef846131d4565b810160208510156132fe578190505b61331261330a856131d4565b8301826132b1565b50505b505050565b600082821c905092915050565b60006133386000198460080261331a565b1980831691505092915050565b60006133518383613327565b9150826002028217905092915050565b61336a82612543565b67ffffffffffffffff81111561338357613382612873565b5b61338d8254613122565b6133988282856132d4565b600060209050601f8311600181146133cb57600084156133b9578287015190505b6133c38582613345565b86555061342b565b601f1984166133d9866131bf565b60005b82811015613401578489015182556001820191506020850194506020810190506133dc565b8683101561341e578489015161341a601f891682613327565b8355505b6001600288020188555050505b505050505050565b60006040820190506134486000830185612a0d565b6134556020830184612a0d565b9392505050565b7f4f6e6c79206d6173746572000000000000000000000000000000000000000000600082015250565b6000613492600b836126a3565b915061349d8261345c565b602082019050919050565b600060208201905081810360008301526134c181613485565b9050919050565b60006040820190506134dd60008301856126ed565b6134ea6020830184612a0d565b9392505050565b6000815190506135008161277d565b92915050565b60006020828403121561351c5761351b6124ae565b5b600061352a848285016134f1565b91505092915050565b7f496e76616c69642074656e616e74206164647265737300000000000000000000600082015250565b60006135696016836126a3565b915061357482613533565b602082019050919050565b600060208201905081810360008301526135988161355c565b9050919050565b600060a0820190506135b460008301886126ed565b6135c160208301876126ed565b6135ce6040830186612a0d565b81810360608301526135e081856126b4565b905081810360808301526135f481846126b4565b90509695505050505050565b600067ffffffffffffffff82111561361b5761361a612873565b5b602082029050602081019050919050565b600080fd5b600080fd5b6000613649613644846128ee565b6128d3565b9050828152602081018484840111156136655761366461286e565b5b61367084828561255f565b509392505050565b600082601f83011261368d5761368c6127a9565b5b815161369d848260208601613636565b91505092915050565b6136af816125e2565b81146136ba57600080fd5b50565b6000815190506136cc816136a6565b92915050565b6000815190506136e1816124ea565b92915050565b600061010082840312156136fe576136fd61362c565b5b6137096101006128d3565b9050600082015167ffffffffffffffff81111561372957613728613631565b5b61373584828501613678565b6000830152506020613749848285016136bd565b602083015250604061375d848285016136d2565b6040830152506060613771848285016136d2565b6060830152506080613785848285016134f1565b60808301525060a0613799848285016134f1565b60a08301525060c06137ad848285016134f1565b60c08301525060e082015167ffffffffffffffff8111156137d1576137d0613631565b5b6137dd84828501613678565b60e08301525092915050565b60006137fc6137f784613600565b6128d3565b9050808382526020820190506020840283018581111561381f5761381e6127b3565b5b835b8181101561386657805167ffffffffffffffff811115613844576138436127a9565b5b80860161385189826136e7565b85526020850194505050602081019050613821565b5050509392505050565b600082601f830112613885576138846127a9565b5b81516138958482602086016137e9565b91505092915050565b6000602082840312156138b4576138b36124ae565b5b600082015167ffffffffffffffff8111156138d2576138d16124b3565b5b6138de84828501613870565b91505092915050565b7f4e6f742077686974656c69737465642074656e616e7400000000000000000000600082015250565b600061391d6016836126a3565b9150613928826138e7565b602082019050919050565b6000602082019050818103600083015261394c81613910565b9050919050565b6000606082019050818103600083015261396d81866126b4565b905061397c6020830185612a0d565b61398960408301846126ed565b949350505050565b7f4e6f2066756e647320746f207769746864726177000000000000000000000000600082015250565b60006139c76014836126a3565b91506139d282613991565b602082019050919050565b600060208201905081810360008301526139f6816139ba565b9050919050565b600060208284031215613a1357613a126124ae565b5b6000613a21848285016136bd565b91505092915050565b7f5472616e73666572206661696c65640000000000000000000000000000000000600082015250565b6000613a60600f836126a3565b9150613a6b82613a2a565b602082019050919050565b60006020820190508181036000830152613a8f81613a53565b9050919050565b7f4d6574657220616c726561647920657869737473000000000000000000000000600082015250565b6000613acc6014836126a3565b9150613ad782613a96565b602082019050919050565b60006020820190508181036000830152613afb81613abf565b9050919050565b60006060820190508181036000830152613b1c81866126b4565b90508181036020830152613b3081856126b4565b90508181036040830152613b4481846126b4565b9050949350505050565b7f4e487b7100000000000000000000000000000000000000000000000000000000600052605160045260246000fdfea264697066735822122055b2e46c7466f0ddbbf0265d93731197e9f466660e02d6cbdad8cab6fc0bc11f64736f6c634300081c003360806040526040518060400160405280600d81526020017f48656174696e6720546f6b656e0000000000000000000000000000000000000081525060009081610048919061044e565b506040518060400160405280600481526020017f48454154000000000000000000000000000000000000000000000000000000008152506001908161008d919061044e565b506012600260006101000a81548160ff021916908360ff1602179055503480156100b657600080fd5b506040516119f43803806119f483398181016040528101906100d891906105af565b80600460006101000a81548173ffffffffffffffffffffffffffffffffffffffff021916908373ffffffffffffffffffffffffffffffffffffffff160217905550600260009054906101000a900460ff1660ff16600a6101389190610751565b82610143919061079c565b600381905550600354600560008373ffffffffffffffffffffffffffffffffffffffff1673ffffffffffffffffffffffffffffffffffffffff168152602001908152602001600020819055508073ffffffffffffffffffffffffffffffffffffffff16600073ffffffffffffffffffffffffffffffffffffffff167fddf252ad1be2c89b69c2b068fc378daa952ba7f163c4a11628f55a4df523b3ef6003546040516101ef91906107ed565b60405180910390a35050610808565b600081519050919050565b7f4e487b7100000000000000000000000000000000000000000000000000000000600052604160045260246000fd5b7f4e487b7100000000000000000000000000000000000000000000000000000000600052602260045260246000fd5b6000600282049050600182168061027f57607f821691505b60208210810361029257610291610238565b5b50919050565b60008190508160005260206000209050919050565b60006020601f8301049050919050565b600082821b905092915050565b6000600883026102fa7fffffffffffffffffffffffffffffffffffffffffffffffffffffffffffffffff826102bd565b61030486836102bd565b95508019841693508086168417925050509392505050565b6000819050919050565b6000819050919050565b600061034b6103466103418461031c565b610326565b61031c565b9050919050565b6000819050919050565b61036583610330565b61037961037182610352565b8484546102ca565b825550505050565b600090565b61038e610381565b61039981848461035c565b505050565b5b818110156103bd576103b2600082610386565b60018101905061039f565b5050565b601f821115610402576103d381610298565b6103dc846102ad565b810160208510156103eb578190505b6103ff6103f7856102ad565b83018261039e565b50505b505050565b600082821c905092915050565b600061042560001984600802610407565b1980831691505092915050565b600061043e8383610414565b9150826002028217905092915050565b610457826101fe565b67ffffffffffffffff8111156104705761046f610209565b5b61047a8254610267565b6104858282856103c1565b600060209050601f8311600181146104b857600084156104a6578287015190505b6104b08582610432565b865550610518565b601f1984166104c686610298565b60005b828110156104ee578489015182556001820191506020850194506020810190506104c9565b8683101561050b5784890151610507601f891682610414565b8355505b6001600288020188555050505b505050505050565b600080fd5b61052e8161031c565b811461053957600080fd5b50565b60008151905061054b81610525565b92915050565b600073ffffffffffffffffffffffffffffffffffffffff82169050919050565b600061057c82610551565b9050919050565b61058c81610571565b811461059757600080fd5b50565b6000815190506105a981610583565b92915050565b600080604083850312156105c6576105c5610520565b5b60006105d48582860161053c565b92505060206105e58582860161059a565b9150509250929050565b7f4e487b7100000000000000000000000000000000000000000000000000000000600052601160045260246000fd5b60008160011c9050919050565b6000808291508390505b600185111561067557808604811115610651576106506105ef565b5b60018516156106605780820291505b808102905061066e8561061e565b9450610635565b94509492505050565b60008261068e576001905061074a565b8161069c576000905061074a565b81600181146106b257600281146106bc576106eb565b600191505061074a565b60ff8411156106ce576106cd6105ef565b5b8360020a9150848211156106e5576106e46105ef565b5b5061074a565b5060208310610133831016604e8410600b84101617156107205782820a90508381111561071b5761071a6105ef565b5b61074a565b61072d848484600161062b565b92509050818404811115610744576107436105ef565b5b81810290505b9392505050565b600061075c8261031c565b91506107678361031c565b92506107947fffffffffffffffffffffffffffffffffffffffffffffffffffffffffffffffff848461067e565b905092915050565b60006107a78261031c565b91506107b28361031c565b92508282026107c08161031c565b915082820484148315176107d7576107d66105ef565b5b5092915050565b6107e78161031c565b82525050565b600060208201905061080260008301846107de565b92915050565b6111dd806108176000396000f3fe608060405234801561001057600080fd5b50600436106100b45760003560e01c80635423c22e116100715780635423c22e146101a357806370a08231146101bf5780638da5cb5b146101ef57806395d89b411461020d578063a9059cbb1461022b578063dd62ed3e1461025b576100b4565b806306fdde03146100b9578063095ea7b3146100d757806318160ddd1461010757806323b872dd146101255780632b99174614610155578063313ce56714610185575b600080fd5b6100c161028b565b6040516100ce9190610cf0565b60405180910390f35b6100f160048036038101906100ec9190610dab565b610319565b6040516100fe9190610e06565b60405180910390f35b61010f61040b565b60405161011c9190610e30565b60405180910390f35b61013f600480360381019061013a9190610e4b565b610411565b60405161014c9190610e06565b60405180910390f35b61016f600480360381019061016a9190610e4b565b610703565b60405161017c9190610e06565b60405180910390f35b61018d6107f6565b60405161019a9190610eba565b60405180910390f35b6101bd60048036038101906101b89190610dab565b610809565b005b6101d960048036038101906101d49190610ed5565b610a06565b6040516101e69190610e30565b60405180910390f35b6101f7610a1e565b6040516102049190610f11565b60405180910390f35b610215610a44565b6040516102229190610cf0565b60405180910390f35b61024560048036038101906102409190610dab565b610ad2565b6040516102529190610e06565b60405180910390f35b61027560048036038101906102709190610f2c565b610c3b565b6040516102829190610e30565b60405180910390f35b6000805461029890610f9b565b80601f01602080910402602001604051908101604052809291908181526020018280546102c490610f9b565b80156103115780601f106102e657610100808354040283529160200191610311565b820191906000526020600020905b8154815290600101906020018083116102f457829003601f168201915b505050505081565b600081600660003373ffffffffffffffffffffffffffffffffffffffff1673ffffffffffffffffffffffffffffffffffffffff16815260200190815260200160002060008573ffffffffffffffffffffffffffffffffffffffff1673ffffffffffffffffffffffffffffffffffffffff168152602001908152602001600020819055508273ffffffffffffffffffffffffffffffffffffffff163373ffffffffffffffffffffffffffffffffffffffff167f8c5be1e5ebec7d5bd14f71427d1e84f3dd0314c0f7b2291e5b200ac8c7c3b925846040516103f99190610e30565b60405180910390a36001905092915050565b60035481565b6000600560008573ffffffffffffffffffffffffffffffffffffffff1673ffffffffffffffffffffffffffffffffffffffff16815260200190815260200160002054821115610495576040517f08c379a000000000000000000000000000000000000000000000000000000000815260040161048c90611018565b60405180910390fd5b600660008573ffffffffffffffffffffffffffffffffffffffff1673ffffffffffffffffffffffffffffffffffffffff16815260200190815260200160002060008473ffffffffffffffffffffffffffffffffffffffff1673ffffffffffffffffffffffffffffffffffffffff16815260200190815260200160002054821115610554576040517f08c379a000000000000000000000000000000000000000000000000000000000815260040161054b90611084565b60405180910390fd5b81600560008673ffffffffffffffffffffffffffffffffffffffff1673ffffffffffffffffffffffffffffffffffffffff16815260200190815260200160002060008282546105a391906110d3565b9250508190555081600560008573ffffffffffffffffffffffffffffffffffffffff1673ffffffffffffffffffffffffffffffffffffffff16815260200190815260200160002060008282546105f99190611107565b9250508190555081600660008673ffffffffffffffffffffffffffffffffffffffff1673ffffffffffffffffffffffffffffffffffffffff16815260200190815260200160002060008573ffffffffffffffffffffffffffffffffffffffff1673ffffffffffffffffffffffffffffffffffffffff168152602001908152602001600020600082825461068c91906110d3565b925050819055508273ffffffffffffffffffffffffffffffffffffffff168473ffffffffffffffffffffffffffffffffffffffff167fddf252ad1be2c89b69c2b068fc378daa952ba7f163c4a11628f55a4df523b3ef846040516106f09190610e30565b60405180910390a3600190509392505050565b600081600660008673ffffffffffffffffffffffffffffffffffffffff1673ffffffffffffffffffffffffffffffffffffffff16815260200190815260200160002060008573ffffffffffffffffffffffffffffffffffffffff1673ffffffffffffffffffffffffffffffffffffffff168152602001908152602001600020819055508273ffffffffffffffffffffffffffffffffffffffff168473ffffffffffffffffffffffffffffffffffffffff167f8c5be1e5ebec7d5bd14f71427d1e84f3dd0314c0f7b2291e5b200ac8c7c3b925846040516107e39190610e30565b60405180910390a3600190509392505050565b600260009054906101000a900460ff1681565b8060056000600460009054906101000a900473ffffffffffffffffffffffffffffffffffffffff1673ffffffffffffffffffffffffffffffffffffffff1673ffffffffffffffffffffffffffffffffffffffff1681526020019081526020016000205410156108ad576040517f08c379a00000000000000000000000000000000000000000000000000000000081526004016108a490611187565b60405180910390fd5b8060056000600460009054906101000a900473ffffffffffffffffffffffffffffffffffffffff1673ffffffffffffffffffffffffffffffffffffffff1673ffffffffffffffffffffffffffffffffffffffff168152602001908152602001600020600082825461091e91906110d3565b9250508190555080600560008473ffffffffffffffffffffffffffffffffffffffff1673ffffffffffffffffffffffffffffffffffffffff16815260200190815260200160002060008282546109749190611107565b925050819055508173ffffffffffffffffffffffffffffffffffffffff16600460009054906101000a900473ffffffffffffffffffffffffffffffffffffffff1673ffffffffffffffffffffffffffffffffffffffff167fddf252ad1be2c89b69c2b068fc378daa952ba7f163c4a11628f55a4df523b3ef836040516109fa9190610e30565b60405180910390a35050565b60056020528060005260406000206000915090505481565b600460009054906101000a900473ffffffffffffffffffffffffffffffffffffffff1681565b60018054610a5190610f9b565b80601f0160208091040260200160405190810160405280929190818152602001828054610a7d90610f9b565b8015610aca5780601f10610a9f57610100808354040283529160200191610aca565b820191906000526020600020905b815481529060010190602001808311610aad57829003601f168201915b505050505081565b600081600560003373ffffffffffffffffffffffffffffffffffffffff1673ffffffffffffffffffffffffffffffffffffffff168152602001908152602001600020541015610b2057600080fd5b81600560003373ffffffffffffffffffffffffffffffffffffffff1673ffffffffffffffffffffffffffffffffffffffff1681526020019081526020016000206000828254610b6f91906110d3565b9250508190555081600560008573ffffffffffffffffffffffffffffffffffffffff1673ffffffffffffffffffffffffffffffffffffffff1681526020019081526020016000206000828254610bc59190611107565b925050819055508273ffffffffffffffffffffffffffffffffffffffff163373ffffffffffffffffffffffffffffffffffffffff167fddf252ad1be2c89b69c2b068fc378daa952ba7f163c4a11628f55a4df523b3ef84604051610c299190610e30565b60405180910390a36001905092915050565b6006602052816000526040600020602052806000526040600020600091509150505481565b600081519050919050565b600082825260208201905092915050565b60005b83811015610c9a578082015181840152602081019050610c7f565b60008484015250505050565b6000601f19601f8301169050919050565b6000610cc282610c60565b610ccc8185610c6b565b9350610cdc818560208601610c7c565b610ce581610ca6565b840191505092915050565b60006020820190508181036000830152610d0a8184610cb7565b905092915050565b600080fd5b600073ffffffffffffffffffffffffffffffffffffffff82169050919050565b6000610d4282610d17565b9050919050565b610d5281610d37565b8114610d5d57600080fd5b50565b600081359050610d6f81610d49565b92915050565b6000819050919050565b610d8881610d75565b8114610d9357600080fd5b50565b600081359050610da581610d7f565b92915050565b60008060408385031215610dc257610dc1610d12565b5b6000610dd085828601610d60565b9250506020610de185828601610d96565b9150509250929050565b60008115159050919050565b610e0081610deb565b82525050565b6000602082019050610e1b6000830184610df7565b92915050565b610e2a81610d75565b82525050565b6000602082019050610e456000830184610e21565b92915050565b600080600060608486031215610e6457610e63610d12565b5b6000610e7286828701610d60565b9350506020610e8386828701610d60565b9250506040610e9486828701610d96565b9150509250925092565b600060ff82169050919050565b610eb481610e9e565b82525050565b6000602082019050610ecf6000830184610eab565b92915050565b600060208284031215610eeb57610eea610d12565b5b6000610ef984828501610d60565b91505092915050565b610f0b81610d37565b82525050565b6000602082019050610f266000830184610f02565b92915050565b60008060408385031215610f4357610f42610d12565b5b6000610f5185828601610d60565b9250506020610f6285828601610d60565b9150509250929050565b7f4e487b7100000000000000000000000000000000000000000000000000000000600052602260045260246000fd5b60006002820490506001821680610fb357607f821691505b602082108103610fc657610fc5610f6c565b5b50919050565b7f42616c616e636520746f6f206c6f770000000000000000000000000000000000600082015250565b6000611002600f83610c6b565b915061100d82610fcc565b602082019050919050565b6000602082019050818103600083015261103181610ff5565b9050919050565b7f416c6c6f77616e636520746f6f206c6f77000000000000000000000000000000600082015250565b600061106e601183610c6b565b915061107982611038565b602082019050919050565b6000602082019050818103600083015261109d81611061565b9050919050565b7f4e487b7100000000000000000000000000000000000000000000000000000000600052601160045260246000fd5b60006110de82610d75565b91506110e983610d75565b9250828203905081811115611101576111006110a4565b5b92915050565b600061111282610d75565b915061111d83610d75565b9250828201905080821115611135576111346110a4565b5b92915050565b7f4f776e65722062616c616e636520696e73756666696369656e74000000000000600082015250565b6000611171601a83610c6b565b915061117c8261113b565b602082019050919050565b600060208201905081810360008301526111a081611164565b905091905056fea2646970667358221220e3bc3542218b15d571f77b840ccb61d0189a2c2d5f947786dac3ac0771deb56e64736f6c634300081c0033608060405234801561001057600080fd5b5060405161260c38038061260c8339818101604052810190610032919061015b565b816000806101000a81548173ffffffffffffffffffffffffffffffffffffffff021916908373ffffffffffffffffffffffffffffffffffffffff16021790555080600160006101000a81548173ffffffffffffffffffffffffffffffffffffffff021916908373ffffffffffffffffffffffffffffffffffffffff160217905550505061019b565b600080fd5b600073ffffffffffffffffffffffffffffffffffffffff82169050919050565b60006100ea826100bf565b9050919050565b6100fa816100df565b811461010557600080fd5b50565b600081519050610117816100f1565b92915050565b6000610128826100df565b9050919050565b6101388161011d565b811461014357600080fd5b50565b6000815190506101558161012f565b92915050565b60008060408385031215610172576101716100ba565b5b600061018085828601610108565b925050602061019185828601610146565b9150509250929050565b612462806101aa6000396000f3fe608060405234801561001057600080fd5b506004361061009e5760003560e01c8063755873c511610066578063755873c51461018657806382c3807b146101b6578063a343fc12146101ed578063ae428d7814610209578063e7201d7d146102275761009e565b80632f79c7b0146100a357806345a132aa146100bf5780634a012c63146100ef57806351c87677146101265780636a6da61e14610156575b600080fd5b6100bd60048036038101906100b8919061168b565b610245565b005b6100d960048036038101906100d491906116fa565b6106b8565b6040516100e69190611958565b60405180910390f35b6101096004803603810190610104919061197a565b610ab5565b60405161011d989796959493929190611a31565b60405180910390f35b610140600480360381019061013b919061197a565b610c77565b60405161014d9190611abd565b60405180910390f35b610170600480360381019061016b91906116fa565b610d30565b60405161017d9190611adf565b60405180910390f35b6101a0600480360381019061019b91906116fa565b610d48565b6040516101ad9190611adf565b60405180910390f35b6101d060048036038101906101cb9190611afa565b610d91565b6040516101e4989796959493929190611a31565b60405180910390f35b61020760048036038101906102029190611b43565b610f4c565b005b6102116113e0565b60405161021e9190611c55565b60405180910390f35b61022f611406565b60405161023c9190611c70565b60405180910390f35b600160009054906101000a900473ffffffffffffffffffffffffffffffffffffffff1673ffffffffffffffffffffffffffffffffffffffff16632b9917468260008054906101000a900473ffffffffffffffffffffffffffffffffffffffff16856040518463ffffffff1660e01b81526004016102c493929190611c8b565b6020604051808303816000875af11580156102e3573d6000803e3d6000fd5b505050506040513d601f19601f820116820180604052508101906103079190611cee565b610346576040517f08c379a000000000000000000000000000000000000000000000000000000000815260040161033d90611d67565b60405180910390fd5b60006004846040516103589190611dc3565b90815260200160405180910390209050600081600001805461037990611e09565b9050036103bb576040517f08c379a00000000000000000000000000000000000000000000000000000000081526004016103b290611e86565b60405180910390fd5b8060010160009054906101000a900460ff161561040d576040517f08c379a000000000000000000000000000000000000000000000000000000000815260040161040490611ef2565b60405180910390fd5b80600301548314610453576040517f08c379a000000000000000000000000000000000000000000000000000000000815260040161044a90611f5e565b60405180910390fd5b8060020160009054906101000a900473ffffffffffffffffffffffffffffffffffffffff1673ffffffffffffffffffffffffffffffffffffffff168273ffffffffffffffffffffffffffffffffffffffff16146104e5576040517f08c379a00000000000000000000000000000000000000000000000000000000081526004016104dc90611fca565b60405180910390fd5b600160009054906101000a900473ffffffffffffffffffffffffffffffffffffffff1673ffffffffffffffffffffffffffffffffffffffff166323b872dd8360008054906101000a900473ffffffffffffffffffffffffffffffffffffffff16866040518463ffffffff1660e01b815260040161056493929190611c8b565b6020604051808303816000875af1158015610583573d6000803e3d6000fd5b505050506040513d601f19601f820116820180604052508101906105a79190611cee565b6105e6576040517f08c379a00000000000000000000000000000000000000000000000000000000081526004016105dd90612036565b60405180910390fd5b60018160010160006101000a81548160ff02191690831515021790555042816005018190555082600360008473ffffffffffffffffffffffffffffffffffffffff1673ffffffffffffffffffffffffffffffffffffffff168152602001908152602001600020600082825461065b9190612085565b925050819055508173ffffffffffffffffffffffffffffffffffffffff167f5ce0614a46459714585c219d6fb0dd3a4b01b81fc18567ebe68bf418067c91d484866040516106aa9291906120b9565b60405180910390a250505050565b60606000600560008473ffffffffffffffffffffffffffffffffffffffff1673ffffffffffffffffffffffffffffffffffffffff168152602001908152602001600020805480602002602001604051908101604052809291908181526020016000905b828210156107c757838290600052602060002001805461073a90611e09565b80601f016020809104026020016040519081016040528092919081815260200182805461076690611e09565b80156107b35780601f10610788576101008083540402835291602001916107b3565b820191906000526020600020905b81548152906001019060200180831161079657829003601f168201915b50505050508152602001906001019061071b565b5050505090506000815167ffffffffffffffff8111156107ea576107e96114cc565b5b60405190808252806020026020018201604052801561082357816020015b61081061142a565b8152602001906001900390816108085790505b50905060005b8251811015610aaa576004838281518110610847576108466120e9565b5b602002602001015160405161085c9190611dc3565b90815260200160405180910390206040518061010001604052908160008201805461088690611e09565b80601f01602080910402602001604051908101604052809291908181526020018280546108b290611e09565b80156108ff5780601f106108d4576101008083540402835291602001916108ff565b820191906000526020600020905b8154815290600101906020018083116108e257829003601f168201915b505050505081526020016001820160009054906101000a900460ff161515151581526020016001820160019054906101000a900473ffffffffffffffffffffffffffffffffffffffff1673ffffffffffffffffffffffffffffffffffffffff1673ffffffffffffffffffffffffffffffffffffffff1681526020016002820160009054906101000a900473ffffffffffffffffffffffffffffffffffffffff1673ffffffffffffffffffffffffffffffffffffffff1673ffffffffffffffffffffffffffffffffffffffff1681526020016003820154815260200160048201548152602001600582015481526020016006820180546109fd90611e09565b80601f0160208091040260200160405190810160405280929190818152602001828054610a2990611e09565b8015610a765780601f10610a4b57610100808354040283529160200191610a76565b820191906000526020600020905b815481529060010190602001808311610a5957829003601f168201915b505050505081525050828281518110610a9257610a916120e9565b5b60200260200101819052508080600101915050610829565b508092505050919050565b60026020528160005260406000208181548110610ad157600080fd5b906000526020600020906007020160009150915050806000018054610af590611e09565b80601f0160208091040260200160405190810160405280929190818152602001828054610b2190611e09565b8015610b6e5780601f10610b4357610100808354040283529160200191610b6e565b820191906000526020600020905b815481529060010190602001808311610b5157829003601f168201915b5050505050908060010160009054906101000a900460ff16908060010160019054906101000a900473ffffffffffffffffffffffffffffffffffffffff16908060020160009054906101000a900473ffffffffffffffffffffffffffffffffffffffff1690806003015490806004015490806005015490806006018054610bf490611e09565b80601f0160208091040260200160405190810160405280929190818152602001828054610c2090611e09565b8015610c6d5780601f10610c4257610100808354040283529160200191610c6d565b820191906000526020600020905b815481529060010190602001808311610c5057829003601f168201915b5050505050905088565b60056020528160005260406000208181548110610c9357600080fd5b90600052602060002001600091509150508054610caf90611e09565b80601f0160208091040260200160405190810160405280929190818152602001828054610cdb90611e09565b8015610d285780601f10610cfd57610100808354040283529160200191610d28565b820191906000526020600020905b815481529060010190602001808311610d0b57829003601f168201915b505050505081565b60036020528060005260406000206000915090505481565b6000600360008373ffffffffffffffffffffffffffffffffffffffff1673ffffffffffffffffffffffffffffffffffffffff168152602001908152602001600020549050919050565b600481805160208101820180518482526020830160208501208183528095505050505050600091509050806000018054610dca90611e09565b80601f0160208091040260200160405190810160405280929190818152602001828054610df690611e09565b8015610e435780601f10610e1857610100808354040283529160200191610e43565b820191906000526020600020905b815481529060010190602001808311610e2657829003601f168201915b5050505050908060010160009054906101000a900460ff16908060010160019054906101000a900473ffffffffffffffffffffffffffffffffffffffff16908060020160009054906101000a900473ffffffffffffffffffffffffffffffffffffffff1690806003015490806004015490806005015490806006018054610ec990611e09565b80601f0160208091040260200160405190810160405280929190818152602001828054610ef590611e09565b8015610f425780601f10610f1757610100808354040283529160200191610f42565b820191906000526020600020905b815481529060010190602001808311610f2557829003601f168201915b5050505050905088565b806000600482604051610f5f9190611dc3565b90815260200160405180910390206000018054610f7b90611e09565b905014610fbd576040517f08c379a0000000000000000000000000000000000000000000000000000000008152600401610fb490612164565b60405180910390fd5b60006040518061010001604052808481526020016000151581526020018773ffffffffffffffffffffffffffffffffffffffff1681526020018873ffffffffffffffffffffffffffffffffffffffff16815260200186815260200142815260200160008152602001858152509050600260008873ffffffffffffffffffffffffffffffffffffffff1673ffffffffffffffffffffffffffffffffffffffff16815260200190815260200160002081908060018154018082558091505060019003906000526020600020906007020160009091909190915060008201518160000190816110a99190612326565b5060208201518160010160006101000a81548160ff02191690831515021790555060408201518160010160016101000a81548173ffffffffffffffffffffffffffffffffffffffff021916908373ffffffffffffffffffffffffffffffffffffffff16021790555060608201518160020160006101000a81548173ffffffffffffffffffffffffffffffffffffffff021916908373ffffffffffffffffffffffffffffffffffffffff1602179055506080820151816003015560a0820151816004015560c0820151816005015560e082015181600601908161118b9190612326565b5050508060048460405161119f9190611dc3565b908152602001604051809103902060008201518160000190816111c29190612326565b5060208201518160010160006101000a81548160ff02191690831515021790555060408201518160010160016101000a81548173ffffffffffffffffffffffffffffffffffffffff021916908373ffffffffffffffffffffffffffffffffffffffff16021790555060608201518160020160006101000a81548173ffffffffffffffffffffffffffffffffffffffff021916908373ffffffffffffffffffffffffffffffffffffffff1602179055506080820151816003015560a0820151816004015560c0820151816005015560e08201518160060190816112a49190612326565b50905050600560008873ffffffffffffffffffffffffffffffffffffffff1673ffffffffffffffffffffffffffffffffffffffff168152602001908152602001600020839080600181540180825580915050600190039060005260206000200160009091909190915090816113199190612326565b5084600360008973ffffffffffffffffffffffffffffffffffffffff1673ffffffffffffffffffffffffffffffffffffffff168152602001908152602001600020600082825461136991906123f8565b925050819055508673ffffffffffffffffffffffffffffffffffffffff163373ffffffffffffffffffffffffffffffffffffffff167fb810f68ef93d0b5c98b363f0d47a6e1f3e9af7ea538b02fc226ad84eb32f77a087866040516113cf9291906120b9565b60405180910390a350505050505050565b600160009054906101000a900473ffffffffffffffffffffffffffffffffffffffff1681565b60008054906101000a900473ffffffffffffffffffffffffffffffffffffffff1681565b60405180610100016040528060608152602001600015158152602001600073ffffffffffffffffffffffffffffffffffffffff168152602001600073ffffffffffffffffffffffffffffffffffffffff168152602001600081526020016000815260200160008152602001606081525090565b6000604051905090565b600080fd5b600080fd5b600080fd5b600080fd5b6000601f19601f8301169050919050565b7f4e487b7100000000000000000000000000000000000000000000000000000000600052604160045260246000fd5b611504826114bb565b810181811067ffffffffffffffff82111715611523576115226114cc565b5b80604052505050565b600061153661149d565b905061154282826114fb565b919050565b600067ffffffffffffffff821115611562576115616114cc565b5b61156b826114bb565b9050602081019050919050565b82818337600083830152505050565b600061159a61159584611547565b61152c565b9050828152602081018484840111156115b6576115b56114b6565b5b6115c1848285611578565b509392505050565b600082601f8301126115de576115dd6114b1565b5b81356115ee848260208601611587565b91505092915050565b6000819050919050565b61160a816115f7565b811461161557600080fd5b50565b60008135905061162781611601565b92915050565b600073ffffffffffffffffffffffffffffffffffffffff82169050919050565b60006116588261162d565b9050919050565b6116688161164d565b811461167357600080fd5b50565b6000813590506116858161165f565b92915050565b6000806000606084860312156116a4576116a36114a7565b5b600084013567ffffffffffffffff8111156116c2576116c16114ac565b5b6116ce868287016115c9565b93505060206116df86828701611618565b92505060406116f086828701611676565b9150509250925092565b6000602082840312156117105761170f6114a7565b5b600061171e84828501611676565b91505092915050565b600081519050919050565b600082825260208201905092915050565b6000819050602082019050919050565b600081519050919050565b600082825260208201905092915050565b60005b8381101561178d578082015181840152602081019050611772565b60008484015250505050565b60006117a482611753565b6117ae818561175e565b93506117be81856020860161176f565b6117c7816114bb565b840191505092915050565b60008115159050919050565b6117e7816117d2565b82525050565b6117f68161164d565b82525050565b611805816115f7565b82525050565b60006101008301600083015184820360008601526118298282611799565b915050602083015161183e60208601826117de565b50604083015161185160408601826117ed565b50606083015161186460608601826117ed565b50608083015161187760808601826117fc565b5060a083015161188a60a08601826117fc565b5060c083015161189d60c08601826117fc565b5060e083015184820360e08601526118b58282611799565b9150508091505092915050565b60006118ce838361180b565b905092915050565b6000602082019050919050565b60006118ee82611727565b6118f88185611732565b93508360208202850161190a85611743565b8060005b85811015611946578484038952815161192785826118c2565b9450611932836118d6565b925060208a0199505060018101905061190e565b50829750879550505050505092915050565b6000602082019050818103600083015261197281846118e3565b905092915050565b60008060408385031215611991576119906114a7565b5b600061199f85828601611676565b92505060206119b085828601611618565b9150509250929050565b600082825260208201905092915050565b60006119d682611753565b6119e081856119ba565b93506119f081856020860161176f565b6119f9816114bb565b840191505092915050565b611a0d816117d2565b82525050565b611a1c8161164d565b82525050565b611a2b816115f7565b82525050565b6000610100820190508181036000830152611a4c818b6119cb565b9050611a5b602083018a611a04565b611a686040830189611a13565b611a756060830188611a13565b611a826080830187611a22565b611a8f60a0830186611a22565b611a9c60c0830185611a22565b81810360e0830152611aae81846119cb565b90509998505050505050505050565b60006020820190508181036000830152611ad781846119cb565b905092915050565b6000602082019050611af46000830184611a22565b92915050565b600060208284031215611b1057611b0f6114a7565b5b600082013567ffffffffffffffff811115611b2e57611b2d6114ac565b5b611b3a848285016115c9565b91505092915050565b600080600080600060a08688031215611b5f57611b5e6114a7565b5b6000611b6d88828901611676565b9550506020611b7e88828901611676565b9450506040611b8f88828901611618565b935050606086013567ffffffffffffffff811115611bb057611baf6114ac565b5b611bbc888289016115c9565b925050608086013567ffffffffffffffff811115611bdd57611bdc6114ac565b5b611be9888289016115c9565b9150509295509295909350565b6000819050919050565b6000611c1b611c16611c118461162d565b611bf6565b61162d565b9050919050565b6000611c2d82611c00565b9050919050565b6000611c3f82611c22565b9050919050565b611c4f81611c34565b82525050565b6000602082019050611c6a6000830184611c46565b92915050565b6000602082019050611c856000830184611a13565b92915050565b6000606082019050611ca06000830186611a13565b611cad6020830185611a13565b611cba6040830184611a22565b949350505050565b611ccb816117d2565b8114611cd657600080fd5b50565b600081519050611ce881611cc2565b92915050565b600060208284031215611d0457611d036114a7565b5b6000611d1284828501611cd9565b91505092915050565b7f436f756c646e277420617070726f766520616c6c6f77616e6365000000000000600082015250565b6000611d51601a836119ba565b9150611d5c82611d1b565b602082019050919050565b60006020820190508181036000830152611d8081611d44565b9050919050565b600081905092915050565b6000611d9d82611753565b611da78185611d87565b9350611db781856020860161176f565b80840191505092915050565b6000611dcf8284611d92565b915081905092915050565b7f4e487b7100000000000000000000000000000000000000000000000000000000600052602260045260246000fd5b60006002820490506001821680611e2157607f821691505b602082108103611e3457611e33611dda565b5b50919050565b7f42696c6c206e6f7420666f756e64000000000000000000000000000000000000600082015250565b6000611e70600e836119ba565b9150611e7b82611e3a565b602082019050919050565b60006020820190508181036000830152611e9f81611e63565b9050919050565b7f42696c6c20616c72656164792070616964000000000000000000000000000000600082015250565b6000611edc6011836119ba565b9150611ee782611ea6565b602082019050919050565b60006020820190508181036000830152611f0b81611ecf565b9050919050565b7f496e636f7272656374207061796d656e7420616d6f756e740000000000000000600082015250565b6000611f486018836119ba565b9150611f5382611f12565b602082019050919050565b60006020820190508181036000830152611f7781611f3b565b9050919050565b7f4e6f74207468652062696c6c20726563697069656e7400000000000000000000600082015250565b6000611fb46016836119ba565b9150611fbf82611f7e565b602082019050919050565b60006020820190508181036000830152611fe381611fa7565b9050919050565b7f546f6b656e207472616e73666572206661696c65640000000000000000000000600082015250565b60006120206015836119ba565b915061202b82611fea565b602082019050919050565b6000602082019050818103600083015261204f81612013565b9050919050565b7f4e487b7100000000000000000000000000000000000000000000000000000000600052601160045260246000fd5b6000612090826115f7565b915061209b836115f7565b92508282039050818111156120b3576120b2612056565b5b92915050565b60006040820190506120ce6000830185611a22565b81810360208301526120e081846119cb565b90509392505050565b7f4e487b7100000000000000000000000000000000000000000000000000000000600052603260045260246000fd5b7f42696c6c20494420616c72656164792065786973747300000000000000000000600082015250565b600061214e6016836119ba565b915061215982612118565b602082019050919050565b6000602082019050818103600083015261217d81612141565b9050919050565b60008190508160005260206000209050919050565b60006020601f8301049050919050565b600082821b905092915050565b6000600883026121e67fffffffffffffffffffffffffffffffffffffffffffffffffffffffffffffffff826121a9565b6121f086836121a9565b95508019841693508086168417925050509392505050565b600061222361221e612219846115f7565b611bf6565b6115f7565b9050919050565b6000819050919050565b61223d83612208565b6122516122498261222a565b8484546121b6565b825550505050565b600090565b612266612259565b612271818484612234565b505050565b5b818110156122955761228a60008261225e565b600181019050612277565b5050565b601f8211156122da576122ab81612184565b6122b484612199565b810160208510156122c3578190505b6122d76122cf85612199565b830182612276565b50505b505050565b600082821c905092915050565b60006122fd600019846008026122df565b1980831691505092915050565b600061231683836122ec565b9150826002028217905092915050565b61232f82611753565b67ffffffffffffffff811115612348576123476114cc565b5b6123528254611e09565b61235d828285612299565b600060209050601f831160018114612390576000841561237e578287015190505b612388858261230a565b8655506123f0565b601f19841661239e86612184565b60005b828110156123c6578489015182556001820191506020850194506020810190506123a1565b868310156123e357848901516123df601f8916826122ec565b8355505b6001600288020188555050505b505050505050565b6000612403826115f7565b915061240e836115f7565b925082820190508082111561242657612425612056565b5b9291505056fea2646970667358221220847f2a82e82dd5328e326502090ee0e66bd0b686bee70e84b05f9989711da8db64736f6c634300081c0033",
  "linkReferences": {},
  "deployedLinkReferences": {}
}