{
  "_format": "hh-sol-artifact-1",
  "contractName": "SmartMeterCollection",
  "sourceName": "contracts/SmartMeterCollection.sol",
  "abi": [
    {
      "inputs": [
        {
          "internalType": "address",
          "name": "_master",
          "type": "address"
        }
      ],
      "stateMutability": "nonpayable",
      "type": "constructor"
    },
    {
      "anonymous": false,
      "inputs": [
        {
          "indexed": true,
          "internalType": "address",
          "name": "meter",
          "type": "address"
        },
        {
          "indexed": false,
          "internalType": "uint256",
          "name": "timestamp",
          "type": "uint256"
        },
        {
          "indexed": false,
          "internalType": "uint256",
          "name": "value",
          "type": "uint256"
        }
      ],
      "name": "DataRecorded",
      "type": "event"
    },
    {
      "anonymous": false,
      "inputs": [
        {
          "indexed": false,
          "internalType": "string",
          "name": "name",
          "type": "string"
        },
        {
          "indexed": false,
          "internalType": "string",
          "name": "ownerName",
          "type": "string"
        },
        {
          "indexed": true,
          "internalType": "address",
          "name": "smartMeterAddress",
          "type": "address"
        },
        {
          "indexed": false,
          "internalType": "string",
          "name": "smartMeterId",
          "type": "string"
        }
      ],
      "name": "MeterRegistered",
      "type": "event"
    },
    {
      "inputs": [
        {
          "internalType": "address",
          "name": "_tenant",
          "type": "address"
        },
        {
          "internalType": "string",
          "name": "_fullName",
          "type": "string"
        },
        {
          "internalType": "address",
          "name": "_smartMeterAddress",
          "type": "address"
        }
      ],
      "name": "addTenant",
      "outputs": [],
      "stateMutability": "nonpayable",
      "type": "function"
    },
    {
      "inputs": [
        {
          "internalType": "address",
          "name": "_meterAddress",
          "type": "address"
        }
      ],
      "name": "getMeterData",
      "outputs": [
        {
          "components": [
            {
              "internalType": "uint256",
              "name": "timestamp",
              "type": "uint256"
            },
            {
              "internalType": "uint256",
              "name": "value",
              "type": "uint256"
            },
            {
              "internalType": "string",
              "name": "unit",
              "type": "string"
            }
          ],
          "internalType": "struct SmartMeterCollection.Measurement[]",
          "name": "",
          "type": "tuple[]"
        }
      ],
      "stateMutability": "view",
      "type": "function"
    },
    {
      "inputs": [
        {
          "internalType": "address",
          "name": "_meterAddress",
          "type": "address"
        }
      ],
      "name": "getMeterInfo",
      "outputs": [
        {
          "components": [
            {
              "internalType": "string",
              "name": "name",
              "type": "string"
            },
            {
              "internalType": "string",
              "name": "ownerName",
              "type": "string"
            },
            {
              "internalType": "address",
              "name": "smartMeterAddress",
              "type": "address"
            },
            {
              "internalType": "string",
              "name": "smartMeterId",
              "type": "string"
            },
            {
              "internalType": "bool",
              "name": "isActive",
              "type": "bool"
            }
          ],
          "internalType": "struct SmartMeterCollection.SmartMeter",
          "name": "",
          "type": "tuple"
        }
      ],
      "stateMutability": "view",
      "type": "function"
    },
    {
      "inputs": [],
      "name": "masterOwner",
      "outputs": [
        {
          "internalType": "address",
          "name": "",
          "type": "address"
        }
      ],
      "stateMutability": "view",
      "type": "function"
    },
    {
      "inputs": [
        {
          "internalType": "address",
          "name": "",
          "type": "address"
        },
        {
          "internalType": "uint256",
          "name": "",
          "type": "uint256"
        }
      ],
      "name": "meterData",
      "outputs": [
        {
          "internalType": "uint256",
          "name": "timestamp",
          "type": "uint256"
        },
        {
          "internalType": "uint256",
          "name": "value",
          "type": "uint256"
        },
        {
          "internalType": "string",
          "name": "unit",
          "type": "string"
        }
      ],
      "stateMutability": "view",
      "type": "function"
    },
    {
      "inputs": [
        {
          "internalType": "uint256",
          "name": "_value",
          "type": "uint256"
        },
        {
          "internalType": "string",
          "name": "_unit",
          "type": "string"
        }
      ],
      "name": "recordData",
      "outputs": [],
      "stateMutability": "nonpayable",
      "type": "function"
    },
    {
      "inputs": [
        {
          "internalType": "string",
          "name": "_name",
          "type": "string"
        },
        {
          "internalType": "string",
          "name": "_ownerName",
          "type": "string"
        },
        {
          "internalType": "address",
          "name": "_smartMeterAddress",
          "type": "address"
        },
        {
          "internalType": "string",
          "name": "_smartMeterId",
          "type": "string"
        }
      ],
      "name": "registerSmartMeter",
      "outputs": [],
      "stateMutability": "nonpayable",
      "type": "function"
    },
    {
      "inputs": [
        {
          "internalType": "address",
          "name": "_tenant",
          "type": "address"
        }
      ],
      "name": "removeTenant",
      "outputs": [],
      "stateMutability": "nonpayable",
      "type": "function"
    },
    {
      "inputs": [
        {
          "internalType": "address",
          "name": "",
          "type": "address"
        }
      ],
      "name": "smartMeters",
      "outputs": [
        {
          "internalType": "string",
          "name": "name",
          "type": "string"
        },
        {
          "internalType": "string",
          "name": "ownerName",
          "type": "string"
        },
        {
          "internalType": "address",
          "name": "smartMeterAddress",
          "type": "address"
        },
        {
          "internalType": "string",
          "name": "smartMeterId",
          "type": "string"
        },
        {
          "internalType": "bool",
          "name": "isActive",
          "type": "bool"
        }
      ],
      "stateMutability": "view",
      "type": "function"
    },
    {
      "inputs": [
        {
          "internalType": "address",
          "name": "",
          "type": "address"
        }
      ],
      "name": "tenants",
      "outputs": [
        {
          "internalType": "string",
          "name": "fullName",
          "type": "string"
        },
        {
          "internalType": "address",
          "name": "assignedSmartMeter",
          "type": "address"
        }
      ],
      "stateMutability": "view",
      "type": "function"
    },
    {
      "inputs": [
        {
          "internalType": "address",
          "name": "",
          "type": "address"
        }
      ],
      "name": "whitelistedTenants",
      "outputs": [
        {
          "internalType": "bool",
          "name": "",
          "type": "bool"
        }
      ],
      "stateMutability": "view",
      "type": "function"
    }
  ],
  "bytecode": "0x60806040523480156200001157600080fd5b50604051620025aa380380620025aa83398181016040528101906200003791906200023f565b6200007e6040518060400160405280601781526020017f4372656174696e6720636f6c6c656374696f6e20666f7200000000000000000081525082620000c560201b60201c565b806000806101000a81548173ffffffffffffffffffffffffffffffffffffffff021916908373ffffffffffffffffffffffffffffffffffffffff160217905550506200037f565b620001678282604051602401620000de9291906200031c565b6040516020818303038152906040527f319af333000000000000000000000000000000000000000000000000000000007bffffffffffffffffffffffffffffffffffffffffffffffffffffffff19166020820180517bffffffffffffffffffffffffffffffffffffffffffffffffffffffff83818316178352505050506200016b60201b60201c565b5050565b62000191816200018c6200019460201b620012b517620001b560201b60201c565b60201c565b50565b60006a636f6e736f6c652e6c6f679050600080835160208501845afa505050565b620001c960201b6200143317819050919050565b620001d362000350565b565b600080fd5b600073ffffffffffffffffffffffffffffffffffffffff82169050919050565b60006200020782620001da565b9050919050565b6200021981620001fa565b81146200022557600080fd5b50565b60008151905062000239816200020e565b92915050565b600060208284031215620002585762000257620001d5565b5b6000620002688482850162000228565b91505092915050565b600081519050919050565b600082825260208201905092915050565b60005b83811015620002ad57808201518184015260208101905062000290565b60008484015250505050565b6000601f19601f8301169050919050565b6000620002d78262000271565b620002e381856200027c565b9350620002f58185602086016200028d565b6200030081620002b9565b840191505092915050565b6200031681620001fa565b82525050565b60006040820190508181036000830152620003388185620002ca565b90506200034960208301846200030b565b9392505050565b7f4e487b7100000000000000000000000000000000000000000000000000000000600052605160045260246000fd5b61221b806200038f6000396000f3fe608060405234801561001057600080fd5b50600436106100a95760003560e01c806333d808ce1161007157806333d808ce146101665780638aeea72814610196578063a5803945146101c8578063babd9692146101f8578063e7201d7d14610214578063fd9153a314610232576100a9565b80630d79f9c9146100ae57806310f6a343146100de57806324c759931461011257806326d6ec641461012e5780632d7100701461014a575b600080fd5b6100c860048036038101906100c39190611553565b610263565b6040516100d591906116be565b60405180910390f35b6100f860048036038101906100f39190611553565b6104e3565b604051610109959493929190611748565b60405180910390f35b61012c6004803603810190610127919061184b565b6106de565b005b610148600480360381019061014391906119db565b6109d4565b005b610164600480360381019061015f9190611553565b610b89565b005b610180600480360381019061017b9190611553565b610ceb565b60405161018d9190611b6b565b60405180910390f35b6101b060048036038101906101ab9190611b8d565b610e2f565b6040516101bf93929190611bdc565b60405180910390f35b6101e260048036038101906101dd9190611553565b610efe565b6040516101ef9190611c1a565b60405180910390f35b610212600480360381019061020d9190611c35565b610f1e565b005b61021c6111c5565b6040516102299190611cf0565b60405180910390f35b61024c60048036038101906102479190611553565b6111e9565b60405161025a929190611d0b565b60405180910390f35b61026b61143d565b600160008373ffffffffffffffffffffffffffffffffffffffff1673ffffffffffffffffffffffffffffffffffffffff1681526020019081526020016000206040518060a00160405290816000820180546102c590611d6a565b80601f01602080910402602001604051908101604052809291908181526020018280546102f190611d6a565b801561033e5780601f106103135761010080835404028352916020019161033e565b820191906000526020600020905b81548152906001019060200180831161032157829003601f168201915b5050505050815260200160018201805461035790611d6a565b80601f016020809104026020016040519081016040528092919081815260200182805461038390611d6a565b80156103d05780601f106103a5576101008083540402835291602001916103d0565b820191906000526020600020905b8154815290600101906020018083116103b357829003601f168201915b505050505081526020016002820160009054906101000a900473ffffffffffffffffffffffffffffffffffffffff1673ffffffffffffffffffffffffffffffffffffffff1673ffffffffffffffffffffffffffffffffffffffff16815260200160038201805461043f90611d6a565b80601f016020809104026020016040519081016040528092919081815260200182805461046b90611d6a565b80156104b85780601f1061048d576101008083540402835291602001916104b8565b820191906000526020600020905b81548152906001019060200180831161049b57829003601f168201915b505050505081526020016004820160009054906101000a900460ff1615151515815250509050919050565b600160205280600052604060002060009150905080600001805461050690611d6a565b80601f016020809104026020016040519081016040528092919081815260200182805461053290611d6a565b801561057f5780601f106105545761010080835404028352916020019161057f565b820191906000526020600020905b81548152906001019060200180831161056257829003601f168201915b50505050509080600101805461059490611d6a565b80601f01602080910402602001604051908101604052809291908181526020018280546105c090611d6a565b801561060d5780601f106105e25761010080835404028352916020019161060d565b820191906000526020600020905b8154815290600101906020018083116105f057829003601f168201915b5050505050908060020160009054906101000a900473ffffffffffffffffffffffffffffffffffffffff169080600301805461064890611d6a565b80601f016020809104026020016040519081016040528092919081815260200182805461067490611d6a565b80156106c15780601f10610696576101008083540402835291602001916106c1565b820191906000526020600020905b8154815290600101906020018083116106a457829003601f168201915b5050505050908060040160009054906101000a900460ff16905085565b61071d6040518060400160405280600881526020017f53656e6465723a20000000000000000000000000000000000000000000000000815250336112d6565b6107a86040518060400160405280600f81526020017f497357686974656c69737465643a200000000000000000000000000000000000815250600460003373ffffffffffffffffffffffffffffffffffffffff1673ffffffffffffffffffffffffffffffffffffffff16815260200190815260200160002060009054906101000a900460ff16611372565b600460003373ffffffffffffffffffffffffffffffffffffffff1673ffffffffffffffffffffffffffffffffffffffff16815260200190815260200160002060009054906101000a900460ff16801561084d5750600160003373ffffffffffffffffffffffffffffffffffffffff1673ffffffffffffffffffffffffffffffffffffffff16815260200190815260200160002060040160009054906101000a900460ff165b61088c576040517f08c379a000000000000000000000000000000000000000000000000000000000815260040161088390611de7565b60405180910390fd5b600360003373ffffffffffffffffffffffffffffffffffffffff1673ffffffffffffffffffffffffffffffffffffffff168152602001908152602001600020604051806060016040528042815260200185815260200184848080601f016020809104026020016040519081016040528093929190818152602001838380828437600081840152601f19601f8201169050808301925050505050505081525090806001815401808255809150506001900390600052602060002090600302016000909190919091506000820151816000015560208201518160010155604082015181600201908161097c9190611fb3565b5050503373ffffffffffffffffffffffffffffffffffffffff167f550066d608ea56e089cd4c6f3ccd9557109a2adf9eb1fc812763cbffe3a325d142856040516109c7929190612085565b60405180910390a2505050565b60008054906101000a900473ffffffffffffffffffffffffffffffffffffffff1673ffffffffffffffffffffffffffffffffffffffff163373ffffffffffffffffffffffffffffffffffffffff1614610a62576040517f08c379a0000000000000000000000000000000000000000000000000000000008152600401610a59906120fa565b60405180910390fd5b60405180604001604052808381526020018273ffffffffffffffffffffffffffffffffffffffff16815250600260008573ffffffffffffffffffffffffffffffffffffffff1673ffffffffffffffffffffffffffffffffffffffff1681526020019081526020016000206000820151816000019081610ae19190611fb3565b5060208201518160010160006101000a81548173ffffffffffffffffffffffffffffffffffffffff021916908373ffffffffffffffffffffffffffffffffffffffff1602179055509050506001600560008573ffffffffffffffffffffffffffffffffffffffff1673ffffffffffffffffffffffffffffffffffffffff16815260200190815260200160002060006101000a81548160ff021916908315150217905550505050565b60008054906101000a900473ffffffffffffffffffffffffffffffffffffffff1673ffffffffffffffffffffffffffffffffffffffff163373ffffffffffffffffffffffffffffffffffffffff1614610c17576040517f08c379a0000000000000000000000000000000000000000000000000000000008152600401610c0e906120fa565b60405180910390fd5b6000600460008373ffffffffffffffffffffffffffffffffffffffff1673ffffffffffffffffffffffffffffffffffffffff16815260200190815260200160002060006101000a81548160ff021916908315150217905550600260008273ffffffffffffffffffffffffffffffffffffffff1673ffffffffffffffffffffffffffffffffffffffff16815260200190815260200160002060008082016000610cbf9190611484565b6001820160006101000a81549073ffffffffffffffffffffffffffffffffffffffff0219169055505050565b6060600360008373ffffffffffffffffffffffffffffffffffffffff1673ffffffffffffffffffffffffffffffffffffffff168152602001908152602001600020805480602002602001604051908101604052809291908181526020016000905b82821015610e2457838290600052602060002090600302016040518060600160405290816000820154815260200160018201548152602001600282018054610d9390611d6a565b80601f0160208091040260200160405190810160405280929190818152602001828054610dbf90611d6a565b8015610e0c5780601f10610de157610100808354040283529160200191610e0c565b820191906000526020600020905b815481529060010190602001808311610def57829003601f168201915b50505050508152505081526020019060010190610d4c565b505050509050919050565b60036020528160005260406000208181548110610e4b57600080fd5b906000526020600020906003020160009150915050806000015490806001015490806002018054610e7b90611d6a565b80601f0160208091040260200160405190810160405280929190818152602001828054610ea790611d6a565b8015610ef45780601f10610ec957610100808354040283529160200191610ef4565b820191906000526020600020905b815481529060010190602001808311610ed757829003601f168201915b5050505050905083565b60056020528060005260406000206000915054906101000a900460ff1681565b60008054906101000a900473ffffffffffffffffffffffffffffffffffffffff1673ffffffffffffffffffffffffffffffffffffffff163373ffffffffffffffffffffffffffffffffffffffff1614610fac576040517f08c379a0000000000000000000000000000000000000000000000000000000008152600401610fa3906120fa565b60405180910390fd5b600160008373ffffffffffffffffffffffffffffffffffffffff1673ffffffffffffffffffffffffffffffffffffffff16815260200190815260200160002060040160009054906101000a900460ff161561103c576040517f08c379a000000000000000000000000000000000000000000000000000000000815260040161103390612166565b60405180910390fd5b6040518060a001604052808581526020018481526020018373ffffffffffffffffffffffffffffffffffffffff16815260200182815260200160011515815250600160008473ffffffffffffffffffffffffffffffffffffffff1673ffffffffffffffffffffffffffffffffffffffff16815260200190815260200160002060008201518160000190816110d09190611fb3565b5060208201518160010190816110e69190611fb3565b5060408201518160020160006101000a81548173ffffffffffffffffffffffffffffffffffffffff021916908373ffffffffffffffffffffffffffffffffffffffff16021790555060608201518160030190816111439190611fb3565b5060808201518160040160006101000a81548160ff0219169083151502179055509050506001600460008473ffffffffffffffffffffffffffffffffffffffff1673ffffffffffffffffffffffffffffffffffffffff16815260200190815260200160002060006101000a81548160ff02191690831515021790555050505050565b60008054906101000a900473ffffffffffffffffffffffffffffffffffffffff1681565b600260205280600052604060002060009150905080600001805461120c90611d6a565b80601f016020809104026020016040519081016040528092919081815260200182805461123890611d6a565b80156112855780601f1061125a57610100808354040283529160200191611285565b820191906000526020600020905b81548152906001019060200180831161126857829003601f168201915b5050505050908060010160009054906101000a900473ffffffffffffffffffffffffffffffffffffffff16905082565b60006a636f6e736f6c652e6c6f679050600080835160208501845afa505050565b61136e82826040516024016112ec929190611d0b565b6040516020818303038152906040527f319af333000000000000000000000000000000000000000000000000000000007bffffffffffffffffffffffffffffffffffffffffffffffffffffffff19166020820180517bffffffffffffffffffffffffffffffffffffffffffffffffffffffff838183161783525050505061140e565b5050565b61140a8282604051602401611388929190612186565b6040516020818303038152906040527fc3b55635000000000000000000000000000000000000000000000000000000007bffffffffffffffffffffffffffffffffffffffffffffffffffffffff19166020820180517bffffffffffffffffffffffffffffffffffffffffffffffffffffffff838183161783525050505061140e565b5050565b6114258161141d6112b5611428565b63ffffffff16565b50565b611433819050919050565b61143b6121b6565b565b6040518060a001604052806060815260200160608152602001600073ffffffffffffffffffffffffffffffffffffffff168152602001606081526020016000151581525090565b50805461149090611d6a565b6000825580601f106114a257506114c1565b601f0160209004906000526020600020908101906114c091906114c4565b5b50565b5b808211156114dd5760008160009055506001016114c5565b5090565b6000604051905090565b600080fd5b600080fd5b600073ffffffffffffffffffffffffffffffffffffffff82169050919050565b6000611520826114f5565b9050919050565b61153081611515565b811461153b57600080fd5b50565b60008135905061154d81611527565b92915050565b600060208284031215611569576115686114eb565b5b60006115778482850161153e565b91505092915050565b600081519050919050565b600082825260208201905092915050565b60005b838110156115ba57808201518184015260208101905061159f565b60008484015250505050565b6000601f19601f8301169050919050565b60006115e282611580565b6115ec818561158b565b93506115fc81856020860161159c565b611605816115c6565b840191505092915050565b61161981611515565b82525050565b60008115159050919050565b6116348161161f565b82525050565b600060a083016000830151848203600086015261165782826115d7565b9150506020830151848203602086015261167182826115d7565b91505060408301516116866040860182611610565b506060830151848203606086015261169e82826115d7565b91505060808301516116b3608086018261162b565b508091505092915050565b600060208201905081810360008301526116d8818461163a565b905092915050565b600082825260208201905092915050565b60006116fc82611580565b61170681856116e0565b935061171681856020860161159c565b61171f816115c6565b840191505092915050565b61173381611515565b82525050565b6117428161161f565b82525050565b600060a082019050818103600083015261176281886116f1565b9050818103602083015261177681876116f1565b9050611785604083018661172a565b818103606083015261179781856116f1565b90506117a66080830184611739565b9695505050505050565b6000819050919050565b6117c3816117b0565b81146117ce57600080fd5b50565b6000813590506117e0816117ba565b92915050565b600080fd5b600080fd5b600080fd5b60008083601f84011261180b5761180a6117e6565b5b8235905067ffffffffffffffff811115611828576118276117eb565b5b602083019150836001820283011115611844576118436117f0565b5b9250929050565b600080600060408486031215611864576118636114eb565b5b6000611872868287016117d1565b935050602084013567ffffffffffffffff811115611893576118926114f0565b5b61189f868287016117f5565b92509250509250925092565b600080fd5b7f4e487b7100000000000000000000000000000000000000000000000000000000600052604160045260246000fd5b6118e8826115c6565b810181811067ffffffffffffffff82111715611907576119066118b0565b5b80604052505050565b600061191a6114e1565b905061192682826118df565b919050565b600067ffffffffffffffff821115611946576119456118b0565b5b61194f826115c6565b9050602081019050919050565b82818337600083830152505050565b600061197e6119798461192b565b611910565b90508281526020810184848401111561199a576119996118ab565b5b6119a584828561195c565b509392505050565b600082601f8301126119c2576119c16117e6565b5b81356119d284826020860161196b565b91505092915050565b6000806000606084860312156119f4576119f36114eb565b5b6000611a028682870161153e565b935050602084013567ffffffffffffffff811115611a2357611a226114f0565b5b611a2f868287016119ad565b9250506040611a408682870161153e565b9150509250925092565b600081519050919050565b600082825260208201905092915050565b6000819050602082019050919050565b611a7f816117b0565b82525050565b6000606083016000830151611a9d6000860182611a76565b506020830151611ab06020860182611a76565b5060408301518482036040860152611ac882826115d7565b9150508091505092915050565b6000611ae18383611a85565b905092915050565b6000602082019050919050565b6000611b0182611a4a565b611b0b8185611a55565b935083602082028501611b1d85611a66565b8060005b85811015611b595784840389528151611b3a8582611ad5565b9450611b4583611ae9565b925060208a01995050600181019050611b21565b50829750879550505050505092915050565b60006020820190508181036000830152611b858184611af6565b905092915050565b60008060408385031215611ba457611ba36114eb565b5b6000611bb28582860161153e565b9250506020611bc3858286016117d1565b9150509250929050565b611bd6816117b0565b82525050565b6000606082019050611bf16000830186611bcd565b611bfe6020830185611bcd565b8181036040830152611c1081846116f1565b9050949350505050565b6000602082019050611c2f6000830184611739565b92915050565b60008060008060808587031215611c4f57611c4e6114eb565b5b600085013567ffffffffffffffff811115611c6d57611c6c6114f0565b5b611c79878288016119ad565b945050602085013567ffffffffffffffff811115611c9a57611c996114f0565b5b611ca6878288016119ad565b9350506040611cb78782880161153e565b925050606085013567ffffffffffffffff811115611cd857611cd76114f0565b5b611ce4878288016119ad565b91505092959194509250565b6000602082019050611d05600083018461172a565b92915050565b60006040820190508181036000830152611d2581856116f1565b9050611d34602083018461172a565b9392505050565b7f4e487b7100000000000000000000000000000000000000000000000000000000600052602260045260246000fd5b60006002820490506001821680611d8257607f821691505b602082108103611d9557611d94611d3b565b5b50919050565b7f4e6f7420612077686974656c697374656420616374697665206d657465720000600082015250565b6000611dd1601e836116e0565b9150611ddc82611d9b565b602082019050919050565b60006020820190508181036000830152611e0081611dc4565b9050919050565b60008190508160005260206000209050919050565b60006020601f8301049050919050565b600082821b905092915050565b600060088302611e697fffffffffffffffffffffffffffffffffffffffffffffffffffffffffffffffff82611e2c565b611e738683611e2c565b95508019841693508086168417925050509392505050565b6000819050919050565b6000611eb0611eab611ea6846117b0565b611e8b565b6117b0565b9050919050565b6000819050919050565b611eca83611e95565b611ede611ed682611eb7565b848454611e39565b825550505050565b600090565b611ef3611ee6565b611efe818484611ec1565b505050565b5b81811015611f2257611f17600082611eeb565b600181019050611f04565b5050565b601f821115611f6757611f3881611e07565b611f4184611e1c565b81016020851015611f50578190505b611f64611f5c85611e1c565b830182611f03565b50505b505050565b600082821c905092915050565b6000611f8a60001984600802611f6c565b1980831691505092915050565b6000611fa38383611f79565b9150826002028217905092915050565b611fbc82611580565b67ffffffffffffffff811115611fd557611fd46118b0565b5b611fdf8254611d6a565b611fea828285611f26565b600060209050601f83116001811461201d576000841561200b578287015190505b6120158582611f97565b86555061207d565b601f19841661202b86611e07565b60005b828110156120535784890151825560018201915060208501945060208101905061202e565b86831015612070578489015161206c601f891682611f79565b8355505b6001600288020188555050505b505050505050565b600060408201905061209a6000830185611bcd565b6120a76020830184611bcd565b9392505050565b7f4f6e6c79206d6173746572000000000000000000000000000000000000000000600082015250565b60006120e4600b836116e0565b91506120ef826120ae565b602082019050919050565b60006020820190508181036000830152612113816120d7565b9050919050565b7f4d6574657220616c726561647920657869737473000000000000000000000000600082015250565b60006121506014836116e0565b915061215b8261211a565b602082019050919050565b6000602082019050818103600083015261217f81612143565b9050919050565b600060408201905081810360008301526121a081856116f1565b90506121af6020830184611739565b9392505050565b7f4e487b7100000000000000000000000000000000000000000000000000000000600052605160045260246000fdfea264697066735822122046385588abe2c885cf46c3beb98fc41ced16528d7dd14c508a3159a4b772f44d64736f6c63430008130033",
  "linkReferences": {},
  "deployedLinkReferences": {}
}